{
  "_format": "hh-sol-artifact-1",
  "contractName": "ChainlinkOracle",
  "sourceName": "contracts/oracles/ChainlinkOracle.sol",
  "abi": [
    {
      "inputs": [],
      "stateMutability": "nonpayable",
      "type": "constructor"
    },
    {
      "inputs": [],
      "name": "ChainlinkOracle__AggregatorNotSet",
      "type": "error"
    },
    {
      "inputs": [],
      "name": "ChainlinkOracle__InvalidPrice",
      "type": "error"
    },
    {
      "inputs": [],
      "name": "ChainlinkOracle__PriceNotSet",
      "type": "error"
    },
    {
      "inputs": [],
      "name": "ChainlinkOracle__StalePrice",
      "type": "error"
    },
    {
      "inputs": [
        {
          "internalType": "address",
          "name": "owner",
          "type": "address"
        }
      ],
      "name": "OwnableInvalidOwner",
      "type": "error"
    },
    {
      "inputs": [
        {
          "internalType": "address",
          "name": "account",
          "type": "address"
        }
      ],
      "name": "OwnableUnauthorizedAccount",
      "type": "error"
    },
    {
      "anonymous": false,
      "inputs": [
        {
          "indexed": true,
          "internalType": "address",
          "name": "token",
          "type": "address"
        },
        {
          "indexed": true,
          "internalType": "address",
          "name": "aggregator",
          "type": "address"
        }
      ],
      "name": "AggregatorSet",
      "type": "event"
    },
    {
      "anonymous": false,
      "inputs": [
        {
          "indexed": true,
          "internalType": "address",
          "name": "previousOwner",
          "type": "address"
        },
        {
          "indexed": true,
          "internalType": "address",
          "name": "newOwner",
          "type": "address"
        }
      ],
      "name": "OwnershipTransferred",
      "type": "event"
    },
    {
      "anonymous": false,
      "inputs": [
        {
          "indexed": true,
          "internalType": "address",
          "name": "token",
          "type": "address"
        },
        {
          "indexed": false,
          "internalType": "uint256",
          "name": "price",
          "type": "uint256"
        },
        {
          "indexed": false,
          "internalType": "uint256",
          "name": "timestamp",
          "type": "uint256"
        }
      ],
      "name": "PriceUpdated",
      "type": "event"
    },
    {
      "inputs": [],
      "name": "PRICE_STALENESS_THRESHOLD",
      "outputs": [
        {
          "internalType": "uint256",
          "name": "",
          "type": "uint256"
        }
      ],
      "stateMutability": "view",
      "type": "function"
    },
    {
      "inputs": [
        {
          "internalType": "address",
          "name": "token",
          "type": "address"
        }
      ],
      "name": "getPrice",
      "outputs": [
        {
          "internalType": "uint256",
          "name": "price",
          "type": "uint256"
        },
        {
          "internalType": "uint256",
          "name": "timestamp",
          "type": "uint256"
        }
      ],
      "stateMutability": "view",
      "type": "function"
    },
    {
      "inputs": [],
      "name": "getPriceStalenessThreshold",
      "outputs": [
        {
          "internalType": "uint256",
          "name": "threshold",
          "type": "uint256"
        }
      ],
      "stateMutability": "pure",
      "type": "function"
    },
    {
      "inputs": [
        {
          "internalType": "address",
          "name": "token",
          "type": "address"
        }
      ],
      "name": "hasPrice",
      "outputs": [
        {
          "internalType": "bool",
          "name": "",
          "type": "bool"
        }
      ],
      "stateMutability": "view",
      "type": "function"
    },
    {
      "inputs": [],
      "name": "owner",
      "outputs": [
        {
          "internalType": "address",
          "name": "",
          "type": "address"
        }
      ],
      "stateMutability": "view",
      "type": "function"
    },
    {
      "inputs": [],
      "name": "renounceOwnership",
      "outputs": [],
      "stateMutability": "nonpayable",
      "type": "function"
    },
    {
      "inputs": [
        {
          "internalType": "address",
          "name": "token",
          "type": "address"
        },
        {
          "internalType": "address",
          "name": "aggregator",
          "type": "address"
        }
      ],
      "name": "setAggregator",
      "outputs": [],
      "stateMutability": "nonpayable",
      "type": "function"
    },
    {
      "inputs": [
        {
          "internalType": "address",
          "name": "",
          "type": "address"
        }
      ],
      "name": "tokenToAggregator",
      "outputs": [
        {
          "internalType": "address",
          "name": "",
          "type": "address"
        }
      ],
      "stateMutability": "view",
      "type": "function"
    },
    {
      "inputs": [
        {
          "internalType": "address",
          "name": "newOwner",
          "type": "address"
        }
      ],
      "name": "transferOwnership",
      "outputs": [],
      "stateMutability": "nonpayable",
      "type": "function"
    }
  ],
  "bytecode": "0x608060405234801561001057600080fd5b50338061003757604051631e4fbdf760e01b81526000600482015260240160405180910390fd5b61004081610046565b50610096565b600080546001600160a01b038381166001600160a01b0319831681178455604051919092169283917f8be0079c531659141344cd1fd0a4f28419497f9722a3daafe3b4186f6b6457e09190a35050565b61077f806100a56000396000f3fe608060405234801561001057600080fd5b50600436106100935760003560e01c8063a93fa05f11610066578063a93fa05f14610107578063c34f548a14610130578063c4164cd414610142578063f25b9caa14610165578063f2fde38b1461016e57600080fd5b806341976e0914610098578063715018a6146100c55780637394a7f6146100cf5780638da5cb5b146100e2575b600080fd5b6100ab6100a6366004610515565b610181565b604080519283526020830191909152015b60405180910390f35b6100cd61030d565b005b6100cd6100dd366004610537565b610321565b6000546001600160a01b03165b6040516001600160a01b0390911681526020016100bc565b6100ef610115366004610515565b6001602052600090815260409020546001600160a01b031681565b610e105b6040519081526020016100bc565b610155610150366004610515565b610380565b60405190151581526020016100bc565b610134610e1081565b6100cd61017c366004610515565b610439565b6001600160a01b038082166000908152600160205260408120549091829116806101be576040516370c33e4f60e01b815260040160405180910390fd5b600080826001600160a01b031663feaf968c6040518163ffffffff1660e01b815260040160a060405180830381865afa1580156101ff573d6000803e3d6000fd5b505050506040513d601f19601f820116820180604052508101906102239190610584565b509350509250506000821361024b576040516322365b1960e11b815260040160405180910390fd5b610e1061025882426105ea565b11156102775760405163537b1b5b60e01b815260040160405180910390fd5b6000836001600160a01b031663313ce5676040518163ffffffff1660e01b8152600401602060405180830381865afa1580156102b7573d6000803e3d6000fd5b505050506040513d601f19601f820116820180604052508101906102db9190610603565b905060006102ea826012610626565b6102f590600a610723565b6102ff9085610732565b989297509195505050505050565b61031561047c565b61031f60006104a9565b565b61032961047c565b6001600160a01b0382811660008181526001602052604080822080546001600160a01b0319169486169485179055517f84e1bba7d2e21dccf1934a4188807abc546c4632d794d2c097bfc4f599230cac9190a35050565b6001600160a01b03808216600090815260016020526040812054909116806103ab5750600092915050565b806001600160a01b031663feaf968c6040518163ffffffff1660e01b815260040160a060405180830381865afa925050508015610405575060408051601f3d908101601f1916820190925261040291810190610584565b60015b6104125750600092915050565b60008413801561042d5750610e1061042a83426105ea565b11155b98975050505050505050565b61044161047c565b6001600160a01b03811661047057604051631e4fbdf760e01b8152600060048201526024015b60405180910390fd5b610479816104a9565b50565b6000546001600160a01b0316331461031f5760405163118cdaa760e01b8152336004820152602401610467565b600080546001600160a01b038381166001600160a01b0319831681178455604051919092169283917f8be0079c531659141344cd1fd0a4f28419497f9722a3daafe3b4186f6b6457e09190a35050565b80356001600160a01b038116811461051057600080fd5b919050565b60006020828403121561052757600080fd5b610530826104f9565b9392505050565b6000806040838503121561054a57600080fd5b610553836104f9565b9150610561602084016104f9565b90509250929050565b805169ffffffffffffffffffff8116811461051057600080fd5b600080600080600060a0868803121561059c57600080fd5b6105a58661056a565b94506020860151935060408601519250606086015191506105c86080870161056a565b90509295509295909350565b634e487b7160e01b600052601160045260246000fd5b818103818111156105fd576105fd6105d4565b92915050565b60006020828403121561061557600080fd5b815160ff8116811461053057600080fd5b60ff82811682821603908111156105fd576105fd6105d4565b600181815b8085111561067a578160001904821115610660576106606105d4565b8085161561066d57918102915b93841c9390800290610644565b509250929050565b600082610691575060016105fd565b8161069e575060006105fd565b81600181146106b457600281146106be576106da565b60019150506105fd565b60ff8411156106cf576106cf6105d4565b50506001821b6105fd565b5060208310610133831016604e8410600b84101617156106fd575081810a6105fd565b610707838361063f565b806000190482111561071b5761071b6105d4565b029392505050565b600061053060ff841683610682565b80820281158282048414176105fd576105fd6105d456fea264697066735822122095a855d08a1cf8de5055e40a8fc3c13898d9d7c07266f8d195c40566028daaac64736f6c63430008140033",
  "linkReferences": {},
  "deployedLinkReferences": {}
}