{
  "_format": "hh-sol-artifact-1",
  "contractName": "SavingsVault",
  "sourceName": "contracts/SavingsVault.sol",
  "abi": [
    {
      "inputs": [
        {
          "internalType": "address",
          "name": "_gftToken",
          "type": "address"
        },
        {
          "internalType": "address",
          "name": "_protocolTreasury",
          "type": "address"
        }
      ],
      "stateMutability": "nonpayable",
      "type": "constructor"
    },
    {
      "inputs": [
        {
          "internalType": "address",
          "name": "target",
          "type": "address"
        }
      ],
      "name": "AddressEmptyCode",
      "type": "error"
    },
    {
      "inputs": [
        {
          "internalType": "address",
          "name": "account",
          "type": "address"
        }
      ],
      "name": "AddressInsufficientBalance",
      "type": "error"
    },
    {
      "inputs": [],
      "name": "EnforcedPause",
      "type": "error"
    },
    {
      "inputs": [],
      "name": "ExpectedPause",
      "type": "error"
    },
    {
      "inputs": [],
      "name": "FailedInnerCall",
      "type": "error"
    },
    {
      "inputs": [
        {
          "internalType": "address",
          "name": "owner",
          "type": "address"
        }
      ],
      "name": "OwnableInvalidOwner",
      "type": "error"
    },
    {
      "inputs": [
        {
          "internalType": "address",
          "name": "account",
          "type": "address"
        }
      ],
      "name": "OwnableUnauthorizedAccount",
      "type": "error"
    },
    {
      "inputs": [],
      "name": "ReentrancyGuardReentrantCall",
      "type": "error"
    },
    {
      "inputs": [
        {
          "internalType": "address",
          "name": "token",
          "type": "address"
        }
      ],
      "name": "SafeERC20FailedOperation",
      "type": "error"
    },
    {
      "inputs": [],
      "name": "SavingsVault__InsufficientAmount",
      "type": "error"
    },
    {
      "inputs": [],
      "name": "SavingsVault__InsufficientTreasuryBalance",
      "type": "error"
    },
    {
      "inputs": [],
      "name": "SavingsVault__InvalidLockPeriod",
      "type": "error"
    },
    {
      "inputs": [],
      "name": "SavingsVault__InvalidPenalty",
      "type": "error"
    },
    {
      "inputs": [],
      "name": "SavingsVault__LockPeriodNotExpired",
      "type": "error"
    },
    {
      "inputs": [],
      "name": "SavingsVault__PositionAlreadyWithdrawn",
      "type": "error"
    },
    {
      "inputs": [],
      "name": "SavingsVault__PositionNotFound",
      "type": "error"
    },
    {
      "inputs": [],
      "name": "SavingsVault__UnsupportedStablecoin",
      "type": "error"
    },
    {
      "inputs": [],
      "name": "SavingsVault__ZeroAddress",
      "type": "error"
    },
    {
      "anonymous": false,
      "inputs": [
        {
          "indexed": true,
          "internalType": "address",
          "name": "user",
          "type": "address"
        },
        {
          "indexed": true,
          "internalType": "uint256",
          "name": "positionId",
          "type": "uint256"
        },
        {
          "indexed": true,
          "internalType": "address",
          "name": "stablecoin",
          "type": "address"
        },
        {
          "indexed": false,
          "internalType": "uint256",
          "name": "amount",
          "type": "uint256"
        },
        {
          "indexed": false,
          "internalType": "enum SavingsVault.LockPeriod",
          "name": "lockPeriod",
          "type": "uint8"
        },
        {
          "indexed": false,
          "internalType": "uint256",
          "name": "lockEndTime",
          "type": "uint256"
        }
      ],
      "name": "Deposited",
      "type": "event"
    },
    {
      "anonymous": false,
      "inputs": [
        {
          "indexed": false,
          "internalType": "uint256",
          "name": "newPenalty",
          "type": "uint256"
        }
      ],
      "name": "EarlyWithdrawalPenaltyUpdated",
      "type": "event"
    },
    {
      "anonymous": false,
      "inputs": [
        {
          "indexed": false,
          "internalType": "uint256",
          "name": "quarterly",
          "type": "uint256"
        },
        {
          "indexed": false,
          "internalType": "uint256",
          "name": "semiAnnual",
          "type": "uint256"
        },
        {
          "indexed": false,
          "internalType": "uint256",
          "name": "annual",
          "type": "uint256"
        }
      ],
      "name": "GftRewardsUpdated",
      "type": "event"
    },
    {
      "anonymous": false,
      "inputs": [
        {
          "indexed": true,
          "internalType": "address",
          "name": "previousOwner",
          "type": "address"
        },
        {
          "indexed": true,
          "internalType": "address",
          "name": "newOwner",
          "type": "address"
        }
      ],
      "name": "OwnershipTransferred",
      "type": "event"
    },
    {
      "anonymous": false,
      "inputs": [
        {
          "indexed": false,
          "internalType": "address",
          "name": "account",
          "type": "address"
        }
      ],
      "name": "Paused",
      "type": "event"
    },
    {
      "anonymous": false,
      "inputs": [
        {
          "indexed": true,
          "internalType": "address",
          "name": "stablecoin",
          "type": "address"
        }
      ],
      "name": "StablecoinAdded",
      "type": "event"
    },
    {
      "anonymous": false,
      "inputs": [
        {
          "indexed": true,
          "internalType": "address",
          "name": "stablecoin",
          "type": "address"
        }
      ],
      "name": "StablecoinRemoved",
      "type": "event"
    },
    {
      "anonymous": false,
      "inputs": [
        {
          "indexed": false,
          "internalType": "address",
          "name": "account",
          "type": "address"
        }
      ],
      "name": "Unpaused",
      "type": "event"
    },
    {
      "anonymous": false,
      "inputs": [
        {
          "indexed": true,
          "internalType": "address",
          "name": "user",
          "type": "address"
        },
        {
          "indexed": true,
          "internalType": "uint256",
          "name": "positionId",
          "type": "uint256"
        },
        {
          "indexed": false,
          "internalType": "uint256",
          "name": "principal",
          "type": "uint256"
        },
        {
          "indexed": false,
          "internalType": "uint256",
          "name": "stablecoinInterest",
          "type": "uint256"
        },
        {
          "indexed": false,
          "internalType": "uint256",
          "name": "gftReward",
          "type": "uint256"
        },
        {
          "indexed": false,
          "internalType": "bool",
          "name": "isEarlyWithdrawal",
          "type": "bool"
        }
      ],
      "name": "Withdrawn",
      "type": "event"
    },
    {
      "inputs": [],
      "name": "ANNUAL_INTEREST_RATE",
      "outputs": [
        {
          "internalType": "uint256",
          "name": "",
          "type": "uint256"
        }
      ],
      "stateMutability": "view",
      "type": "function"
    },
    {
      "inputs": [],
      "name": "ANNUAL_PERIOD",
      "outputs": [
        {
          "internalType": "uint256",
          "name": "",
          "type": "uint256"
        }
      ],
      "stateMutability": "view",
      "type": "function"
    },
    {
      "inputs": [],
      "name": "BASIS_POINTS",
      "outputs": [
        {
          "internalType": "uint256",
          "name": "",
          "type": "uint256"
        }
      ],
      "stateMutability": "view",
      "type": "function"
    },
    {
      "inputs": [],
      "name": "QUARTERLY_PERIOD",
      "outputs": [
        {
          "internalType": "uint256",
          "name": "",
          "type": "uint256"
        }
      ],
      "stateMutability": "view",
      "type": "function"
    },
    {
      "inputs": [],
      "name": "SEMI_ANNUAL_PERIOD",
      "outputs": [
        {
          "internalType": "uint256",
          "name": "",
          "type": "uint256"
        }
      ],
      "stateMutability": "view",
      "type": "function"
    },
    {
      "inputs": [
        {
          "internalType": "address",
          "name": "stablecoin",
          "type": "address"
        }
      ],
      "name": "addStablecoin",
      "outputs": [],
      "stateMutability": "nonpayable",
      "type": "function"
    },
    {
      "inputs": [],
      "name": "annualGftReward",
      "outputs": [
        {
          "internalType": "uint256",
          "name": "",
          "type": "uint256"
        }
      ],
      "stateMutability": "view",
      "type": "function"
    },
    {
      "inputs": [
        {
          "internalType": "address",
          "name": "stablecoin",
          "type": "address"
        },
        {
          "internalType": "uint256",
          "name": "amount",
          "type": "uint256"
        },
        {
          "internalType": "enum SavingsVault.LockPeriod",
          "name": "lockPeriod",
          "type": "uint8"
        }
      ],
      "name": "deposit",
      "outputs": [],
      "stateMutability": "nonpayable",
      "type": "function"
    },
    {
      "inputs": [],
      "name": "earlyWithdrawalPenalty",
      "outputs": [
        {
          "internalType": "uint256",
          "name": "",
          "type": "uint256"
        }
      ],
      "stateMutability": "view",
      "type": "function"
    },
    {
      "inputs": [
        {
          "internalType": "address",
          "name": "user",
          "type": "address"
        },
        {
          "internalType": "uint256",
          "name": "positionIndex",
          "type": "uint256"
        }
      ],
      "name": "emergencyWithdraw",
      "outputs": [],
      "stateMutability": "nonpayable",
      "type": "function"
    },
    {
      "inputs": [],
      "name": "getProtocolStats",
      "outputs": [
        {
          "internalType": "uint256",
          "name": "users",
          "type": "uint256"
        },
        {
          "internalType": "uint256",
          "name": "positions",
          "type": "uint256"
        },
        {
          "internalType": "uint256",
          "name": "activePositions",
          "type": "uint256"
        }
      ],
      "stateMutability": "view",
      "type": "function"
    },
    {
      "inputs": [
        {
          "internalType": "address",
          "name": "stablecoin",
          "type": "address"
        }
      ],
      "name": "getTotalValueLocked",
      "outputs": [
        {
          "internalType": "uint256",
          "name": "tvl",
          "type": "uint256"
        }
      ],
      "stateMutability": "view",
      "type": "function"
    },
    {
      "inputs": [
        {
          "internalType": "address",
          "name": "user",
          "type": "address"
        }
      ],
      "name": "getUserActivePositionsCount",
      "outputs": [
        {
          "internalType": "uint256",
          "name": "count",
          "type": "uint256"
        }
      ],
      "stateMutability": "view",
      "type": "function"
    },
    {
      "inputs": [
        {
          "internalType": "address",
          "name": "user",
          "type": "address"
        }
      ],
      "name": "getUserPositions",
      "outputs": [
        {
          "components": [
            {
              "internalType": "uint256",
              "name": "positionId",
              "type": "uint256"
            },
            {
              "internalType": "address",
              "name": "stablecoin",
              "type": "address"
            },
            {
              "internalType": "uint256",
              "name": "principal",
              "type": "uint256"
            },
            {
              "internalType": "uint256",
              "name": "depositTime",
              "type": "uint256"
            },
            {
              "internalType": "uint256",
              "name": "lockEndTime",
              "type": "uint256"
            },
            {
              "internalType": "enum SavingsVault.LockPeriod",
              "name": "lockPeriod",
              "type": "uint8"
            },
            {
              "internalType": "bool",
              "name": "withdrawn",
              "type": "bool"
            },
            {
              "internalType": "uint256",
              "name": "stablecoinInterest",
              "type": "uint256"
            },
            {
              "internalType": "uint256",
              "name": "gftReward",
              "type": "uint256"
            }
          ],
          "internalType": "struct SavingsVault.SavingsPosition[]",
          "name": "positions",
          "type": "tuple[]"
        }
      ],
      "stateMutability": "view",
      "type": "function"
    },
    {
      "inputs": [],
      "name": "gftToken",
      "outputs": [
        {
          "internalType": "contract GMFOTToken",
          "name": "",
          "type": "address"
        }
      ],
      "stateMutability": "view",
      "type": "function"
    },
    {
      "inputs": [],
      "name": "minimumDeposit",
      "outputs": [
        {
          "internalType": "uint256",
          "name": "",
          "type": "uint256"
        }
      ],
      "stateMutability": "view",
      "type": "function"
    },
    {
      "inputs": [],
      "name": "owner",
      "outputs": [
        {
          "internalType": "address",
          "name": "",
          "type": "address"
        }
      ],
      "stateMutability": "view",
      "type": "function"
    },
    {
      "inputs": [],
      "name": "pause",
      "outputs": [],
      "stateMutability": "nonpayable",
      "type": "function"
    },
    {
      "inputs": [],
      "name": "paused",
      "outputs": [
        {
          "internalType": "bool",
          "name": "",
          "type": "bool"
        }
      ],
      "stateMutability": "view",
      "type": "function"
    },
    {
      "inputs": [],
      "name": "protocolTreasury",
      "outputs": [
        {
          "internalType": "address",
          "name": "",
          "type": "address"
        }
      ],
      "stateMutability": "view",
      "type": "function"
    },
    {
      "inputs": [],
      "name": "quarterlyGftReward",
      "outputs": [
        {
          "internalType": "uint256",
          "name": "",
          "type": "uint256"
        }
      ],
      "stateMutability": "view",
      "type": "function"
    },
    {
      "inputs": [
        {
          "internalType": "address",
          "name": "stablecoin",
          "type": "address"
        }
      ],
      "name": "removeStablecoin",
      "outputs": [],
      "stateMutability": "nonpayable",
      "type": "function"
    },
    {
      "inputs": [],
      "name": "renounceOwnership",
      "outputs": [],
      "stateMutability": "nonpayable",
      "type": "function"
    },
    {
      "inputs": [],
      "name": "semiAnnualGftReward",
      "outputs": [
        {
          "internalType": "uint256",
          "name": "",
          "type": "uint256"
        }
      ],
      "stateMutability": "view",
      "type": "function"
    },
    {
      "inputs": [
        {
          "internalType": "address",
          "name": "_treasury",
          "type": "address"
        }
      ],
      "name": "setProtocolTreasury",
      "outputs": [],
      "stateMutability": "nonpayable",
      "type": "function"
    },
    {
      "inputs": [
        {
          "internalType": "address",
          "name": "",
          "type": "address"
        }
      ],
      "name": "supportedStablecoins",
      "outputs": [
        {
          "internalType": "bool",
          "name": "",
          "type": "bool"
        }
      ],
      "stateMutability": "view",
      "type": "function"
    },
    {
      "inputs": [],
      "name": "totalPositions",
      "outputs": [
        {
          "internalType": "uint256",
          "name": "",
          "type": "uint256"
        }
      ],
      "stateMutability": "view",
      "type": "function"
    },
    {
      "inputs": [
        {
          "internalType": "address",
          "name": "",
          "type": "address"
        }
      ],
      "name": "totalSavings",
      "outputs": [
        {
          "internalType": "uint256",
          "name": "",
          "type": "uint256"
        }
      ],
      "stateMutability": "view",
      "type": "function"
    },
    {
      "inputs": [],
      "name": "totalUsers",
      "outputs": [
        {
          "internalType": "uint256",
          "name": "",
          "type": "uint256"
        }
      ],
      "stateMutability": "view",
      "type": "function"
    },
    {
      "inputs": [
        {
          "internalType": "address",
          "name": "newOwner",
          "type": "address"
        }
      ],
      "name": "transferOwnership",
      "outputs": [],
      "stateMutability": "nonpayable",
      "type": "function"
    },
    {
      "inputs": [],
      "name": "unpause",
      "outputs": [],
      "stateMutability": "nonpayable",
      "type": "function"
    },
    {
      "inputs": [
        {
          "internalType": "uint256",
          "name": "_penalty",
          "type": "uint256"
        }
      ],
      "name": "updateEarlyWithdrawalPenalty",
      "outputs": [],
      "stateMutability": "nonpayable",
      "type": "function"
    },
    {
      "inputs": [
        {
          "internalType": "uint256",
          "name": "_quarterly",
          "type": "uint256"
        },
        {
          "internalType": "uint256",
          "name": "_semiAnnual",
          "type": "uint256"
        },
        {
          "internalType": "uint256",
          "name": "_annual",
          "type": "uint256"
        }
      ],
      "name": "updateGftRewards",
      "outputs": [],
      "stateMutability": "nonpayable",
      "type": "function"
    },
    {
      "inputs": [
        {
          "internalType": "address",
          "name": "",
          "type": "address"
        },
        {
          "internalType": "uint256",
          "name": "",
          "type": "uint256"
        }
      ],
      "name": "userPositions",
      "outputs": [
        {
          "internalType": "uint256",
          "name": "positionId",
          "type": "uint256"
        },
        {
          "internalType": "address",
          "name": "stablecoin",
          "type": "address"
        },
        {
          "internalType": "uint256",
          "name": "principal",
          "type": "uint256"
        },
        {
          "internalType": "uint256",
          "name": "depositTime",
          "type": "uint256"
        },
        {
          "internalType": "uint256",
          "name": "lockEndTime",
          "type": "uint256"
        },
        {
          "internalType": "enum SavingsVault.LockPeriod",
          "name": "lockPeriod",
          "type": "uint8"
        },
        {
          "internalType": "bool",
          "name": "withdrawn",
          "type": "bool"
        },
        {
          "internalType": "uint256",
          "name": "stablecoinInterest",
          "type": "uint256"
        },
        {
          "internalType": "uint256",
          "name": "gftReward",
          "type": "uint256"
        }
      ],
      "stateMutability": "view",
      "type": "function"
    },
    {
      "inputs": [
        {
          "internalType": "uint256",
          "name": "positionIndex",
          "type": "uint256"
        }
      ],
      "name": "withdraw",
      "outputs": [],
      "stateMutability": "nonpayable",
      "type": "function"
    }
  ],
  "bytecode": "0x60a0604052683635c9adc5dea00000600355683635c9adc5dea00000600455683635c9adc5dea000006005556103e860065568056bc75e2d631000006007553480156200004b57600080fd5b5060405162001b7c38038062001b7c8339810160408190526200006e916200018d565b60016000819055805460ff191690553380620000a457604051631e4fbdf760e01b81526000600482015260240160405180910390fd5b620000af8162000116565b506001600160a01b0382161580620000ce57506001600160a01b038116155b15620000ed57604051630380179960e11b815260040160405180910390fd5b6001600160a01b03918216608052600280546001600160a01b03191691909216179055620001c5565b600180546001600160a01b03838116610100818102610100600160a81b031985161790945560405193909204169182907f8be0079c531659141344cd1fd0a4f28419497f9722a3daafe3b4186f6b6457e090600090a35050565b80516001600160a01b03811681146200018857600080fd5b919050565b60008060408385031215620001a157600080fd5b620001ac8362000170565b9150620001bc6020840162000170565b90509250929050565b608051611994620001e86000396000818161044501526108dd01526119946000f3fe608060405234801561001057600080fd5b50600436106102115760003560e01c80638456cb5911610125578063d1e85a74116100ad578063f0433fb31161007c578063f0433fb31461047a578063f19ed6be14610484578063f2fde38b14610497578063f90efc7d146104aa578063fda1fa5f146104bd57600080fd5b8063d1e85a7414610424578063e1f1c4a714610437578063e4b300f314610440578063e94453e71461046757600080fd5b8063ac084fe9116100f4578063ac084fe9146103dc578063b06c8b5e146103e5578063b6783393146103f0578063bf7d9119146103f8578063bff1f9e11461041b57600080fd5b80638456cb59146103a15780638da5cb5b146103a957806394cd7174146103bf57806395ccea67146103c957600080fd5b806356d3e041116101a857806369dae6c61161017757806369dae6c614610319578063715018a614610342578063771aceef1461034a5780637a69dad71461036d578063803db96d1461037657600080fd5b806356d3e041146102c85780635c975abb146102d15780635e1b4d99146102e8578063636bfbab1461031057600080fd5b80632a6bc2dd116101e45780632a6bc2dd1461027a5780632e1a7d4d1461029a5780633b947d2b146102ad5780633f4ba83a146102c057600080fd5b80630418945a146102165780630c5a61f81461022b5780632134ec271461023e578063291a3d9e14610271575b600080fd5b610229610224366004611621565b6104c6565b005b610229610239366004611621565b610541565b61025e61024c366004611621565b600a6020526000908152604090205481565b6040519081526020015b60405180910390f35b61025e60065481565b61028d610288366004611621565b610592565b6040516102689190611674565b6102296102a8366004611721565b6106a9565b6102296102bb366004611621565b6109a1565b6102296109f2565b61025e60055481565b60015460ff165b6040519015158152602001610268565b6102fb6102f636600461173a565b610a04565b60405161026899989796959493929190611764565b61025e60075481565b61025e610327366004611621565b6001600160a01b03166000908152600a602052604090205490565b610229610a7e565b600b54600c54600060408051938452602084019290925290820152606001610268565b61025e60045481565b600254610389906001600160a01b031681565b6040516001600160a01b039091168152602001610268565b610229610a90565b60015461010090046001600160a01b0316610389565b61025e62ed4e0081565b6102296103d736600461173a565b610aa0565b61025e60035481565b61025e6301e1338081565b61025e60c881565b6102d8610406366004611621565b60086020526000908152604090205460ff1681565b61025e600b5481565b610229610432366004611721565b610c11565b61025e61271081565b6103897f000000000000000000000000000000000000000000000000000000000000000081565b61025e610475366004611621565b610c77565b61025e6276a70081565b6102296104923660046117be565b610dd9565b6102296104a5366004611621565b61108f565b6102296104b8366004611802565b6110cf565b61025e600c5481565b6104ce61112c565b6001600160a01b0381166104f557604051630380179960e11b815260040160405180910390fd5b6001600160a01b038116600081815260086020526040808220805460ff19166001179055517f3db297c09c19972ba6a701ff373ab97e21ff1e4992e863c7abe44e9b2fed08479190a250565b61054961112c565b6001600160a01b03811661057057604051630380179960e11b815260040160405180910390fd5b600280546001600160a01b0319166001600160a01b0392909216919091179055565b6001600160a01b0381166000908152600960209081526040808320805482518185028101850190935280835260609492939192909184015b8282101561069e5760008481526020908190206040805161012081018252600886029092018054835260018101546001600160a01b031693830193909352600280840154918301919091526003830154606083015260048301546080830152600583015491929160a084019160ff9091169081111561064b5761064b61163c565b600281111561065c5761065c61163c565b81526020016005820160019054906101000a900460ff1615151515815260200160068201548152602001600782015481525050815260200190600101906105ca565b505050509050919050565b6106b161115f565b6106b9611189565b3360009081526009602052604090205481106106e8576040516313c7f3ad60e01b815260040160405180910390fd5b3360009081526009602052604081208054839081106107095761070961182e565b906000526020600020906008020190508060050160019054906101000a900460ff16156107495760405163aefbcea360e01b815260040160405180910390fd5b60048101546002820154429190911090600080831561079357600061271060065485610775919061185a565b61077f9190611871565b905061078b8185611893565b9350506107a0565b5050600683015460078401545b60058501805461ff001916610100179055600285015460018601546001600160a01b03166000908152600a6020526040812080549091906107e2908490611893565b90915550506001850154610800906001600160a01b031633856111ad565b81156108bb5760018501546002546040516370a0823160e01b81526001600160a01b039182166004820152849291909116906370a0823190602401602060405180830381865afa158015610858573d6000803e3d6000fd5b505050506040513d601f19601f8201168201806040525081019061087c91906118a6565b101561089b5760405163275308f360e11b815260040160405180910390fd5b60025460018601546108bb916001600160a01b039182169116338561120c565b8015610942576040516340c10f1960e01b8152336004820152602481018290527f00000000000000000000000000000000000000000000000000000000000000006001600160a01b0316906340c10f1990604401600060405180830381600087803b15801561092957600080fd5b505af115801561093d573d6000803e3d6000fd5b505050505b84546040805185815260208101859052908101839052851515606082015233907fa236f2dcd2b940fd86168787a5f820805cdbd85131f7192d9d9c418556876fca9060800160405180910390a3505050505061099e6001600055565b50565b6109a961112c565b6001600160a01b038116600081815260086020526040808220805460ff19169055517f3302a1b37f04242bb55603f5449e7ecd690a35eef08ba1353c48c20e2aae9cda9190a250565b6109fa61112c565b610a0261124b565b565b60096020528160005260406000208181548110610a2057600080fd5b6000918252602090912060089091020180546001820154600283015460038401546004850154600586015460068701546007909701549598506001600160a01b03909416965091949093919260ff8082169361010090920416919089565b610a8661112c565b610a02600061129d565b610a9861112c565b610a026112f7565b610aa861112c565b6001600160a01b0382166000908152600960205260409020548110610ae0576040516313c7f3ad60e01b815260040160405180910390fd5b6001600160a01b0382166000908152600960205260408120805483908110610b0a57610b0a61182e565b906000526020600020906008020190508060050160019054906101000a900460ff1615610b4a5760405163aefbcea360e01b815260040160405180910390fd5b60058101805461ff001916610100179055600281015460018201546001600160a01b03166000908152600a602052604081208054909190610b8c908490611893565b909155505060028101546001820154610bb2916001600160a01b039091169085906111ad565b805460028201546040805191825260006020830181905290820152600160608201526001600160a01b038516907fa236f2dcd2b940fd86168787a5f820805cdbd85131f7192d9d9c418556876fca9060800160405180910390a3505050565b610c1961112c565b611388811115610c3c576040516305076f3160e21b815260040160405180910390fd5b60068190556040518181527f653931a1f8b4e31039939d617fe0c066dc997f98127fd699e126a13766fa64d49060200160405180910390a150565b6001600160a01b038116600090815260096020908152604080832080548251818502810185019093528083528493849084015b82821015610d7e5760008481526020908190206040805161012081018252600886029092018054835260018101546001600160a01b031693830193909352600280840154918301919091526003830154606083015260048301546080830152600583015491929160a084019160ff90911690811115610d2b57610d2b61163c565b6002811115610d3c57610d3c61163c565b81526020016005820160019054906101000a900460ff161515151581526020016006820154815260200160078201548152505081526020019060010190610caa565b50505050905060005b8151811015610dd257818181518110610da257610da261182e565b602002602001015160c00151610dc05782610dbc816118bf565b9350505b80610dca816118bf565b915050610d87565b5050919050565b610de161115f565b610de9611189565b6001600160a01b03831660009081526008602052604090205460ff16610e22576040516379ba28dd60e11b815260040160405180910390fd5b600754821015610e4557604051637eb1fbb560e11b815260040160405180910390fd5b6000610e5082611332565b90506000610e5e82426118d8565b9050600080610e6d86866113bb565b915091506000600c6000815480929190610e86906118bf565b91905055905060006040518061012001604052808381526020018a6001600160a01b03168152602001898152602001428152602001868152602001886002811115610ed357610ed361163c565b81526000602080830182905260408084018990526060909301879052338252600990529081205491925003610f1857600b8054906000610f12836118bf565b91905055505b3360009081526009602090815260408083208054600180820183559185529383902085516008909502019384559184015183830180546001600160a01b0319166001600160a01b03909216919091179055830151600280840191909155606084015160038401556080840151600484015560a08401516005840180548695949293919260ff19909116918490811115610fb357610fb361163c565b021790555060c082015160058201805461ff001916610100921515830217905560e08301516006830155909101516007909101556001600160a01b0389166000908152600a6020526040812080548a929061100f9084906118d8565b9091555061102a90506001600160a01b038a1633308b61120c565b886001600160a01b031682336001600160a01b03167fe1d86d30be614e364ff8ba14159b172c74b3c52822176242ad2fc9844700f3548b8b8a604051611072939291906118eb565b60405180910390a450505050505061108a6001600055565b505050565b61109761112c565b6001600160a01b0381166110c657604051631e4fbdf760e01b8152600060048201526024015b60405180910390fd5b61099e8161129d565b6110d761112c565b60038390556004829055600581905560408051848152602081018490529081018290527f21e7ce0f0a2101c49fb1f2c42b4c3480563e088eaf76dc4a7a590ca2a5c8ed359060600160405180910390a1505050565b6001546001600160a01b03610100909104163314610a025760405163118cdaa760e01b81523360048201526024016110bd565b60026000540361118257604051633ee5aeb560e01b815260040160405180910390fd5b6002600055565b60015460ff1615610a025760405163d93c066560e01b815260040160405180910390fd5b6040516001600160a01b0383811660248301526044820183905261108a91859182169063a9059cbb906064015b604051602081830303815290604052915060e01b6020820180516001600160e01b038381831617835250505050611449565b6040516001600160a01b0384811660248301528381166044830152606482018390526112459186918216906323b872dd906084016111da565b50505050565b6112536114ac565b6001805460ff191690557f5db9ee0a495bf2e6ff9c91a7834c1ba4fdd244a5e8aa4e537bd38aeae4b073aa335b6040516001600160a01b03909116815260200160405180910390a1565b600180546001600160a01b03838116610100818102610100600160a81b031985161790945560405193909204169182907f8be0079c531659141344cd1fd0a4f28419497f9722a3daafe3b4186f6b6457e090600090a35050565b6112ff611189565b6001805460ff1916811790557f62e78cea01bee320cd4e420270b5ea74000d11b0c9f74754ebdbfc544b05a25833611280565b6000808260028111156113475761134761163c565b0361135657506276a700919050565b600182600281111561136a5761136a61163c565b03611379575062ed4e00919050565b600282600281111561138d5761138d61163c565b0361139d57506301e13380919050565b6040516317e9640d60e01b815260040160405180910390fd5b919050565b600080808360028111156113d1576113d161163c565b036113e3575050600354600090611442565b60018360028111156113f7576113f761163c565b03611409575050600454600090611442565b600283600281111561141d5761141d61163c565b036114425761271061143060c88661185a565b61143a9190611871565b915060055490505b9250929050565b600061145e6001600160a01b038416836114cf565b90508051600014158015611483575080806020019051810190611481919061190d565b155b1561108a57604051635274afe760e01b81526001600160a01b03841660048201526024016110bd565b60015460ff16610a0257604051638dfc202b60e01b815260040160405180910390fd5b60606114dd838360006114e6565b90505b92915050565b60608147101561150b5760405163cd78605960e01b81523060048201526024016110bd565b600080856001600160a01b03168486604051611527919061192f565b60006040518083038185875af1925050503d8060008114611564576040519150601f19603f3d011682016040523d82523d6000602084013e611569565b606091505b5091509150611579868383611585565b925050505b9392505050565b60608261159a57611595826115e1565b61157e565b81511580156115b157506001600160a01b0384163b155b156115da57604051639996b31560e01b81526001600160a01b03851660048201526024016110bd565b508061157e565b8051156115f15780518082602001fd5b604051630a12f52160e11b815260040160405180910390fd5b80356001600160a01b03811681146113b657600080fd5b60006020828403121561163357600080fd5b6114dd8261160a565b634e487b7160e01b600052602160045260246000fd5b6003811061167057634e487b7160e01b600052602160045260246000fd5b9052565b602080825282518282018190526000919060409081850190868401855b8281101561171457815180518552868101516001600160a01b0316878601528581015186860152606080820151908601526080808201519086015260a0808201516116de82880182611652565b505060c08181015115159086015260e0808201519086015261010090810151908501526101209093019290850190600101611691565b5091979650505050505050565b60006020828403121561173357600080fd5b5035919050565b6000806040838503121561174d57600080fd5b6117568361160a565b946020939093013593505050565b8981526001600160a01b0389166020820152604081018890526060810187905260808101869052610120810161179d60a0830187611652565b93151560c082015260e0810192909252610100909101529695505050505050565b6000806000606084860312156117d357600080fd5b6117dc8461160a565b9250602084013591506040840135600381106117f757600080fd5b809150509250925092565b60008060006060848603121561181757600080fd5b505081359360208301359350604090920135919050565b634e487b7160e01b600052603260045260246000fd5b634e487b7160e01b600052601160045260246000fd5b80820281158282048414176114e0576114e0611844565b60008261188e57634e487b7160e01b600052601260045260246000fd5b500490565b818103818111156114e0576114e0611844565b6000602082840312156118b857600080fd5b5051919050565b6000600182016118d1576118d1611844565b5060010190565b808201808211156114e0576114e0611844565b838152606081016118ff6020830185611652565b826040830152949350505050565b60006020828403121561191f57600080fd5b8151801515811461157e57600080fd5b6000825160005b818110156119505760208186018101518583015201611936565b50600092019182525091905056fea26469706673582212207592ad0e2de05104214c1538f5103e135c0276c780b8a936bd61412d66d9b10864736f6c63430008140033",
  "linkReferences": {},
  "deployedLinkReferences": {}
}