{
  "_format": "hh-sol-artifact-1",
  "contractName": "SavingsVault",
  "sourceName": "contracts/SavingsVault.sol",
  "abi": [
    {
      "inputs": [
        {
          "internalType": "address",
          "name": "_gftToken",
          "type": "address"
        }
      ],
      "stateMutability": "nonpayable",
      "type": "constructor"
    },
    {
      "inputs": [
        {
          "internalType": "address",
          "name": "target",
          "type": "address"
        }
      ],
      "name": "AddressEmptyCode",
      "type": "error"
    },
    {
      "inputs": [
        {
          "internalType": "address",
          "name": "account",
          "type": "address"
        }
      ],
      "name": "AddressInsufficientBalance",
      "type": "error"
    },
    {
      "inputs": [],
      "name": "EnforcedPause",
      "type": "error"
    },
    {
      "inputs": [],
      "name": "ExpectedPause",
      "type": "error"
    },
    {
      "inputs": [],
      "name": "FailedInnerCall",
      "type": "error"
    },
    {
      "inputs": [
        {
          "internalType": "address",
          "name": "owner",
          "type": "address"
        }
      ],
      "name": "OwnableInvalidOwner",
      "type": "error"
    },
    {
      "inputs": [
        {
          "internalType": "address",
          "name": "account",
          "type": "address"
        }
      ],
      "name": "OwnableUnauthorizedAccount",
      "type": "error"
    },
    {
      "inputs": [],
      "name": "ReentrancyGuardReentrantCall",
      "type": "error"
    },
    {
      "inputs": [
        {
          "internalType": "address",
          "name": "token",
          "type": "address"
        }
      ],
      "name": "SafeERC20FailedOperation",
      "type": "error"
    },
    {
      "inputs": [],
      "name": "SavingsVault__InsufficientAmount",
      "type": "error"
    },
    {
      "inputs": [],
      "name": "SavingsVault__InvalidLockPeriod",
      "type": "error"
    },
    {
      "inputs": [],
      "name": "SavingsVault__InvalidPenalty",
      "type": "error"
    },
    {
      "inputs": [],
      "name": "SavingsVault__PositionAlreadyWithdrawn",
      "type": "error"
    },
    {
      "inputs": [],
      "name": "SavingsVault__PositionNotFound",
      "type": "error"
    },
    {
      "inputs": [],
      "name": "SavingsVault__UnsupportedStablecoin",
      "type": "error"
    },
    {
      "inputs": [],
      "name": "SavingsVault__ZeroAddress",
      "type": "error"
    },
    {
      "anonymous": false,
      "inputs": [
        {
          "indexed": true,
          "internalType": "address",
          "name": "user",
          "type": "address"
        },
        {
          "indexed": true,
          "internalType": "uint256",
          "name": "positionId",
          "type": "uint256"
        },
        {
          "indexed": true,
          "internalType": "address",
          "name": "stablecoin",
          "type": "address"
        },
        {
          "indexed": false,
          "internalType": "uint256",
          "name": "amount",
          "type": "uint256"
        },
        {
          "indexed": false,
          "internalType": "enum SavingsVault.LockPeriod",
          "name": "lockPeriod",
          "type": "uint8"
        },
        {
          "indexed": false,
          "internalType": "uint256",
          "name": "lockEndTime",
          "type": "uint256"
        }
      ],
      "name": "Deposited",
      "type": "event"
    },
    {
      "anonymous": false,
      "inputs": [
        {
          "indexed": false,
          "internalType": "uint256",
          "name": "newPenalty",
          "type": "uint256"
        }
      ],
      "name": "EarlyWithdrawalPenaltyUpdated",
      "type": "event"
    },
    {
      "anonymous": false,
      "inputs": [
        {
          "indexed": false,
          "internalType": "uint256",
          "name": "quarterly",
          "type": "uint256"
        },
        {
          "indexed": false,
          "internalType": "uint256",
          "name": "semiAnnual",
          "type": "uint256"
        },
        {
          "indexed": false,
          "internalType": "uint256",
          "name": "annual",
          "type": "uint256"
        }
      ],
      "name": "GftRewardsUpdated",
      "type": "event"
    },
    {
      "anonymous": false,
      "inputs": [
        {
          "indexed": true,
          "internalType": "address",
          "name": "previousOwner",
          "type": "address"
        },
        {
          "indexed": true,
          "internalType": "address",
          "name": "newOwner",
          "type": "address"
        }
      ],
      "name": "OwnershipTransferred",
      "type": "event"
    },
    {
      "anonymous": false,
      "inputs": [
        {
          "indexed": false,
          "internalType": "address",
          "name": "account",
          "type": "address"
        }
      ],
      "name": "Paused",
      "type": "event"
    },
    {
      "anonymous": false,
      "inputs": [
        {
          "indexed": true,
          "internalType": "address",
          "name": "stablecoin",
          "type": "address"
        }
      ],
      "name": "StablecoinAdded",
      "type": "event"
    },
    {
      "anonymous": false,
      "inputs": [
        {
          "indexed": true,
          "internalType": "address",
          "name": "stablecoin",
          "type": "address"
        }
      ],
      "name": "StablecoinRemoved",
      "type": "event"
    },
    {
      "anonymous": false,
      "inputs": [
        {
          "indexed": false,
          "internalType": "address",
          "name": "account",
          "type": "address"
        }
      ],
      "name": "Unpaused",
      "type": "event"
    },
    {
      "anonymous": false,
      "inputs": [
        {
          "indexed": true,
          "internalType": "address",
          "name": "user",
          "type": "address"
        },
        {
          "indexed": true,
          "internalType": "uint256",
          "name": "positionId",
          "type": "uint256"
        },
        {
          "indexed": false,
          "internalType": "uint256",
          "name": "principal",
          "type": "uint256"
        },
        {
          "indexed": false,
          "internalType": "uint256",
          "name": "gftReward",
          "type": "uint256"
        },
        {
          "indexed": false,
          "internalType": "bool",
          "name": "isEarlyWithdrawal",
          "type": "bool"
        }
      ],
      "name": "Withdrawn",
      "type": "event"
    },
    {
      "inputs": [],
      "name": "ANNUAL_PERIOD",
      "outputs": [
        {
          "internalType": "uint256",
          "name": "",
          "type": "uint256"
        }
      ],
      "stateMutability": "view",
      "type": "function"
    },
    {
      "inputs": [],
      "name": "BASIS_POINTS",
      "outputs": [
        {
          "internalType": "uint256",
          "name": "",
          "type": "uint256"
        }
      ],
      "stateMutability": "view",
      "type": "function"
    },
    {
      "inputs": [],
      "name": "QUARTERLY_PERIOD",
      "outputs": [
        {
          "internalType": "uint256",
          "name": "",
          "type": "uint256"
        }
      ],
      "stateMutability": "view",
      "type": "function"
    },
    {
      "inputs": [],
      "name": "SEMI_ANNUAL_PERIOD",
      "outputs": [
        {
          "internalType": "uint256",
          "name": "",
          "type": "uint256"
        }
      ],
      "stateMutability": "view",
      "type": "function"
    },
    {
      "inputs": [
        {
          "internalType": "address",
          "name": "stablecoin",
          "type": "address"
        }
      ],
      "name": "addStablecoin",
      "outputs": [],
      "stateMutability": "nonpayable",
      "type": "function"
    },
    {
      "inputs": [],
      "name": "annualGftReward",
      "outputs": [
        {
          "internalType": "uint256",
          "name": "",
          "type": "uint256"
        }
      ],
      "stateMutability": "view",
      "type": "function"
    },
    {
      "inputs": [
        {
          "internalType": "address",
          "name": "stablecoin",
          "type": "address"
        },
        {
          "internalType": "uint256",
          "name": "amount",
          "type": "uint256"
        },
        {
          "internalType": "enum SavingsVault.LockPeriod",
          "name": "lockPeriod",
          "type": "uint8"
        }
      ],
      "name": "deposit",
      "outputs": [],
      "stateMutability": "nonpayable",
      "type": "function"
    },
    {
      "inputs": [],
      "name": "earlyWithdrawalPenalty",
      "outputs": [
        {
          "internalType": "uint256",
          "name": "",
          "type": "uint256"
        }
      ],
      "stateMutability": "view",
      "type": "function"
    },
    {
      "inputs": [
        {
          "internalType": "address",
          "name": "user",
          "type": "address"
        },
        {
          "internalType": "uint256",
          "name": "positionIndex",
          "type": "uint256"
        }
      ],
      "name": "emergencyWithdraw",
      "outputs": [],
      "stateMutability": "nonpayable",
      "type": "function"
    },
    {
      "inputs": [],
      "name": "getProtocolStats",
      "outputs": [
        {
          "internalType": "uint256",
          "name": "users",
          "type": "uint256"
        },
        {
          "internalType": "uint256",
          "name": "positions",
          "type": "uint256"
        },
        {
          "internalType": "uint256",
          "name": "activePositions",
          "type": "uint256"
        }
      ],
      "stateMutability": "view",
      "type": "function"
    },
    {
      "inputs": [
        {
          "internalType": "address",
          "name": "stablecoin",
          "type": "address"
        }
      ],
      "name": "getTotalValueLocked",
      "outputs": [
        {
          "internalType": "uint256",
          "name": "tvl",
          "type": "uint256"
        }
      ],
      "stateMutability": "view",
      "type": "function"
    },
    {
      "inputs": [
        {
          "internalType": "address",
          "name": "user",
          "type": "address"
        }
      ],
      "name": "getUserActivePositionsCount",
      "outputs": [
        {
          "internalType": "uint256",
          "name": "count",
          "type": "uint256"
        }
      ],
      "stateMutability": "view",
      "type": "function"
    },
    {
      "inputs": [
        {
          "internalType": "address",
          "name": "user",
          "type": "address"
        }
      ],
      "name": "getUserPositions",
      "outputs": [
        {
          "components": [
            {
              "internalType": "uint256",
              "name": "positionId",
              "type": "uint256"
            },
            {
              "internalType": "address",
              "name": "stablecoin",
              "type": "address"
            },
            {
              "internalType": "uint256",
              "name": "principal",
              "type": "uint256"
            },
            {
              "internalType": "uint256",
              "name": "depositTime",
              "type": "uint256"
            },
            {
              "internalType": "uint256",
              "name": "lockEndTime",
              "type": "uint256"
            },
            {
              "internalType": "enum SavingsVault.LockPeriod",
              "name": "lockPeriod",
              "type": "uint8"
            },
            {
              "internalType": "bool",
              "name": "withdrawn",
              "type": "bool"
            },
            {
              "internalType": "uint256",
              "name": "gftReward",
              "type": "uint256"
            }
          ],
          "internalType": "struct SavingsVault.SavingsPosition[]",
          "name": "positions",
          "type": "tuple[]"
        }
      ],
      "stateMutability": "view",
      "type": "function"
    },
    {
      "inputs": [],
      "name": "gftToken",
      "outputs": [
        {
          "internalType": "contract GMFOTToken",
          "name": "",
          "type": "address"
        }
      ],
      "stateMutability": "view",
      "type": "function"
    },
    {
      "inputs": [],
      "name": "minimumDeposit",
      "outputs": [
        {
          "internalType": "uint256",
          "name": "",
          "type": "uint256"
        }
      ],
      "stateMutability": "view",
      "type": "function"
    },
    {
      "inputs": [],
      "name": "owner",
      "outputs": [
        {
          "internalType": "address",
          "name": "",
          "type": "address"
        }
      ],
      "stateMutability": "view",
      "type": "function"
    },
    {
      "inputs": [],
      "name": "pause",
      "outputs": [],
      "stateMutability": "nonpayable",
      "type": "function"
    },
    {
      "inputs": [],
      "name": "paused",
      "outputs": [
        {
          "internalType": "bool",
          "name": "",
          "type": "bool"
        }
      ],
      "stateMutability": "view",
      "type": "function"
    },
    {
      "inputs": [],
      "name": "quarterlyGftReward",
      "outputs": [
        {
          "internalType": "uint256",
          "name": "",
          "type": "uint256"
        }
      ],
      "stateMutability": "view",
      "type": "function"
    },
    {
      "inputs": [
        {
          "internalType": "address",
          "name": "stablecoin",
          "type": "address"
        }
      ],
      "name": "removeStablecoin",
      "outputs": [],
      "stateMutability": "nonpayable",
      "type": "function"
    },
    {
      "inputs": [],
      "name": "renounceOwnership",
      "outputs": [],
      "stateMutability": "nonpayable",
      "type": "function"
    },
    {
      "inputs": [],
      "name": "semiAnnualGftReward",
      "outputs": [
        {
          "internalType": "uint256",
          "name": "",
          "type": "uint256"
        }
      ],
      "stateMutability": "view",
      "type": "function"
    },
    {
      "inputs": [
        {
          "internalType": "address",
          "name": "",
          "type": "address"
        }
      ],
      "name": "supportedStablecoins",
      "outputs": [
        {
          "internalType": "bool",
          "name": "",
          "type": "bool"
        }
      ],
      "stateMutability": "view",
      "type": "function"
    },
    {
      "inputs": [],
      "name": "totalPositions",
      "outputs": [
        {
          "internalType": "uint256",
          "name": "",
          "type": "uint256"
        }
      ],
      "stateMutability": "view",
      "type": "function"
    },
    {
      "inputs": [
        {
          "internalType": "address",
          "name": "",
          "type": "address"
        }
      ],
      "name": "totalSavings",
      "outputs": [
        {
          "internalType": "uint256",
          "name": "",
          "type": "uint256"
        }
      ],
      "stateMutability": "view",
      "type": "function"
    },
    {
      "inputs": [],
      "name": "totalUsers",
      "outputs": [
        {
          "internalType": "uint256",
          "name": "",
          "type": "uint256"
        }
      ],
      "stateMutability": "view",
      "type": "function"
    },
    {
      "inputs": [
        {
          "internalType": "address",
          "name": "newOwner",
          "type": "address"
        }
      ],
      "name": "transferOwnership",
      "outputs": [],
      "stateMutability": "nonpayable",
      "type": "function"
    },
    {
      "inputs": [],
      "name": "unpause",
      "outputs": [],
      "stateMutability": "nonpayable",
      "type": "function"
    },
    {
      "inputs": [
        {
          "internalType": "uint256",
          "name": "_penalty",
          "type": "uint256"
        }
      ],
      "name": "updateEarlyWithdrawalPenalty",
      "outputs": [],
      "stateMutability": "nonpayable",
      "type": "function"
    },
    {
      "inputs": [
        {
          "internalType": "uint256",
          "name": "_quarterly",
          "type": "uint256"
        },
        {
          "internalType": "uint256",
          "name": "_semiAnnual",
          "type": "uint256"
        },
        {
          "internalType": "uint256",
          "name": "_annual",
          "type": "uint256"
        }
      ],
      "name": "updateGftRewards",
      "outputs": [],
      "stateMutability": "nonpayable",
      "type": "function"
    },
    {
      "inputs": [
        {
          "internalType": "address",
          "name": "",
          "type": "address"
        },
        {
          "internalType": "uint256",
          "name": "",
          "type": "uint256"
        }
      ],
      "name": "userPositions",
      "outputs": [
        {
          "internalType": "uint256",
          "name": "positionId",
          "type": "uint256"
        },
        {
          "internalType": "address",
          "name": "stablecoin",
          "type": "address"
        },
        {
          "internalType": "uint256",
          "name": "principal",
          "type": "uint256"
        },
        {
          "internalType": "uint256",
          "name": "depositTime",
          "type": "uint256"
        },
        {
          "internalType": "uint256",
          "name": "lockEndTime",
          "type": "uint256"
        },
        {
          "internalType": "enum SavingsVault.LockPeriod",
          "name": "lockPeriod",
          "type": "uint8"
        },
        {
          "internalType": "bool",
          "name": "withdrawn",
          "type": "bool"
        },
        {
          "internalType": "uint256",
          "name": "gftReward",
          "type": "uint256"
        }
      ],
      "stateMutability": "view",
      "type": "function"
    },
    {
      "inputs": [
        {
          "internalType": "uint256",
          "name": "positionIndex",
          "type": "uint256"
        }
      ],
      "name": "withdraw",
      "outputs": [],
      "stateMutability": "nonpayable",
      "type": "function"
    }
  ],
  "bytecode": "0x60a060405268056bc75e2d63100000600255683635c9adc5dea0000060035569021e19e0c9bab2400000600455600360055568056bc75e2d631000006006553480156200004b57600080fd5b506040516200192e3803806200192e8339810160408190526200006e9162000144565b60016000819055805460ff191690553380620000a457604051631e4fbdf760e01b81526000600482015260240160405180910390fd5b620000af81620000ea565b506001600160a01b038116620000d857604051630380179960e11b815260040160405180910390fd5b6001600160a01b031660805262000176565b600180546001600160a01b03838116610100818102610100600160a81b031985161790945560405193909204169182907f8be0079c531659141344cd1fd0a4f28419497f9722a3daafe3b4186f6b6457e090600090a35050565b6000602082840312156200015757600080fd5b81516001600160a01b03811681146200016f57600080fd5b9392505050565b60805161179562000199600039600081816103f1015261076c01526117956000f3fe608060405234801561001057600080fd5b50600436106101f05760003560e01c80638da5cb5b1161010f578063e1f1c4a7116100a2578063f19ed6be11610071578063f19ed6be14610430578063f2fde38b14610443578063f90efc7d14610456578063fda1fa5f1461046957600080fd5b8063e1f1c4a7146103e3578063e4b300f3146103ec578063e94453e714610413578063f0433fb31461042657600080fd5b8063b06c8b5e116100de578063b06c8b5e14610399578063bf7d9119146103a4578063bff1f9e1146103c7578063d1e85a74146103d057600080fd5b80638da5cb5b1461034957806394cd71741461037357806395ccea671461037d578063ac084fe91461039057600080fd5b80635c975abb11610187578063715018a611610156578063715018a61461030d578063771aceef146103155780637a69dad7146103385780638456cb591461034157600080fd5b80635c975abb1461029d5780635e1b4d99146102b4578063636bfbab146102db57806369dae6c6146102e457600080fd5b80632e1a7d4d116101c35780632e1a7d4d146102665780633b947d2b146102795780633f4ba83a1461028c57806356d3e0411461029457600080fd5b80630418945a146101f55780632134ec271461020a578063291a3d9e1461023d5780632a6bc2dd14610246575b600080fd5b610208610203366004611451565b610472565b005b61022a610218366004611451565b60096020526000908152604090205481565b6040519081526020015b60405180910390f35b61022a60055481565b610259610254366004611451565b6104ed565b60405161023491906114a4565b610208610274366004611546565b6105fa565b610208610287366004611451565b610828565b610208610879565b61022a60045481565b60015460ff165b6040519015158152602001610234565b6102c76102c236600461155f565b61088b565b604051610234989796959493929190611589565b61022a60065481565b61022a6102f2366004611451565b6001600160a01b031660009081526009602052604090205490565b6102086108fc565b600a54600b54600060408051938452602084019290925290820152606001610234565b61022a60035481565b61020861090e565b60015461010090046001600160a01b03165b6040516001600160a01b039091168152602001610234565b61022a62ed4e0081565b61020861038b36600461155f565b61091e565b61022a60025481565b61022a6301e1338081565b6102a46103b2366004611451565b60076020526000908152604090205460ff1681565b61022a600a5481565b6102086103de366004611546565b610a88565b61022a61271081565b61035b7f000000000000000000000000000000000000000000000000000000000000000081565b61022a610421366004611451565b610aee565b61022a6276a70081565b61020861043e3660046115d8565b610c46565b610208610451366004611451565b610ee9565b61020861046436600461161c565b610f29565b61022a600b5481565b61047a610f86565b6001600160a01b0381166104a157604051630380179960e11b815260040160405180910390fd5b6001600160a01b038116600081815260076020526040808220805460ff19166001179055517f3db297c09c19972ba6a701ff373ab97e21ff1e4992e863c7abe44e9b2fed08479190a250565b6001600160a01b0381166000908152600860209081526040808320805482518185028101850190935280835260609492939192909184015b828210156105ef5760008481526020908190206040805161010081018252600786029092018054835260018101546001600160a01b031693830193909352600280840154918301919091526003830154606083015260048301546080830152600583015491929160a084019160ff909116908111156105a6576105a661146c565b60028111156105b7576105b761146c565b81526020016005820160019054906101000a900460ff1615151515815260200160068201548152505081526020019060010190610525565b505050509050919050565b610602610fb9565b61060a610fe3565b336000908152600860205260409020548110610639576040516313c7f3ad60e01b815260040160405180910390fd5b33600090815260086020526040812080548390811061065a5761065a611648565b906000526020600020906007020190508060050160019054906101000a900460ff161561069a5760405163aefbcea360e01b815260040160405180910390fd5b60048101546002820154429190911090600082156106e3576000612710600554846106c59190611674565b6106cf919061168b565b90506106db81846116ad565b9250506106ea565b5060068301545b60058401805461ff001916610100179055600284015460018501546001600160a01b03166000908152600960205260408120805490919061072c9084906116ad565b9091555050600184015461074a906001600160a01b03163384611007565b80156107d1576040516340c10f1960e01b8152336004820152602481018290527f00000000000000000000000000000000000000000000000000000000000000006001600160a01b0316906340c10f1990604401600060405180830381600087803b1580156107b857600080fd5b505af11580156107cc573d6000803e3d6000fd5b505050505b8354604080518481526020810184905285151581830152905133917f55845e77d150a6bb68cdbcd26c664b9cc5d8e36485c3c1685d0abafbe0c7fb62919081900360600190a3505050506108256001600055565b50565b610830610f86565b6001600160a01b038116600081815260076020526040808220805460ff19169055517f3302a1b37f04242bb55603f5449e7ecd690a35eef08ba1353c48c20e2aae9cda9190a250565b610881610f86565b610889611066565b565b600860205281600052604060002081815481106108a757600080fd5b600091825260209091206007909102018054600182015460028301546003840154600485015460058601546006909601549497506001600160a01b0390931695509093909260ff808316926101009004169088565b610904610f86565b61088960006110b8565b610916610f86565b610889611112565b610926610f86565b6001600160a01b038216600090815260086020526040902054811061095e576040516313c7f3ad60e01b815260040160405180910390fd5b6001600160a01b038216600090815260086020526040812080548390811061098857610988611648565b906000526020600020906007020190508060050160019054906101000a900460ff16156109c85760405163aefbcea360e01b815260040160405180910390fd5b60058101805461ff001916610100179055600281015460018201546001600160a01b031660009081526009602052604081208054909190610a0a9084906116ad565b909155505060028101546001820154610a30916001600160a01b03909116908590611007565b8054600282015460408051918252600060208301526001908201526001600160a01b038516907f55845e77d150a6bb68cdbcd26c664b9cc5d8e36485c3c1685d0abafbe0c7fb629060600160405180910390a3505050565b610a90610f86565b611388811115610ab3576040516305076f3160e21b815260040160405180910390fd5b60058190556040518181527f653931a1f8b4e31039939d617fe0c066dc997f98127fd699e126a13766fa64d49060200160405180910390a150565b6001600160a01b038116600090815260086020908152604080832080548251818502810185019093528083528493849084015b82821015610beb5760008481526020908190206040805161010081018252600786029092018054835260018101546001600160a01b031693830193909352600280840154918301919091526003830154606083015260048301546080830152600583015491929160a084019160ff90911690811115610ba257610ba261146c565b6002811115610bb357610bb361146c565b81526020016005820160019054906101000a900460ff1615151515815260200160068201548152505081526020019060010190610b21565b50505050905060005b8151811015610c3f57818181518110610c0f57610c0f611648565b602002602001015160c00151610c2d5782610c29816116c0565b9350505b80610c37816116c0565b915050610bf4565b5050919050565b610c4e610fb9565b610c56610fe3565b6001600160a01b03831660009081526007602052604090205460ff16610c8f576040516379ba28dd60e11b815260040160405180910390fd5b600654821015610cb257604051637eb1fbb560e11b815260040160405180910390fd5b6000610cbd8261114d565b90506000610ccb82426116d9565b90506000610cd8846111d6565b600b80549192506000919082610ced836116c0565b9190505590506000604051806101000160405280838152602001896001600160a01b03168152602001888152602001428152602001858152602001876002811115610d3a57610d3a61146c565b8152600060208083018290526040928301879052338252600890529081205491925003610d7757600a8054906000610d71836116c0565b91905055505b3360009081526008602090815260408083208054600180820183559185529383902085516007909502019384559184015183830180546001600160a01b0319166001600160a01b03909216919091179055830151600280840191909155606084015160038401556080840151600484015560a08401516005840180548695949293919260ff19909116918490811115610e1257610e1261146c565b021790555060c08201516005820180549115156101000261ff001990921691909117905560e0909101516006909101556001600160a01b03881660009081526009602052604081208054899290610e6a9084906116d9565b90915550610e8590506001600160a01b03891633308a61123a565b876001600160a01b031682336001600160a01b03167fe1d86d30be614e364ff8ba14159b172c74b3c52822176242ad2fc9844700f3548a8a89604051610ecd939291906116ec565b60405180910390a45050505050610ee46001600055565b505050565b610ef1610f86565b6001600160a01b038116610f2057604051631e4fbdf760e01b8152600060048201526024015b60405180910390fd5b610825816110b8565b610f31610f86565b60028390556003829055600481905560408051848152602081018490529081018290527f21e7ce0f0a2101c49fb1f2c42b4c3480563e088eaf76dc4a7a590ca2a5c8ed359060600160405180910390a1505050565b6001546001600160a01b036101009091041633146108895760405163118cdaa760e01b8152336004820152602401610f17565b600260005403610fdc57604051633ee5aeb560e01b815260040160405180910390fd5b6002600055565b60015460ff16156108895760405163d93c066560e01b815260040160405180910390fd5b6040516001600160a01b03838116602483015260448201839052610ee491859182169063a9059cbb906064015b604051602081830303815290604052915060e01b6020820180516001600160e01b038381831617835250505050611279565b61106e6112dc565b6001805460ff191690557f5db9ee0a495bf2e6ff9c91a7834c1ba4fdd244a5e8aa4e537bd38aeae4b073aa335b6040516001600160a01b03909116815260200160405180910390a1565b600180546001600160a01b03838116610100818102610100600160a81b031985161790945560405193909204169182907f8be0079c531659141344cd1fd0a4f28419497f9722a3daafe3b4186f6b6457e090600090a35050565b61111a610fe3565b6001805460ff1916811790557f62e78cea01bee320cd4e420270b5ea74000d11b0c9f74754ebdbfc544b05a2583361109b565b6000808260028111156111625761116261146c565b0361117157506276a700919050565b60018260028111156111855761118561146c565b03611194575062ed4e00919050565b60028260028111156111a8576111a861146c565b036111b857506301e13380919050565b6040516317e9640d60e01b815260040160405180910390fd5b919050565b6000808260028111156111eb576111eb61146c565b036111f857505060025490565b600182600281111561120c5761120c61146c565b0361121957505060035490565b600282600281111561122d5761122d61146c565b036111d157505060045490565b6040516001600160a01b0384811660248301528381166044830152606482018390526112739186918216906323b872dd90608401611034565b50505050565b600061128e6001600160a01b038416836112ff565b905080516000141580156112b35750808060200190518101906112b1919061170e565b155b15610ee457604051635274afe760e01b81526001600160a01b0384166004820152602401610f17565b60015460ff1661088957604051638dfc202b60e01b815260040160405180910390fd5b606061130d83836000611316565b90505b92915050565b60608147101561133b5760405163cd78605960e01b8152306004820152602401610f17565b600080856001600160a01b031684866040516113579190611730565b60006040518083038185875af1925050503d8060008114611394576040519150601f19603f3d011682016040523d82523d6000602084013e611399565b606091505b50915091506113a98683836113b5565b925050505b9392505050565b6060826113ca576113c582611411565b6113ae565b81511580156113e157506001600160a01b0384163b155b1561140a57604051639996b31560e01b81526001600160a01b0385166004820152602401610f17565b50806113ae565b8051156114215780518082602001fd5b604051630a12f52160e11b815260040160405180910390fd5b80356001600160a01b03811681146111d157600080fd5b60006020828403121561146357600080fd5b61130d8261143a565b634e487b7160e01b600052602160045260246000fd5b600381106114a057634e487b7160e01b600052602160045260246000fd5b9052565b602080825282518282018190526000919060409081850190868401855b8281101561153957815180518552868101516001600160a01b0316878601528581015186860152606080820151908601526080808201519086015260a08082015161150e82880182611482565b505060c08181015115159086015260e0908101519085015261010090930192908501906001016114c1565b5091979650505050505050565b60006020828403121561155857600080fd5b5035919050565b6000806040838503121561157257600080fd5b61157b8361143a565b946020939093013593505050565b8881526001600160a01b038816602082015260408101879052606081018690526080810185905261010081016115c260a0830186611482565b92151560c082015260e001529695505050505050565b6000806000606084860312156115ed57600080fd5b6115f68461143a565b92506020840135915060408401356003811061161157600080fd5b809150509250925092565b60008060006060848603121561163157600080fd5b505081359360208301359350604090920135919050565b634e487b7160e01b600052603260045260246000fd5b634e487b7160e01b600052601160045260246000fd5b80820281158282048414176113105761131061165e565b6000826116a857634e487b7160e01b600052601260045260246000fd5b500490565b818103818111156113105761131061165e565b6000600182016116d2576116d261165e565b5060010190565b808201808211156113105761131061165e565b838152606081016117006020830185611482565b826040830152949350505050565b60006020828403121561172057600080fd5b815180151581146113ae57600080fd5b6000825160005b818110156117515760208186018101518583015201611737565b50600092019182525091905056fea26469706673582212206262617c20a49270b4ad4a3d672c1172a0549d8f90702d32668262151155644964736f6c63430008140033",
  "linkReferences": {},
  "deployedLinkReferences": {}
}