{"contracts/VaultManager.sol":{"VaultManager":{"abi":[{"inputs":[{"internalType":"address","name":"_priceOracle","type":"address"}],"stateMutability":"nonpayable","type":"constructor"},{"inputs":[{"internalType":"address","name":"target","type":"address"}],"name":"AddressEmptyCode","type":"error"},{"inputs":[{"internalType":"address","name":"account","type":"address"}],"name":"AddressInsufficientBalance","type":"error"},{"inputs":[],"name":"FailedInnerCall","type":"error"},{"inputs":[],"name":"ReentrancyGuardReentrantCall","type":"error"},{"inputs":[{"internalType":"address","name":"token","type":"address"}],"name":"SafeERC20FailedOperation","type":"error"},{"inputs":[],"name":"VaultManager__ExceedsBorrowLimit","type":"error"},{"inputs":[],"name":"VaultManager__HealthFactorTooLow","type":"error"},{"inputs":[],"name":"VaultManager__InsufficientCollateral","type":"error"},{"inputs":[],"name":"VaultManager__InsufficientDebt","type":"error"},{"inputs":[],"name":"VaultManager__NoDebt","type":"error"},{"inputs":[],"name":"VaultManager__OnlyOwner","type":"error"},{"inputs":[],"name":"VaultManager__PositionHealthy","type":"error"},{"inputs":[],"name":"VaultManager__TokenNotAccepted","type":"error"},{"inputs":[],"name":"VaultManager__TransferFailed","type":"error"},{"inputs":[],"name":"VaultManager__ZeroAddress","type":"error"},{"inputs":[],"name":"VaultManager__ZeroAmount","type":"error"},{"anonymous":false,"inputs":[{"indexed":true,"internalType":"address","name":"user","type":"address"},{"indexed":true,"internalType":"address","name":"collateralToken","type":"address"},{"indexed":true,"internalType":"address","name":"borrowToken","type":"address"},{"indexed":false,"internalType":"uint256","name":"amount","type":"uint256"}],"name":"Borrowed","type":"event"},{"anonymous":false,"inputs":[{"indexed":true,"internalType":"address","name":"user","type":"address"},{"indexed":true,"internalType":"address","name":"token","type":"address"},{"indexed":false,"internalType":"uint256","name":"amount","type":"uint256"}],"name":"CollateralDeposited","type":"event"},{"anonymous":false,"inputs":[{"indexed":true,"internalType":"address","name":"user","type":"address"},{"indexed":true,"internalType":"address","name":"token","type":"address"},{"indexed":false,"internalType":"uint256","name":"amount","type":"uint256"}],"name":"CollateralWithdrawn","type":"event"},{"anonymous":false,"inputs":[{"indexed":true,"internalType":"address","name":"user","type":"address"},{"indexed":true,"internalType":"address","name":"collateralToken","type":"address"},{"indexed":true,"internalType":"address","name":"debtToken","type":"address"},{"indexed":false,"internalType":"uint256","name":"collateralSeized","type":"uint256"},{"indexed":false,"internalType":"uint256","name":"liquidatorReward","type":"uint256"}],"name":"Liquidated","type":"event"},{"anonymous":false,"inputs":[{"indexed":true,"internalType":"address","name":"user","type":"address"},{"indexed":true,"internalType":"address","name":"token","type":"address"},{"indexed":false,"internalType":"uint256","name":"amount","type":"uint256"}],"name":"Repaid","type":"event"},{"inputs":[],"name":"BASIS_POINTS","outputs":[{"internalType":"uint256","name":"","type":"uint256"}],"stateMutability":"view","type":"function"},{"inputs":[],"name":"INTEREST_RATE","outputs":[{"internalType":"uint256","name":"","type":"uint256"}],"stateMutability":"view","type":"function"},{"inputs":[],"name":"LIQUIDATION_PENALTY","outputs":[{"internalType":"uint256","name":"","type":"uint256"}],"stateMutability":"view","type":"function"},{"inputs":[],"name":"LIQUIDATION_THRESHOLD","outputs":[{"internalType":"uint256","name":"","type":"uint256"}],"stateMutability":"view","type":"function"},{"inputs":[],"name":"LTV_RATIO","outputs":[{"internalType":"uint256","name":"","type":"uint256"}],"stateMutability":"view","type":"function"},{"inputs":[{"internalType":"address","name":"","type":"address"}],"name":"acceptedCollateral","outputs":[{"internalType":"bool","name":"","type":"bool"}],"stateMutability":"view","type":"function"},{"inputs":[{"internalType":"address","name":"token","type":"address"}],"name":"addCollateral","outputs":[],"stateMutability":"nonpayable","type":"function"},{"inputs":[{"internalType":"address","name":"collateralToken","type":"address"},{"internalType":"address","name":"borrowToken","type":"address"},{"internalType":"uint256","name":"amount","type":"uint256"}],"name":"borrow","outputs":[],"stateMutability":"nonpayable","type":"function"},{"inputs":[{"internalType":"address","name":"","type":"address"},{"internalType":"address","name":"","type":"address"}],"name":"collateral","outputs":[{"internalType":"uint256","name":"","type":"uint256"}],"stateMutability":"view","type":"function"},{"inputs":[{"internalType":"address","name":"","type":"address"},{"internalType":"address","name":"","type":"address"}],"name":"debt","outputs":[{"internalType":"uint256","name":"","type":"uint256"}],"stateMutability":"view","type":"function"},{"inputs":[{"internalType":"address","name":"token","type":"address"},{"internalType":"uint256","name":"amount","type":"uint256"}],"name":"deposit","outputs":[],"stateMutability":"nonpayable","type":"function"},{"inputs":[{"internalType":"address","name":"user","type":"address"},{"internalType":"address","name":"token","type":"address"}],"name":"getCollateralValue","outputs":[{"internalType":"uint256","name":"","type":"uint256"}],"stateMutability":"view","type":"function"},{"inputs":[{"internalType":"address","name":"user","type":"address"},{"internalType":"address","name":"collateralToken","type":"address"},{"internalType":"address","name":"debtToken","type":"address"}],"name":"getHealthFactor","outputs":[{"internalType":"uint256","name":"","type":"uint256"}],"stateMutability":"view","type":"function"},{"inputs":[{"internalType":"address","name":"","type":"address"}],"name":"lastInterestUpdate","outputs":[{"internalType":"uint256","name":"","type":"uint256"}],"stateMutability":"view","type":"function"},{"inputs":[{"internalType":"address","name":"user","type":"address"},{"internalType":"address","name":"collateralToken","type":"address"},{"internalType":"address","name":"debtToken","type":"address"}],"name":"liquidate","outputs":[],"stateMutability":"nonpayable","type":"function"},{"inputs":[],"name":"owner","outputs":[{"internalType":"address","name":"","type":"address"}],"stateMutability":"view","type":"function"},{"inputs":[],"name":"priceOracle","outputs":[{"internalType":"address","name":"","type":"address"}],"stateMutability":"view","type":"function"},{"inputs":[{"internalType":"address","name":"token","type":"address"},{"internalType":"uint256","name":"amount","type":"uint256"}],"name":"repay","outputs":[],"stateMutability":"nonpayable","type":"function"},{"inputs":[{"internalType":"address","name":"token","type":"address"},{"internalType":"uint256","name":"amount","type":"uint256"}],"name":"withdraw","outputs":[],"stateMutability":"nonpayable","type":"function"}],"evm":{"bytecode":{"linkReferences":{},"object":"608060405234801561001057600080fd5b5060405161126e38038061126e83398101604081905261002f91610088565b60016000556001600160a01b03811661005a5760405162d1be6360e61b815260040160405180910390fd5b600580546001600160a01b039092166001600160a01b031992831617905560068054909116331790556100b8565b60006020828403121561009a57600080fd5b81516001600160a01b03811681146100b157600080fd5b9392505050565b6111a7806100c76000396000f3fe608060405234801561001057600080fd5b50600436106101215760003560e01c806390a8ae9b116100ad578063e1f1c4a711610071578063e1f1c4a714610265578063f0d2d5a81461026e578063f3fef3a314610281578063f6cad25514610294578063fade3496146102c757600080fd5b806390a8ae9b146101ea5780639b8621d5146101f3578063ca5ce2ec146101fc578063cc218ece1461020f578063d449300d1461023a57600080fd5b80635224372c116100f45780635224372c1461019f57806354510b9d146101b25780635696b189146101c55780635b72a33a146101ce5780638da5cb5b146101d757600080fd5b80631eee3aa31461012657806322867d781461014c5780632630c12f1461016157806347e7ef241461018c575b600080fd5b610139610134366004610f9b565b6102e7565b6040519081526020015b60405180910390f35b61015f61015a366004610fce565b6103b9565b005b600554610174906001600160a01b031681565b6040516001600160a01b039091168152602001610143565b61015f61019a366004610fce565b6104ef565b61015f6101ad366004610ff8565b6105e8565b6101396101c0366004611034565b610782565b61013961138881565b61013961032081565b600654610174906001600160a01b031681565b610139613a9881565b6101396103e881565b61015f61020a366004611034565b6107f0565b61013961021d366004610f9b565b600160209081526000928352604080842090915290825290205481565b610139610248366004610f9b565b600260209081526000928352604080842090915290825290205481565b61013961271081565b61015f61027c366004611077565b610a8a565b61015f61028f366004610fce565b610ad9565b6102b76102a2366004611077565b60046020526000908152604090205460ff1681565b6040519015158152602001610143565b6101396102d5366004611077565b60036020526000908152604090205481565b6001600160a01b0380831660009081526001602090815260408083209385168352929052908120548082036103205760009150506103b3565b6005546040516341976e0960e01b81526001600160a01b03858116600483015260009216906341976e0990602401602060405180830381865afa15801561036b573d6000803e3d6000fd5b505050506040513d601f19601f8201168201806040525081019061038f9190611092565b9050670de0b6b3a76400006103a482846110c1565b6103ae91906110d8565b925050505b92915050565b6103c1610c56565b6103cb3383610c80565b3360009081526002602090815260408083206001600160a01b03861684529091528120549081900361041057604051634a2ff0cb60e11b815260040160405180910390fd5b81600003610431576040516389ac5d2b60e01b815260040160405180910390fd5b60008183116104405782610442565b815b90506104596001600160a01b038516333084610d81565b61046381836110fa565b3360009081526002602090815260408083206001600160a01b038916845290915281208290550361049f57336000908152600360205260408120555b6040518181526001600160a01b0385169033907f0a3fbbea70e93f2daafa3102f5c9a1b8315e6d7a1e43e4bc020bc1162327470a9060200160405180910390a350506104eb6001600055565b5050565b6104f7610c56565b80600003610518576040516389ac5d2b60e01b815260040160405180910390fd5b6001600160a01b03821660009081526004602052604090205460ff1661055157604051631311949b60e31b815260040160405180910390fd5b6105666001600160a01b038316333084610d81565b3360009081526001602090815260408083206001600160a01b03861684529091528120805483929061059990849061110d565b90915550506040518181526001600160a01b0383169033907ff1c0dd7e9b98bbff859029005ef89b127af049cd18df1a8d79f0b7e019911e569060200160405180910390a36104eb6001600055565b6105f0610c56565b80600003610611576040516389ac5d2b60e01b815260040160405180910390fd5b6001600160a01b03831660009081526004602052604090205460ff1661064a57604051631311949b60e31b815260040160405180910390fd5b6106543383610c80565b600061066033856102e7565b90506000612710610673611388846110c1565b61067d91906110d8565b3360009081526002602090815260408083206001600160a01b0389168452909152902054909150816106af858361110d565b11156106ce57604051634a5276d760e01b815260040160405180910390fd5b6106d8848261110d565b3360008181526002602090815260408083206001600160a01b038b168085529083528184209590955583835260039091529020429055610719919086610dee565b846001600160a01b0316866001600160a01b0316336001600160a01b03167f9c9260125f1a087d9e46ee3dc78f1a4af18c5e00714012d9a35250d49391c4fe8760405161076891815260200190565b60405180910390a450505061077d6001600055565b505050565b60008061078f85856102e7565b6001600160a01b0380871660009081526002602090815260408083209388168352929052908120549192508190036107cd57600019925050506107e9565b806107da612710846110c1565b6107e491906110d8565b925050505b9392505050565b6107f8610c56565b6108028382610c80565b600061080f848484610782565b9050613a9881106108335760405163094e095360e41b815260040160405180910390fd5b6001600160a01b0380851660009081526002602090815260408083209386168352929052908120549061271061086b6103e8846110c1565b61087591906110d8565b90506000610883828461110d565b6005546040516341976e0960e01b81526001600160a01b038981166004830152929350600092909116906341976e0990602401602060405180830381865afa1580156108d3573d6000803e3d6000fd5b505050506040513d601f19601f820116820180604052508101906108f79190611092565b6005546040516341976e0960e01b81526001600160a01b038981166004830152929350600092909116906341976e0990602401602060405180830381865afa158015610947573d6000803e3d6000fd5b505050506040513d601f19601f8201168201806040525081019061096b9190611092565b905060008261097a83866110c1565b61098491906110d8565b6001600160a01b03808c1660008181526002602090815260408083208e8616845282528083208390559282526003815282822082905560018152828220938e168252929092528120805492935083929091906109e19084906110fa565b90915550600090506127106109f8836101f46110c1565b610a0291906110d8565b9050610a186001600160a01b038b163383610dee565b886001600160a01b03168a6001600160a01b03168c6001600160a01b03167fd1ef587d13fefe63f9bc582e973aad46877ef08cfe790838721bd521c53caf568585604051610a70929190918252602082015260400190565b60405180910390a4505050505050505061077d6001600055565b6006546001600160a01b03163314610ab55760405163fd0c790160e01b815260040160405180910390fd5b6001600160a01b03166000908152600460205260409020805460ff19166001179055565b610ae1610c56565b80600003610b02576040516389ac5d2b60e01b815260040160405180910390fd5b3360009081526001602090815260408083206001600160a01b0386168452909152902054811115610b465760405163833a2b9b60e01b815260040160405180910390fd5b3360009081526001602090815260408083206001600160a01b038616845290915281208054839290610b799084906110fa565b90915550503360009081526002602090815260408083206001600160a01b03861684529091529020548015610bf7576000610bb433856102e7565b90506000612710610bc7613a98846110c1565b610bd191906110d8565b905080831115610bf4576040516386c7f5a560e01b815260040160405180910390fd5b50505b610c0b6001600160a01b0384163384610dee565b6040518281526001600160a01b0384169033907f45892a46e6cef329bb642da6d69846d324db43d19008edc141ed82382eda1bee9060200160405180910390a3506104eb6001600055565b600260005403610c7957604051633ee5aeb560e01b815260040160405180910390fd5b6002600055565b6001600160a01b03821660009081526003602052604081205490819003610ca657505050565b6001600160a01b03808416600090815260026020908152604080832093861683529290529081205490819003610cdc5750505050565b6000610ce883426110fa565b905062015180811015610cfc575050505050565b6000612710610d0d610320856110c1565b610d1791906110d8565b905060006301e13380610d2a84846110c1565b610d3491906110d8565b9050610d40818561110d565b6001600160a01b0397881660008181526002602090815260408083209a909b1682529889528981209290925581526003909652505050929091204290555050565b6040516001600160a01b038481166024830152838116604483015260648201839052610de89186918216906323b872dd906084015b604051602081830303815290604052915060e01b6020820180516001600160e01b038381831617835250505050610e1f565b50505050565b6040516001600160a01b0383811660248301526044820183905261077d91859182169063a9059cbb90606401610db6565b6000610e346001600160a01b03841683610e87565b90508051600014158015610e59575080806020019051810190610e579190611120565b155b1561077d57604051635274afe760e01b81526001600160a01b03841660048201526024015b60405180910390fd5b60606107e98383600084600080856001600160a01b03168486604051610ead9190611142565b60006040518083038185875af1925050503d8060008114610eea576040519150601f19603f3d011682016040523d82523d6000602084013e610eef565b606091505b50915091506107e4868383606082610f0f57610f0a82610f56565b6107e9565b8151158015610f2657506001600160a01b0384163b155b15610f4f57604051639996b31560e01b81526001600160a01b0385166004820152602401610e7e565b50806107e9565b805115610f665780518082602001fd5b604051630a12f52160e11b815260040160405180910390fd5b80356001600160a01b0381168114610f9657600080fd5b919050565b60008060408385031215610fae57600080fd5b610fb783610f7f565b9150610fc560208401610f7f565b90509250929050565b60008060408385031215610fe157600080fd5b610fea83610f7f565b946020939093013593505050565b60008060006060848603121561100d57600080fd5b61101684610f7f565b925061102460208501610f7f565b9150604084013590509250925092565b60008060006060848603121561104957600080fd5b61105284610f7f565b925061106060208501610f7f565b915061106e60408501610f7f565b90509250925092565b60006020828403121561108957600080fd5b6107e982610f7f565b6000602082840312156110a457600080fd5b5051919050565b634e487b7160e01b600052601160045260246000fd5b80820281158282048414176103b3576103b36110ab565b6000826110f557634e487b7160e01b600052601260045260246000fd5b500490565b818103818111156103b3576103b36110ab565b808201808211156103b3576103b36110ab565b60006020828403121561113257600080fd5b815180151581146107e957600080fd5b6000825160005b818110156111635760208186018101518583015201611149565b50600092019182525091905056fea26469706673582212204cda7bb97779ee66243dc758b2be29c645d53ef11c33c6213b0c044f6689d21b64736f6c63430008140033","opcodes":"PUSH1 0x80 PUSH1 0x40 MSTORE CALLVALUE DUP1 ISZERO PUSH2 0x10 JUMPI PUSH1 0x0 DUP1 REVERT JUMPDEST POP PUSH1 0x40 MLOAD PUSH2 0x126E CODESIZE SUB DUP1 PUSH2 0x126E DUP4 CODECOPY DUP2 ADD PUSH1 0x40 DUP2 SWAP1 MSTORE PUSH2 0x2F SWAP2 PUSH2 0x88 JUMP JUMPDEST PUSH1 0x1 PUSH1 0x0 SSTORE PUSH1 0x1 PUSH1 0x1 PUSH1 0xA0 SHL SUB DUP2 AND PUSH2 0x5A JUMPI PUSH1 0x40 MLOAD PUSH3 0xD1BE63 PUSH1 0xE6 SHL DUP2 MSTORE PUSH1 0x4 ADD PUSH1 0x40 MLOAD DUP1 SWAP2 SUB SWAP1 REVERT JUMPDEST PUSH1 0x5 DUP1 SLOAD PUSH1 0x1 PUSH1 0x1 PUSH1 0xA0 SHL SUB SWAP1 SWAP3 AND PUSH1 0x1 PUSH1 0x1 PUSH1 0xA0 SHL SUB NOT SWAP3 DUP4 AND OR SWAP1 SSTORE PUSH1 0x6 DUP1 SLOAD SWAP1 SWAP2 AND CALLER OR SWAP1 SSTORE PUSH2 0xB8 JUMP JUMPDEST PUSH1 0x0 PUSH1 0x20 DUP3 DUP5 SUB SLT ISZERO PUSH2 0x9A JUMPI PUSH1 0x0 DUP1 REVERT JUMPDEST DUP2 MLOAD PUSH1 0x1 PUSH1 0x1 PUSH1 0xA0 SHL SUB DUP2 AND DUP2 EQ PUSH2 0xB1 JUMPI PUSH1 0x0 DUP1 REVERT JUMPDEST SWAP4 SWAP3 POP POP POP JUMP JUMPDEST PUSH2 0x11A7 DUP1 PUSH2 0xC7 PUSH1 0x0 CODECOPY PUSH1 0x0 RETURN INVALID PUSH1 0x80 PUSH1 0x40 MSTORE CALLVALUE DUP1 ISZERO PUSH2 0x10 JUMPI PUSH1 0x0 DUP1 REVERT JUMPDEST POP PUSH1 0x4 CALLDATASIZE LT PUSH2 0x121 JUMPI PUSH1 0x0 CALLDATALOAD PUSH1 0xE0 SHR DUP1 PUSH4 0x90A8AE9B GT PUSH2 0xAD JUMPI DUP1 PUSH4 0xE1F1C4A7 GT PUSH2 0x71 JUMPI DUP1 PUSH4 0xE1F1C4A7 EQ PUSH2 0x265 JUMPI DUP1 PUSH4 0xF0D2D5A8 EQ PUSH2 0x26E JUMPI DUP1 PUSH4 0xF3FEF3A3 EQ PUSH2 0x281 JUMPI DUP1 PUSH4 0xF6CAD255 EQ PUSH2 0x294 JUMPI DUP1 PUSH4 0xFADE3496 EQ PUSH2 0x2C7 JUMPI PUSH1 0x0 DUP1 REVERT JUMPDEST DUP1 PUSH4 0x90A8AE9B EQ PUSH2 0x1EA JUMPI DUP1 PUSH4 0x9B8621D5 EQ PUSH2 0x1F3 JUMPI DUP1 PUSH4 0xCA5CE2EC EQ PUSH2 0x1FC JUMPI DUP1 PUSH4 0xCC218ECE EQ PUSH2 0x20F JUMPI DUP1 PUSH4 0xD449300D EQ PUSH2 0x23A JUMPI PUSH1 0x0 DUP1 REVERT JUMPDEST DUP1 PUSH4 0x5224372C GT PUSH2 0xF4 JUMPI DUP1 PUSH4 0x5224372C EQ PUSH2 0x19F JUMPI DUP1 PUSH4 0x54510B9D EQ PUSH2 0x1B2 JUMPI DUP1 PUSH4 0x5696B189 EQ PUSH2 0x1C5 JUMPI DUP1 PUSH4 0x5B72A33A EQ PUSH2 0x1CE JUMPI DUP1 PUSH4 0x8DA5CB5B EQ PUSH2 0x1D7 JUMPI PUSH1 0x0 DUP1 REVERT JUMPDEST DUP1 PUSH4 0x1EEE3AA3 EQ PUSH2 0x126 JUMPI DUP1 PUSH4 0x22867D78 EQ PUSH2 0x14C JUMPI DUP1 PUSH4 0x2630C12F EQ PUSH2 0x161 JUMPI DUP1 PUSH4 0x47E7EF24 EQ PUSH2 0x18C JUMPI JUMPDEST PUSH1 0x0 DUP1 REVERT JUMPDEST PUSH2 0x139 PUSH2 0x134 CALLDATASIZE PUSH1 0x4 PUSH2 0xF9B JUMP JUMPDEST PUSH2 0x2E7 JUMP JUMPDEST PUSH1 0x40 MLOAD SWAP1 DUP2 MSTORE PUSH1 0x20 ADD JUMPDEST PUSH1 0x40 MLOAD DUP1 SWAP2 SUB SWAP1 RETURN JUMPDEST PUSH2 0x15F PUSH2 0x15A CALLDATASIZE PUSH1 0x4 PUSH2 0xFCE JUMP JUMPDEST PUSH2 0x3B9 JUMP JUMPDEST STOP JUMPDEST PUSH1 0x5 SLOAD PUSH2 0x174 SWAP1 PUSH1 0x1 PUSH1 0x1 PUSH1 0xA0 SHL SUB AND DUP2 JUMP JUMPDEST PUSH1 0x40 MLOAD PUSH1 0x1 PUSH1 0x1 PUSH1 0xA0 SHL SUB SWAP1 SWAP2 AND DUP2 MSTORE PUSH1 0x20 ADD PUSH2 0x143 JUMP JUMPDEST PUSH2 0x15F PUSH2 0x19A CALLDATASIZE PUSH1 0x4 PUSH2 0xFCE JUMP JUMPDEST PUSH2 0x4EF JUMP JUMPDEST PUSH2 0x15F PUSH2 0x1AD CALLDATASIZE PUSH1 0x4 PUSH2 0xFF8 JUMP JUMPDEST PUSH2 0x5E8 JUMP JUMPDEST PUSH2 0x139 PUSH2 0x1C0 CALLDATASIZE PUSH1 0x4 PUSH2 0x1034 JUMP JUMPDEST PUSH2 0x782 JUMP JUMPDEST PUSH2 0x139 PUSH2 0x1388 DUP2 JUMP JUMPDEST PUSH2 0x139 PUSH2 0x320 DUP2 JUMP JUMPDEST PUSH1 0x6 SLOAD PUSH2 0x174 SWAP1 PUSH1 0x1 PUSH1 0x1 PUSH1 0xA0 SHL SUB AND DUP2 JUMP JUMPDEST PUSH2 0x139 PUSH2 0x3A98 DUP2 JUMP JUMPDEST PUSH2 0x139 PUSH2 0x3E8 DUP2 JUMP JUMPDEST PUSH2 0x15F PUSH2 0x20A CALLDATASIZE PUSH1 0x4 PUSH2 0x1034 JUMP JUMPDEST PUSH2 0x7F0 JUMP JUMPDEST PUSH2 0x139 PUSH2 0x21D CALLDATASIZE PUSH1 0x4 PUSH2 0xF9B JUMP JUMPDEST PUSH1 0x1 PUSH1 0x20 SWAP1 DUP2 MSTORE PUSH1 0x0 SWAP3 DUP4 MSTORE PUSH1 0x40 DUP1 DUP5 KECCAK256 SWAP1 SWAP2 MSTORE SWAP1 DUP3 MSTORE SWAP1 KECCAK256 SLOAD DUP2 JUMP JUMPDEST PUSH2 0x139 PUSH2 0x248 CALLDATASIZE PUSH1 0x4 PUSH2 0xF9B JUMP JUMPDEST PUSH1 0x2 PUSH1 0x20 SWAP1 DUP2 MSTORE PUSH1 0x0 SWAP3 DUP4 MSTORE PUSH1 0x40 DUP1 DUP5 KECCAK256 SWAP1 SWAP2 MSTORE SWAP1 DUP3 MSTORE SWAP1 KECCAK256 SLOAD DUP2 JUMP JUMPDEST PUSH2 0x139 PUSH2 0x2710 DUP2 JUMP JUMPDEST PUSH2 0x15F PUSH2 0x27C CALLDATASIZE PUSH1 0x4 PUSH2 0x1077 JUMP JUMPDEST PUSH2 0xA8A JUMP JUMPDEST PUSH2 0x15F PUSH2 0x28F CALLDATASIZE PUSH1 0x4 PUSH2 0xFCE JUMP JUMPDEST PUSH2 0xAD9 JUMP JUMPDEST PUSH2 0x2B7 PUSH2 0x2A2 CALLDATASIZE PUSH1 0x4 PUSH2 0x1077 JUMP JUMPDEST PUSH1 0x4 PUSH1 0x20 MSTORE PUSH1 0x0 SWAP1 DUP2 MSTORE PUSH1 0x40 SWAP1 KECCAK256 SLOAD PUSH1 0xFF AND DUP2 JUMP JUMPDEST PUSH1 0x40 MLOAD SWAP1 ISZERO ISZERO DUP2 MSTORE PUSH1 0x20 ADD PUSH2 0x143 JUMP JUMPDEST PUSH2 0x139 PUSH2 0x2D5 CALLDATASIZE PUSH1 0x4 PUSH2 0x1077 JUMP JUMPDEST PUSH1 0x3 PUSH1 0x20 MSTORE PUSH1 0x0 SWAP1 DUP2 MSTORE PUSH1 0x40 SWAP1 KECCAK256 SLOAD DUP2 JUMP JUMPDEST PUSH1 0x1 PUSH1 0x1 PUSH1 0xA0 SHL SUB DUP1 DUP4 AND PUSH1 0x0 SWAP1 DUP2 MSTORE PUSH1 0x1 PUSH1 0x20 SWAP1 DUP2 MSTORE PUSH1 0x40 DUP1 DUP4 KECCAK256 SWAP4 DUP6 AND DUP4 MSTORE SWAP3 SWAP1 MSTORE SWAP1 DUP2 KECCAK256 SLOAD DUP1 DUP3 SUB PUSH2 0x320 JUMPI PUSH1 0x0 SWAP2 POP POP PUSH2 0x3B3 JUMP JUMPDEST PUSH1 0x5 SLOAD PUSH1 0x40 MLOAD PUSH4 0x41976E09 PUSH1 0xE0 SHL DUP2 MSTORE PUSH1 0x1 PUSH1 0x1 PUSH1 0xA0 SHL SUB DUP6 DUP2 AND PUSH1 0x4 DUP4 ADD MSTORE PUSH1 0x0 SWAP3 AND SWAP1 PUSH4 0x41976E09 SWAP1 PUSH1 0x24 ADD PUSH1 0x20 PUSH1 0x40 MLOAD DUP1 DUP4 SUB DUP2 DUP7 GAS STATICCALL ISZERO DUP1 ISZERO PUSH2 0x36B JUMPI RETURNDATASIZE PUSH1 0x0 DUP1 RETURNDATACOPY RETURNDATASIZE PUSH1 0x0 REVERT JUMPDEST POP POP POP POP PUSH1 0x40 MLOAD RETURNDATASIZE PUSH1 0x1F NOT PUSH1 0x1F DUP3 ADD AND DUP3 ADD DUP1 PUSH1 0x40 MSTORE POP DUP2 ADD SWAP1 PUSH2 0x38F SWAP2 SWAP1 PUSH2 0x1092 JUMP JUMPDEST SWAP1 POP PUSH8 0xDE0B6B3A7640000 PUSH2 0x3A4 DUP3 DUP5 PUSH2 0x10C1 JUMP JUMPDEST PUSH2 0x3AE SWAP2 SWAP1 PUSH2 0x10D8 JUMP JUMPDEST SWAP3 POP POP POP JUMPDEST SWAP3 SWAP2 POP POP JUMP JUMPDEST PUSH2 0x3C1 PUSH2 0xC56 JUMP JUMPDEST PUSH2 0x3CB CALLER DUP4 PUSH2 0xC80 JUMP JUMPDEST CALLER PUSH1 0x0 SWAP1 DUP2 MSTORE PUSH1 0x2 PUSH1 0x20 SWAP1 DUP2 MSTORE PUSH1 0x40 DUP1 DUP4 KECCAK256 PUSH1 0x1 PUSH1 0x1 PUSH1 0xA0 SHL SUB DUP7 AND DUP5 MSTORE SWAP1 SWAP2 MSTORE DUP2 KECCAK256 SLOAD SWAP1 DUP2 SWAP1 SUB PUSH2 0x410 JUMPI PUSH1 0x40 MLOAD PUSH4 0x4A2FF0CB PUSH1 0xE1 SHL DUP2 MSTORE PUSH1 0x4 ADD PUSH1 0x40 MLOAD DUP1 SWAP2 SUB SWAP1 REVERT JUMPDEST DUP2 PUSH1 0x0 SUB PUSH2 0x431 JUMPI PUSH1 0x40 MLOAD PUSH4 0x89AC5D2B PUSH1 0xE0 SHL DUP2 MSTORE PUSH1 0x4 ADD PUSH1 0x40 MLOAD DUP1 SWAP2 SUB SWAP1 REVERT JUMPDEST PUSH1 0x0 DUP2 DUP4 GT PUSH2 0x440 JUMPI DUP3 PUSH2 0x442 JUMP JUMPDEST DUP2 JUMPDEST SWAP1 POP PUSH2 0x459 PUSH1 0x1 PUSH1 0x1 PUSH1 0xA0 SHL SUB DUP6 AND CALLER ADDRESS DUP5 PUSH2 0xD81 JUMP JUMPDEST PUSH2 0x463 DUP2 DUP4 PUSH2 0x10FA JUMP JUMPDEST CALLER PUSH1 0x0 SWAP1 DUP2 MSTORE PUSH1 0x2 PUSH1 0x20 SWAP1 DUP2 MSTORE PUSH1 0x40 DUP1 DUP4 KECCAK256 PUSH1 0x1 PUSH1 0x1 PUSH1 0xA0 SHL SUB DUP10 AND DUP5 MSTORE SWAP1 SWAP2 MSTORE DUP2 KECCAK256 DUP3 SWAP1 SSTORE SUB PUSH2 0x49F JUMPI CALLER PUSH1 0x0 SWAP1 DUP2 MSTORE PUSH1 0x3 PUSH1 0x20 MSTORE PUSH1 0x40 DUP2 KECCAK256 SSTORE JUMPDEST PUSH1 0x40 MLOAD DUP2 DUP2 MSTORE PUSH1 0x1 PUSH1 0x1 PUSH1 0xA0 SHL SUB DUP6 AND SWAP1 CALLER SWAP1 PUSH32 0xA3FBBEA70E93F2DAAFA3102F5C9A1B8315E6D7A1E43E4BC020BC1162327470A SWAP1 PUSH1 0x20 ADD PUSH1 0x40 MLOAD DUP1 SWAP2 SUB SWAP1 LOG3 POP POP PUSH2 0x4EB PUSH1 0x1 PUSH1 0x0 SSTORE JUMP JUMPDEST POP POP JUMP JUMPDEST PUSH2 0x4F7 PUSH2 0xC56 JUMP JUMPDEST DUP1 PUSH1 0x0 SUB PUSH2 0x518 JUMPI PUSH1 0x40 MLOAD PUSH4 0x89AC5D2B PUSH1 0xE0 SHL DUP2 MSTORE PUSH1 0x4 ADD PUSH1 0x40 MLOAD DUP1 SWAP2 SUB SWAP1 REVERT JUMPDEST PUSH1 0x1 PUSH1 0x1 PUSH1 0xA0 SHL SUB DUP3 AND PUSH1 0x0 SWAP1 DUP2 MSTORE PUSH1 0x4 PUSH1 0x20 MSTORE PUSH1 0x40 SWAP1 KECCAK256 SLOAD PUSH1 0xFF AND PUSH2 0x551 JUMPI PUSH1 0x40 MLOAD PUSH4 0x1311949B PUSH1 0xE3 SHL DUP2 MSTORE PUSH1 0x4 ADD PUSH1 0x40 MLOAD DUP1 SWAP2 SUB SWAP1 REVERT JUMPDEST PUSH2 0x566 PUSH1 0x1 PUSH1 0x1 PUSH1 0xA0 SHL SUB DUP4 AND CALLER ADDRESS DUP5 PUSH2 0xD81 JUMP JUMPDEST CALLER PUSH1 0x0 SWAP1 DUP2 MSTORE PUSH1 0x1 PUSH1 0x20 SWAP1 DUP2 MSTORE PUSH1 0x40 DUP1 DUP4 KECCAK256 PUSH1 0x1 PUSH1 0x1 PUSH1 0xA0 SHL SUB DUP7 AND DUP5 MSTORE SWAP1 SWAP2 MSTORE DUP2 KECCAK256 DUP1 SLOAD DUP4 SWAP3 SWAP1 PUSH2 0x599 SWAP1 DUP5 SWAP1 PUSH2 0x110D JUMP JUMPDEST SWAP1 SWAP2 SSTORE POP POP PUSH1 0x40 MLOAD DUP2 DUP2 MSTORE PUSH1 0x1 PUSH1 0x1 PUSH1 0xA0 SHL SUB DUP4 AND SWAP1 CALLER SWAP1 PUSH32 0xF1C0DD7E9B98BBFF859029005EF89B127AF049CD18DF1A8D79F0B7E019911E56 SWAP1 PUSH1 0x20 ADD PUSH1 0x40 MLOAD DUP1 SWAP2 SUB SWAP1 LOG3 PUSH2 0x4EB PUSH1 0x1 PUSH1 0x0 SSTORE JUMP JUMPDEST PUSH2 0x5F0 PUSH2 0xC56 JUMP JUMPDEST DUP1 PUSH1 0x0 SUB PUSH2 0x611 JUMPI PUSH1 0x40 MLOAD PUSH4 0x89AC5D2B PUSH1 0xE0 SHL DUP2 MSTORE PUSH1 0x4 ADD PUSH1 0x40 MLOAD DUP1 SWAP2 SUB SWAP1 REVERT JUMPDEST PUSH1 0x1 PUSH1 0x1 PUSH1 0xA0 SHL SUB DUP4 AND PUSH1 0x0 SWAP1 DUP2 MSTORE PUSH1 0x4 PUSH1 0x20 MSTORE PUSH1 0x40 SWAP1 KECCAK256 SLOAD PUSH1 0xFF AND PUSH2 0x64A JUMPI PUSH1 0x40 MLOAD PUSH4 0x1311949B PUSH1 0xE3 SHL DUP2 MSTORE PUSH1 0x4 ADD PUSH1 0x40 MLOAD DUP1 SWAP2 SUB SWAP1 REVERT JUMPDEST PUSH2 0x654 CALLER DUP4 PUSH2 0xC80 JUMP JUMPDEST PUSH1 0x0 PUSH2 0x660 CALLER DUP6 PUSH2 0x2E7 JUMP JUMPDEST SWAP1 POP PUSH1 0x0 PUSH2 0x2710 PUSH2 0x673 PUSH2 0x1388 DUP5 PUSH2 0x10C1 JUMP JUMPDEST PUSH2 0x67D SWAP2 SWAP1 PUSH2 0x10D8 JUMP JUMPDEST CALLER PUSH1 0x0 SWAP1 DUP2 MSTORE PUSH1 0x2 PUSH1 0x20 SWAP1 DUP2 MSTORE PUSH1 0x40 DUP1 DUP4 KECCAK256 PUSH1 0x1 PUSH1 0x1 PUSH1 0xA0 SHL SUB DUP10 AND DUP5 MSTORE SWAP1 SWAP2 MSTORE SWAP1 KECCAK256 SLOAD SWAP1 SWAP2 POP DUP2 PUSH2 0x6AF DUP6 DUP4 PUSH2 0x110D JUMP JUMPDEST GT ISZERO PUSH2 0x6CE JUMPI PUSH1 0x40 MLOAD PUSH4 0x4A5276D7 PUSH1 0xE0 SHL DUP2 MSTORE PUSH1 0x4 ADD PUSH1 0x40 MLOAD DUP1 SWAP2 SUB SWAP1 REVERT JUMPDEST PUSH2 0x6D8 DUP5 DUP3 PUSH2 0x110D JUMP JUMPDEST CALLER PUSH1 0x0 DUP2 DUP2 MSTORE PUSH1 0x2 PUSH1 0x20 SWAP1 DUP2 MSTORE PUSH1 0x40 DUP1 DUP4 KECCAK256 PUSH1 0x1 PUSH1 0x1 PUSH1 0xA0 SHL SUB DUP12 AND DUP1 DUP6 MSTORE SWAP1 DUP4 MSTORE DUP2 DUP5 KECCAK256 SWAP6 SWAP1 SWAP6 SSTORE DUP4 DUP4 MSTORE PUSH1 0x3 SWAP1 SWAP2 MSTORE SWAP1 KECCAK256 TIMESTAMP SWAP1 SSTORE PUSH2 0x719 SWAP2 SWAP1 DUP7 PUSH2 0xDEE JUMP JUMPDEST DUP5 PUSH1 0x1 PUSH1 0x1 PUSH1 0xA0 SHL SUB AND DUP7 PUSH1 0x1 PUSH1 0x1 PUSH1 0xA0 SHL SUB AND CALLER PUSH1 0x1 PUSH1 0x1 PUSH1 0xA0 SHL SUB AND PUSH32 0x9C9260125F1A087D9E46EE3DC78F1A4AF18C5E00714012D9A35250D49391C4FE DUP8 PUSH1 0x40 MLOAD PUSH2 0x768 SWAP2 DUP2 MSTORE PUSH1 0x20 ADD SWAP1 JUMP JUMPDEST PUSH1 0x40 MLOAD DUP1 SWAP2 SUB SWAP1 LOG4 POP POP POP PUSH2 0x77D PUSH1 0x1 PUSH1 0x0 SSTORE JUMP JUMPDEST POP POP POP JUMP JUMPDEST PUSH1 0x0 DUP1 PUSH2 0x78F DUP6 DUP6 PUSH2 0x2E7 JUMP JUMPDEST PUSH1 0x1 PUSH1 0x1 PUSH1 0xA0 SHL SUB DUP1 DUP8 AND PUSH1 0x0 SWAP1 DUP2 MSTORE PUSH1 0x2 PUSH1 0x20 SWAP1 DUP2 MSTORE PUSH1 0x40 DUP1 DUP4 KECCAK256 SWAP4 DUP9 AND DUP4 MSTORE SWAP3 SWAP1 MSTORE SWAP1 DUP2 KECCAK256 SLOAD SWAP2 SWAP3 POP DUP2 SWAP1 SUB PUSH2 0x7CD JUMPI PUSH1 0x0 NOT SWAP3 POP POP POP PUSH2 0x7E9 JUMP JUMPDEST DUP1 PUSH2 0x7DA PUSH2 0x2710 DUP5 PUSH2 0x10C1 JUMP JUMPDEST PUSH2 0x7E4 SWAP2 SWAP1 PUSH2 0x10D8 JUMP JUMPDEST SWAP3 POP POP POP JUMPDEST SWAP4 SWAP3 POP POP POP JUMP JUMPDEST PUSH2 0x7F8 PUSH2 0xC56 JUMP JUMPDEST PUSH2 0x802 DUP4 DUP3 PUSH2 0xC80 JUMP JUMPDEST PUSH1 0x0 PUSH2 0x80F DUP5 DUP5 DUP5 PUSH2 0x782 JUMP JUMPDEST SWAP1 POP PUSH2 0x3A98 DUP2 LT PUSH2 0x833 JUMPI PUSH1 0x40 MLOAD PUSH4 0x94E0953 PUSH1 0xE4 SHL DUP2 MSTORE PUSH1 0x4 ADD PUSH1 0x40 MLOAD DUP1 SWAP2 SUB SWAP1 REVERT JUMPDEST PUSH1 0x1 PUSH1 0x1 PUSH1 0xA0 SHL SUB DUP1 DUP6 AND PUSH1 0x0 SWAP1 DUP2 MSTORE PUSH1 0x2 PUSH1 0x20 SWAP1 DUP2 MSTORE PUSH1 0x40 DUP1 DUP4 KECCAK256 SWAP4 DUP7 AND DUP4 MSTORE SWAP3 SWAP1 MSTORE SWAP1 DUP2 KECCAK256 SLOAD SWAP1 PUSH2 0x2710 PUSH2 0x86B PUSH2 0x3E8 DUP5 PUSH2 0x10C1 JUMP JUMPDEST PUSH2 0x875 SWAP2 SWAP1 PUSH2 0x10D8 JUMP JUMPDEST SWAP1 POP PUSH1 0x0 PUSH2 0x883 DUP3 DUP5 PUSH2 0x110D JUMP JUMPDEST PUSH1 0x5 SLOAD PUSH1 0x40 MLOAD PUSH4 0x41976E09 PUSH1 0xE0 SHL DUP2 MSTORE PUSH1 0x1 PUSH1 0x1 PUSH1 0xA0 SHL SUB DUP10 DUP2 AND PUSH1 0x4 DUP4 ADD MSTORE SWAP3 SWAP4 POP PUSH1 0x0 SWAP3 SWAP1 SWAP2 AND SWAP1 PUSH4 0x41976E09 SWAP1 PUSH1 0x24 ADD PUSH1 0x20 PUSH1 0x40 MLOAD DUP1 DUP4 SUB DUP2 DUP7 GAS STATICCALL ISZERO DUP1 ISZERO PUSH2 0x8D3 JUMPI RETURNDATASIZE PUSH1 0x0 DUP1 RETURNDATACOPY RETURNDATASIZE PUSH1 0x0 REVERT JUMPDEST POP POP POP POP PUSH1 0x40 MLOAD RETURNDATASIZE PUSH1 0x1F NOT PUSH1 0x1F DUP3 ADD AND DUP3 ADD DUP1 PUSH1 0x40 MSTORE POP DUP2 ADD SWAP1 PUSH2 0x8F7 SWAP2 SWAP1 PUSH2 0x1092 JUMP JUMPDEST PUSH1 0x5 SLOAD PUSH1 0x40 MLOAD PUSH4 0x41976E09 PUSH1 0xE0 SHL DUP2 MSTORE PUSH1 0x1 PUSH1 0x1 PUSH1 0xA0 SHL SUB DUP10 DUP2 AND PUSH1 0x4 DUP4 ADD MSTORE SWAP3 SWAP4 POP PUSH1 0x0 SWAP3 SWAP1 SWAP2 AND SWAP1 PUSH4 0x41976E09 SWAP1 PUSH1 0x24 ADD PUSH1 0x20 PUSH1 0x40 MLOAD DUP1 DUP4 SUB DUP2 DUP7 GAS STATICCALL ISZERO DUP1 ISZERO PUSH2 0x947 JUMPI RETURNDATASIZE PUSH1 0x0 DUP1 RETURNDATACOPY RETURNDATASIZE PUSH1 0x0 REVERT JUMPDEST POP POP POP POP PUSH1 0x40 MLOAD RETURNDATASIZE PUSH1 0x1F NOT PUSH1 0x1F DUP3 ADD AND DUP3 ADD DUP1 PUSH1 0x40 MSTORE POP DUP2 ADD SWAP1 PUSH2 0x96B SWAP2 SWAP1 PUSH2 0x1092 JUMP JUMPDEST SWAP1 POP PUSH1 0x0 DUP3 PUSH2 0x97A DUP4 DUP7 PUSH2 0x10C1 JUMP JUMPDEST PUSH2 0x984 SWAP2 SWAP1 PUSH2 0x10D8 JUMP JUMPDEST PUSH1 0x1 PUSH1 0x1 PUSH1 0xA0 SHL SUB DUP1 DUP13 AND PUSH1 0x0 DUP2 DUP2 MSTORE PUSH1 0x2 PUSH1 0x20 SWAP1 DUP2 MSTORE PUSH1 0x40 DUP1 DUP4 KECCAK256 DUP15 DUP7 AND DUP5 MSTORE DUP3 MSTORE DUP1 DUP4 KECCAK256 DUP4 SWAP1 SSTORE SWAP3 DUP3 MSTORE PUSH1 0x3 DUP2 MSTORE DUP3 DUP3 KECCAK256 DUP3 SWAP1 SSTORE PUSH1 0x1 DUP2 MSTORE DUP3 DUP3 KECCAK256 SWAP4 DUP15 AND DUP3 MSTORE SWAP3 SWAP1 SWAP3 MSTORE DUP2 KECCAK256 DUP1 SLOAD SWAP3 SWAP4 POP DUP4 SWAP3 SWAP1 SWAP2 SWAP1 PUSH2 0x9E1 SWAP1 DUP5 SWAP1 PUSH2 0x10FA JUMP JUMPDEST SWAP1 SWAP2 SSTORE POP PUSH1 0x0 SWAP1 POP PUSH2 0x2710 PUSH2 0x9F8 DUP4 PUSH2 0x1F4 PUSH2 0x10C1 JUMP JUMPDEST PUSH2 0xA02 SWAP2 SWAP1 PUSH2 0x10D8 JUMP JUMPDEST SWAP1 POP PUSH2 0xA18 PUSH1 0x1 PUSH1 0x1 PUSH1 0xA0 SHL SUB DUP12 AND CALLER DUP4 PUSH2 0xDEE JUMP JUMPDEST DUP9 PUSH1 0x1 PUSH1 0x1 PUSH1 0xA0 SHL SUB AND DUP11 PUSH1 0x1 PUSH1 0x1 PUSH1 0xA0 SHL SUB AND DUP13 PUSH1 0x1 PUSH1 0x1 PUSH1 0xA0 SHL SUB AND PUSH32 0xD1EF587D13FEFE63F9BC582E973AAD46877EF08CFE790838721BD521C53CAF56 DUP6 DUP6 PUSH1 0x40 MLOAD PUSH2 0xA70 SWAP3 SWAP2 SWAP1 SWAP2 DUP3 MSTORE PUSH1 0x20 DUP3 ADD MSTORE PUSH1 0x40 ADD SWAP1 JUMP JUMPDEST PUSH1 0x40 MLOAD DUP1 SWAP2 SUB SWAP1 LOG4 POP POP POP POP POP POP POP POP PUSH2 0x77D PUSH1 0x1 PUSH1 0x0 SSTORE JUMP JUMPDEST PUSH1 0x6 SLOAD PUSH1 0x1 PUSH1 0x1 PUSH1 0xA0 SHL SUB AND CALLER EQ PUSH2 0xAB5 JUMPI PUSH1 0x40 MLOAD PUSH4 0xFD0C7901 PUSH1 0xE0 SHL DUP2 MSTORE PUSH1 0x4 ADD PUSH1 0x40 MLOAD DUP1 SWAP2 SUB SWAP1 REVERT JUMPDEST PUSH1 0x1 PUSH1 0x1 PUSH1 0xA0 SHL SUB AND PUSH1 0x0 SWAP1 DUP2 MSTORE PUSH1 0x4 PUSH1 0x20 MSTORE PUSH1 0x40 SWAP1 KECCAK256 DUP1 SLOAD PUSH1 0xFF NOT AND PUSH1 0x1 OR SWAP1 SSTORE JUMP JUMPDEST PUSH2 0xAE1 PUSH2 0xC56 JUMP JUMPDEST DUP1 PUSH1 0x0 SUB PUSH2 0xB02 JUMPI PUSH1 0x40 MLOAD PUSH4 0x89AC5D2B PUSH1 0xE0 SHL DUP2 MSTORE PUSH1 0x4 ADD PUSH1 0x40 MLOAD DUP1 SWAP2 SUB SWAP1 REVERT JUMPDEST CALLER PUSH1 0x0 SWAP1 DUP2 MSTORE PUSH1 0x1 PUSH1 0x20 SWAP1 DUP2 MSTORE PUSH1 0x40 DUP1 DUP4 KECCAK256 PUSH1 0x1 PUSH1 0x1 PUSH1 0xA0 SHL SUB DUP7 AND DUP5 MSTORE SWAP1 SWAP2 MSTORE SWAP1 KECCAK256 SLOAD DUP2 GT ISZERO PUSH2 0xB46 JUMPI PUSH1 0x40 MLOAD PUSH4 0x833A2B9B PUSH1 0xE0 SHL DUP2 MSTORE PUSH1 0x4 ADD PUSH1 0x40 MLOAD DUP1 SWAP2 SUB SWAP1 REVERT JUMPDEST CALLER PUSH1 0x0 SWAP1 DUP2 MSTORE PUSH1 0x1 PUSH1 0x20 SWAP1 DUP2 MSTORE PUSH1 0x40 DUP1 DUP4 KECCAK256 PUSH1 0x1 PUSH1 0x1 PUSH1 0xA0 SHL SUB DUP7 AND DUP5 MSTORE SWAP1 SWAP2 MSTORE DUP2 KECCAK256 DUP1 SLOAD DUP4 SWAP3 SWAP1 PUSH2 0xB79 SWAP1 DUP5 SWAP1 PUSH2 0x10FA JUMP JUMPDEST SWAP1 SWAP2 SSTORE POP POP CALLER PUSH1 0x0 SWAP1 DUP2 MSTORE PUSH1 0x2 PUSH1 0x20 SWAP1 DUP2 MSTORE PUSH1 0x40 DUP1 DUP4 KECCAK256 PUSH1 0x1 PUSH1 0x1 PUSH1 0xA0 SHL SUB DUP7 AND DUP5 MSTORE SWAP1 SWAP2 MSTORE SWAP1 KECCAK256 SLOAD DUP1 ISZERO PUSH2 0xBF7 JUMPI PUSH1 0x0 PUSH2 0xBB4 CALLER DUP6 PUSH2 0x2E7 JUMP JUMPDEST SWAP1 POP PUSH1 0x0 PUSH2 0x2710 PUSH2 0xBC7 PUSH2 0x3A98 DUP5 PUSH2 0x10C1 JUMP JUMPDEST PUSH2 0xBD1 SWAP2 SWAP1 PUSH2 0x10D8 JUMP JUMPDEST SWAP1 POP DUP1 DUP4 GT ISZERO PUSH2 0xBF4 JUMPI PUSH1 0x40 MLOAD PUSH4 0x86C7F5A5 PUSH1 0xE0 SHL DUP2 MSTORE PUSH1 0x4 ADD PUSH1 0x40 MLOAD DUP1 SWAP2 SUB SWAP1 REVERT JUMPDEST POP POP JUMPDEST PUSH2 0xC0B PUSH1 0x1 PUSH1 0x1 PUSH1 0xA0 SHL SUB DUP5 AND CALLER DUP5 PUSH2 0xDEE JUMP JUMPDEST PUSH1 0x40 MLOAD DUP3 DUP2 MSTORE PUSH1 0x1 PUSH1 0x1 PUSH1 0xA0 SHL SUB DUP5 AND SWAP1 CALLER SWAP1 PUSH32 0x45892A46E6CEF329BB642DA6D69846D324DB43D19008EDC141ED82382EDA1BEE SWAP1 PUSH1 0x20 ADD PUSH1 0x40 MLOAD DUP1 SWAP2 SUB SWAP1 LOG3 POP PUSH2 0x4EB PUSH1 0x1 PUSH1 0x0 SSTORE JUMP JUMPDEST PUSH1 0x2 PUSH1 0x0 SLOAD SUB PUSH2 0xC79 JUMPI PUSH1 0x40 MLOAD PUSH4 0x3EE5AEB5 PUSH1 0xE0 SHL DUP2 MSTORE PUSH1 0x4 ADD PUSH1 0x40 MLOAD DUP1 SWAP2 SUB SWAP1 REVERT JUMPDEST PUSH1 0x2 PUSH1 0x0 SSTORE JUMP JUMPDEST PUSH1 0x1 PUSH1 0x1 PUSH1 0xA0 SHL SUB DUP3 AND PUSH1 0x0 SWAP1 DUP2 MSTORE PUSH1 0x3 PUSH1 0x20 MSTORE PUSH1 0x40 DUP2 KECCAK256 SLOAD SWAP1 DUP2 SWAP1 SUB PUSH2 0xCA6 JUMPI POP POP POP JUMP JUMPDEST PUSH1 0x1 PUSH1 0x1 PUSH1 0xA0 SHL SUB DUP1 DUP5 AND PUSH1 0x0 SWAP1 DUP2 MSTORE PUSH1 0x2 PUSH1 0x20 SWAP1 DUP2 MSTORE PUSH1 0x40 DUP1 DUP4 KECCAK256 SWAP4 DUP7 AND DUP4 MSTORE SWAP3 SWAP1 MSTORE SWAP1 DUP2 KECCAK256 SLOAD SWAP1 DUP2 SWAP1 SUB PUSH2 0xCDC JUMPI POP POP POP POP JUMP JUMPDEST PUSH1 0x0 PUSH2 0xCE8 DUP4 TIMESTAMP PUSH2 0x10FA JUMP JUMPDEST SWAP1 POP PUSH3 0x15180 DUP2 LT ISZERO PUSH2 0xCFC JUMPI POP POP POP POP POP JUMP JUMPDEST PUSH1 0x0 PUSH2 0x2710 PUSH2 0xD0D PUSH2 0x320 DUP6 PUSH2 0x10C1 JUMP JUMPDEST PUSH2 0xD17 SWAP2 SWAP1 PUSH2 0x10D8 JUMP JUMPDEST SWAP1 POP PUSH1 0x0 PUSH4 0x1E13380 PUSH2 0xD2A DUP5 DUP5 PUSH2 0x10C1 JUMP JUMPDEST PUSH2 0xD34 SWAP2 SWAP1 PUSH2 0x10D8 JUMP JUMPDEST SWAP1 POP PUSH2 0xD40 DUP2 DUP6 PUSH2 0x110D JUMP JUMPDEST PUSH1 0x1 PUSH1 0x1 PUSH1 0xA0 SHL SUB SWAP8 DUP9 AND PUSH1 0x0 DUP2 DUP2 MSTORE PUSH1 0x2 PUSH1 0x20 SWAP1 DUP2 MSTORE PUSH1 0x40 DUP1 DUP4 KECCAK256 SWAP11 SWAP1 SWAP12 AND DUP3 MSTORE SWAP9 DUP10 MSTORE DUP10 DUP2 KECCAK256 SWAP3 SWAP1 SWAP3 SSTORE DUP2 MSTORE PUSH1 0x3 SWAP1 SWAP7 MSTORE POP POP POP SWAP3 SWAP1 SWAP2 KECCAK256 TIMESTAMP SWAP1 SSTORE POP POP JUMP JUMPDEST PUSH1 0x40 MLOAD PUSH1 0x1 PUSH1 0x1 PUSH1 0xA0 SHL SUB DUP5 DUP2 AND PUSH1 0x24 DUP4 ADD MSTORE DUP4 DUP2 AND PUSH1 0x44 DUP4 ADD MSTORE PUSH1 0x64 DUP3 ADD DUP4 SWAP1 MSTORE PUSH2 0xDE8 SWAP2 DUP7 SWAP2 DUP3 AND SWAP1 PUSH4 0x23B872DD SWAP1 PUSH1 0x84 ADD JUMPDEST PUSH1 0x40 MLOAD PUSH1 0x20 DUP2 DUP4 SUB SUB DUP2 MSTORE SWAP1 PUSH1 0x40 MSTORE SWAP2 POP PUSH1 0xE0 SHL PUSH1 0x20 DUP3 ADD DUP1 MLOAD PUSH1 0x1 PUSH1 0x1 PUSH1 0xE0 SHL SUB DUP4 DUP2 DUP4 AND OR DUP4 MSTORE POP POP POP POP PUSH2 0xE1F JUMP JUMPDEST POP POP POP POP JUMP JUMPDEST PUSH1 0x40 MLOAD PUSH1 0x1 PUSH1 0x1 PUSH1 0xA0 SHL SUB DUP4 DUP2 AND PUSH1 0x24 DUP4 ADD MSTORE PUSH1 0x44 DUP3 ADD DUP4 SWAP1 MSTORE PUSH2 0x77D SWAP2 DUP6 SWAP2 DUP3 AND SWAP1 PUSH4 0xA9059CBB SWAP1 PUSH1 0x64 ADD PUSH2 0xDB6 JUMP JUMPDEST PUSH1 0x0 PUSH2 0xE34 PUSH1 0x1 PUSH1 0x1 PUSH1 0xA0 SHL SUB DUP5 AND DUP4 PUSH2 0xE87 JUMP JUMPDEST SWAP1 POP DUP1 MLOAD PUSH1 0x0 EQ ISZERO DUP1 ISZERO PUSH2 0xE59 JUMPI POP DUP1 DUP1 PUSH1 0x20 ADD SWAP1 MLOAD DUP2 ADD SWAP1 PUSH2 0xE57 SWAP2 SWAP1 PUSH2 0x1120 JUMP JUMPDEST ISZERO JUMPDEST ISZERO PUSH2 0x77D JUMPI PUSH1 0x40 MLOAD PUSH4 0x5274AFE7 PUSH1 0xE0 SHL DUP2 MSTORE PUSH1 0x1 PUSH1 0x1 PUSH1 0xA0 SHL SUB DUP5 AND PUSH1 0x4 DUP3 ADD MSTORE PUSH1 0x24 ADD JUMPDEST PUSH1 0x40 MLOAD DUP1 SWAP2 SUB SWAP1 REVERT JUMPDEST PUSH1 0x60 PUSH2 0x7E9 DUP4 DUP4 PUSH1 0x0 DUP5 PUSH1 0x0 DUP1 DUP6 PUSH1 0x1 PUSH1 0x1 PUSH1 0xA0 SHL SUB AND DUP5 DUP7 PUSH1 0x40 MLOAD PUSH2 0xEAD SWAP2 SWAP1 PUSH2 0x1142 JUMP JUMPDEST PUSH1 0x0 PUSH1 0x40 MLOAD DUP1 DUP4 SUB DUP2 DUP6 DUP8 GAS CALL SWAP3 POP POP POP RETURNDATASIZE DUP1 PUSH1 0x0 DUP2 EQ PUSH2 0xEEA JUMPI PUSH1 0x40 MLOAD SWAP2 POP PUSH1 0x1F NOT PUSH1 0x3F RETURNDATASIZE ADD AND DUP3 ADD PUSH1 0x40 MSTORE RETURNDATASIZE DUP3 MSTORE RETURNDATASIZE PUSH1 0x0 PUSH1 0x20 DUP5 ADD RETURNDATACOPY PUSH2 0xEEF JUMP JUMPDEST PUSH1 0x60 SWAP2 POP JUMPDEST POP SWAP2 POP SWAP2 POP PUSH2 0x7E4 DUP7 DUP4 DUP4 PUSH1 0x60 DUP3 PUSH2 0xF0F JUMPI PUSH2 0xF0A DUP3 PUSH2 0xF56 JUMP JUMPDEST PUSH2 0x7E9 JUMP JUMPDEST DUP2 MLOAD ISZERO DUP1 ISZERO PUSH2 0xF26 JUMPI POP PUSH1 0x1 PUSH1 0x1 PUSH1 0xA0 SHL SUB DUP5 AND EXTCODESIZE ISZERO JUMPDEST ISZERO PUSH2 0xF4F JUMPI PUSH1 0x40 MLOAD PUSH4 0x9996B315 PUSH1 0xE0 SHL DUP2 MSTORE PUSH1 0x1 PUSH1 0x1 PUSH1 0xA0 SHL SUB DUP6 AND PUSH1 0x4 DUP3 ADD MSTORE PUSH1 0x24 ADD PUSH2 0xE7E JUMP JUMPDEST POP DUP1 PUSH2 0x7E9 JUMP JUMPDEST DUP1 MLOAD ISZERO PUSH2 0xF66 JUMPI DUP1 MLOAD DUP1 DUP3 PUSH1 0x20 ADD REVERT JUMPDEST PUSH1 0x40 MLOAD PUSH4 0xA12F521 PUSH1 0xE1 SHL DUP2 MSTORE PUSH1 0x4 ADD PUSH1 0x40 MLOAD DUP1 SWAP2 SUB SWAP1 REVERT JUMPDEST DUP1 CALLDATALOAD PUSH1 0x1 PUSH1 0x1 PUSH1 0xA0 SHL SUB DUP2 AND DUP2 EQ PUSH2 0xF96 JUMPI PUSH1 0x0 DUP1 REVERT JUMPDEST SWAP2 SWAP1 POP JUMP JUMPDEST PUSH1 0x0 DUP1 PUSH1 0x40 DUP4 DUP6 SUB SLT ISZERO PUSH2 0xFAE JUMPI PUSH1 0x0 DUP1 REVERT JUMPDEST PUSH2 0xFB7 DUP4 PUSH2 0xF7F JUMP JUMPDEST SWAP2 POP PUSH2 0xFC5 PUSH1 0x20 DUP5 ADD PUSH2 0xF7F JUMP JUMPDEST SWAP1 POP SWAP3 POP SWAP3 SWAP1 POP JUMP JUMPDEST PUSH1 0x0 DUP1 PUSH1 0x40 DUP4 DUP6 SUB SLT ISZERO PUSH2 0xFE1 JUMPI PUSH1 0x0 DUP1 REVERT JUMPDEST PUSH2 0xFEA DUP4 PUSH2 0xF7F JUMP JUMPDEST SWAP5 PUSH1 0x20 SWAP4 SWAP1 SWAP4 ADD CALLDATALOAD SWAP4 POP POP POP JUMP JUMPDEST PUSH1 0x0 DUP1 PUSH1 0x0 PUSH1 0x60 DUP5 DUP7 SUB SLT ISZERO PUSH2 0x100D JUMPI PUSH1 0x0 DUP1 REVERT JUMPDEST PUSH2 0x1016 DUP5 PUSH2 0xF7F JUMP JUMPDEST SWAP3 POP PUSH2 0x1024 PUSH1 0x20 DUP6 ADD PUSH2 0xF7F JUMP JUMPDEST SWAP2 POP PUSH1 0x40 DUP5 ADD CALLDATALOAD SWAP1 POP SWAP3 POP SWAP3 POP SWAP3 JUMP JUMPDEST PUSH1 0x0 DUP1 PUSH1 0x0 PUSH1 0x60 DUP5 DUP7 SUB SLT ISZERO PUSH2 0x1049 JUMPI PUSH1 0x0 DUP1 REVERT JUMPDEST PUSH2 0x1052 DUP5 PUSH2 0xF7F JUMP JUMPDEST SWAP3 POP PUSH2 0x1060 PUSH1 0x20 DUP6 ADD PUSH2 0xF7F JUMP JUMPDEST SWAP2 POP PUSH2 0x106E PUSH1 0x40 DUP6 ADD PUSH2 0xF7F JUMP JUMPDEST SWAP1 POP SWAP3 POP SWAP3 POP SWAP3 JUMP JUMPDEST PUSH1 0x0 PUSH1 0x20 DUP3 DUP5 SUB SLT ISZERO PUSH2 0x1089 JUMPI PUSH1 0x0 DUP1 REVERT JUMPDEST PUSH2 0x7E9 DUP3 PUSH2 0xF7F JUMP JUMPDEST PUSH1 0x0 PUSH1 0x20 DUP3 DUP5 SUB SLT ISZERO PUSH2 0x10A4 JUMPI PUSH1 0x0 DUP1 REVERT JUMPDEST POP MLOAD SWAP2 SWAP1 POP JUMP JUMPDEST PUSH4 0x4E487B71 PUSH1 0xE0 SHL PUSH1 0x0 MSTORE PUSH1 0x11 PUSH1 0x4 MSTORE PUSH1 0x24 PUSH1 0x0 REVERT JUMPDEST DUP1 DUP3 MUL DUP2 ISZERO DUP3 DUP3 DIV DUP5 EQ OR PUSH2 0x3B3 JUMPI PUSH2 0x3B3 PUSH2 0x10AB JUMP JUMPDEST PUSH1 0x0 DUP3 PUSH2 0x10F5 JUMPI PUSH4 0x4E487B71 PUSH1 0xE0 SHL PUSH1 0x0 MSTORE PUSH1 0x12 PUSH1 0x4 MSTORE PUSH1 0x24 PUSH1 0x0 REVERT JUMPDEST POP DIV SWAP1 JUMP JUMPDEST DUP2 DUP2 SUB DUP2 DUP2 GT ISZERO PUSH2 0x3B3 JUMPI PUSH2 0x3B3 PUSH2 0x10AB JUMP JUMPDEST DUP1 DUP3 ADD DUP1 DUP3 GT ISZERO PUSH2 0x3B3 JUMPI PUSH2 0x3B3 PUSH2 0x10AB JUMP JUMPDEST PUSH1 0x0 PUSH1 0x20 DUP3 DUP5 SUB SLT ISZERO PUSH2 0x1132 JUMPI PUSH1 0x0 DUP1 REVERT JUMPDEST DUP2 MLOAD DUP1 ISZERO ISZERO DUP2 EQ PUSH2 0x7E9 JUMPI PUSH1 0x0 DUP1 REVERT JUMPDEST PUSH1 0x0 DUP3 MLOAD PUSH1 0x0 JUMPDEST DUP2 DUP2 LT ISZERO PUSH2 0x1163 JUMPI PUSH1 0x20 DUP2 DUP7 ADD DUP2 ADD MLOAD DUP6 DUP4 ADD MSTORE ADD PUSH2 0x1149 JUMP JUMPDEST POP PUSH1 0x0 SWAP3 ADD SWAP2 DUP3 MSTORE POP SWAP2 SWAP1 POP JUMP INVALID LOG2 PUSH5 0x6970667358 0x22 SLT KECCAK256 0x4C 0xDA PUSH28 0xB97779EE66243DC758B2BE29C645D53EF11C33C6213B0C044F6689D2 SHL PUSH5 0x736F6C6343 STOP ADDMOD EQ STOP CALLER "},"methodIdentifiers":{"BASIS_POINTS()":"e1f1c4a7","INTEREST_RATE()":"5b72a33a","LIQUIDATION_PENALTY()":"9b8621d5","LIQUIDATION_THRESHOLD()":"90a8ae9b","LTV_RATIO()":"5696b189","acceptedCollateral(address)":"f6cad255","addCollateral(address)":"f0d2d5a8","borrow(address,address,uint256)":"5224372c","collateral(address,address)":"cc218ece","debt(address,address)":"d449300d","deposit(address,uint256)":"47e7ef24","getCollateralValue(address,address)":"1eee3aa3","getHealthFactor(address,address,address)":"54510b9d","lastInterestUpdate(address)":"fade3496","liquidate(address,address,address)":"ca5ce2ec","owner()":"8da5cb5b","priceOracle()":"2630c12f","repay(address,uint256)":"22867d78","withdraw(address,uint256)":"f3fef3a3"}}}}}