{"contracts/oracles/OracleManager.sol":{"OracleManager":{"abi":[{"inputs":[],"stateMutability":"nonpayable","type":"constructor"},{"inputs":[],"name":"OracleManager__InvalidOracle","type":"error"},{"inputs":[],"name":"OracleManager__NoPriceAvailable","type":"error"},{"inputs":[],"name":"OracleManager__PriceDeviationTooHigh","type":"error"},{"inputs":[{"internalType":"address","name":"owner","type":"address"}],"name":"OwnableInvalidOwner","type":"error"},{"inputs":[{"internalType":"address","name":"account","type":"address"}],"name":"OwnableUnauthorizedAccount","type":"error"},{"anonymous":false,"inputs":[{"indexed":true,"internalType":"address","name":"oracle","type":"address"}],"name":"ManualOracleSet","type":"event"},{"anonymous":false,"inputs":[{"indexed":true,"internalType":"address","name":"previousOwner","type":"address"},{"indexed":true,"internalType":"address","name":"newOwner","type":"address"}],"name":"OwnershipTransferred","type":"event"},{"anonymous":false,"inputs":[{"indexed":true,"internalType":"address","name":"token","type":"address"},{"indexed":false,"internalType":"uint256","name":"price","type":"uint256"},{"indexed":false,"internalType":"uint8","name":"oracleUsed","type":"uint8"}],"name":"PriceRetrieved","type":"event"},{"anonymous":false,"inputs":[{"indexed":true,"internalType":"address","name":"oracle","type":"address"}],"name":"PrimaryOracleSet","type":"event"},{"anonymous":false,"inputs":[{"indexed":true,"internalType":"address","name":"oracle","type":"address"}],"name":"SecondaryOracleSet","type":"event"},{"inputs":[],"name":"BASIS_POINTS","outputs":[{"internalType":"uint256","name":"","type":"uint256"}],"stateMutability":"view","type":"function"},{"inputs":[],"name":"MAX_PRICE_DEVIATION","outputs":[{"internalType":"uint256","name":"","type":"uint256"}],"stateMutability":"view","type":"function"},{"inputs":[{"internalType":"address","name":"token","type":"address"}],"name":"getPrice","outputs":[{"internalType":"uint256","name":"price","type":"uint256"}],"stateMutability":"nonpayable","type":"function"},{"inputs":[{"internalType":"address","name":"token","type":"address"}],"name":"getValidatedPrice","outputs":[{"internalType":"uint256","name":"price","type":"uint256"}],"stateMutability":"nonpayable","type":"function"},{"inputs":[],"name":"manualOracle","outputs":[{"internalType":"contract IUniversalOracle","name":"","type":"address"}],"stateMutability":"view","type":"function"},{"inputs":[],"name":"owner","outputs":[{"internalType":"address","name":"","type":"address"}],"stateMutability":"view","type":"function"},{"inputs":[],"name":"primaryOracle","outputs":[{"internalType":"contract IUniversalOracle","name":"","type":"address"}],"stateMutability":"view","type":"function"},{"inputs":[],"name":"renounceOwnership","outputs":[],"stateMutability":"nonpayable","type":"function"},{"inputs":[],"name":"secondaryOracle","outputs":[{"internalType":"contract IUniversalOracle","name":"","type":"address"}],"stateMutability":"view","type":"function"},{"inputs":[{"internalType":"address","name":"oracle","type":"address"}],"name":"setManualOracle","outputs":[],"stateMutability":"nonpayable","type":"function"},{"inputs":[{"internalType":"address","name":"oracle","type":"address"}],"name":"setPrimaryOracle","outputs":[],"stateMutability":"nonpayable","type":"function"},{"inputs":[{"internalType":"address","name":"oracle","type":"address"}],"name":"setSecondaryOracle","outputs":[],"stateMutability":"nonpayable","type":"function"},{"inputs":[{"internalType":"address","name":"newOwner","type":"address"}],"name":"transferOwnership","outputs":[],"stateMutability":"nonpayable","type":"function"}],"evm":{"bytecode":{"linkReferences":{},"object":"608060405234801561001057600080fd5b50338061003757604051631e4fbdf760e01b81526000600482015260240160405180910390fd5b61004081610046565b50610096565b600080546001600160a01b038381166001600160a01b0319831681178455604051919092169283917f8be0079c531659141344cd1fd0a4f28419497f9722a3daafe3b4186f6b6457e09190a35050565b610a07806100a56000396000f3fe608060405234801561001057600080fd5b50600436106100cf5760003560e01c806396f277b71161008c578063d6e0c3b111610066578063d6e0c3b114610195578063e1f1c4a7146101a8578063f2188066146101b1578063f2fde38b146101c457600080fd5b806396f277b7146101665780639d7c3d5d1461016f578063bd8f238e1461018257600080fd5b80630949ad46146100d45780630efaa55e146100fa578063329d46091461012557806341976e0914610138578063715018a61461014b5780638da5cb5b14610155575b600080fd5b6100e76100e23660046108ef565b6101d7565b6040519081526020015b60405180910390f35b60035461010d906001600160a01b031681565b6040516001600160a01b0390911681526020016100f1565b60025461010d906001600160a01b031681565b6100e76101463660046108ef565b6103d9565b61015361064f565b005b6000546001600160a01b031661010d565b6100e76103e881565b61015361017d3660046108ef565b610663565b60015461010d906001600160a01b031681565b6101536101a33660046108ef565b6106dc565b6100e761271081565b6101536101bf3660046108ef565b610755565b6101536101d23660046108ef565b6107ce565b60015460009081908190819081906001600160a01b03161561026e576001546040516341976e0960e01b81526001600160a01b038881166004830152909116906341976e09906024016040805180830381865afa925050508015610258575060408051601f3d908101601f191682019092526102559181019061091f565b60015b1561026e57811561026b57819550600193505b50505b6002546001600160a01b0316156102fa576002546040516341976e0960e01b81526001600160a01b038881166004830152909116906341976e09906024016040805180830381865afa9250505080156102e4575060408051601f3d908101601f191682019092526102e19181019061091f565b60015b156102fa5781156102f757819450600192505b50505b8180156103045750805b156103455760006103158585610811565b90506103e881111561033a5760405163809d3ab760e01b815260040160405180910390fd5b509295945050505050565b8115610355575091949350505050565b8015610365575090949350505050565b6040516341976e0960e01b81526001600160a01b038716600482015230906341976e09906024016020604051808303816000875af11580156103ab573d6000803e3d6000fd5b505050506040513d601f19601f820116820180604052508101906103cf9190610943565b9695505050505050565b6001546000906001600160a01b0316156104ac576001546040516341976e0960e01b81526001600160a01b038481166004830152909116906341976e09906024016040805180830381865afa925050508015610452575060408051601f3d908101601f1916820190925261044f9181019061091f565b60015b156104ac5781156104a95760408051838152600160208201526001600160a01b038616917f7fba4a74f66643d7321f418f6aee11492d92aac524396d2748dbb6c095e13f5391015b60405180910390a25092915050565b50505b6002546001600160a01b031615610571576002546040516341976e0960e01b81526001600160a01b038481166004830152909116906341976e09906024016040805180830381865afa925050508015610522575060408051601f3d908101601f1916820190925261051f9181019061091f565b60015b1561057157811561056e5760408051838152600260208201526001600160a01b038616917f7fba4a74f66643d7321f418f6aee11492d92aac524396d2748dbb6c095e13f53910161049a565b50505b6003546001600160a01b031615610636576003546040516341976e0960e01b81526001600160a01b038481166004830152909116906341976e09906024016040805180830381865afa9250505080156105e7575060408051601f3d908101601f191682019092526105e49181019061091f565b60015b156106365781156106335760408051838152600360208201526001600160a01b038616917f7fba4a74f66643d7321f418f6aee11492d92aac524396d2748dbb6c095e13f53910161049a565b50505b60405163164f231b60e11b815260040160405180910390fd5b610657610872565b610661600061089f565b565b61066b610872565b6001600160a01b03811661069257604051633287118560e21b815260040160405180910390fd5b600380546001600160a01b0319166001600160a01b0383169081179091556040517f03df63d0a3112643fa60dea16ffbcfb255da1558a8ad8683645c41fb6a2c7de890600090a250565b6106e4610872565b6001600160a01b03811661070b57604051633287118560e21b815260040160405180910390fd5b600280546001600160a01b0319166001600160a01b0383169081179091556040517f8dda09c4a21a02ea715f6bf4e9b676c2d71eb7fed840c5ba80845255c7decf4f90600090a250565b61075d610872565b6001600160a01b03811661078457604051633287118560e21b815260040160405180910390fd5b600180546001600160a01b0319166001600160a01b0383169081179091556040517f9bdc61b9f2e0f947ed1b45f55a5cfc77c6defd5094c4eb3491dfbafeadc78b9590600090a250565b6107d6610872565b6001600160a01b03811661080557604051631e4fbdf760e01b8152600060048201526024015b60405180910390fd5b61080e8161089f565b50565b60008082841161082a576108258484610972565b610834565b6108348385610972565b9050600060026108448587610985565b61084e9190610998565b90508061085d612710846109ba565b6108679190610998565b925050505b92915050565b6000546001600160a01b031633146106615760405163118cdaa760e01b81523360048201526024016107fc565b600080546001600160a01b038381166001600160a01b0319831681178455604051919092169283917f8be0079c531659141344cd1fd0a4f28419497f9722a3daafe3b4186f6b6457e09190a35050565b60006020828403121561090157600080fd5b81356001600160a01b038116811461091857600080fd5b9392505050565b6000806040838503121561093257600080fd5b505080516020909101519092909150565b60006020828403121561095557600080fd5b5051919050565b634e487b7160e01b600052601160045260246000fd5b8181038181111561086c5761086c61095c565b8082018082111561086c5761086c61095c565b6000826109b557634e487b7160e01b600052601260045260246000fd5b500490565b808202811582820484141761086c5761086c61095c56fea2646970667358221220278eb79f541c6667133e390b108c07b8665dbb93e09123418b20ca1cda32bf3764736f6c63430008140033","opcodes":"PUSH1 0x80 PUSH1 0x40 MSTORE CALLVALUE DUP1 ISZERO PUSH2 0x10 JUMPI PUSH1 0x0 DUP1 REVERT JUMPDEST POP CALLER DUP1 PUSH2 0x37 JUMPI PUSH1 0x40 MLOAD PUSH4 0x1E4FBDF7 PUSH1 0xE0 SHL DUP2 MSTORE PUSH1 0x0 PUSH1 0x4 DUP3 ADD MSTORE PUSH1 0x24 ADD PUSH1 0x40 MLOAD DUP1 SWAP2 SUB SWAP1 REVERT JUMPDEST PUSH2 0x40 DUP2 PUSH2 0x46 JUMP JUMPDEST POP PUSH2 0x96 JUMP JUMPDEST PUSH1 0x0 DUP1 SLOAD PUSH1 0x1 PUSH1 0x1 PUSH1 0xA0 SHL SUB DUP4 DUP2 AND PUSH1 0x1 PUSH1 0x1 PUSH1 0xA0 SHL SUB NOT DUP4 AND DUP2 OR DUP5 SSTORE PUSH1 0x40 MLOAD SWAP2 SWAP1 SWAP3 AND SWAP3 DUP4 SWAP2 PUSH32 0x8BE0079C531659141344CD1FD0A4F28419497F9722A3DAAFE3B4186F6B6457E0 SWAP2 SWAP1 LOG3 POP POP JUMP JUMPDEST PUSH2 0xA07 DUP1 PUSH2 0xA5 PUSH1 0x0 CODECOPY PUSH1 0x0 RETURN INVALID PUSH1 0x80 PUSH1 0x40 MSTORE CALLVALUE DUP1 ISZERO PUSH2 0x10 JUMPI PUSH1 0x0 DUP1 REVERT JUMPDEST POP PUSH1 0x4 CALLDATASIZE LT PUSH2 0xCF JUMPI PUSH1 0x0 CALLDATALOAD PUSH1 0xE0 SHR DUP1 PUSH4 0x96F277B7 GT PUSH2 0x8C JUMPI DUP1 PUSH4 0xD6E0C3B1 GT PUSH2 0x66 JUMPI DUP1 PUSH4 0xD6E0C3B1 EQ PUSH2 0x195 JUMPI DUP1 PUSH4 0xE1F1C4A7 EQ PUSH2 0x1A8 JUMPI DUP1 PUSH4 0xF2188066 EQ PUSH2 0x1B1 JUMPI DUP1 PUSH4 0xF2FDE38B EQ PUSH2 0x1C4 JUMPI PUSH1 0x0 DUP1 REVERT JUMPDEST DUP1 PUSH4 0x96F277B7 EQ PUSH2 0x166 JUMPI DUP1 PUSH4 0x9D7C3D5D EQ PUSH2 0x16F JUMPI DUP1 PUSH4 0xBD8F238E EQ PUSH2 0x182 JUMPI PUSH1 0x0 DUP1 REVERT JUMPDEST DUP1 PUSH4 0x949AD46 EQ PUSH2 0xD4 JUMPI DUP1 PUSH4 0xEFAA55E EQ PUSH2 0xFA JUMPI DUP1 PUSH4 0x329D4609 EQ PUSH2 0x125 JUMPI DUP1 PUSH4 0x41976E09 EQ PUSH2 0x138 JUMPI DUP1 PUSH4 0x715018A6 EQ PUSH2 0x14B JUMPI DUP1 PUSH4 0x8DA5CB5B EQ PUSH2 0x155 JUMPI JUMPDEST PUSH1 0x0 DUP1 REVERT JUMPDEST PUSH2 0xE7 PUSH2 0xE2 CALLDATASIZE PUSH1 0x4 PUSH2 0x8EF JUMP JUMPDEST PUSH2 0x1D7 JUMP JUMPDEST PUSH1 0x40 MLOAD SWAP1 DUP2 MSTORE PUSH1 0x20 ADD JUMPDEST PUSH1 0x40 MLOAD DUP1 SWAP2 SUB SWAP1 RETURN JUMPDEST PUSH1 0x3 SLOAD PUSH2 0x10D SWAP1 PUSH1 0x1 PUSH1 0x1 PUSH1 0xA0 SHL SUB AND DUP2 JUMP JUMPDEST PUSH1 0x40 MLOAD PUSH1 0x1 PUSH1 0x1 PUSH1 0xA0 SHL SUB SWAP1 SWAP2 AND DUP2 MSTORE PUSH1 0x20 ADD PUSH2 0xF1 JUMP JUMPDEST PUSH1 0x2 SLOAD PUSH2 0x10D SWAP1 PUSH1 0x1 PUSH1 0x1 PUSH1 0xA0 SHL SUB AND DUP2 JUMP JUMPDEST PUSH2 0xE7 PUSH2 0x146 CALLDATASIZE PUSH1 0x4 PUSH2 0x8EF JUMP JUMPDEST PUSH2 0x3D9 JUMP JUMPDEST PUSH2 0x153 PUSH2 0x64F JUMP JUMPDEST STOP JUMPDEST PUSH1 0x0 SLOAD PUSH1 0x1 PUSH1 0x1 PUSH1 0xA0 SHL SUB AND PUSH2 0x10D JUMP JUMPDEST PUSH2 0xE7 PUSH2 0x3E8 DUP2 JUMP JUMPDEST PUSH2 0x153 PUSH2 0x17D CALLDATASIZE PUSH1 0x4 PUSH2 0x8EF JUMP JUMPDEST PUSH2 0x663 JUMP JUMPDEST PUSH1 0x1 SLOAD PUSH2 0x10D SWAP1 PUSH1 0x1 PUSH1 0x1 PUSH1 0xA0 SHL SUB AND DUP2 JUMP JUMPDEST PUSH2 0x153 PUSH2 0x1A3 CALLDATASIZE PUSH1 0x4 PUSH2 0x8EF JUMP JUMPDEST PUSH2 0x6DC JUMP JUMPDEST PUSH2 0xE7 PUSH2 0x2710 DUP2 JUMP JUMPDEST PUSH2 0x153 PUSH2 0x1BF CALLDATASIZE PUSH1 0x4 PUSH2 0x8EF JUMP JUMPDEST PUSH2 0x755 JUMP JUMPDEST PUSH2 0x153 PUSH2 0x1D2 CALLDATASIZE PUSH1 0x4 PUSH2 0x8EF JUMP JUMPDEST PUSH2 0x7CE JUMP JUMPDEST PUSH1 0x1 SLOAD PUSH1 0x0 SWAP1 DUP2 SWAP1 DUP2 SWAP1 DUP2 SWAP1 DUP2 SWAP1 PUSH1 0x1 PUSH1 0x1 PUSH1 0xA0 SHL SUB AND ISZERO PUSH2 0x26E JUMPI PUSH1 0x1 SLOAD PUSH1 0x40 MLOAD PUSH4 0x41976E09 PUSH1 0xE0 SHL DUP2 MSTORE PUSH1 0x1 PUSH1 0x1 PUSH1 0xA0 SHL SUB DUP9 DUP2 AND PUSH1 0x4 DUP4 ADD MSTORE SWAP1 SWAP2 AND SWAP1 PUSH4 0x41976E09 SWAP1 PUSH1 0x24 ADD PUSH1 0x40 DUP1 MLOAD DUP1 DUP4 SUB DUP2 DUP7 GAS STATICCALL SWAP3 POP POP POP DUP1 ISZERO PUSH2 0x258 JUMPI POP PUSH1 0x40 DUP1 MLOAD PUSH1 0x1F RETURNDATASIZE SWAP1 DUP2 ADD PUSH1 0x1F NOT AND DUP3 ADD SWAP1 SWAP3 MSTORE PUSH2 0x255 SWAP2 DUP2 ADD SWAP1 PUSH2 0x91F JUMP JUMPDEST PUSH1 0x1 JUMPDEST ISZERO PUSH2 0x26E JUMPI DUP2 ISZERO PUSH2 0x26B JUMPI DUP2 SWAP6 POP PUSH1 0x1 SWAP4 POP JUMPDEST POP POP JUMPDEST PUSH1 0x2 SLOAD PUSH1 0x1 PUSH1 0x1 PUSH1 0xA0 SHL SUB AND ISZERO PUSH2 0x2FA JUMPI PUSH1 0x2 SLOAD PUSH1 0x40 MLOAD PUSH4 0x41976E09 PUSH1 0xE0 SHL DUP2 MSTORE PUSH1 0x1 PUSH1 0x1 PUSH1 0xA0 SHL SUB DUP9 DUP2 AND PUSH1 0x4 DUP4 ADD MSTORE SWAP1 SWAP2 AND SWAP1 PUSH4 0x41976E09 SWAP1 PUSH1 0x24 ADD PUSH1 0x40 DUP1 MLOAD DUP1 DUP4 SUB DUP2 DUP7 GAS STATICCALL SWAP3 POP POP POP DUP1 ISZERO PUSH2 0x2E4 JUMPI POP PUSH1 0x40 DUP1 MLOAD PUSH1 0x1F RETURNDATASIZE SWAP1 DUP2 ADD PUSH1 0x1F NOT AND DUP3 ADD SWAP1 SWAP3 MSTORE PUSH2 0x2E1 SWAP2 DUP2 ADD SWAP1 PUSH2 0x91F JUMP JUMPDEST PUSH1 0x1 JUMPDEST ISZERO PUSH2 0x2FA JUMPI DUP2 ISZERO PUSH2 0x2F7 JUMPI DUP2 SWAP5 POP PUSH1 0x1 SWAP3 POP JUMPDEST POP POP JUMPDEST DUP2 DUP1 ISZERO PUSH2 0x304 JUMPI POP DUP1 JUMPDEST ISZERO PUSH2 0x345 JUMPI PUSH1 0x0 PUSH2 0x315 DUP6 DUP6 PUSH2 0x811 JUMP JUMPDEST SWAP1 POP PUSH2 0x3E8 DUP2 GT ISZERO PUSH2 0x33A JUMPI PUSH1 0x40 MLOAD PUSH4 0x809D3AB7 PUSH1 0xE0 SHL DUP2 MSTORE PUSH1 0x4 ADD PUSH1 0x40 MLOAD DUP1 SWAP2 SUB SWAP1 REVERT JUMPDEST POP SWAP3 SWAP6 SWAP5 POP POP POP POP POP JUMP JUMPDEST DUP2 ISZERO PUSH2 0x355 JUMPI POP SWAP2 SWAP5 SWAP4 POP POP POP POP JUMP JUMPDEST DUP1 ISZERO PUSH2 0x365 JUMPI POP SWAP1 SWAP5 SWAP4 POP POP POP POP JUMP JUMPDEST PUSH1 0x40 MLOAD PUSH4 0x41976E09 PUSH1 0xE0 SHL DUP2 MSTORE PUSH1 0x1 PUSH1 0x1 PUSH1 0xA0 SHL SUB DUP8 AND PUSH1 0x4 DUP3 ADD MSTORE ADDRESS SWAP1 PUSH4 0x41976E09 SWAP1 PUSH1 0x24 ADD PUSH1 0x20 PUSH1 0x40 MLOAD DUP1 DUP4 SUB DUP2 PUSH1 0x0 DUP8 GAS CALL ISZERO DUP1 ISZERO PUSH2 0x3AB JUMPI RETURNDATASIZE PUSH1 0x0 DUP1 RETURNDATACOPY RETURNDATASIZE PUSH1 0x0 REVERT JUMPDEST POP POP POP POP PUSH1 0x40 MLOAD RETURNDATASIZE PUSH1 0x1F NOT PUSH1 0x1F DUP3 ADD AND DUP3 ADD DUP1 PUSH1 0x40 MSTORE POP DUP2 ADD SWAP1 PUSH2 0x3CF SWAP2 SWAP1 PUSH2 0x943 JUMP JUMPDEST SWAP7 SWAP6 POP POP POP POP POP POP JUMP JUMPDEST PUSH1 0x1 SLOAD PUSH1 0x0 SWAP1 PUSH1 0x1 PUSH1 0x1 PUSH1 0xA0 SHL SUB AND ISZERO PUSH2 0x4AC JUMPI PUSH1 0x1 SLOAD PUSH1 0x40 MLOAD PUSH4 0x41976E09 PUSH1 0xE0 SHL DUP2 MSTORE PUSH1 0x1 PUSH1 0x1 PUSH1 0xA0 SHL SUB DUP5 DUP2 AND PUSH1 0x4 DUP4 ADD MSTORE SWAP1 SWAP2 AND SWAP1 PUSH4 0x41976E09 SWAP1 PUSH1 0x24 ADD PUSH1 0x40 DUP1 MLOAD DUP1 DUP4 SUB DUP2 DUP7 GAS STATICCALL SWAP3 POP POP POP DUP1 ISZERO PUSH2 0x452 JUMPI POP PUSH1 0x40 DUP1 MLOAD PUSH1 0x1F RETURNDATASIZE SWAP1 DUP2 ADD PUSH1 0x1F NOT AND DUP3 ADD SWAP1 SWAP3 MSTORE PUSH2 0x44F SWAP2 DUP2 ADD SWAP1 PUSH2 0x91F JUMP JUMPDEST PUSH1 0x1 JUMPDEST ISZERO PUSH2 0x4AC JUMPI DUP2 ISZERO PUSH2 0x4A9 JUMPI PUSH1 0x40 DUP1 MLOAD DUP4 DUP2 MSTORE PUSH1 0x1 PUSH1 0x20 DUP3 ADD MSTORE PUSH1 0x1 PUSH1 0x1 PUSH1 0xA0 SHL SUB DUP7 AND SWAP2 PUSH32 0x7FBA4A74F66643D7321F418F6AEE11492D92AAC524396D2748DBB6C095E13F53 SWAP2 ADD JUMPDEST PUSH1 0x40 MLOAD DUP1 SWAP2 SUB SWAP1 LOG2 POP SWAP3 SWAP2 POP POP JUMP JUMPDEST POP POP JUMPDEST PUSH1 0x2 SLOAD PUSH1 0x1 PUSH1 0x1 PUSH1 0xA0 SHL SUB AND ISZERO PUSH2 0x571 JUMPI PUSH1 0x2 SLOAD PUSH1 0x40 MLOAD PUSH4 0x41976E09 PUSH1 0xE0 SHL DUP2 MSTORE PUSH1 0x1 PUSH1 0x1 PUSH1 0xA0 SHL SUB DUP5 DUP2 AND PUSH1 0x4 DUP4 ADD MSTORE SWAP1 SWAP2 AND SWAP1 PUSH4 0x41976E09 SWAP1 PUSH1 0x24 ADD PUSH1 0x40 DUP1 MLOAD DUP1 DUP4 SUB DUP2 DUP7 GAS STATICCALL SWAP3 POP POP POP DUP1 ISZERO PUSH2 0x522 JUMPI POP PUSH1 0x40 DUP1 MLOAD PUSH1 0x1F RETURNDATASIZE SWAP1 DUP2 ADD PUSH1 0x1F NOT AND DUP3 ADD SWAP1 SWAP3 MSTORE PUSH2 0x51F SWAP2 DUP2 ADD SWAP1 PUSH2 0x91F JUMP JUMPDEST PUSH1 0x1 JUMPDEST ISZERO PUSH2 0x571 JUMPI DUP2 ISZERO PUSH2 0x56E JUMPI PUSH1 0x40 DUP1 MLOAD DUP4 DUP2 MSTORE PUSH1 0x2 PUSH1 0x20 DUP3 ADD MSTORE PUSH1 0x1 PUSH1 0x1 PUSH1 0xA0 SHL SUB DUP7 AND SWAP2 PUSH32 0x7FBA4A74F66643D7321F418F6AEE11492D92AAC524396D2748DBB6C095E13F53 SWAP2 ADD PUSH2 0x49A JUMP JUMPDEST POP POP JUMPDEST PUSH1 0x3 SLOAD PUSH1 0x1 PUSH1 0x1 PUSH1 0xA0 SHL SUB AND ISZERO PUSH2 0x636 JUMPI PUSH1 0x3 SLOAD PUSH1 0x40 MLOAD PUSH4 0x41976E09 PUSH1 0xE0 SHL DUP2 MSTORE PUSH1 0x1 PUSH1 0x1 PUSH1 0xA0 SHL SUB DUP5 DUP2 AND PUSH1 0x4 DUP4 ADD MSTORE SWAP1 SWAP2 AND SWAP1 PUSH4 0x41976E09 SWAP1 PUSH1 0x24 ADD PUSH1 0x40 DUP1 MLOAD DUP1 DUP4 SUB DUP2 DUP7 GAS STATICCALL SWAP3 POP POP POP DUP1 ISZERO PUSH2 0x5E7 JUMPI POP PUSH1 0x40 DUP1 MLOAD PUSH1 0x1F RETURNDATASIZE SWAP1 DUP2 ADD PUSH1 0x1F NOT AND DUP3 ADD SWAP1 SWAP3 MSTORE PUSH2 0x5E4 SWAP2 DUP2 ADD SWAP1 PUSH2 0x91F JUMP JUMPDEST PUSH1 0x1 JUMPDEST ISZERO PUSH2 0x636 JUMPI DUP2 ISZERO PUSH2 0x633 JUMPI PUSH1 0x40 DUP1 MLOAD DUP4 DUP2 MSTORE PUSH1 0x3 PUSH1 0x20 DUP3 ADD MSTORE PUSH1 0x1 PUSH1 0x1 PUSH1 0xA0 SHL SUB DUP7 AND SWAP2 PUSH32 0x7FBA4A74F66643D7321F418F6AEE11492D92AAC524396D2748DBB6C095E13F53 SWAP2 ADD PUSH2 0x49A JUMP JUMPDEST POP POP JUMPDEST PUSH1 0x40 MLOAD PUSH4 0x164F231B PUSH1 0xE1 SHL DUP2 MSTORE PUSH1 0x4 ADD PUSH1 0x40 MLOAD DUP1 SWAP2 SUB SWAP1 REVERT JUMPDEST PUSH2 0x657 PUSH2 0x872 JUMP JUMPDEST PUSH2 0x661 PUSH1 0x0 PUSH2 0x89F JUMP JUMPDEST JUMP JUMPDEST PUSH2 0x66B PUSH2 0x872 JUMP JUMPDEST PUSH1 0x1 PUSH1 0x1 PUSH1 0xA0 SHL SUB DUP2 AND PUSH2 0x692 JUMPI PUSH1 0x40 MLOAD PUSH4 0x32871185 PUSH1 0xE2 SHL DUP2 MSTORE PUSH1 0x4 ADD PUSH1 0x40 MLOAD DUP1 SWAP2 SUB SWAP1 REVERT JUMPDEST PUSH1 0x3 DUP1 SLOAD PUSH1 0x1 PUSH1 0x1 PUSH1 0xA0 SHL SUB NOT AND PUSH1 0x1 PUSH1 0x1 PUSH1 0xA0 SHL SUB DUP4 AND SWAP1 DUP2 OR SWAP1 SWAP2 SSTORE PUSH1 0x40 MLOAD PUSH32 0x3DF63D0A3112643FA60DEA16FFBCFB255DA1558A8AD8683645C41FB6A2C7DE8 SWAP1 PUSH1 0x0 SWAP1 LOG2 POP JUMP JUMPDEST PUSH2 0x6E4 PUSH2 0x872 JUMP JUMPDEST PUSH1 0x1 PUSH1 0x1 PUSH1 0xA0 SHL SUB DUP2 AND PUSH2 0x70B JUMPI PUSH1 0x40 MLOAD PUSH4 0x32871185 PUSH1 0xE2 SHL DUP2 MSTORE PUSH1 0x4 ADD PUSH1 0x40 MLOAD DUP1 SWAP2 SUB SWAP1 REVERT JUMPDEST PUSH1 0x2 DUP1 SLOAD PUSH1 0x1 PUSH1 0x1 PUSH1 0xA0 SHL SUB NOT AND PUSH1 0x1 PUSH1 0x1 PUSH1 0xA0 SHL SUB DUP4 AND SWAP1 DUP2 OR SWAP1 SWAP2 SSTORE PUSH1 0x40 MLOAD PUSH32 0x8DDA09C4A21A02EA715F6BF4E9B676C2D71EB7FED840C5BA80845255C7DECF4F SWAP1 PUSH1 0x0 SWAP1 LOG2 POP JUMP JUMPDEST PUSH2 0x75D PUSH2 0x872 JUMP JUMPDEST PUSH1 0x1 PUSH1 0x1 PUSH1 0xA0 SHL SUB DUP2 AND PUSH2 0x784 JUMPI PUSH1 0x40 MLOAD PUSH4 0x32871185 PUSH1 0xE2 SHL DUP2 MSTORE PUSH1 0x4 ADD PUSH1 0x40 MLOAD DUP1 SWAP2 SUB SWAP1 REVERT JUMPDEST PUSH1 0x1 DUP1 SLOAD PUSH1 0x1 PUSH1 0x1 PUSH1 0xA0 SHL SUB NOT AND PUSH1 0x1 PUSH1 0x1 PUSH1 0xA0 SHL SUB DUP4 AND SWAP1 DUP2 OR SWAP1 SWAP2 SSTORE PUSH1 0x40 MLOAD PUSH32 0x9BDC61B9F2E0F947ED1B45F55A5CFC77C6DEFD5094C4EB3491DFBAFEADC78B95 SWAP1 PUSH1 0x0 SWAP1 LOG2 POP JUMP JUMPDEST PUSH2 0x7D6 PUSH2 0x872 JUMP JUMPDEST PUSH1 0x1 PUSH1 0x1 PUSH1 0xA0 SHL SUB DUP2 AND PUSH2 0x805 JUMPI PUSH1 0x40 MLOAD PUSH4 0x1E4FBDF7 PUSH1 0xE0 SHL DUP2 MSTORE PUSH1 0x0 PUSH1 0x4 DUP3 ADD MSTORE PUSH1 0x24 ADD JUMPDEST PUSH1 0x40 MLOAD DUP1 SWAP2 SUB SWAP1 REVERT JUMPDEST PUSH2 0x80E DUP2 PUSH2 0x89F JUMP JUMPDEST POP JUMP JUMPDEST PUSH1 0x0 DUP1 DUP3 DUP5 GT PUSH2 0x82A JUMPI PUSH2 0x825 DUP5 DUP5 PUSH2 0x972 JUMP JUMPDEST PUSH2 0x834 JUMP JUMPDEST PUSH2 0x834 DUP4 DUP6 PUSH2 0x972 JUMP JUMPDEST SWAP1 POP PUSH1 0x0 PUSH1 0x2 PUSH2 0x844 DUP6 DUP8 PUSH2 0x985 JUMP JUMPDEST PUSH2 0x84E SWAP2 SWAP1 PUSH2 0x998 JUMP JUMPDEST SWAP1 POP DUP1 PUSH2 0x85D PUSH2 0x2710 DUP5 PUSH2 0x9BA JUMP JUMPDEST PUSH2 0x867 SWAP2 SWAP1 PUSH2 0x998 JUMP JUMPDEST SWAP3 POP POP POP JUMPDEST SWAP3 SWAP2 POP POP JUMP JUMPDEST PUSH1 0x0 SLOAD PUSH1 0x1 PUSH1 0x1 PUSH1 0xA0 SHL SUB AND CALLER EQ PUSH2 0x661 JUMPI PUSH1 0x40 MLOAD PUSH4 0x118CDAA7 PUSH1 0xE0 SHL DUP2 MSTORE CALLER PUSH1 0x4 DUP3 ADD MSTORE PUSH1 0x24 ADD PUSH2 0x7FC JUMP JUMPDEST PUSH1 0x0 DUP1 SLOAD PUSH1 0x1 PUSH1 0x1 PUSH1 0xA0 SHL SUB DUP4 DUP2 AND PUSH1 0x1 PUSH1 0x1 PUSH1 0xA0 SHL SUB NOT DUP4 AND DUP2 OR DUP5 SSTORE PUSH1 0x40 MLOAD SWAP2 SWAP1 SWAP3 AND SWAP3 DUP4 SWAP2 PUSH32 0x8BE0079C531659141344CD1FD0A4F28419497F9722A3DAAFE3B4186F6B6457E0 SWAP2 SWAP1 LOG3 POP POP JUMP JUMPDEST PUSH1 0x0 PUSH1 0x20 DUP3 DUP5 SUB SLT ISZERO PUSH2 0x901 JUMPI PUSH1 0x0 DUP1 REVERT JUMPDEST DUP2 CALLDATALOAD PUSH1 0x1 PUSH1 0x1 PUSH1 0xA0 SHL SUB DUP2 AND DUP2 EQ PUSH2 0x918 JUMPI PUSH1 0x0 DUP1 REVERT JUMPDEST SWAP4 SWAP3 POP POP POP JUMP JUMPDEST PUSH1 0x0 DUP1 PUSH1 0x40 DUP4 DUP6 SUB SLT ISZERO PUSH2 0x932 JUMPI PUSH1 0x0 DUP1 REVERT JUMPDEST POP POP DUP1 MLOAD PUSH1 0x20 SWAP1 SWAP2 ADD MLOAD SWAP1 SWAP3 SWAP1 SWAP2 POP JUMP JUMPDEST PUSH1 0x0 PUSH1 0x20 DUP3 DUP5 SUB SLT ISZERO PUSH2 0x955 JUMPI PUSH1 0x0 DUP1 REVERT JUMPDEST POP MLOAD SWAP2 SWAP1 POP JUMP JUMPDEST PUSH4 0x4E487B71 PUSH1 0xE0 SHL PUSH1 0x0 MSTORE PUSH1 0x11 PUSH1 0x4 MSTORE PUSH1 0x24 PUSH1 0x0 REVERT JUMPDEST DUP2 DUP2 SUB DUP2 DUP2 GT ISZERO PUSH2 0x86C JUMPI PUSH2 0x86C PUSH2 0x95C JUMP JUMPDEST DUP1 DUP3 ADD DUP1 DUP3 GT ISZERO PUSH2 0x86C JUMPI PUSH2 0x86C PUSH2 0x95C JUMP JUMPDEST PUSH1 0x0 DUP3 PUSH2 0x9B5 JUMPI PUSH4 0x4E487B71 PUSH1 0xE0 SHL PUSH1 0x0 MSTORE PUSH1 0x12 PUSH1 0x4 MSTORE PUSH1 0x24 PUSH1 0x0 REVERT JUMPDEST POP DIV SWAP1 JUMP JUMPDEST DUP1 DUP3 MUL DUP2 ISZERO DUP3 DUP3 DIV DUP5 EQ OR PUSH2 0x86C JUMPI PUSH2 0x86C PUSH2 0x95C JUMP INVALID LOG2 PUSH5 0x6970667358 0x22 SLT KECCAK256 0x27 DUP15 0xB7 SWAP16 SLOAD SHR PUSH7 0x67133E390B108C SMOD 0xB8 PUSH7 0x5DBB93E0912341 DUP12 KECCAK256 0xCA SHR 0xDA ORIGIN 0xBF CALLDATACOPY PUSH5 0x736F6C6343 STOP ADDMOD EQ STOP CALLER "},"methodIdentifiers":{"BASIS_POINTS()":"e1f1c4a7","MAX_PRICE_DEVIATION()":"96f277b7","getPrice(address)":"41976e09","getValidatedPrice(address)":"0949ad46","manualOracle()":"0efaa55e","owner()":"8da5cb5b","primaryOracle()":"bd8f238e","renounceOwnership()":"715018a6","secondaryOracle()":"329d4609","setManualOracle(address)":"9d7c3d5d","setPrimaryOracle(address)":"f2188066","setSecondaryOracle(address)":"d6e0c3b1","transferOwnership(address)":"f2fde38b"}}}}}