{"contracts/PriceOracle.sol":{"PriceOracle":{"abi":[{"inputs":[],"stateMutability":"nonpayable","type":"constructor"},{"inputs":[{"internalType":"address","name":"owner","type":"address"}],"name":"OwnableInvalidOwner","type":"error"},{"inputs":[{"internalType":"address","name":"account","type":"address"}],"name":"OwnableUnauthorizedAccount","type":"error"},{"inputs":[],"name":"PriceOracle__OnlyOwner","type":"error"},{"inputs":[],"name":"PriceOracle__PriceCannotBeZero","type":"error"},{"inputs":[],"name":"PriceOracle__PriceChangeTooLarge","type":"error"},{"inputs":[],"name":"PriceOracle__PriceNotSet","type":"error"},{"inputs":[],"name":"PriceOracle__PriceOutOfBounds","type":"error"},{"inputs":[],"name":"PriceOracle__UpdateTooFrequent","type":"error"},{"anonymous":false,"inputs":[{"indexed":true,"internalType":"address","name":"previousOwner","type":"address"},{"indexed":true,"internalType":"address","name":"newOwner","type":"address"}],"name":"OwnershipTransferred","type":"event"},{"anonymous":false,"inputs":[{"indexed":true,"internalType":"address","name":"token","type":"address"},{"indexed":false,"internalType":"uint256","name":"oldPrice","type":"uint256"},{"indexed":false,"internalType":"uint256","name":"newPrice","type":"uint256"}],"name":"PriceUpdated","type":"event"},{"inputs":[],"name":"BASIS_POINTS","outputs":[{"internalType":"uint256","name":"","type":"uint256"}],"stateMutability":"view","type":"function"},{"inputs":[],"name":"MAX_PRICE","outputs":[{"internalType":"uint256","name":"","type":"uint256"}],"stateMutability":"view","type":"function"},{"inputs":[],"name":"MAX_PRICE_CHANGE","outputs":[{"internalType":"uint256","name":"","type":"uint256"}],"stateMutability":"view","type":"function"},{"inputs":[],"name":"MIN_PRICE","outputs":[{"internalType":"uint256","name":"","type":"uint256"}],"stateMutability":"view","type":"function"},{"inputs":[],"name":"PRICE_UPDATE_DELAY","outputs":[{"internalType":"uint256","name":"","type":"uint256"}],"stateMutability":"view","type":"function"},{"inputs":[{"internalType":"address","name":"token","type":"address"},{"internalType":"uint256","name":"price","type":"uint256"}],"name":"emergencySetPrice","outputs":[],"stateMutability":"nonpayable","type":"function"},{"inputs":[{"internalType":"address","name":"token","type":"address"}],"name":"getPrice","outputs":[{"internalType":"uint256","name":"price","type":"uint256"}],"stateMutability":"view","type":"function"},{"inputs":[],"name":"owner","outputs":[{"internalType":"address","name":"","type":"address"}],"stateMutability":"view","type":"function"},{"inputs":[],"name":"renounceOwnership","outputs":[],"stateMutability":"nonpayable","type":"function"},{"inputs":[{"internalType":"address","name":"token","type":"address"},{"internalType":"uint256","name":"price","type":"uint256"}],"name":"setPrice","outputs":[],"stateMutability":"nonpayable","type":"function"},{"inputs":[{"internalType":"address","name":"newOwner","type":"address"}],"name":"transferOwnership","outputs":[],"stateMutability":"nonpayable","type":"function"}],"evm":{"bytecode":{"linkReferences":{},"object":"608060405234801561001057600080fd5b50338061003757604051631e4fbdf760e01b81526000600482015260240160405180910390fd5b61004081610046565b50610096565b600080546001600160a01b038381166001600160a01b0319831681178455604051919092169283917f8be0079c531659141344cd1fd0a4f28419497f9722a3daafe3b4186f6b6457e09190a35050565b610611806100a56000396000f3fe608060405234801561001057600080fd5b50600436106100a85760003560e01c80636ef3bd92116100715780636ef3bd921461010e578063715018a6146101215780638da5cb5b14610129578063ad9f20a614610144578063e1f1c4a714610150578063f2fde38b1461015957600080fd5b8062e4768b146100ad57806301c11d96146100c25780632084bf9f146100e95780632e67af09146100f257806341976e09146100fb575b600080fd5b6100c06100bb366004610514565b61016c565b005b6100d66c0c9f2c9cd04674edea4000000081565b6040519081526020015b60405180910390f35b6100d661138881565b6100d6610e1081565b6100d661010936600461053e565b610361565b6100c061011c366004610514565b6103a0565b6100c0610429565b6000546040516001600160a01b0390911681526020016100e0565b6100d664e8d4a5100081565b6100d661271081565b6100c061016736600461053e565b61043d565b6000546001600160a01b0316331461019757604051635bbb09d760e11b815260040160405180910390fd5b806000036101b85760405163137007b760e21b815260040160405180910390fd5b64e8d4a510008110806101d757506c0c9f2c9cd04674edea4000000081115b156101f557604051631e6017f360e31b815260040160405180910390fd5b6001600160a01b038216600090815260026020526040902054156102f7576001600160a01b03821660009081526002602052604090205461023990610e1090610576565b4210156102595760405163962625a160e01b815260040160405180910390fd5b6001600160a01b03821660009081526001602052604090205480156102f5576000818311156102ab5781612710610290828661058f565b61029a91906105a2565b6102a491906105b9565b90506102d0565b816127106102b9858361058f565b6102c391906105a2565b6102cd91906105b9565b90505b6113888111156102f357604051636537cec560e01b815260040160405180910390fd5b505b505b6001600160a01b0382166000818152600160209081526040808320805490869055600283529281902042905580518381529182018590529192917fb556fac599c3c70efb9ab1fa725ecace6c81cc48d1455f886607def065f3e0c0910160405180910390a2505050565b6001600160a01b0381166000908152600160205260408120549081900361039b5760405163ec2e32b960e01b815260040160405180910390fd5b919050565b6000546001600160a01b031633146103cb57604051635bbb09d760e11b815260040160405180910390fd5b806000036103ec5760405163137007b760e21b815260040160405180910390fd5b64e8d4a5100081108061040b57506c0c9f2c9cd04674edea4000000081115b156102f757604051631e6017f360e31b815260040160405180910390fd5b610431610480565b61043b60006104ad565b565b610445610480565b6001600160a01b03811661047457604051631e4fbdf760e01b8152600060048201526024015b60405180910390fd5b61047d816104ad565b50565b6000546001600160a01b0316331461043b5760405163118cdaa760e01b815233600482015260240161046b565b600080546001600160a01b038381166001600160a01b0319831681178455604051919092169283917f8be0079c531659141344cd1fd0a4f28419497f9722a3daafe3b4186f6b6457e09190a35050565b80356001600160a01b038116811461039b57600080fd5b6000806040838503121561052757600080fd5b610530836104fd565b946020939093013593505050565b60006020828403121561055057600080fd5b610559826104fd565b9392505050565b634e487b7160e01b600052601160045260246000fd5b8082018082111561058957610589610560565b92915050565b8181038181111561058957610589610560565b808202811582820484141761058957610589610560565b6000826105d657634e487b7160e01b600052601260045260246000fd5b50049056fea26469706673582212205ec2d923d0681c162c5cf66392417d96e26ce37d43b0684b7d781962214e966764736f6c63430008140033","opcodes":"PUSH1 0x80 PUSH1 0x40 MSTORE CALLVALUE DUP1 ISZERO PUSH2 0x10 JUMPI PUSH1 0x0 DUP1 REVERT JUMPDEST POP CALLER DUP1 PUSH2 0x37 JUMPI PUSH1 0x40 MLOAD PUSH4 0x1E4FBDF7 PUSH1 0xE0 SHL DUP2 MSTORE PUSH1 0x0 PUSH1 0x4 DUP3 ADD MSTORE PUSH1 0x24 ADD PUSH1 0x40 MLOAD DUP1 SWAP2 SUB SWAP1 REVERT JUMPDEST PUSH2 0x40 DUP2 PUSH2 0x46 JUMP JUMPDEST POP PUSH2 0x96 JUMP JUMPDEST PUSH1 0x0 DUP1 SLOAD PUSH1 0x1 PUSH1 0x1 PUSH1 0xA0 SHL SUB DUP4 DUP2 AND PUSH1 0x1 PUSH1 0x1 PUSH1 0xA0 SHL SUB NOT DUP4 AND DUP2 OR DUP5 SSTORE PUSH1 0x40 MLOAD SWAP2 SWAP1 SWAP3 AND SWAP3 DUP4 SWAP2 PUSH32 0x8BE0079C531659141344CD1FD0A4F28419497F9722A3DAAFE3B4186F6B6457E0 SWAP2 SWAP1 LOG3 POP POP JUMP JUMPDEST PUSH2 0x611 DUP1 PUSH2 0xA5 PUSH1 0x0 CODECOPY PUSH1 0x0 RETURN INVALID PUSH1 0x80 PUSH1 0x40 MSTORE CALLVALUE DUP1 ISZERO PUSH2 0x10 JUMPI PUSH1 0x0 DUP1 REVERT JUMPDEST POP PUSH1 0x4 CALLDATASIZE LT PUSH2 0xA8 JUMPI PUSH1 0x0 CALLDATALOAD PUSH1 0xE0 SHR DUP1 PUSH4 0x6EF3BD92 GT PUSH2 0x71 JUMPI DUP1 PUSH4 0x6EF3BD92 EQ PUSH2 0x10E JUMPI DUP1 PUSH4 0x715018A6 EQ PUSH2 0x121 JUMPI DUP1 PUSH4 0x8DA5CB5B EQ PUSH2 0x129 JUMPI DUP1 PUSH4 0xAD9F20A6 EQ PUSH2 0x144 JUMPI DUP1 PUSH4 0xE1F1C4A7 EQ PUSH2 0x150 JUMPI DUP1 PUSH4 0xF2FDE38B EQ PUSH2 0x159 JUMPI PUSH1 0x0 DUP1 REVERT JUMPDEST DUP1 PUSH3 0xE4768B EQ PUSH2 0xAD JUMPI DUP1 PUSH4 0x1C11D96 EQ PUSH2 0xC2 JUMPI DUP1 PUSH4 0x2084BF9F EQ PUSH2 0xE9 JUMPI DUP1 PUSH4 0x2E67AF09 EQ PUSH2 0xF2 JUMPI DUP1 PUSH4 0x41976E09 EQ PUSH2 0xFB JUMPI JUMPDEST PUSH1 0x0 DUP1 REVERT JUMPDEST PUSH2 0xC0 PUSH2 0xBB CALLDATASIZE PUSH1 0x4 PUSH2 0x514 JUMP JUMPDEST PUSH2 0x16C JUMP JUMPDEST STOP JUMPDEST PUSH2 0xD6 PUSH13 0xC9F2C9CD04674EDEA40000000 DUP2 JUMP JUMPDEST PUSH1 0x40 MLOAD SWAP1 DUP2 MSTORE PUSH1 0x20 ADD JUMPDEST PUSH1 0x40 MLOAD DUP1 SWAP2 SUB SWAP1 RETURN JUMPDEST PUSH2 0xD6 PUSH2 0x1388 DUP2 JUMP JUMPDEST PUSH2 0xD6 PUSH2 0xE10 DUP2 JUMP JUMPDEST PUSH2 0xD6 PUSH2 0x109 CALLDATASIZE PUSH1 0x4 PUSH2 0x53E JUMP JUMPDEST PUSH2 0x361 JUMP JUMPDEST PUSH2 0xC0 PUSH2 0x11C CALLDATASIZE PUSH1 0x4 PUSH2 0x514 JUMP JUMPDEST PUSH2 0x3A0 JUMP JUMPDEST PUSH2 0xC0 PUSH2 0x429 JUMP JUMPDEST PUSH1 0x0 SLOAD PUSH1 0x40 MLOAD PUSH1 0x1 PUSH1 0x1 PUSH1 0xA0 SHL SUB SWAP1 SWAP2 AND DUP2 MSTORE PUSH1 0x20 ADD PUSH2 0xE0 JUMP JUMPDEST PUSH2 0xD6 PUSH5 0xE8D4A51000 DUP2 JUMP JUMPDEST PUSH2 0xD6 PUSH2 0x2710 DUP2 JUMP JUMPDEST PUSH2 0xC0 PUSH2 0x167 CALLDATASIZE PUSH1 0x4 PUSH2 0x53E JUMP JUMPDEST PUSH2 0x43D JUMP JUMPDEST PUSH1 0x0 SLOAD PUSH1 0x1 PUSH1 0x1 PUSH1 0xA0 SHL SUB AND CALLER EQ PUSH2 0x197 JUMPI PUSH1 0x40 MLOAD PUSH4 0x5BBB09D7 PUSH1 0xE1 SHL DUP2 MSTORE PUSH1 0x4 ADD PUSH1 0x40 MLOAD DUP1 SWAP2 SUB SWAP1 REVERT JUMPDEST DUP1 PUSH1 0x0 SUB PUSH2 0x1B8 JUMPI PUSH1 0x40 MLOAD PUSH4 0x137007B7 PUSH1 0xE2 SHL DUP2 MSTORE PUSH1 0x4 ADD PUSH1 0x40 MLOAD DUP1 SWAP2 SUB SWAP1 REVERT JUMPDEST PUSH5 0xE8D4A51000 DUP2 LT DUP1 PUSH2 0x1D7 JUMPI POP PUSH13 0xC9F2C9CD04674EDEA40000000 DUP2 GT JUMPDEST ISZERO PUSH2 0x1F5 JUMPI PUSH1 0x40 MLOAD PUSH4 0x1E6017F3 PUSH1 0xE3 SHL DUP2 MSTORE PUSH1 0x4 ADD PUSH1 0x40 MLOAD DUP1 SWAP2 SUB SWAP1 REVERT JUMPDEST PUSH1 0x1 PUSH1 0x1 PUSH1 0xA0 SHL SUB DUP3 AND PUSH1 0x0 SWAP1 DUP2 MSTORE PUSH1 0x2 PUSH1 0x20 MSTORE PUSH1 0x40 SWAP1 KECCAK256 SLOAD ISZERO PUSH2 0x2F7 JUMPI PUSH1 0x1 PUSH1 0x1 PUSH1 0xA0 SHL SUB DUP3 AND PUSH1 0x0 SWAP1 DUP2 MSTORE PUSH1 0x2 PUSH1 0x20 MSTORE PUSH1 0x40 SWAP1 KECCAK256 SLOAD PUSH2 0x239 SWAP1 PUSH2 0xE10 SWAP1 PUSH2 0x576 JUMP JUMPDEST TIMESTAMP LT ISZERO PUSH2 0x259 JUMPI PUSH1 0x40 MLOAD PUSH4 0x962625A1 PUSH1 0xE0 SHL DUP2 MSTORE PUSH1 0x4 ADD PUSH1 0x40 MLOAD DUP1 SWAP2 SUB SWAP1 REVERT JUMPDEST PUSH1 0x1 PUSH1 0x1 PUSH1 0xA0 SHL SUB DUP3 AND PUSH1 0x0 SWAP1 DUP2 MSTORE PUSH1 0x1 PUSH1 0x20 MSTORE PUSH1 0x40 SWAP1 KECCAK256 SLOAD DUP1 ISZERO PUSH2 0x2F5 JUMPI PUSH1 0x0 DUP2 DUP4 GT ISZERO PUSH2 0x2AB JUMPI DUP2 PUSH2 0x2710 PUSH2 0x290 DUP3 DUP7 PUSH2 0x58F JUMP JUMPDEST PUSH2 0x29A SWAP2 SWAP1 PUSH2 0x5A2 JUMP JUMPDEST PUSH2 0x2A4 SWAP2 SWAP1 PUSH2 0x5B9 JUMP JUMPDEST SWAP1 POP PUSH2 0x2D0 JUMP JUMPDEST DUP2 PUSH2 0x2710 PUSH2 0x2B9 DUP6 DUP4 PUSH2 0x58F JUMP JUMPDEST PUSH2 0x2C3 SWAP2 SWAP1 PUSH2 0x5A2 JUMP JUMPDEST PUSH2 0x2CD SWAP2 SWAP1 PUSH2 0x5B9 JUMP JUMPDEST SWAP1 POP JUMPDEST PUSH2 0x1388 DUP2 GT ISZERO PUSH2 0x2F3 JUMPI PUSH1 0x40 MLOAD PUSH4 0x6537CEC5 PUSH1 0xE0 SHL DUP2 MSTORE PUSH1 0x4 ADD PUSH1 0x40 MLOAD DUP1 SWAP2 SUB SWAP1 REVERT JUMPDEST POP JUMPDEST POP JUMPDEST PUSH1 0x1 PUSH1 0x1 PUSH1 0xA0 SHL SUB DUP3 AND PUSH1 0x0 DUP2 DUP2 MSTORE PUSH1 0x1 PUSH1 0x20 SWAP1 DUP2 MSTORE PUSH1 0x40 DUP1 DUP4 KECCAK256 DUP1 SLOAD SWAP1 DUP7 SWAP1 SSTORE PUSH1 0x2 DUP4 MSTORE SWAP3 DUP2 SWAP1 KECCAK256 TIMESTAMP SWAP1 SSTORE DUP1 MLOAD DUP4 DUP2 MSTORE SWAP2 DUP3 ADD DUP6 SWAP1 MSTORE SWAP2 SWAP3 SWAP2 PUSH32 0xB556FAC599C3C70EFB9AB1FA725ECACE6C81CC48D1455F886607DEF065F3E0C0 SWAP2 ADD PUSH1 0x40 MLOAD DUP1 SWAP2 SUB SWAP1 LOG2 POP POP POP JUMP JUMPDEST PUSH1 0x1 PUSH1 0x1 PUSH1 0xA0 SHL SUB DUP2 AND PUSH1 0x0 SWAP1 DUP2 MSTORE PUSH1 0x1 PUSH1 0x20 MSTORE PUSH1 0x40 DUP2 KECCAK256 SLOAD SWAP1 DUP2 SWAP1 SUB PUSH2 0x39B JUMPI PUSH1 0x40 MLOAD PUSH4 0xEC2E32B9 PUSH1 0xE0 SHL DUP2 MSTORE PUSH1 0x4 ADD PUSH1 0x40 MLOAD DUP1 SWAP2 SUB SWAP1 REVERT JUMPDEST SWAP2 SWAP1 POP JUMP JUMPDEST PUSH1 0x0 SLOAD PUSH1 0x1 PUSH1 0x1 PUSH1 0xA0 SHL SUB AND CALLER EQ PUSH2 0x3CB JUMPI PUSH1 0x40 MLOAD PUSH4 0x5BBB09D7 PUSH1 0xE1 SHL DUP2 MSTORE PUSH1 0x4 ADD PUSH1 0x40 MLOAD DUP1 SWAP2 SUB SWAP1 REVERT JUMPDEST DUP1 PUSH1 0x0 SUB PUSH2 0x3EC JUMPI PUSH1 0x40 MLOAD PUSH4 0x137007B7 PUSH1 0xE2 SHL DUP2 MSTORE PUSH1 0x4 ADD PUSH1 0x40 MLOAD DUP1 SWAP2 SUB SWAP1 REVERT JUMPDEST PUSH5 0xE8D4A51000 DUP2 LT DUP1 PUSH2 0x40B JUMPI POP PUSH13 0xC9F2C9CD04674EDEA40000000 DUP2 GT JUMPDEST ISZERO PUSH2 0x2F7 JUMPI PUSH1 0x40 MLOAD PUSH4 0x1E6017F3 PUSH1 0xE3 SHL DUP2 MSTORE PUSH1 0x4 ADD PUSH1 0x40 MLOAD DUP1 SWAP2 SUB SWAP1 REVERT JUMPDEST PUSH2 0x431 PUSH2 0x480 JUMP JUMPDEST PUSH2 0x43B PUSH1 0x0 PUSH2 0x4AD JUMP JUMPDEST JUMP JUMPDEST PUSH2 0x445 PUSH2 0x480 JUMP JUMPDEST PUSH1 0x1 PUSH1 0x1 PUSH1 0xA0 SHL SUB DUP2 AND PUSH2 0x474 JUMPI PUSH1 0x40 MLOAD PUSH4 0x1E4FBDF7 PUSH1 0xE0 SHL DUP2 MSTORE PUSH1 0x0 PUSH1 0x4 DUP3 ADD MSTORE PUSH1 0x24 ADD JUMPDEST PUSH1 0x40 MLOAD DUP1 SWAP2 SUB SWAP1 REVERT JUMPDEST PUSH2 0x47D DUP2 PUSH2 0x4AD JUMP JUMPDEST POP JUMP JUMPDEST PUSH1 0x0 SLOAD PUSH1 0x1 PUSH1 0x1 PUSH1 0xA0 SHL SUB AND CALLER EQ PUSH2 0x43B JUMPI PUSH1 0x40 MLOAD PUSH4 0x118CDAA7 PUSH1 0xE0 SHL DUP2 MSTORE CALLER PUSH1 0x4 DUP3 ADD MSTORE PUSH1 0x24 ADD PUSH2 0x46B JUMP JUMPDEST PUSH1 0x0 DUP1 SLOAD PUSH1 0x1 PUSH1 0x1 PUSH1 0xA0 SHL SUB DUP4 DUP2 AND PUSH1 0x1 PUSH1 0x1 PUSH1 0xA0 SHL SUB NOT DUP4 AND DUP2 OR DUP5 SSTORE PUSH1 0x40 MLOAD SWAP2 SWAP1 SWAP3 AND SWAP3 DUP4 SWAP2 PUSH32 0x8BE0079C531659141344CD1FD0A4F28419497F9722A3DAAFE3B4186F6B6457E0 SWAP2 SWAP1 LOG3 POP POP JUMP JUMPDEST DUP1 CALLDATALOAD PUSH1 0x1 PUSH1 0x1 PUSH1 0xA0 SHL SUB DUP2 AND DUP2 EQ PUSH2 0x39B JUMPI PUSH1 0x0 DUP1 REVERT JUMPDEST PUSH1 0x0 DUP1 PUSH1 0x40 DUP4 DUP6 SUB SLT ISZERO PUSH2 0x527 JUMPI PUSH1 0x0 DUP1 REVERT JUMPDEST PUSH2 0x530 DUP4 PUSH2 0x4FD JUMP JUMPDEST SWAP5 PUSH1 0x20 SWAP4 SWAP1 SWAP4 ADD CALLDATALOAD SWAP4 POP POP POP JUMP JUMPDEST PUSH1 0x0 PUSH1 0x20 DUP3 DUP5 SUB SLT ISZERO PUSH2 0x550 JUMPI PUSH1 0x0 DUP1 REVERT JUMPDEST PUSH2 0x559 DUP3 PUSH2 0x4FD JUMP JUMPDEST SWAP4 SWAP3 POP POP POP JUMP JUMPDEST PUSH4 0x4E487B71 PUSH1 0xE0 SHL PUSH1 0x0 MSTORE PUSH1 0x11 PUSH1 0x4 MSTORE PUSH1 0x24 PUSH1 0x0 REVERT JUMPDEST DUP1 DUP3 ADD DUP1 DUP3 GT ISZERO PUSH2 0x589 JUMPI PUSH2 0x589 PUSH2 0x560 JUMP JUMPDEST SWAP3 SWAP2 POP POP JUMP JUMPDEST DUP2 DUP2 SUB DUP2 DUP2 GT ISZERO PUSH2 0x589 JUMPI PUSH2 0x589 PUSH2 0x560 JUMP JUMPDEST DUP1 DUP3 MUL DUP2 ISZERO DUP3 DUP3 DIV DUP5 EQ OR PUSH2 0x589 JUMPI PUSH2 0x589 PUSH2 0x560 JUMP JUMPDEST PUSH1 0x0 DUP3 PUSH2 0x5D6 JUMPI PUSH4 0x4E487B71 PUSH1 0xE0 SHL PUSH1 0x0 MSTORE PUSH1 0x12 PUSH1 0x4 MSTORE PUSH1 0x24 PUSH1 0x0 REVERT JUMPDEST POP DIV SWAP1 JUMP INVALID LOG2 PUSH5 0x6970667358 0x22 SLT KECCAK256 0x5E 0xC2 0xD9 0x23 0xD0 PUSH9 0x1C162C5CF66392417D SWAP7 0xE2 PUSH13 0xE37D43B0684B7D781962214E96 PUSH8 0x64736F6C63430008 EQ STOP CALLER "},"methodIdentifiers":{"BASIS_POINTS()":"e1f1c4a7","MAX_PRICE()":"01c11d96","MAX_PRICE_CHANGE()":"2084bf9f","MIN_PRICE()":"ad9f20a6","PRICE_UPDATE_DELAY()":"2e67af09","emergencySetPrice(address,uint256)":"6ef3bd92","getPrice(address)":"41976e09","owner()":"8da5cb5b","renounceOwnership()":"715018a6","setPrice(address,uint256)":"00e4768b","transferOwnership(address)":"f2fde38b"}}}}}