{"contracts/oracles/ChainlinkOracle.sol":{"ChainlinkOracle":{"abi":[{"inputs":[],"stateMutability":"nonpayable","type":"constructor"},{"inputs":[],"name":"ChainlinkOracle__AggregatorNotSet","type":"error"},{"inputs":[],"name":"ChainlinkOracle__InvalidPrice","type":"error"},{"inputs":[],"name":"ChainlinkOracle__PriceNotSet","type":"error"},{"inputs":[],"name":"ChainlinkOracle__StalePrice","type":"error"},{"inputs":[{"internalType":"address","name":"owner","type":"address"}],"name":"OwnableInvalidOwner","type":"error"},{"inputs":[{"internalType":"address","name":"account","type":"address"}],"name":"OwnableUnauthorizedAccount","type":"error"},{"anonymous":false,"inputs":[{"indexed":true,"internalType":"address","name":"token","type":"address"},{"indexed":true,"internalType":"address","name":"aggregator","type":"address"}],"name":"AggregatorSet","type":"event"},{"anonymous":false,"inputs":[{"indexed":true,"internalType":"address","name":"previousOwner","type":"address"},{"indexed":true,"internalType":"address","name":"newOwner","type":"address"}],"name":"OwnershipTransferred","type":"event"},{"anonymous":false,"inputs":[{"indexed":true,"internalType":"address","name":"token","type":"address"},{"indexed":false,"internalType":"uint256","name":"price","type":"uint256"},{"indexed":false,"internalType":"uint256","name":"timestamp","type":"uint256"}],"name":"PriceUpdated","type":"event"},{"inputs":[],"name":"PRICE_STALENESS_THRESHOLD","outputs":[{"internalType":"uint256","name":"","type":"uint256"}],"stateMutability":"view","type":"function"},{"inputs":[{"internalType":"address","name":"token","type":"address"}],"name":"getPrice","outputs":[{"internalType":"uint256","name":"price","type":"uint256"},{"internalType":"uint256","name":"timestamp","type":"uint256"}],"stateMutability":"view","type":"function"},{"inputs":[],"name":"getPriceStalenessThreshold","outputs":[{"internalType":"uint256","name":"threshold","type":"uint256"}],"stateMutability":"pure","type":"function"},{"inputs":[{"internalType":"address","name":"token","type":"address"}],"name":"hasPrice","outputs":[{"internalType":"bool","name":"","type":"bool"}],"stateMutability":"view","type":"function"},{"inputs":[],"name":"owner","outputs":[{"internalType":"address","name":"","type":"address"}],"stateMutability":"view","type":"function"},{"inputs":[],"name":"renounceOwnership","outputs":[],"stateMutability":"nonpayable","type":"function"},{"inputs":[{"internalType":"address","name":"token","type":"address"},{"internalType":"address","name":"aggregator","type":"address"}],"name":"setAggregator","outputs":[],"stateMutability":"nonpayable","type":"function"},{"inputs":[{"internalType":"address","name":"","type":"address"}],"name":"tokenToAggregator","outputs":[{"internalType":"address","name":"","type":"address"}],"stateMutability":"view","type":"function"},{"inputs":[{"internalType":"address","name":"newOwner","type":"address"}],"name":"transferOwnership","outputs":[],"stateMutability":"nonpayable","type":"function"}],"evm":{"bytecode":{"linkReferences":{},"object":"608060405234801561001057600080fd5b50338061003757604051631e4fbdf760e01b81526000600482015260240160405180910390fd5b61004081610046565b50610096565b600080546001600160a01b038381166001600160a01b0319831681178455604051919092169283917f8be0079c531659141344cd1fd0a4f28419497f9722a3daafe3b4186f6b6457e09190a35050565b61077f806100a56000396000f3fe608060405234801561001057600080fd5b50600436106100935760003560e01c8063a93fa05f11610066578063a93fa05f14610107578063c34f548a14610130578063c4164cd414610142578063f25b9caa14610165578063f2fde38b1461016e57600080fd5b806341976e0914610098578063715018a6146100c55780637394a7f6146100cf5780638da5cb5b146100e2575b600080fd5b6100ab6100a6366004610515565b610181565b604080519283526020830191909152015b60405180910390f35b6100cd61030d565b005b6100cd6100dd366004610537565b610321565b6000546001600160a01b03165b6040516001600160a01b0390911681526020016100bc565b6100ef610115366004610515565b6001602052600090815260409020546001600160a01b031681565b610e105b6040519081526020016100bc565b610155610150366004610515565b610380565b60405190151581526020016100bc565b610134610e1081565b6100cd61017c366004610515565b610439565b6001600160a01b038082166000908152600160205260408120549091829116806101be576040516370c33e4f60e01b815260040160405180910390fd5b600080826001600160a01b031663feaf968c6040518163ffffffff1660e01b815260040160a060405180830381865afa1580156101ff573d6000803e3d6000fd5b505050506040513d601f19601f820116820180604052508101906102239190610584565b509350509250506000821361024b576040516322365b1960e11b815260040160405180910390fd5b610e1061025882426105ea565b11156102775760405163537b1b5b60e01b815260040160405180910390fd5b6000836001600160a01b031663313ce5676040518163ffffffff1660e01b8152600401602060405180830381865afa1580156102b7573d6000803e3d6000fd5b505050506040513d601f19601f820116820180604052508101906102db9190610603565b905060006102ea826012610626565b6102f590600a610723565b6102ff9085610732565b989297509195505050505050565b61031561047c565b61031f60006104a9565b565b61032961047c565b6001600160a01b0382811660008181526001602052604080822080546001600160a01b0319169486169485179055517f84e1bba7d2e21dccf1934a4188807abc546c4632d794d2c097bfc4f599230cac9190a35050565b6001600160a01b03808216600090815260016020526040812054909116806103ab5750600092915050565b806001600160a01b031663feaf968c6040518163ffffffff1660e01b815260040160a060405180830381865afa925050508015610405575060408051601f3d908101601f1916820190925261040291810190610584565b60015b6104125750600092915050565b60008413801561042d5750610e1061042a83426105ea565b11155b98975050505050505050565b61044161047c565b6001600160a01b03811661047057604051631e4fbdf760e01b8152600060048201526024015b60405180910390fd5b610479816104a9565b50565b6000546001600160a01b0316331461031f5760405163118cdaa760e01b8152336004820152602401610467565b600080546001600160a01b038381166001600160a01b0319831681178455604051919092169283917f8be0079c531659141344cd1fd0a4f28419497f9722a3daafe3b4186f6b6457e09190a35050565b80356001600160a01b038116811461051057600080fd5b919050565b60006020828403121561052757600080fd5b610530826104f9565b9392505050565b6000806040838503121561054a57600080fd5b610553836104f9565b9150610561602084016104f9565b90509250929050565b805169ffffffffffffffffffff8116811461051057600080fd5b600080600080600060a0868803121561059c57600080fd5b6105a58661056a565b94506020860151935060408601519250606086015191506105c86080870161056a565b90509295509295909350565b634e487b7160e01b600052601160045260246000fd5b818103818111156105fd576105fd6105d4565b92915050565b60006020828403121561061557600080fd5b815160ff8116811461053057600080fd5b60ff82811682821603908111156105fd576105fd6105d4565b600181815b8085111561067a578160001904821115610660576106606105d4565b8085161561066d57918102915b93841c9390800290610644565b509250929050565b600082610691575060016105fd565b8161069e575060006105fd565b81600181146106b457600281146106be576106da565b60019150506105fd565b60ff8411156106cf576106cf6105d4565b50506001821b6105fd565b5060208310610133831016604e8410600b84101617156106fd575081810a6105fd565b610707838361063f565b806000190482111561071b5761071b6105d4565b029392505050565b600061053060ff841683610682565b80820281158282048414176105fd576105fd6105d456fea264697066735822122095a855d08a1cf8de5055e40a8fc3c13898d9d7c07266f8d195c40566028daaac64736f6c63430008140033","opcodes":"PUSH1 0x80 PUSH1 0x40 MSTORE CALLVALUE DUP1 ISZERO PUSH2 0x10 JUMPI PUSH1 0x0 DUP1 REVERT JUMPDEST POP CALLER DUP1 PUSH2 0x37 JUMPI PUSH1 0x40 MLOAD PUSH4 0x1E4FBDF7 PUSH1 0xE0 SHL DUP2 MSTORE PUSH1 0x0 PUSH1 0x4 DUP3 ADD MSTORE PUSH1 0x24 ADD PUSH1 0x40 MLOAD DUP1 SWAP2 SUB SWAP1 REVERT JUMPDEST PUSH2 0x40 DUP2 PUSH2 0x46 JUMP JUMPDEST POP PUSH2 0x96 JUMP JUMPDEST PUSH1 0x0 DUP1 SLOAD PUSH1 0x1 PUSH1 0x1 PUSH1 0xA0 SHL SUB DUP4 DUP2 AND PUSH1 0x1 PUSH1 0x1 PUSH1 0xA0 SHL SUB NOT DUP4 AND DUP2 OR DUP5 SSTORE PUSH1 0x40 MLOAD SWAP2 SWAP1 SWAP3 AND SWAP3 DUP4 SWAP2 PUSH32 0x8BE0079C531659141344CD1FD0A4F28419497F9722A3DAAFE3B4186F6B6457E0 SWAP2 SWAP1 LOG3 POP POP JUMP JUMPDEST PUSH2 0x77F DUP1 PUSH2 0xA5 PUSH1 0x0 CODECOPY PUSH1 0x0 RETURN INVALID PUSH1 0x80 PUSH1 0x40 MSTORE CALLVALUE DUP1 ISZERO PUSH2 0x10 JUMPI PUSH1 0x0 DUP1 REVERT JUMPDEST POP PUSH1 0x4 CALLDATASIZE LT PUSH2 0x93 JUMPI PUSH1 0x0 CALLDATALOAD PUSH1 0xE0 SHR DUP1 PUSH4 0xA93FA05F GT PUSH2 0x66 JUMPI DUP1 PUSH4 0xA93FA05F EQ PUSH2 0x107 JUMPI DUP1 PUSH4 0xC34F548A EQ PUSH2 0x130 JUMPI DUP1 PUSH4 0xC4164CD4 EQ PUSH2 0x142 JUMPI DUP1 PUSH4 0xF25B9CAA EQ PUSH2 0x165 JUMPI DUP1 PUSH4 0xF2FDE38B EQ PUSH2 0x16E JUMPI PUSH1 0x0 DUP1 REVERT JUMPDEST DUP1 PUSH4 0x41976E09 EQ PUSH2 0x98 JUMPI DUP1 PUSH4 0x715018A6 EQ PUSH2 0xC5 JUMPI DUP1 PUSH4 0x7394A7F6 EQ PUSH2 0xCF JUMPI DUP1 PUSH4 0x8DA5CB5B EQ PUSH2 0xE2 JUMPI JUMPDEST PUSH1 0x0 DUP1 REVERT JUMPDEST PUSH2 0xAB PUSH2 0xA6 CALLDATASIZE PUSH1 0x4 PUSH2 0x515 JUMP JUMPDEST PUSH2 0x181 JUMP JUMPDEST PUSH1 0x40 DUP1 MLOAD SWAP3 DUP4 MSTORE PUSH1 0x20 DUP4 ADD SWAP2 SWAP1 SWAP2 MSTORE ADD JUMPDEST PUSH1 0x40 MLOAD DUP1 SWAP2 SUB SWAP1 RETURN JUMPDEST PUSH2 0xCD PUSH2 0x30D JUMP JUMPDEST STOP JUMPDEST PUSH2 0xCD PUSH2 0xDD CALLDATASIZE PUSH1 0x4 PUSH2 0x537 JUMP JUMPDEST PUSH2 0x321 JUMP JUMPDEST PUSH1 0x0 SLOAD PUSH1 0x1 PUSH1 0x1 PUSH1 0xA0 SHL SUB AND JUMPDEST PUSH1 0x40 MLOAD PUSH1 0x1 PUSH1 0x1 PUSH1 0xA0 SHL SUB SWAP1 SWAP2 AND DUP2 MSTORE PUSH1 0x20 ADD PUSH2 0xBC JUMP JUMPDEST PUSH2 0xEF PUSH2 0x115 CALLDATASIZE PUSH1 0x4 PUSH2 0x515 JUMP JUMPDEST PUSH1 0x1 PUSH1 0x20 MSTORE PUSH1 0x0 SWAP1 DUP2 MSTORE PUSH1 0x40 SWAP1 KECCAK256 SLOAD PUSH1 0x1 PUSH1 0x1 PUSH1 0xA0 SHL SUB AND DUP2 JUMP JUMPDEST PUSH2 0xE10 JUMPDEST PUSH1 0x40 MLOAD SWAP1 DUP2 MSTORE PUSH1 0x20 ADD PUSH2 0xBC JUMP JUMPDEST PUSH2 0x155 PUSH2 0x150 CALLDATASIZE PUSH1 0x4 PUSH2 0x515 JUMP JUMPDEST PUSH2 0x380 JUMP JUMPDEST PUSH1 0x40 MLOAD SWAP1 ISZERO ISZERO DUP2 MSTORE PUSH1 0x20 ADD PUSH2 0xBC JUMP JUMPDEST PUSH2 0x134 PUSH2 0xE10 DUP2 JUMP JUMPDEST PUSH2 0xCD PUSH2 0x17C CALLDATASIZE PUSH1 0x4 PUSH2 0x515 JUMP JUMPDEST PUSH2 0x439 JUMP JUMPDEST PUSH1 0x1 PUSH1 0x1 PUSH1 0xA0 SHL SUB DUP1 DUP3 AND PUSH1 0x0 SWAP1 DUP2 MSTORE PUSH1 0x1 PUSH1 0x20 MSTORE PUSH1 0x40 DUP2 KECCAK256 SLOAD SWAP1 SWAP2 DUP3 SWAP2 AND DUP1 PUSH2 0x1BE JUMPI PUSH1 0x40 MLOAD PUSH4 0x70C33E4F PUSH1 0xE0 SHL DUP2 MSTORE PUSH1 0x4 ADD PUSH1 0x40 MLOAD DUP1 SWAP2 SUB SWAP1 REVERT JUMPDEST PUSH1 0x0 DUP1 DUP3 PUSH1 0x1 PUSH1 0x1 PUSH1 0xA0 SHL SUB AND PUSH4 0xFEAF968C PUSH1 0x40 MLOAD DUP2 PUSH4 0xFFFFFFFF AND PUSH1 0xE0 SHL DUP2 MSTORE PUSH1 0x4 ADD PUSH1 0xA0 PUSH1 0x40 MLOAD DUP1 DUP4 SUB DUP2 DUP7 GAS STATICCALL ISZERO DUP1 ISZERO PUSH2 0x1FF JUMPI RETURNDATASIZE PUSH1 0x0 DUP1 RETURNDATACOPY RETURNDATASIZE PUSH1 0x0 REVERT JUMPDEST POP POP POP POP PUSH1 0x40 MLOAD RETURNDATASIZE PUSH1 0x1F NOT PUSH1 0x1F DUP3 ADD AND DUP3 ADD DUP1 PUSH1 0x40 MSTORE POP DUP2 ADD SWAP1 PUSH2 0x223 SWAP2 SWAP1 PUSH2 0x584 JUMP JUMPDEST POP SWAP4 POP POP SWAP3 POP POP PUSH1 0x0 DUP3 SGT PUSH2 0x24B JUMPI PUSH1 0x40 MLOAD PUSH4 0x22365B19 PUSH1 0xE1 SHL DUP2 MSTORE PUSH1 0x4 ADD PUSH1 0x40 MLOAD DUP1 SWAP2 SUB SWAP1 REVERT JUMPDEST PUSH2 0xE10 PUSH2 0x258 DUP3 TIMESTAMP PUSH2 0x5EA JUMP JUMPDEST GT ISZERO PUSH2 0x277 JUMPI PUSH1 0x40 MLOAD PUSH4 0x537B1B5B PUSH1 0xE0 SHL DUP2 MSTORE PUSH1 0x4 ADD PUSH1 0x40 MLOAD DUP1 SWAP2 SUB SWAP1 REVERT JUMPDEST PUSH1 0x0 DUP4 PUSH1 0x1 PUSH1 0x1 PUSH1 0xA0 SHL SUB AND PUSH4 0x313CE567 PUSH1 0x40 MLOAD DUP2 PUSH4 0xFFFFFFFF AND PUSH1 0xE0 SHL DUP2 MSTORE PUSH1 0x4 ADD PUSH1 0x20 PUSH1 0x40 MLOAD DUP1 DUP4 SUB DUP2 DUP7 GAS STATICCALL ISZERO DUP1 ISZERO PUSH2 0x2B7 JUMPI RETURNDATASIZE PUSH1 0x0 DUP1 RETURNDATACOPY RETURNDATASIZE PUSH1 0x0 REVERT JUMPDEST POP POP POP POP PUSH1 0x40 MLOAD RETURNDATASIZE PUSH1 0x1F NOT PUSH1 0x1F DUP3 ADD AND DUP3 ADD DUP1 PUSH1 0x40 MSTORE POP DUP2 ADD SWAP1 PUSH2 0x2DB SWAP2 SWAP1 PUSH2 0x603 JUMP JUMPDEST SWAP1 POP PUSH1 0x0 PUSH2 0x2EA DUP3 PUSH1 0x12 PUSH2 0x626 JUMP JUMPDEST PUSH2 0x2F5 SWAP1 PUSH1 0xA PUSH2 0x723 JUMP JUMPDEST PUSH2 0x2FF SWAP1 DUP6 PUSH2 0x732 JUMP JUMPDEST SWAP9 SWAP3 SWAP8 POP SWAP2 SWAP6 POP POP POP POP POP POP JUMP JUMPDEST PUSH2 0x315 PUSH2 0x47C JUMP JUMPDEST PUSH2 0x31F PUSH1 0x0 PUSH2 0x4A9 JUMP JUMPDEST JUMP JUMPDEST PUSH2 0x329 PUSH2 0x47C JUMP JUMPDEST PUSH1 0x1 PUSH1 0x1 PUSH1 0xA0 SHL SUB DUP3 DUP2 AND PUSH1 0x0 DUP2 DUP2 MSTORE PUSH1 0x1 PUSH1 0x20 MSTORE PUSH1 0x40 DUP1 DUP3 KECCAK256 DUP1 SLOAD PUSH1 0x1 PUSH1 0x1 PUSH1 0xA0 SHL SUB NOT AND SWAP5 DUP7 AND SWAP5 DUP6 OR SWAP1 SSTORE MLOAD PUSH32 0x84E1BBA7D2E21DCCF1934A4188807ABC546C4632D794D2C097BFC4F599230CAC SWAP2 SWAP1 LOG3 POP POP JUMP JUMPDEST PUSH1 0x1 PUSH1 0x1 PUSH1 0xA0 SHL SUB DUP1 DUP3 AND PUSH1 0x0 SWAP1 DUP2 MSTORE PUSH1 0x1 PUSH1 0x20 MSTORE PUSH1 0x40 DUP2 KECCAK256 SLOAD SWAP1 SWAP2 AND DUP1 PUSH2 0x3AB JUMPI POP PUSH1 0x0 SWAP3 SWAP2 POP POP JUMP JUMPDEST DUP1 PUSH1 0x1 PUSH1 0x1 PUSH1 0xA0 SHL SUB AND PUSH4 0xFEAF968C PUSH1 0x40 MLOAD DUP2 PUSH4 0xFFFFFFFF AND PUSH1 0xE0 SHL DUP2 MSTORE PUSH1 0x4 ADD PUSH1 0xA0 PUSH1 0x40 MLOAD DUP1 DUP4 SUB DUP2 DUP7 GAS STATICCALL SWAP3 POP POP POP DUP1 ISZERO PUSH2 0x405 JUMPI POP PUSH1 0x40 DUP1 MLOAD PUSH1 0x1F RETURNDATASIZE SWAP1 DUP2 ADD PUSH1 0x1F NOT AND DUP3 ADD SWAP1 SWAP3 MSTORE PUSH2 0x402 SWAP2 DUP2 ADD SWAP1 PUSH2 0x584 JUMP JUMPDEST PUSH1 0x1 JUMPDEST PUSH2 0x412 JUMPI POP PUSH1 0x0 SWAP3 SWAP2 POP POP JUMP JUMPDEST PUSH1 0x0 DUP5 SGT DUP1 ISZERO PUSH2 0x42D JUMPI POP PUSH2 0xE10 PUSH2 0x42A DUP4 TIMESTAMP PUSH2 0x5EA JUMP JUMPDEST GT ISZERO JUMPDEST SWAP9 SWAP8 POP POP POP POP POP POP POP POP JUMP JUMPDEST PUSH2 0x441 PUSH2 0x47C JUMP JUMPDEST PUSH1 0x1 PUSH1 0x1 PUSH1 0xA0 SHL SUB DUP2 AND PUSH2 0x470 JUMPI PUSH1 0x40 MLOAD PUSH4 0x1E4FBDF7 PUSH1 0xE0 SHL DUP2 MSTORE PUSH1 0x0 PUSH1 0x4 DUP3 ADD MSTORE PUSH1 0x24 ADD JUMPDEST PUSH1 0x40 MLOAD DUP1 SWAP2 SUB SWAP1 REVERT JUMPDEST PUSH2 0x479 DUP2 PUSH2 0x4A9 JUMP JUMPDEST POP JUMP JUMPDEST PUSH1 0x0 SLOAD PUSH1 0x1 PUSH1 0x1 PUSH1 0xA0 SHL SUB AND CALLER EQ PUSH2 0x31F JUMPI PUSH1 0x40 MLOAD PUSH4 0x118CDAA7 PUSH1 0xE0 SHL DUP2 MSTORE CALLER PUSH1 0x4 DUP3 ADD MSTORE PUSH1 0x24 ADD PUSH2 0x467 JUMP JUMPDEST PUSH1 0x0 DUP1 SLOAD PUSH1 0x1 PUSH1 0x1 PUSH1 0xA0 SHL SUB DUP4 DUP2 AND PUSH1 0x1 PUSH1 0x1 PUSH1 0xA0 SHL SUB NOT DUP4 AND DUP2 OR DUP5 SSTORE PUSH1 0x40 MLOAD SWAP2 SWAP1 SWAP3 AND SWAP3 DUP4 SWAP2 PUSH32 0x8BE0079C531659141344CD1FD0A4F28419497F9722A3DAAFE3B4186F6B6457E0 SWAP2 SWAP1 LOG3 POP POP JUMP JUMPDEST DUP1 CALLDATALOAD PUSH1 0x1 PUSH1 0x1 PUSH1 0xA0 SHL SUB DUP2 AND DUP2 EQ PUSH2 0x510 JUMPI PUSH1 0x0 DUP1 REVERT JUMPDEST SWAP2 SWAP1 POP JUMP JUMPDEST PUSH1 0x0 PUSH1 0x20 DUP3 DUP5 SUB SLT ISZERO PUSH2 0x527 JUMPI PUSH1 0x0 DUP1 REVERT JUMPDEST PUSH2 0x530 DUP3 PUSH2 0x4F9 JUMP JUMPDEST SWAP4 SWAP3 POP POP POP JUMP JUMPDEST PUSH1 0x0 DUP1 PUSH1 0x40 DUP4 DUP6 SUB SLT ISZERO PUSH2 0x54A JUMPI PUSH1 0x0 DUP1 REVERT JUMPDEST PUSH2 0x553 DUP4 PUSH2 0x4F9 JUMP JUMPDEST SWAP2 POP PUSH2 0x561 PUSH1 0x20 DUP5 ADD PUSH2 0x4F9 JUMP JUMPDEST SWAP1 POP SWAP3 POP SWAP3 SWAP1 POP JUMP JUMPDEST DUP1 MLOAD PUSH10 0xFFFFFFFFFFFFFFFFFFFF DUP2 AND DUP2 EQ PUSH2 0x510 JUMPI PUSH1 0x0 DUP1 REVERT JUMPDEST PUSH1 0x0 DUP1 PUSH1 0x0 DUP1 PUSH1 0x0 PUSH1 0xA0 DUP7 DUP9 SUB SLT ISZERO PUSH2 0x59C JUMPI PUSH1 0x0 DUP1 REVERT JUMPDEST PUSH2 0x5A5 DUP7 PUSH2 0x56A JUMP JUMPDEST SWAP5 POP PUSH1 0x20 DUP7 ADD MLOAD SWAP4 POP PUSH1 0x40 DUP7 ADD MLOAD SWAP3 POP PUSH1 0x60 DUP7 ADD MLOAD SWAP2 POP PUSH2 0x5C8 PUSH1 0x80 DUP8 ADD PUSH2 0x56A JUMP JUMPDEST SWAP1 POP SWAP3 SWAP6 POP SWAP3 SWAP6 SWAP1 SWAP4 POP JUMP JUMPDEST PUSH4 0x4E487B71 PUSH1 0xE0 SHL PUSH1 0x0 MSTORE PUSH1 0x11 PUSH1 0x4 MSTORE PUSH1 0x24 PUSH1 0x0 REVERT JUMPDEST DUP2 DUP2 SUB DUP2 DUP2 GT ISZERO PUSH2 0x5FD JUMPI PUSH2 0x5FD PUSH2 0x5D4 JUMP JUMPDEST SWAP3 SWAP2 POP POP JUMP JUMPDEST PUSH1 0x0 PUSH1 0x20 DUP3 DUP5 SUB SLT ISZERO PUSH2 0x615 JUMPI PUSH1 0x0 DUP1 REVERT JUMPDEST DUP2 MLOAD PUSH1 0xFF DUP2 AND DUP2 EQ PUSH2 0x530 JUMPI PUSH1 0x0 DUP1 REVERT JUMPDEST PUSH1 0xFF DUP3 DUP2 AND DUP3 DUP3 AND SUB SWAP1 DUP2 GT ISZERO PUSH2 0x5FD JUMPI PUSH2 0x5FD PUSH2 0x5D4 JUMP JUMPDEST PUSH1 0x1 DUP2 DUP2 JUMPDEST DUP1 DUP6 GT ISZERO PUSH2 0x67A JUMPI DUP2 PUSH1 0x0 NOT DIV DUP3 GT ISZERO PUSH2 0x660 JUMPI PUSH2 0x660 PUSH2 0x5D4 JUMP JUMPDEST DUP1 DUP6 AND ISZERO PUSH2 0x66D JUMPI SWAP2 DUP2 MUL SWAP2 JUMPDEST SWAP4 DUP5 SHR SWAP4 SWAP1 DUP1 MUL SWAP1 PUSH2 0x644 JUMP JUMPDEST POP SWAP3 POP SWAP3 SWAP1 POP JUMP JUMPDEST PUSH1 0x0 DUP3 PUSH2 0x691 JUMPI POP PUSH1 0x1 PUSH2 0x5FD JUMP JUMPDEST DUP2 PUSH2 0x69E JUMPI POP PUSH1 0x0 PUSH2 0x5FD JUMP JUMPDEST DUP2 PUSH1 0x1 DUP2 EQ PUSH2 0x6B4 JUMPI PUSH1 0x2 DUP2 EQ PUSH2 0x6BE JUMPI PUSH2 0x6DA JUMP JUMPDEST PUSH1 0x1 SWAP2 POP POP PUSH2 0x5FD JUMP JUMPDEST PUSH1 0xFF DUP5 GT ISZERO PUSH2 0x6CF JUMPI PUSH2 0x6CF PUSH2 0x5D4 JUMP JUMPDEST POP POP PUSH1 0x1 DUP3 SHL PUSH2 0x5FD JUMP JUMPDEST POP PUSH1 0x20 DUP4 LT PUSH2 0x133 DUP4 LT AND PUSH1 0x4E DUP5 LT PUSH1 0xB DUP5 LT AND OR ISZERO PUSH2 0x6FD JUMPI POP DUP2 DUP2 EXP PUSH2 0x5FD JUMP JUMPDEST PUSH2 0x707 DUP4 DUP4 PUSH2 0x63F JUMP JUMPDEST DUP1 PUSH1 0x0 NOT DIV DUP3 GT ISZERO PUSH2 0x71B JUMPI PUSH2 0x71B PUSH2 0x5D4 JUMP JUMPDEST MUL SWAP4 SWAP3 POP POP POP JUMP JUMPDEST PUSH1 0x0 PUSH2 0x530 PUSH1 0xFF DUP5 AND DUP4 PUSH2 0x682 JUMP JUMPDEST DUP1 DUP3 MUL DUP2 ISZERO DUP3 DUP3 DIV DUP5 EQ OR PUSH2 0x5FD JUMPI PUSH2 0x5FD PUSH2 0x5D4 JUMP INVALID LOG2 PUSH5 0x6970667358 0x22 SLT KECCAK256 SWAP6 0xA8 SSTORE 0xD0 DUP11 SHR 0xF8 0xDE POP SSTORE 0xE4 EXP DUP16 0xC3 0xC1 CODESIZE SWAP9 0xD9 0xD7 0xC0 PUSH19 0x66F8D195C40566028DAAAC64736F6C63430008 EQ STOP CALLER "},"methodIdentifiers":{"PRICE_STALENESS_THRESHOLD()":"f25b9caa","getPrice(address)":"41976e09","getPriceStalenessThreshold()":"c34f548a","hasPrice(address)":"c4164cd4","owner()":"8da5cb5b","renounceOwnership()":"715018a6","setAggregator(address,address)":"7394a7f6","tokenToAggregator(address)":"a93fa05f","transferOwnership(address)":"f2fde38b"}}}}}