{"contracts/VaultManager.sol":{"VaultManager":{"abi":[{"inputs":[{"internalType":"address","name":"_priceOracle","type":"address"},{"internalType":"address","name":"_protocolTreasury","type":"address"}],"stateMutability":"nonpayable","type":"constructor"},{"inputs":[{"internalType":"address","name":"target","type":"address"}],"name":"AddressEmptyCode","type":"error"},{"inputs":[{"internalType":"address","name":"account","type":"address"}],"name":"AddressInsufficientBalance","type":"error"},{"inputs":[],"name":"EnforcedPause","type":"error"},{"inputs":[],"name":"ExpectedPause","type":"error"},{"inputs":[],"name":"FailedInnerCall","type":"error"},{"inputs":[],"name":"ReentrancyGuardReentrantCall","type":"error"},{"inputs":[{"internalType":"address","name":"token","type":"address"}],"name":"SafeERC20FailedOperation","type":"error"},{"inputs":[],"name":"VaultManager__ExceedsBorrowLimit","type":"error"},{"inputs":[],"name":"VaultManager__HealthFactorTooLow","type":"error"},{"inputs":[],"name":"VaultManager__InsufficientCollateral","type":"error"},{"inputs":[],"name":"VaultManager__InsufficientDebt","type":"error"},{"inputs":[],"name":"VaultManager__InsufficientLiquidity","type":"error"},{"inputs":[],"name":"VaultManager__NoDebt","type":"error"},{"inputs":[],"name":"VaultManager__NotPendingOwner","type":"error"},{"inputs":[],"name":"VaultManager__OnlyOwner","type":"error"},{"inputs":[],"name":"VaultManager__PositionHealthy","type":"error"},{"inputs":[],"name":"VaultManager__TokenNotAccepted","type":"error"},{"inputs":[],"name":"VaultManager__TransferFailed","type":"error"},{"inputs":[],"name":"VaultManager__ZeroAddress","type":"error"},{"inputs":[],"name":"VaultManager__ZeroAmount","type":"error"},{"anonymous":false,"inputs":[{"indexed":true,"internalType":"address","name":"user","type":"address"},{"indexed":true,"internalType":"address","name":"collateralToken","type":"address"},{"indexed":true,"internalType":"address","name":"borrowToken","type":"address"},{"indexed":false,"internalType":"uint256","name":"amount","type":"uint256"}],"name":"Borrowed","type":"event"},{"anonymous":false,"inputs":[{"indexed":true,"internalType":"address","name":"user","type":"address"},{"indexed":true,"internalType":"address","name":"token","type":"address"},{"indexed":false,"internalType":"uint256","name":"amount","type":"uint256"}],"name":"CollateralDeposited","type":"event"},{"anonymous":false,"inputs":[{"indexed":true,"internalType":"address","name":"user","type":"address"},{"indexed":true,"internalType":"address","name":"token","type":"address"},{"indexed":false,"internalType":"uint256","name":"amount","type":"uint256"}],"name":"CollateralWithdrawn","type":"event"},{"anonymous":false,"inputs":[{"indexed":true,"internalType":"address","name":"user","type":"address"},{"indexed":true,"internalType":"address","name":"collateralToken","type":"address"},{"indexed":true,"internalType":"address","name":"debtToken","type":"address"},{"indexed":false,"internalType":"uint256","name":"collateralSeized","type":"uint256"},{"indexed":false,"internalType":"uint256","name":"liquidatorReward","type":"uint256"}],"name":"Liquidated","type":"event"},{"anonymous":false,"inputs":[{"indexed":false,"internalType":"address","name":"account","type":"address"}],"name":"Paused","type":"event"},{"anonymous":false,"inputs":[{"indexed":true,"internalType":"address","name":"user","type":"address"},{"indexed":true,"internalType":"address","name":"token","type":"address"},{"indexed":false,"internalType":"uint256","name":"amount","type":"uint256"}],"name":"Repaid","type":"event"},{"anonymous":false,"inputs":[{"indexed":false,"internalType":"address","name":"account","type":"address"}],"name":"Unpaused","type":"event"},{"inputs":[],"name":"BASIS_POINTS","outputs":[{"internalType":"uint256","name":"","type":"uint256"}],"stateMutability":"view","type":"function"},{"inputs":[],"name":"INTEREST_RATE","outputs":[{"internalType":"uint256","name":"","type":"uint256"}],"stateMutability":"view","type":"function"},{"inputs":[],"name":"LIQUIDATION_PENALTY","outputs":[{"internalType":"uint256","name":"","type":"uint256"}],"stateMutability":"view","type":"function"},{"inputs":[],"name":"LIQUIDATION_THRESHOLD","outputs":[{"internalType":"uint256","name":"","type":"uint256"}],"stateMutability":"view","type":"function"},{"inputs":[],"name":"LIQUIDATOR_REWARD","outputs":[{"internalType":"uint256","name":"","type":"uint256"}],"stateMutability":"view","type":"function"},{"inputs":[],"name":"LTV_RATIO","outputs":[{"internalType":"uint256","name":"","type":"uint256"}],"stateMutability":"view","type":"function"},{"inputs":[],"name":"NATIVE_ETH","outputs":[{"internalType":"address","name":"","type":"address"}],"stateMutability":"view","type":"function"},{"inputs":[],"name":"PROTOCOL_FEE","outputs":[{"internalType":"uint256","name":"","type":"uint256"}],"stateMutability":"view","type":"function"},{"inputs":[],"name":"acceptOwnership","outputs":[],"stateMutability":"nonpayable","type":"function"},{"inputs":[{"internalType":"address","name":"","type":"address"}],"name":"acceptedBorrowTokens","outputs":[{"internalType":"bool","name":"","type":"bool"}],"stateMutability":"view","type":"function"},{"inputs":[{"internalType":"address","name":"","type":"address"}],"name":"acceptedCollateral","outputs":[{"internalType":"bool","name":"","type":"bool"}],"stateMutability":"view","type":"function"},{"inputs":[{"internalType":"address","name":"token","type":"address"}],"name":"addBorrowToken","outputs":[],"stateMutability":"nonpayable","type":"function"},{"inputs":[{"internalType":"address","name":"token","type":"address"}],"name":"addCollateral","outputs":[],"stateMutability":"nonpayable","type":"function"},{"inputs":[{"internalType":"address","name":"collateralToken","type":"address"},{"internalType":"address","name":"borrowToken","type":"address"},{"internalType":"uint256","name":"amount","type":"uint256"}],"name":"borrow","outputs":[],"stateMutability":"nonpayable","type":"function"},{"inputs":[{"internalType":"address","name":"","type":"address"},{"internalType":"address","name":"","type":"address"}],"name":"collateral","outputs":[{"internalType":"uint256","name":"","type":"uint256"}],"stateMutability":"view","type":"function"},{"inputs":[{"internalType":"address","name":"","type":"address"},{"internalType":"address","name":"","type":"address"}],"name":"debt","outputs":[{"internalType":"uint256","name":"","type":"uint256"}],"stateMutability":"view","type":"function"},{"inputs":[{"internalType":"address","name":"token","type":"address"},{"internalType":"uint256","name":"amount","type":"uint256"}],"name":"deposit","outputs":[],"stateMutability":"nonpayable","type":"function"},{"inputs":[],"name":"depositETH","outputs":[],"stateMutability":"payable","type":"function"},{"inputs":[{"internalType":"address","name":"user","type":"address"},{"internalType":"address","name":"token","type":"address"}],"name":"getCollateralValue","outputs":[{"internalType":"uint256","name":"","type":"uint256"}],"stateMutability":"view","type":"function"},{"inputs":[{"internalType":"address","name":"user","type":"address"},{"internalType":"address","name":"collateralToken","type":"address"},{"internalType":"address","name":"debtToken","type":"address"}],"name":"getHealthFactor","outputs":[{"internalType":"uint256","name":"","type":"uint256"}],"stateMutability":"view","type":"function"},{"inputs":[{"internalType":"address","name":"","type":"address"}],"name":"getOverallHealthFactor","outputs":[{"internalType":"uint256","name":"","type":"uint256"}],"stateMutability":"pure","type":"function"},{"inputs":[{"internalType":"address","name":"","type":"address"}],"name":"getTotalCollateralValue","outputs":[{"internalType":"uint256","name":"","type":"uint256"}],"stateMutability":"pure","type":"function"},{"inputs":[{"internalType":"address","name":"","type":"address"}],"name":"getTotalDebtValue","outputs":[{"internalType":"uint256","name":"","type":"uint256"}],"stateMutability":"pure","type":"function"},{"inputs":[{"internalType":"address","name":"","type":"address"},{"internalType":"address","name":"","type":"address"}],"name":"lastInterestUpdate","outputs":[{"internalType":"uint256","name":"","type":"uint256"}],"stateMutability":"view","type":"function"},{"inputs":[{"internalType":"address","name":"user","type":"address"},{"internalType":"address","name":"collateralToken","type":"address"},{"internalType":"address","name":"debtToken","type":"address"}],"name":"liquidate","outputs":[],"stateMutability":"nonpayable","type":"function"},{"inputs":[],"name":"owner","outputs":[{"internalType":"address","name":"","type":"address"}],"stateMutability":"view","type":"function"},{"inputs":[],"name":"pause","outputs":[],"stateMutability":"nonpayable","type":"function"},{"inputs":[],"name":"paused","outputs":[{"internalType":"bool","name":"","type":"bool"}],"stateMutability":"view","type":"function"},{"inputs":[],"name":"pendingOwner","outputs":[{"internalType":"address","name":"","type":"address"}],"stateMutability":"view","type":"function"},{"inputs":[],"name":"priceOracle","outputs":[{"internalType":"address","name":"","type":"address"}],"stateMutability":"view","type":"function"},{"inputs":[],"name":"protocolTreasury","outputs":[{"internalType":"address","name":"","type":"address"}],"stateMutability":"view","type":"function"},{"inputs":[{"internalType":"address","name":"token","type":"address"}],"name":"removeBorrowToken","outputs":[],"stateMutability":"nonpayable","type":"function"},{"inputs":[{"internalType":"address","name":"token","type":"address"}],"name":"removeCollateral","outputs":[],"stateMutability":"nonpayable","type":"function"},{"inputs":[{"internalType":"address","name":"token","type":"address"},{"internalType":"uint256","name":"amount","type":"uint256"}],"name":"repay","outputs":[],"stateMutability":"nonpayable","type":"function"},{"inputs":[{"internalType":"address","name":"newOwner","type":"address"}],"name":"transferOwnership","outputs":[],"stateMutability":"nonpayable","type":"function"},{"inputs":[],"name":"unpause","outputs":[],"stateMutability":"nonpayable","type":"function"},{"inputs":[{"internalType":"address","name":"token","type":"address"},{"internalType":"uint256","name":"amount","type":"uint256"}],"name":"withdraw","outputs":[],"stateMutability":"nonpayable","type":"function"},{"inputs":[{"internalType":"uint256","name":"amount","type":"uint256"}],"name":"withdrawETH","outputs":[],"stateMutability":"nonpayable","type":"function"},{"stateMutability":"payable","type":"receive"}],"evm":{"bytecode":{"linkReferences":{},"object":"60806040523480156200001157600080fd5b506040516200206b3803806200206b8339810160408190526200003491620000f0565b60016000819055805460ff191690556001600160a01b0382166200006a5760405162d1be6360e61b815260040160405180910390fd5b6001600160a01b038116620000915760405162d1be6360e61b815260040160405180910390fd5b600780546001600160a01b039384166001600160a01b031991821617909155600a80549290931691811691909117909155600880549091163317905562000128565b80516001600160a01b0381168114620000eb57600080fd5b919050565b600080604083850312156200010457600080fd5b6200010f83620000d3565b91506200011f60208401620000d3565b90509250929050565b611f3380620001386000396000f3fe6080604052600436106102295760003560e01c80638456cb5911610123578063e1f1c4a7116100ab578063f2fde38b1161006f578063f2fde38b1461063c578063f3fef3a31461065c578063f5afb9791461067c578063f6326fb3146106ac578063f6cad255146106b457600080fd5b8063e1f1c4a7146105a6578063e252a65f146105bc578063e30c3978146105dc578063f0d2d5a8146105fc578063f14210a61461061c57600080fd5b8063b18bf944116100f2578063b18bf944146104d4578063c99d3a06146104f6578063ca5ce2ec14610516578063cc218ece14610536578063d449300d1461056e57600080fd5b80638456cb59146104735780638da5cb5b1461048857806390a8ae9b146104a85780639b8621d5146104be57600080fd5b80635224372c116101b15780636a2b92ed116101755780636a2b92ed146104065780636c648fc41461032057806379ba50971461043e5780637f3020c11461029c578063803db96d1461045357600080fd5b80635224372c1461037657806354510b9d146103965780635696b189146103b65780635b72a33a146103cc5780635c975abb146103e257600080fd5b806322867d78116101f857806322867d78146102e05780632630c12f14610300578063293a5077146103205780633f4ba83a1461034157806347e7ef241461035657600080fd5b8063011e1167146102355780630567d9e61461027a5780630b4501fd1461029c5780631eee3aa3146102c057600080fd5b3661023057005b600080fd5b34801561024157600080fd5b5061025d73eeeeeeeeeeeeeeeeeeeeeeeeeeeeeeeeeeeeeeee81565b6040516001600160a01b0390911681526020015b60405180910390f35b34801561028657600080fd5b5061029a610295366004611d0e565b6106e4565b005b3480156102a857600080fd5b506102b26101f481565b604051908152602001610271565b3480156102cc57600080fd5b506102b26102db366004611d29565b610759565b3480156102ec57600080fd5b5061029a6102fb366004611d5c565b61082b565b34801561030c57600080fd5b5060075461025d906001600160a01b031681565b34801561032c57600080fd5b506102b261033b366004611d0e565b50600090565b34801561034d57600080fd5b5061029a61097d565b34801561036257600080fd5b5061029a610371366004611d5c565b6109b2565b34801561038257600080fd5b5061029a610391366004611d86565b610af1565b3480156103a257600080fd5b506102b26103b1366004611dc2565b610d5d565b3480156103c257600080fd5b506102b261138881565b3480156103d857600080fd5b506102b261032081565b3480156103ee57600080fd5b5060015460ff165b6040519015158152602001610271565b34801561041257600080fd5b506102b2610421366004611d29565b600460209081526000928352604080842090915290825290205481565b34801561044a57600080fd5b5061029a610dcb565b34801561045f57600080fd5b50600a5461025d906001600160a01b031681565b34801561047f57600080fd5b5061029a610e1d565b34801561049457600080fd5b5060085461025d906001600160a01b031681565b3480156104b457600080fd5b506102b2613a9881565b3480156104ca57600080fd5b506102b26103e881565b3480156104e057600080fd5b506102b26104ef366004611d0e565b5060001990565b34801561050257600080fd5b5061029a610511366004611d0e565b610e50565b34801561052257600080fd5b5061029a610531366004611dc2565b610e9c565b34801561054257600080fd5b506102b2610551366004611d29565b600260209081526000928352604080842090915290825290205481565b34801561057a57600080fd5b506102b2610589366004611d29565b600360209081526000928352604080842090915290825290205481565b3480156105b257600080fd5b506102b261271081565b3480156105c857600080fd5b5061029a6105d7366004611d0e565b6113b1565b3480156105e857600080fd5b5060095461025d906001600160a01b031681565b34801561060857600080fd5b5061029a610617366004611d0e565b6113fd565b34801561062857600080fd5b5061029a610637366004611e05565b611472565b34801561064857600080fd5b5061029a610657366004611d0e565b6115fc565b34801561066857600080fd5b5061029a610677366004611d5c565b61166f565b34801561068857600080fd5b506103f6610697366004611d0e565b60066020526000908152604090205460ff1681565b61029a6117bd565b3480156106c057600080fd5b506103f66106cf366004611d0e565b60056020526000908152604090205460ff1681565b6008546001600160a01b0316331461070f5760405163fd0c790160e01b815260040160405180910390fd5b6001600160a01b0381166107355760405162d1be6360e61b815260040160405180910390fd5b6001600160a01b03166000908152600660205260409020805460ff19166001179055565b6001600160a01b038083166000908152600260209081526040808320938516835292905290812054808203610792576000915050610825565b6007546040516341976e0960e01b81526001600160a01b03858116600483015260009216906341976e0990602401602060405180830381865afa1580156107dd573d6000803e3d6000fd5b505050506040513d601f19601f820116820180604052508101906108019190611e1e565b9050670de0b6b3a76400006108168284611e4d565b6108209190611e64565b925050505b92915050565b6108336118e5565b61083b61190f565b6108453383611933565b3360009081526003602090815260408083206001600160a01b03861684529091528120549081900361088a57604051634a2ff0cb60e11b815260040160405180910390fd5b816000036108ab576040516389ac5d2b60e01b815260040160405180910390fd5b60008183116108ba57826108bc565b815b90506108d36001600160a01b038516333084611a44565b6108dd8183611e86565b3360009081526003602090815260408083206001600160a01b038916845290915281208290550361092d573360009081526004602090815260408083206001600160a01b03881684529091528120555b6040518181526001600160a01b0385169033907f0a3fbbea70e93f2daafa3102f5c9a1b8315e6d7a1e43e4bc020bc1162327470a9060200160405180910390a350506109796001600055565b5050565b6008546001600160a01b031633146109a85760405163fd0c790160e01b815260040160405180910390fd5b6109b0611ab1565b565b6109ba6118e5565b6109c261190f565b806000036109e3576040516389ac5d2b60e01b815260040160405180910390fd5b73eeeeeeeeeeeeeeeeeeeeeeeeeeeeeeeeeeeeeeed196001600160a01b03831601610a2157604051631311949b60e31b815260040160405180910390fd5b6001600160a01b03821660009081526005602052604090205460ff16610a5a57604051631311949b60e31b815260040160405180910390fd5b610a6f6001600160a01b038316333084611a44565b3360009081526002602090815260408083206001600160a01b038616845290915281208054839290610aa2908490611e99565b90915550506040518181526001600160a01b0383169033907ff1c0dd7e9b98bbff859029005ef89b127af049cd18df1a8d79f0b7e019911e569060200160405180910390a36109796001600055565b610af96118e5565b610b0161190f565b80600003610b22576040516389ac5d2b60e01b815260040160405180910390fd5b6001600160a01b03831660009081526005602052604090205460ff16610b5b57604051631311949b60e31b815260040160405180910390fd5b6001600160a01b03821660009081526006602052604090205460ff16610b9457604051631311949b60e31b815260040160405180910390fd5b6040516370a0823160e01b815230600482015281906001600160a01b038416906370a0823190602401602060405180830381865afa158015610bda573d6000803e3d6000fd5b505050506040513d601f19601f82011682018060405250810190610bfe9190611e1e565b1015610c1d57604051631ad4bb2360e01b815260040160405180910390fd5b610c273383611933565b6000610c333385610759565b90506000612710610c4661138884611e4d565b610c509190611e64565b3360009081526003602090815260408083206001600160a01b038916845290915290205490915081610c828583611e99565b1115610ca157604051634a5276d760e01b815260040160405180910390fd5b610cab8482611e99565b3360008181526003602090815260408083206001600160a01b038b1680855290835281842095909555838352600482528083208584529091529020429055610cf4919086611b03565b846001600160a01b0316866001600160a01b0316336001600160a01b03167f9c9260125f1a087d9e46ee3dc78f1a4af18c5e00714012d9a35250d49391c4fe87604051610d4391815260200190565b60405180910390a4505050610d586001600055565b505050565b600080610d6a8585610759565b6001600160a01b038087166000908152600360209081526040808320938816835292905290812054919250819003610da85760001992505050610dc4565b80610db561271084611e4d565b610dbf9190611e64565b925050505b9392505050565b6009546001600160a01b03163314610df65760405163b3eb169b60e01b815260040160405180910390fd5b60098054600880546001600160a01b03199081166001600160a01b03841617909155169055565b6008546001600160a01b03163314610e485760405163fd0c790160e01b815260040160405180910390fd5b6109b0611b34565b6008546001600160a01b03163314610e7b5760405163fd0c790160e01b815260040160405180910390fd5b6001600160a01b03166000908152600560205260409020805460ff19169055565b610ea46118e5565b610eac61190f565b610eb68382611933565b6000610ec3848484610d5d565b9050613a988110610ee75760405163094e095360e41b815260040160405180910390fd5b6001600160a01b03808516600090815260036020908152604080832093861683529290529081205490819003610f3057604051634a2ff0cb60e11b815260040160405180910390fd5b6000612710610f416103e884611e4d565b610f4b9190611e64565b90506000610f598284611e99565b6007546040516341976e0960e01b81526001600160a01b038981166004830152929350600092909116906341976e0990602401602060405180830381865afa158015610fa9573d6000803e3d6000fd5b505050506040513d601f19601f82011682018060405250810190610fcd9190611e1e565b6007546040516341976e0960e01b81526001600160a01b038981166004830152929350600092909116906341976e0990602401602060405180830381865afa15801561101d573d6000803e3d6000fd5b505050506040513d601f19601f820116820180604052508101906110419190611e1e565b90506000826110508386611e4d565b61105a9190611e64565b6001600160a01b03808c166000908152600260209081526040808320938e16835292905220549091508111156110b257506001600160a01b03808a166000908152600260209081526040808320938c16835292905220545b6001600160a01b03808b1660008181526003602090815260408083208d861680855290835281842084905584845260048352818420908452825280832083905592825260028152828220938d1682529290925281208054839290611117908490611e86565b909155506000905061271061112e6101f484611e4d565b6111389190611e64565b9050600061271061114b6101f485611e4d565b6111559190611e64565b90506000816111648486611e86565b61116e9190611e86565b905073eeeeeeeeeeeeeeeeeeeeeeeeeeeeeeeeeeeeeeed196001600160a01b038d16016112f557604051600090339085908381818185875af1925050503d80600081146111d7576040519150601f19603f3d011682016040523d82523d6000602084013e6111dc565b606091505b50509050806111fe5760405163385eb6b160e01b815260040160405180910390fd5b600a546040516000916001600160a01b03169085908381818185875af1925050503d806000811461124b576040519150601f19603f3d011682016040523d82523d6000602084013e611250565b606091505b50509050806112725760405163385eb6b160e01b815260040160405180910390fd5b82156112ee5760008f6001600160a01b03168460405160006040518083038185875af1925050503d80600081146112c5576040519150601f19603f3d011682016040523d82523d6000602084013e6112ca565b606091505b50509050806112ec5760405163385eb6b160e01b815260040160405180910390fd5b505b505061133d565b6113096001600160a01b038d163385611b03565b600a54611323906001600160a01b038e8116911684611b03565b801561133d5761133d6001600160a01b038d168e83611b03565b8a6001600160a01b03168c6001600160a01b03168e6001600160a01b03167fd1ef587d13fefe63f9bc582e973aad46877ef08cfe790838721bd521c53caf568787604051611395929190918252602082015260400190565b60405180910390a450505050505050505050610d586001600055565b6008546001600160a01b031633146113dc5760405163fd0c790160e01b815260040160405180910390fd5b6001600160a01b03166000908152600660205260409020805460ff19169055565b6008546001600160a01b031633146114285760405163fd0c790160e01b815260040160405180910390fd5b6001600160a01b03811661144e5760405162d1be6360e61b815260040160405180910390fd5b6001600160a01b03166000908152600560205260409020805460ff19166001179055565b61147a6118e5565b61148261190f565b806000036114a3576040516389ac5d2b60e01b815260040160405180910390fd5b33600090815260026020908152604080832073eeeeeeeeeeeeeeeeeeeeeeeeeeeeeeeeeeeeeeee84529091529020548111156114f25760405163833a2b9b60e01b815260040160405180910390fd5b33600090815260026020908152604080832073eeeeeeeeeeeeeeeeeeeeeeeeeeeeeeeeeeeeeeee845290915281208054839290611530908490611e86565b909155506000199050604051600090339084908381818185875af1925050503d806000811461157b576040519150601f19603f3d011682016040523d82523d6000602084013e611580565b606091505b50509050806115a25760405163385eb6b160e01b815260040160405180910390fd5b60405183815273eeeeeeeeeeeeeeeeeeeeeeeeeeeeeeeeeeeeeeee9033907f45892a46e6cef329bb642da6d69846d324db43d19008edc141ed82382eda1bee9060200160405180910390a350506115f96001600055565b50565b6008546001600160a01b031633146116275760405163fd0c790160e01b815260040160405180910390fd5b6001600160a01b03811661164d5760405162d1be6360e61b815260040160405180910390fd5b600980546001600160a01b0319166001600160a01b0392909216919091179055565b6116776118e5565b61167f61190f565b806000036116a0576040516389ac5d2b60e01b815260040160405180910390fd5b73eeeeeeeeeeeeeeeeeeeeeeeeeeeeeeeeeeeeeeed196001600160a01b038316016116de57604051631311949b60e31b815260040160405180910390fd5b3360009081526002602090815260408083206001600160a01b03861684529091529020548111156117225760405163833a2b9b60e01b815260040160405180910390fd5b3360009081526002602090815260408083206001600160a01b038616845290915281208054839290611755908490611e86565b9091555060001990506117726001600160a01b0384163384611b03565b6040518281526001600160a01b0384169033907f45892a46e6cef329bb642da6d69846d324db43d19008edc141ed82382eda1bee9060200160405180910390a3506109796001600055565b6117c56118e5565b6117cd61190f565b346000036117ee576040516389ac5d2b60e01b815260040160405180910390fd5b73eeeeeeeeeeeeeeeeeeeeeeeeeeeeeeeeeeeeeeee60005260056020527fa1829a9003092132f585b6ccdd167c19fe9774dbdea4260287e8a8e8ca8185d75460ff1661184d57604051631311949b60e31b815260040160405180910390fd5b33600090815260026020908152604080832073eeeeeeeeeeeeeeeeeeeeeeeeeeeeeeeeeeeeeeee84529091528120805434929061188b908490611e99565b909155505060405134815273eeeeeeeeeeeeeeeeeeeeeeeeeeeeeeeeeeeeeeee9033907ff1c0dd7e9b98bbff859029005ef89b127af049cd18df1a8d79f0b7e019911e569060200160405180910390a36109b06001600055565b60026000540361190857604051633ee5aeb560e01b815260040160405180910390fd5b6002600055565b60015460ff16156109b05760405163d93c066560e01b815260040160405180910390fd5b6001600160a01b0380831660009081526004602090815260408083209385168352929052908120549081900361196857505050565b6001600160a01b0380841660009081526003602090815260408083209386168352929052908120549081900361199e5750505050565b60006119aa8342611e86565b9050603c8110156119bc575050505050565b60006119ce6127106301e13380611e4d565b826119db61032086611e4d565b6119e59190611e4d565b6119ef9190611e64565b90506119fb8184611e99565b6001600160a01b03968716600081815260036020908152604080832099909a16808352988152898220939093559081526004825287812096815295905250505091902042905550565b6040516001600160a01b038481166024830152838116604483015260648201839052611aab9186918216906323b872dd906084015b604051602081830303815290604052915060e01b6020820180516001600160e01b038381831617835250505050611b6f565b50505050565b611ab9611bd7565b6001805460ff191690557f5db9ee0a495bf2e6ff9c91a7834c1ba4fdd244a5e8aa4e537bd38aeae4b073aa335b6040516001600160a01b03909116815260200160405180910390a1565b6040516001600160a01b03838116602483015260448201839052610d5891859182169063a9059cbb90606401611a79565b611b3c61190f565b6001805460ff1916811790557f62e78cea01bee320cd4e420270b5ea74000d11b0c9f74754ebdbfc544b05a25833611ae6565b6000611b846001600160a01b03841683611bfa565b90508051600014158015611ba9575080806020019051810190611ba79190611eac565b155b15610d5857604051635274afe760e01b81526001600160a01b03841660048201526024015b60405180910390fd5b60015460ff166109b057604051638dfc202b60e01b815260040160405180910390fd5b6060610dc48383600084600080856001600160a01b03168486604051611c209190611ece565b60006040518083038185875af1925050503d8060008114611c5d576040519150601f19603f3d011682016040523d82523d6000602084013e611c62565b606091505b5091509150610dbf868383606082611c8257611c7d82611cc9565b610dc4565b8151158015611c9957506001600160a01b0384163b155b15611cc257604051639996b31560e01b81526001600160a01b0385166004820152602401611bce565b5080610dc4565b805115611cd95780518082602001fd5b604051630a12f52160e11b815260040160405180910390fd5b80356001600160a01b0381168114611d0957600080fd5b919050565b600060208284031215611d2057600080fd5b610dc482611cf2565b60008060408385031215611d3c57600080fd5b611d4583611cf2565b9150611d5360208401611cf2565b90509250929050565b60008060408385031215611d6f57600080fd5b611d7883611cf2565b946020939093013593505050565b600080600060608486031215611d9b57600080fd5b611da484611cf2565b9250611db260208501611cf2565b9150604084013590509250925092565b600080600060608486031215611dd757600080fd5b611de084611cf2565b9250611dee60208501611cf2565b9150611dfc60408501611cf2565b90509250925092565b600060208284031215611e1757600080fd5b5035919050565b600060208284031215611e3057600080fd5b5051919050565b634e487b7160e01b600052601160045260246000fd5b808202811582820484141761082557610825611e37565b600082611e8157634e487b7160e01b600052601260045260246000fd5b500490565b8181038181111561082557610825611e37565b8082018082111561082557610825611e37565b600060208284031215611ebe57600080fd5b81518015158114610dc457600080fd5b6000825160005b81811015611eef5760208186018101518583015201611ed5565b50600092019182525091905056fea2646970667358221220579ae76bb833d5e9768a77252233b5b4d2768704df53425101a936eae35a686464736f6c63430008140033","opcodes":"PUSH1 0x80 PUSH1 0x40 MSTORE CALLVALUE DUP1 ISZERO PUSH3 0x11 JUMPI PUSH1 0x0 DUP1 REVERT JUMPDEST POP PUSH1 0x40 MLOAD PUSH3 0x206B CODESIZE SUB DUP1 PUSH3 0x206B DUP4 CODECOPY DUP2 ADD PUSH1 0x40 DUP2 SWAP1 MSTORE PUSH3 0x34 SWAP2 PUSH3 0xF0 JUMP JUMPDEST PUSH1 0x1 PUSH1 0x0 DUP2 SWAP1 SSTORE DUP1 SLOAD PUSH1 0xFF NOT AND SWAP1 SSTORE PUSH1 0x1 PUSH1 0x1 PUSH1 0xA0 SHL SUB DUP3 AND PUSH3 0x6A JUMPI PUSH1 0x40 MLOAD PUSH3 0xD1BE63 PUSH1 0xE6 SHL DUP2 MSTORE PUSH1 0x4 ADD PUSH1 0x40 MLOAD DUP1 SWAP2 SUB SWAP1 REVERT JUMPDEST PUSH1 0x1 PUSH1 0x1 PUSH1 0xA0 SHL SUB DUP2 AND PUSH3 0x91 JUMPI PUSH1 0x40 MLOAD PUSH3 0xD1BE63 PUSH1 0xE6 SHL DUP2 MSTORE PUSH1 0x4 ADD PUSH1 0x40 MLOAD DUP1 SWAP2 SUB SWAP1 REVERT JUMPDEST PUSH1 0x7 DUP1 SLOAD PUSH1 0x1 PUSH1 0x1 PUSH1 0xA0 SHL SUB SWAP4 DUP5 AND PUSH1 0x1 PUSH1 0x1 PUSH1 0xA0 SHL SUB NOT SWAP2 DUP3 AND OR SWAP1 SWAP2 SSTORE PUSH1 0xA DUP1 SLOAD SWAP3 SWAP1 SWAP4 AND SWAP2 DUP2 AND SWAP2 SWAP1 SWAP2 OR SWAP1 SWAP2 SSTORE PUSH1 0x8 DUP1 SLOAD SWAP1 SWAP2 AND CALLER OR SWAP1 SSTORE PUSH3 0x128 JUMP JUMPDEST DUP1 MLOAD PUSH1 0x1 PUSH1 0x1 PUSH1 0xA0 SHL SUB DUP2 AND DUP2 EQ PUSH3 0xEB JUMPI PUSH1 0x0 DUP1 REVERT JUMPDEST SWAP2 SWAP1 POP JUMP JUMPDEST PUSH1 0x0 DUP1 PUSH1 0x40 DUP4 DUP6 SUB SLT ISZERO PUSH3 0x104 JUMPI PUSH1 0x0 DUP1 REVERT JUMPDEST PUSH3 0x10F DUP4 PUSH3 0xD3 JUMP JUMPDEST SWAP2 POP PUSH3 0x11F PUSH1 0x20 DUP5 ADD PUSH3 0xD3 JUMP JUMPDEST SWAP1 POP SWAP3 POP SWAP3 SWAP1 POP JUMP JUMPDEST PUSH2 0x1F33 DUP1 PUSH3 0x138 PUSH1 0x0 CODECOPY PUSH1 0x0 RETURN INVALID PUSH1 0x80 PUSH1 0x40 MSTORE PUSH1 0x4 CALLDATASIZE LT PUSH2 0x229 JUMPI PUSH1 0x0 CALLDATALOAD PUSH1 0xE0 SHR DUP1 PUSH4 0x8456CB59 GT PUSH2 0x123 JUMPI DUP1 PUSH4 0xE1F1C4A7 GT PUSH2 0xAB JUMPI DUP1 PUSH4 0xF2FDE38B GT PUSH2 0x6F JUMPI DUP1 PUSH4 0xF2FDE38B EQ PUSH2 0x63C JUMPI DUP1 PUSH4 0xF3FEF3A3 EQ PUSH2 0x65C JUMPI DUP1 PUSH4 0xF5AFB979 EQ PUSH2 0x67C JUMPI DUP1 PUSH4 0xF6326FB3 EQ PUSH2 0x6AC JUMPI DUP1 PUSH4 0xF6CAD255 EQ PUSH2 0x6B4 JUMPI PUSH1 0x0 DUP1 REVERT JUMPDEST DUP1 PUSH4 0xE1F1C4A7 EQ PUSH2 0x5A6 JUMPI DUP1 PUSH4 0xE252A65F EQ PUSH2 0x5BC JUMPI DUP1 PUSH4 0xE30C3978 EQ PUSH2 0x5DC JUMPI DUP1 PUSH4 0xF0D2D5A8 EQ PUSH2 0x5FC JUMPI DUP1 PUSH4 0xF14210A6 EQ PUSH2 0x61C JUMPI PUSH1 0x0 DUP1 REVERT JUMPDEST DUP1 PUSH4 0xB18BF944 GT PUSH2 0xF2 JUMPI DUP1 PUSH4 0xB18BF944 EQ PUSH2 0x4D4 JUMPI DUP1 PUSH4 0xC99D3A06 EQ PUSH2 0x4F6 JUMPI DUP1 PUSH4 0xCA5CE2EC EQ PUSH2 0x516 JUMPI DUP1 PUSH4 0xCC218ECE EQ PUSH2 0x536 JUMPI DUP1 PUSH4 0xD449300D EQ PUSH2 0x56E JUMPI PUSH1 0x0 DUP1 REVERT JUMPDEST DUP1 PUSH4 0x8456CB59 EQ PUSH2 0x473 JUMPI DUP1 PUSH4 0x8DA5CB5B EQ PUSH2 0x488 JUMPI DUP1 PUSH4 0x90A8AE9B EQ PUSH2 0x4A8 JUMPI DUP1 PUSH4 0x9B8621D5 EQ PUSH2 0x4BE JUMPI PUSH1 0x0 DUP1 REVERT JUMPDEST DUP1 PUSH4 0x5224372C GT PUSH2 0x1B1 JUMPI DUP1 PUSH4 0x6A2B92ED GT PUSH2 0x175 JUMPI DUP1 PUSH4 0x6A2B92ED EQ PUSH2 0x406 JUMPI DUP1 PUSH4 0x6C648FC4 EQ PUSH2 0x320 JUMPI DUP1 PUSH4 0x79BA5097 EQ PUSH2 0x43E JUMPI DUP1 PUSH4 0x7F3020C1 EQ PUSH2 0x29C JUMPI DUP1 PUSH4 0x803DB96D EQ PUSH2 0x453 JUMPI PUSH1 0x0 DUP1 REVERT JUMPDEST DUP1 PUSH4 0x5224372C EQ PUSH2 0x376 JUMPI DUP1 PUSH4 0x54510B9D EQ PUSH2 0x396 JUMPI DUP1 PUSH4 0x5696B189 EQ PUSH2 0x3B6 JUMPI DUP1 PUSH4 0x5B72A33A EQ PUSH2 0x3CC JUMPI DUP1 PUSH4 0x5C975ABB EQ PUSH2 0x3E2 JUMPI PUSH1 0x0 DUP1 REVERT JUMPDEST DUP1 PUSH4 0x22867D78 GT PUSH2 0x1F8 JUMPI DUP1 PUSH4 0x22867D78 EQ PUSH2 0x2E0 JUMPI DUP1 PUSH4 0x2630C12F EQ PUSH2 0x300 JUMPI DUP1 PUSH4 0x293A5077 EQ PUSH2 0x320 JUMPI DUP1 PUSH4 0x3F4BA83A EQ PUSH2 0x341 JUMPI DUP1 PUSH4 0x47E7EF24 EQ PUSH2 0x356 JUMPI PUSH1 0x0 DUP1 REVERT JUMPDEST DUP1 PUSH4 0x11E1167 EQ PUSH2 0x235 JUMPI DUP1 PUSH4 0x567D9E6 EQ PUSH2 0x27A JUMPI DUP1 PUSH4 0xB4501FD EQ PUSH2 0x29C JUMPI DUP1 PUSH4 0x1EEE3AA3 EQ PUSH2 0x2C0 JUMPI PUSH1 0x0 DUP1 REVERT JUMPDEST CALLDATASIZE PUSH2 0x230 JUMPI STOP JUMPDEST PUSH1 0x0 DUP1 REVERT JUMPDEST CALLVALUE DUP1 ISZERO PUSH2 0x241 JUMPI PUSH1 0x0 DUP1 REVERT JUMPDEST POP PUSH2 0x25D PUSH20 0xEEEEEEEEEEEEEEEEEEEEEEEEEEEEEEEEEEEEEEEE DUP2 JUMP JUMPDEST PUSH1 0x40 MLOAD PUSH1 0x1 PUSH1 0x1 PUSH1 0xA0 SHL SUB SWAP1 SWAP2 AND DUP2 MSTORE PUSH1 0x20 ADD JUMPDEST PUSH1 0x40 MLOAD DUP1 SWAP2 SUB SWAP1 RETURN JUMPDEST CALLVALUE DUP1 ISZERO PUSH2 0x286 JUMPI PUSH1 0x0 DUP1 REVERT JUMPDEST POP PUSH2 0x29A PUSH2 0x295 CALLDATASIZE PUSH1 0x4 PUSH2 0x1D0E JUMP JUMPDEST PUSH2 0x6E4 JUMP JUMPDEST STOP JUMPDEST CALLVALUE DUP1 ISZERO PUSH2 0x2A8 JUMPI PUSH1 0x0 DUP1 REVERT JUMPDEST POP PUSH2 0x2B2 PUSH2 0x1F4 DUP2 JUMP JUMPDEST PUSH1 0x40 MLOAD SWAP1 DUP2 MSTORE PUSH1 0x20 ADD PUSH2 0x271 JUMP JUMPDEST CALLVALUE DUP1 ISZERO PUSH2 0x2CC JUMPI PUSH1 0x0 DUP1 REVERT JUMPDEST POP PUSH2 0x2B2 PUSH2 0x2DB CALLDATASIZE PUSH1 0x4 PUSH2 0x1D29 JUMP JUMPDEST PUSH2 0x759 JUMP JUMPDEST CALLVALUE DUP1 ISZERO PUSH2 0x2EC JUMPI PUSH1 0x0 DUP1 REVERT JUMPDEST POP PUSH2 0x29A PUSH2 0x2FB CALLDATASIZE PUSH1 0x4 PUSH2 0x1D5C JUMP JUMPDEST PUSH2 0x82B JUMP JUMPDEST CALLVALUE DUP1 ISZERO PUSH2 0x30C JUMPI PUSH1 0x0 DUP1 REVERT JUMPDEST POP PUSH1 0x7 SLOAD PUSH2 0x25D SWAP1 PUSH1 0x1 PUSH1 0x1 PUSH1 0xA0 SHL SUB AND DUP2 JUMP JUMPDEST CALLVALUE DUP1 ISZERO PUSH2 0x32C JUMPI PUSH1 0x0 DUP1 REVERT JUMPDEST POP PUSH2 0x2B2 PUSH2 0x33B CALLDATASIZE PUSH1 0x4 PUSH2 0x1D0E JUMP JUMPDEST POP PUSH1 0x0 SWAP1 JUMP JUMPDEST CALLVALUE DUP1 ISZERO PUSH2 0x34D JUMPI PUSH1 0x0 DUP1 REVERT JUMPDEST POP PUSH2 0x29A PUSH2 0x97D JUMP JUMPDEST CALLVALUE DUP1 ISZERO PUSH2 0x362 JUMPI PUSH1 0x0 DUP1 REVERT JUMPDEST POP PUSH2 0x29A PUSH2 0x371 CALLDATASIZE PUSH1 0x4 PUSH2 0x1D5C JUMP JUMPDEST PUSH2 0x9B2 JUMP JUMPDEST CALLVALUE DUP1 ISZERO PUSH2 0x382 JUMPI PUSH1 0x0 DUP1 REVERT JUMPDEST POP PUSH2 0x29A PUSH2 0x391 CALLDATASIZE PUSH1 0x4 PUSH2 0x1D86 JUMP JUMPDEST PUSH2 0xAF1 JUMP JUMPDEST CALLVALUE DUP1 ISZERO PUSH2 0x3A2 JUMPI PUSH1 0x0 DUP1 REVERT JUMPDEST POP PUSH2 0x2B2 PUSH2 0x3B1 CALLDATASIZE PUSH1 0x4 PUSH2 0x1DC2 JUMP JUMPDEST PUSH2 0xD5D JUMP JUMPDEST CALLVALUE DUP1 ISZERO PUSH2 0x3C2 JUMPI PUSH1 0x0 DUP1 REVERT JUMPDEST POP PUSH2 0x2B2 PUSH2 0x1388 DUP2 JUMP JUMPDEST CALLVALUE DUP1 ISZERO PUSH2 0x3D8 JUMPI PUSH1 0x0 DUP1 REVERT JUMPDEST POP PUSH2 0x2B2 PUSH2 0x320 DUP2 JUMP JUMPDEST CALLVALUE DUP1 ISZERO PUSH2 0x3EE JUMPI PUSH1 0x0 DUP1 REVERT JUMPDEST POP PUSH1 0x1 SLOAD PUSH1 0xFF AND JUMPDEST PUSH1 0x40 MLOAD SWAP1 ISZERO ISZERO DUP2 MSTORE PUSH1 0x20 ADD PUSH2 0x271 JUMP JUMPDEST CALLVALUE DUP1 ISZERO PUSH2 0x412 JUMPI PUSH1 0x0 DUP1 REVERT JUMPDEST POP PUSH2 0x2B2 PUSH2 0x421 CALLDATASIZE PUSH1 0x4 PUSH2 0x1D29 JUMP JUMPDEST PUSH1 0x4 PUSH1 0x20 SWAP1 DUP2 MSTORE PUSH1 0x0 SWAP3 DUP4 MSTORE PUSH1 0x40 DUP1 DUP5 KECCAK256 SWAP1 SWAP2 MSTORE SWAP1 DUP3 MSTORE SWAP1 KECCAK256 SLOAD DUP2 JUMP JUMPDEST CALLVALUE DUP1 ISZERO PUSH2 0x44A JUMPI PUSH1 0x0 DUP1 REVERT JUMPDEST POP PUSH2 0x29A PUSH2 0xDCB JUMP JUMPDEST CALLVALUE DUP1 ISZERO PUSH2 0x45F JUMPI PUSH1 0x0 DUP1 REVERT JUMPDEST POP PUSH1 0xA SLOAD PUSH2 0x25D SWAP1 PUSH1 0x1 PUSH1 0x1 PUSH1 0xA0 SHL SUB AND DUP2 JUMP JUMPDEST CALLVALUE DUP1 ISZERO PUSH2 0x47F JUMPI PUSH1 0x0 DUP1 REVERT JUMPDEST POP PUSH2 0x29A PUSH2 0xE1D JUMP JUMPDEST CALLVALUE DUP1 ISZERO PUSH2 0x494 JUMPI PUSH1 0x0 DUP1 REVERT JUMPDEST POP PUSH1 0x8 SLOAD PUSH2 0x25D SWAP1 PUSH1 0x1 PUSH1 0x1 PUSH1 0xA0 SHL SUB AND DUP2 JUMP JUMPDEST CALLVALUE DUP1 ISZERO PUSH2 0x4B4 JUMPI PUSH1 0x0 DUP1 REVERT JUMPDEST POP PUSH2 0x2B2 PUSH2 0x3A98 DUP2 JUMP JUMPDEST CALLVALUE DUP1 ISZERO PUSH2 0x4CA JUMPI PUSH1 0x0 DUP1 REVERT JUMPDEST POP PUSH2 0x2B2 PUSH2 0x3E8 DUP2 JUMP JUMPDEST CALLVALUE DUP1 ISZERO PUSH2 0x4E0 JUMPI PUSH1 0x0 DUP1 REVERT JUMPDEST POP PUSH2 0x2B2 PUSH2 0x4EF CALLDATASIZE PUSH1 0x4 PUSH2 0x1D0E JUMP JUMPDEST POP PUSH1 0x0 NOT SWAP1 JUMP JUMPDEST CALLVALUE DUP1 ISZERO PUSH2 0x502 JUMPI PUSH1 0x0 DUP1 REVERT JUMPDEST POP PUSH2 0x29A PUSH2 0x511 CALLDATASIZE PUSH1 0x4 PUSH2 0x1D0E JUMP JUMPDEST PUSH2 0xE50 JUMP JUMPDEST CALLVALUE DUP1 ISZERO PUSH2 0x522 JUMPI PUSH1 0x0 DUP1 REVERT JUMPDEST POP PUSH2 0x29A PUSH2 0x531 CALLDATASIZE PUSH1 0x4 PUSH2 0x1DC2 JUMP JUMPDEST PUSH2 0xE9C JUMP JUMPDEST CALLVALUE DUP1 ISZERO PUSH2 0x542 JUMPI PUSH1 0x0 DUP1 REVERT JUMPDEST POP PUSH2 0x2B2 PUSH2 0x551 CALLDATASIZE PUSH1 0x4 PUSH2 0x1D29 JUMP JUMPDEST PUSH1 0x2 PUSH1 0x20 SWAP1 DUP2 MSTORE PUSH1 0x0 SWAP3 DUP4 MSTORE PUSH1 0x40 DUP1 DUP5 KECCAK256 SWAP1 SWAP2 MSTORE SWAP1 DUP3 MSTORE SWAP1 KECCAK256 SLOAD DUP2 JUMP JUMPDEST CALLVALUE DUP1 ISZERO PUSH2 0x57A JUMPI PUSH1 0x0 DUP1 REVERT JUMPDEST POP PUSH2 0x2B2 PUSH2 0x589 CALLDATASIZE PUSH1 0x4 PUSH2 0x1D29 JUMP JUMPDEST PUSH1 0x3 PUSH1 0x20 SWAP1 DUP2 MSTORE PUSH1 0x0 SWAP3 DUP4 MSTORE PUSH1 0x40 DUP1 DUP5 KECCAK256 SWAP1 SWAP2 MSTORE SWAP1 DUP3 MSTORE SWAP1 KECCAK256 SLOAD DUP2 JUMP JUMPDEST CALLVALUE DUP1 ISZERO PUSH2 0x5B2 JUMPI PUSH1 0x0 DUP1 REVERT JUMPDEST POP PUSH2 0x2B2 PUSH2 0x2710 DUP2 JUMP JUMPDEST CALLVALUE DUP1 ISZERO PUSH2 0x5C8 JUMPI PUSH1 0x0 DUP1 REVERT JUMPDEST POP PUSH2 0x29A PUSH2 0x5D7 CALLDATASIZE PUSH1 0x4 PUSH2 0x1D0E JUMP JUMPDEST PUSH2 0x13B1 JUMP JUMPDEST CALLVALUE DUP1 ISZERO PUSH2 0x5E8 JUMPI PUSH1 0x0 DUP1 REVERT JUMPDEST POP PUSH1 0x9 SLOAD PUSH2 0x25D SWAP1 PUSH1 0x1 PUSH1 0x1 PUSH1 0xA0 SHL SUB AND DUP2 JUMP JUMPDEST CALLVALUE DUP1 ISZERO PUSH2 0x608 JUMPI PUSH1 0x0 DUP1 REVERT JUMPDEST POP PUSH2 0x29A PUSH2 0x617 CALLDATASIZE PUSH1 0x4 PUSH2 0x1D0E JUMP JUMPDEST PUSH2 0x13FD JUMP JUMPDEST CALLVALUE DUP1 ISZERO PUSH2 0x628 JUMPI PUSH1 0x0 DUP1 REVERT JUMPDEST POP PUSH2 0x29A PUSH2 0x637 CALLDATASIZE PUSH1 0x4 PUSH2 0x1E05 JUMP JUMPDEST PUSH2 0x1472 JUMP JUMPDEST CALLVALUE DUP1 ISZERO PUSH2 0x648 JUMPI PUSH1 0x0 DUP1 REVERT JUMPDEST POP PUSH2 0x29A PUSH2 0x657 CALLDATASIZE PUSH1 0x4 PUSH2 0x1D0E JUMP JUMPDEST PUSH2 0x15FC JUMP JUMPDEST CALLVALUE DUP1 ISZERO PUSH2 0x668 JUMPI PUSH1 0x0 DUP1 REVERT JUMPDEST POP PUSH2 0x29A PUSH2 0x677 CALLDATASIZE PUSH1 0x4 PUSH2 0x1D5C JUMP JUMPDEST PUSH2 0x166F JUMP JUMPDEST CALLVALUE DUP1 ISZERO PUSH2 0x688 JUMPI PUSH1 0x0 DUP1 REVERT JUMPDEST POP PUSH2 0x3F6 PUSH2 0x697 CALLDATASIZE PUSH1 0x4 PUSH2 0x1D0E JUMP JUMPDEST PUSH1 0x6 PUSH1 0x20 MSTORE PUSH1 0x0 SWAP1 DUP2 MSTORE PUSH1 0x40 SWAP1 KECCAK256 SLOAD PUSH1 0xFF AND DUP2 JUMP JUMPDEST PUSH2 0x29A PUSH2 0x17BD JUMP JUMPDEST CALLVALUE DUP1 ISZERO PUSH2 0x6C0 JUMPI PUSH1 0x0 DUP1 REVERT JUMPDEST POP PUSH2 0x3F6 PUSH2 0x6CF CALLDATASIZE PUSH1 0x4 PUSH2 0x1D0E JUMP JUMPDEST PUSH1 0x5 PUSH1 0x20 MSTORE PUSH1 0x0 SWAP1 DUP2 MSTORE PUSH1 0x40 SWAP1 KECCAK256 SLOAD PUSH1 0xFF AND DUP2 JUMP JUMPDEST PUSH1 0x8 SLOAD PUSH1 0x1 PUSH1 0x1 PUSH1 0xA0 SHL SUB AND CALLER EQ PUSH2 0x70F JUMPI PUSH1 0x40 MLOAD PUSH4 0xFD0C7901 PUSH1 0xE0 SHL DUP2 MSTORE PUSH1 0x4 ADD PUSH1 0x40 MLOAD DUP1 SWAP2 SUB SWAP1 REVERT JUMPDEST PUSH1 0x1 PUSH1 0x1 PUSH1 0xA0 SHL SUB DUP2 AND PUSH2 0x735 JUMPI PUSH1 0x40 MLOAD PUSH3 0xD1BE63 PUSH1 0xE6 SHL DUP2 MSTORE PUSH1 0x4 ADD PUSH1 0x40 MLOAD DUP1 SWAP2 SUB SWAP1 REVERT JUMPDEST PUSH1 0x1 PUSH1 0x1 PUSH1 0xA0 SHL SUB AND PUSH1 0x0 SWAP1 DUP2 MSTORE PUSH1 0x6 PUSH1 0x20 MSTORE PUSH1 0x40 SWAP1 KECCAK256 DUP1 SLOAD PUSH1 0xFF NOT AND PUSH1 0x1 OR SWAP1 SSTORE JUMP JUMPDEST PUSH1 0x1 PUSH1 0x1 PUSH1 0xA0 SHL SUB DUP1 DUP4 AND PUSH1 0x0 SWAP1 DUP2 MSTORE PUSH1 0x2 PUSH1 0x20 SWAP1 DUP2 MSTORE PUSH1 0x40 DUP1 DUP4 KECCAK256 SWAP4 DUP6 AND DUP4 MSTORE SWAP3 SWAP1 MSTORE SWAP1 DUP2 KECCAK256 SLOAD DUP1 DUP3 SUB PUSH2 0x792 JUMPI PUSH1 0x0 SWAP2 POP POP PUSH2 0x825 JUMP JUMPDEST PUSH1 0x7 SLOAD PUSH1 0x40 MLOAD PUSH4 0x41976E09 PUSH1 0xE0 SHL DUP2 MSTORE PUSH1 0x1 PUSH1 0x1 PUSH1 0xA0 SHL SUB DUP6 DUP2 AND PUSH1 0x4 DUP4 ADD MSTORE PUSH1 0x0 SWAP3 AND SWAP1 PUSH4 0x41976E09 SWAP1 PUSH1 0x24 ADD PUSH1 0x20 PUSH1 0x40 MLOAD DUP1 DUP4 SUB DUP2 DUP7 GAS STATICCALL ISZERO DUP1 ISZERO PUSH2 0x7DD JUMPI RETURNDATASIZE PUSH1 0x0 DUP1 RETURNDATACOPY RETURNDATASIZE PUSH1 0x0 REVERT JUMPDEST POP POP POP POP PUSH1 0x40 MLOAD RETURNDATASIZE PUSH1 0x1F NOT PUSH1 0x1F DUP3 ADD AND DUP3 ADD DUP1 PUSH1 0x40 MSTORE POP DUP2 ADD SWAP1 PUSH2 0x801 SWAP2 SWAP1 PUSH2 0x1E1E JUMP JUMPDEST SWAP1 POP PUSH8 0xDE0B6B3A7640000 PUSH2 0x816 DUP3 DUP5 PUSH2 0x1E4D JUMP JUMPDEST PUSH2 0x820 SWAP2 SWAP1 PUSH2 0x1E64 JUMP JUMPDEST SWAP3 POP POP POP JUMPDEST SWAP3 SWAP2 POP POP JUMP JUMPDEST PUSH2 0x833 PUSH2 0x18E5 JUMP JUMPDEST PUSH2 0x83B PUSH2 0x190F JUMP JUMPDEST PUSH2 0x845 CALLER DUP4 PUSH2 0x1933 JUMP JUMPDEST CALLER PUSH1 0x0 SWAP1 DUP2 MSTORE PUSH1 0x3 PUSH1 0x20 SWAP1 DUP2 MSTORE PUSH1 0x40 DUP1 DUP4 KECCAK256 PUSH1 0x1 PUSH1 0x1 PUSH1 0xA0 SHL SUB DUP7 AND DUP5 MSTORE SWAP1 SWAP2 MSTORE DUP2 KECCAK256 SLOAD SWAP1 DUP2 SWAP1 SUB PUSH2 0x88A JUMPI PUSH1 0x40 MLOAD PUSH4 0x4A2FF0CB PUSH1 0xE1 SHL DUP2 MSTORE PUSH1 0x4 ADD PUSH1 0x40 MLOAD DUP1 SWAP2 SUB SWAP1 REVERT JUMPDEST DUP2 PUSH1 0x0 SUB PUSH2 0x8AB JUMPI PUSH1 0x40 MLOAD PUSH4 0x89AC5D2B PUSH1 0xE0 SHL DUP2 MSTORE PUSH1 0x4 ADD PUSH1 0x40 MLOAD DUP1 SWAP2 SUB SWAP1 REVERT JUMPDEST PUSH1 0x0 DUP2 DUP4 GT PUSH2 0x8BA JUMPI DUP3 PUSH2 0x8BC JUMP JUMPDEST DUP2 JUMPDEST SWAP1 POP PUSH2 0x8D3 PUSH1 0x1 PUSH1 0x1 PUSH1 0xA0 SHL SUB DUP6 AND CALLER ADDRESS DUP5 PUSH2 0x1A44 JUMP JUMPDEST PUSH2 0x8DD DUP2 DUP4 PUSH2 0x1E86 JUMP JUMPDEST CALLER PUSH1 0x0 SWAP1 DUP2 MSTORE PUSH1 0x3 PUSH1 0x20 SWAP1 DUP2 MSTORE PUSH1 0x40 DUP1 DUP4 KECCAK256 PUSH1 0x1 PUSH1 0x1 PUSH1 0xA0 SHL SUB DUP10 AND DUP5 MSTORE SWAP1 SWAP2 MSTORE DUP2 KECCAK256 DUP3 SWAP1 SSTORE SUB PUSH2 0x92D JUMPI CALLER PUSH1 0x0 SWAP1 DUP2 MSTORE PUSH1 0x4 PUSH1 0x20 SWAP1 DUP2 MSTORE PUSH1 0x40 DUP1 DUP4 KECCAK256 PUSH1 0x1 PUSH1 0x1 PUSH1 0xA0 SHL SUB DUP9 AND DUP5 MSTORE SWAP1 SWAP2 MSTORE DUP2 KECCAK256 SSTORE JUMPDEST PUSH1 0x40 MLOAD DUP2 DUP2 MSTORE PUSH1 0x1 PUSH1 0x1 PUSH1 0xA0 SHL SUB DUP6 AND SWAP1 CALLER SWAP1 PUSH32 0xA3FBBEA70E93F2DAAFA3102F5C9A1B8315E6D7A1E43E4BC020BC1162327470A SWAP1 PUSH1 0x20 ADD PUSH1 0x40 MLOAD DUP1 SWAP2 SUB SWAP1 LOG3 POP POP PUSH2 0x979 PUSH1 0x1 PUSH1 0x0 SSTORE JUMP JUMPDEST POP POP JUMP JUMPDEST PUSH1 0x8 SLOAD PUSH1 0x1 PUSH1 0x1 PUSH1 0xA0 SHL SUB AND CALLER EQ PUSH2 0x9A8 JUMPI PUSH1 0x40 MLOAD PUSH4 0xFD0C7901 PUSH1 0xE0 SHL DUP2 MSTORE PUSH1 0x4 ADD PUSH1 0x40 MLOAD DUP1 SWAP2 SUB SWAP1 REVERT JUMPDEST PUSH2 0x9B0 PUSH2 0x1AB1 JUMP JUMPDEST JUMP JUMPDEST PUSH2 0x9BA PUSH2 0x18E5 JUMP JUMPDEST PUSH2 0x9C2 PUSH2 0x190F JUMP JUMPDEST DUP1 PUSH1 0x0 SUB PUSH2 0x9E3 JUMPI PUSH1 0x40 MLOAD PUSH4 0x89AC5D2B PUSH1 0xE0 SHL DUP2 MSTORE PUSH1 0x4 ADD PUSH1 0x40 MLOAD DUP1 SWAP2 SUB SWAP1 REVERT JUMPDEST PUSH20 0xEEEEEEEEEEEEEEEEEEEEEEEEEEEEEEEEEEEEEEED NOT PUSH1 0x1 PUSH1 0x1 PUSH1 0xA0 SHL SUB DUP4 AND ADD PUSH2 0xA21 JUMPI PUSH1 0x40 MLOAD PUSH4 0x1311949B PUSH1 0xE3 SHL DUP2 MSTORE PUSH1 0x4 ADD PUSH1 0x40 MLOAD DUP1 SWAP2 SUB SWAP1 REVERT JUMPDEST PUSH1 0x1 PUSH1 0x1 PUSH1 0xA0 SHL SUB DUP3 AND PUSH1 0x0 SWAP1 DUP2 MSTORE PUSH1 0x5 PUSH1 0x20 MSTORE PUSH1 0x40 SWAP1 KECCAK256 SLOAD PUSH1 0xFF AND PUSH2 0xA5A JUMPI PUSH1 0x40 MLOAD PUSH4 0x1311949B PUSH1 0xE3 SHL DUP2 MSTORE PUSH1 0x4 ADD PUSH1 0x40 MLOAD DUP1 SWAP2 SUB SWAP1 REVERT JUMPDEST PUSH2 0xA6F PUSH1 0x1 PUSH1 0x1 PUSH1 0xA0 SHL SUB DUP4 AND CALLER ADDRESS DUP5 PUSH2 0x1A44 JUMP JUMPDEST CALLER PUSH1 0x0 SWAP1 DUP2 MSTORE PUSH1 0x2 PUSH1 0x20 SWAP1 DUP2 MSTORE PUSH1 0x40 DUP1 DUP4 KECCAK256 PUSH1 0x1 PUSH1 0x1 PUSH1 0xA0 SHL SUB DUP7 AND DUP5 MSTORE SWAP1 SWAP2 MSTORE DUP2 KECCAK256 DUP1 SLOAD DUP4 SWAP3 SWAP1 PUSH2 0xAA2 SWAP1 DUP5 SWAP1 PUSH2 0x1E99 JUMP JUMPDEST SWAP1 SWAP2 SSTORE POP POP PUSH1 0x40 MLOAD DUP2 DUP2 MSTORE PUSH1 0x1 PUSH1 0x1 PUSH1 0xA0 SHL SUB DUP4 AND SWAP1 CALLER SWAP1 PUSH32 0xF1C0DD7E9B98BBFF859029005EF89B127AF049CD18DF1A8D79F0B7E019911E56 SWAP1 PUSH1 0x20 ADD PUSH1 0x40 MLOAD DUP1 SWAP2 SUB SWAP1 LOG3 PUSH2 0x979 PUSH1 0x1 PUSH1 0x0 SSTORE JUMP JUMPDEST PUSH2 0xAF9 PUSH2 0x18E5 JUMP JUMPDEST PUSH2 0xB01 PUSH2 0x190F JUMP JUMPDEST DUP1 PUSH1 0x0 SUB PUSH2 0xB22 JUMPI PUSH1 0x40 MLOAD PUSH4 0x89AC5D2B PUSH1 0xE0 SHL DUP2 MSTORE PUSH1 0x4 ADD PUSH1 0x40 MLOAD DUP1 SWAP2 SUB SWAP1 REVERT JUMPDEST PUSH1 0x1 PUSH1 0x1 PUSH1 0xA0 SHL SUB DUP4 AND PUSH1 0x0 SWAP1 DUP2 MSTORE PUSH1 0x5 PUSH1 0x20 MSTORE PUSH1 0x40 SWAP1 KECCAK256 SLOAD PUSH1 0xFF AND PUSH2 0xB5B JUMPI PUSH1 0x40 MLOAD PUSH4 0x1311949B PUSH1 0xE3 SHL DUP2 MSTORE PUSH1 0x4 ADD PUSH1 0x40 MLOAD DUP1 SWAP2 SUB SWAP1 REVERT JUMPDEST PUSH1 0x1 PUSH1 0x1 PUSH1 0xA0 SHL SUB DUP3 AND PUSH1 0x0 SWAP1 DUP2 MSTORE PUSH1 0x6 PUSH1 0x20 MSTORE PUSH1 0x40 SWAP1 KECCAK256 SLOAD PUSH1 0xFF AND PUSH2 0xB94 JUMPI PUSH1 0x40 MLOAD PUSH4 0x1311949B PUSH1 0xE3 SHL DUP2 MSTORE PUSH1 0x4 ADD PUSH1 0x40 MLOAD DUP1 SWAP2 SUB SWAP1 REVERT JUMPDEST PUSH1 0x40 MLOAD PUSH4 0x70A08231 PUSH1 0xE0 SHL DUP2 MSTORE ADDRESS PUSH1 0x4 DUP3 ADD MSTORE DUP2 SWAP1 PUSH1 0x1 PUSH1 0x1 PUSH1 0xA0 SHL SUB DUP5 AND SWAP1 PUSH4 0x70A08231 SWAP1 PUSH1 0x24 ADD PUSH1 0x20 PUSH1 0x40 MLOAD DUP1 DUP4 SUB DUP2 DUP7 GAS STATICCALL ISZERO DUP1 ISZERO PUSH2 0xBDA JUMPI RETURNDATASIZE PUSH1 0x0 DUP1 RETURNDATACOPY RETURNDATASIZE PUSH1 0x0 REVERT JUMPDEST POP POP POP POP PUSH1 0x40 MLOAD RETURNDATASIZE PUSH1 0x1F NOT PUSH1 0x1F DUP3 ADD AND DUP3 ADD DUP1 PUSH1 0x40 MSTORE POP DUP2 ADD SWAP1 PUSH2 0xBFE SWAP2 SWAP1 PUSH2 0x1E1E JUMP JUMPDEST LT ISZERO PUSH2 0xC1D JUMPI PUSH1 0x40 MLOAD PUSH4 0x1AD4BB23 PUSH1 0xE0 SHL DUP2 MSTORE PUSH1 0x4 ADD PUSH1 0x40 MLOAD DUP1 SWAP2 SUB SWAP1 REVERT JUMPDEST PUSH2 0xC27 CALLER DUP4 PUSH2 0x1933 JUMP JUMPDEST PUSH1 0x0 PUSH2 0xC33 CALLER DUP6 PUSH2 0x759 JUMP JUMPDEST SWAP1 POP PUSH1 0x0 PUSH2 0x2710 PUSH2 0xC46 PUSH2 0x1388 DUP5 PUSH2 0x1E4D JUMP JUMPDEST PUSH2 0xC50 SWAP2 SWAP1 PUSH2 0x1E64 JUMP JUMPDEST CALLER PUSH1 0x0 SWAP1 DUP2 MSTORE PUSH1 0x3 PUSH1 0x20 SWAP1 DUP2 MSTORE PUSH1 0x40 DUP1 DUP4 KECCAK256 PUSH1 0x1 PUSH1 0x1 PUSH1 0xA0 SHL SUB DUP10 AND DUP5 MSTORE SWAP1 SWAP2 MSTORE SWAP1 KECCAK256 SLOAD SWAP1 SWAP2 POP DUP2 PUSH2 0xC82 DUP6 DUP4 PUSH2 0x1E99 JUMP JUMPDEST GT ISZERO PUSH2 0xCA1 JUMPI PUSH1 0x40 MLOAD PUSH4 0x4A5276D7 PUSH1 0xE0 SHL DUP2 MSTORE PUSH1 0x4 ADD PUSH1 0x40 MLOAD DUP1 SWAP2 SUB SWAP1 REVERT JUMPDEST PUSH2 0xCAB DUP5 DUP3 PUSH2 0x1E99 JUMP JUMPDEST CALLER PUSH1 0x0 DUP2 DUP2 MSTORE PUSH1 0x3 PUSH1 0x20 SWAP1 DUP2 MSTORE PUSH1 0x40 DUP1 DUP4 KECCAK256 PUSH1 0x1 PUSH1 0x1 PUSH1 0xA0 SHL SUB DUP12 AND DUP1 DUP6 MSTORE SWAP1 DUP4 MSTORE DUP2 DUP5 KECCAK256 SWAP6 SWAP1 SWAP6 SSTORE DUP4 DUP4 MSTORE PUSH1 0x4 DUP3 MSTORE DUP1 DUP4 KECCAK256 DUP6 DUP5 MSTORE SWAP1 SWAP2 MSTORE SWAP1 KECCAK256 TIMESTAMP SWAP1 SSTORE PUSH2 0xCF4 SWAP2 SWAP1 DUP7 PUSH2 0x1B03 JUMP JUMPDEST DUP5 PUSH1 0x1 PUSH1 0x1 PUSH1 0xA0 SHL SUB AND DUP7 PUSH1 0x1 PUSH1 0x1 PUSH1 0xA0 SHL SUB AND CALLER PUSH1 0x1 PUSH1 0x1 PUSH1 0xA0 SHL SUB AND PUSH32 0x9C9260125F1A087D9E46EE3DC78F1A4AF18C5E00714012D9A35250D49391C4FE DUP8 PUSH1 0x40 MLOAD PUSH2 0xD43 SWAP2 DUP2 MSTORE PUSH1 0x20 ADD SWAP1 JUMP JUMPDEST PUSH1 0x40 MLOAD DUP1 SWAP2 SUB SWAP1 LOG4 POP POP POP PUSH2 0xD58 PUSH1 0x1 PUSH1 0x0 SSTORE JUMP JUMPDEST POP POP POP JUMP JUMPDEST PUSH1 0x0 DUP1 PUSH2 0xD6A DUP6 DUP6 PUSH2 0x759 JUMP JUMPDEST PUSH1 0x1 PUSH1 0x1 PUSH1 0xA0 SHL SUB DUP1 DUP8 AND PUSH1 0x0 SWAP1 DUP2 MSTORE PUSH1 0x3 PUSH1 0x20 SWAP1 DUP2 MSTORE PUSH1 0x40 DUP1 DUP4 KECCAK256 SWAP4 DUP9 AND DUP4 MSTORE SWAP3 SWAP1 MSTORE SWAP1 DUP2 KECCAK256 SLOAD SWAP2 SWAP3 POP DUP2 SWAP1 SUB PUSH2 0xDA8 JUMPI PUSH1 0x0 NOT SWAP3 POP POP POP PUSH2 0xDC4 JUMP JUMPDEST DUP1 PUSH2 0xDB5 PUSH2 0x2710 DUP5 PUSH2 0x1E4D JUMP JUMPDEST PUSH2 0xDBF SWAP2 SWAP1 PUSH2 0x1E64 JUMP JUMPDEST SWAP3 POP POP POP JUMPDEST SWAP4 SWAP3 POP POP POP JUMP JUMPDEST PUSH1 0x9 SLOAD PUSH1 0x1 PUSH1 0x1 PUSH1 0xA0 SHL SUB AND CALLER EQ PUSH2 0xDF6 JUMPI PUSH1 0x40 MLOAD PUSH4 0xB3EB169B PUSH1 0xE0 SHL DUP2 MSTORE PUSH1 0x4 ADD PUSH1 0x40 MLOAD DUP1 SWAP2 SUB SWAP1 REVERT JUMPDEST PUSH1 0x9 DUP1 SLOAD PUSH1 0x8 DUP1 SLOAD PUSH1 0x1 PUSH1 0x1 PUSH1 0xA0 SHL SUB NOT SWAP1 DUP2 AND PUSH1 0x1 PUSH1 0x1 PUSH1 0xA0 SHL SUB DUP5 AND OR SWAP1 SWAP2 SSTORE AND SWAP1 SSTORE JUMP JUMPDEST PUSH1 0x8 SLOAD PUSH1 0x1 PUSH1 0x1 PUSH1 0xA0 SHL SUB AND CALLER EQ PUSH2 0xE48 JUMPI PUSH1 0x40 MLOAD PUSH4 0xFD0C7901 PUSH1 0xE0 SHL DUP2 MSTORE PUSH1 0x4 ADD PUSH1 0x40 MLOAD DUP1 SWAP2 SUB SWAP1 REVERT JUMPDEST PUSH2 0x9B0 PUSH2 0x1B34 JUMP JUMPDEST PUSH1 0x8 SLOAD PUSH1 0x1 PUSH1 0x1 PUSH1 0xA0 SHL SUB AND CALLER EQ PUSH2 0xE7B JUMPI PUSH1 0x40 MLOAD PUSH4 0xFD0C7901 PUSH1 0xE0 SHL DUP2 MSTORE PUSH1 0x4 ADD PUSH1 0x40 MLOAD DUP1 SWAP2 SUB SWAP1 REVERT JUMPDEST PUSH1 0x1 PUSH1 0x1 PUSH1 0xA0 SHL SUB AND PUSH1 0x0 SWAP1 DUP2 MSTORE PUSH1 0x5 PUSH1 0x20 MSTORE PUSH1 0x40 SWAP1 KECCAK256 DUP1 SLOAD PUSH1 0xFF NOT AND SWAP1 SSTORE JUMP JUMPDEST PUSH2 0xEA4 PUSH2 0x18E5 JUMP JUMPDEST PUSH2 0xEAC PUSH2 0x190F JUMP JUMPDEST PUSH2 0xEB6 DUP4 DUP3 PUSH2 0x1933 JUMP JUMPDEST PUSH1 0x0 PUSH2 0xEC3 DUP5 DUP5 DUP5 PUSH2 0xD5D JUMP JUMPDEST SWAP1 POP PUSH2 0x3A98 DUP2 LT PUSH2 0xEE7 JUMPI PUSH1 0x40 MLOAD PUSH4 0x94E0953 PUSH1 0xE4 SHL DUP2 MSTORE PUSH1 0x4 ADD PUSH1 0x40 MLOAD DUP1 SWAP2 SUB SWAP1 REVERT JUMPDEST PUSH1 0x1 PUSH1 0x1 PUSH1 0xA0 SHL SUB DUP1 DUP6 AND PUSH1 0x0 SWAP1 DUP2 MSTORE PUSH1 0x3 PUSH1 0x20 SWAP1 DUP2 MSTORE PUSH1 0x40 DUP1 DUP4 KECCAK256 SWAP4 DUP7 AND DUP4 MSTORE SWAP3 SWAP1 MSTORE SWAP1 DUP2 KECCAK256 SLOAD SWAP1 DUP2 SWAP1 SUB PUSH2 0xF30 JUMPI PUSH1 0x40 MLOAD PUSH4 0x4A2FF0CB PUSH1 0xE1 SHL DUP2 MSTORE PUSH1 0x4 ADD PUSH1 0x40 MLOAD DUP1 SWAP2 SUB SWAP1 REVERT JUMPDEST PUSH1 0x0 PUSH2 0x2710 PUSH2 0xF41 PUSH2 0x3E8 DUP5 PUSH2 0x1E4D JUMP JUMPDEST PUSH2 0xF4B SWAP2 SWAP1 PUSH2 0x1E64 JUMP JUMPDEST SWAP1 POP PUSH1 0x0 PUSH2 0xF59 DUP3 DUP5 PUSH2 0x1E99 JUMP JUMPDEST PUSH1 0x7 SLOAD PUSH1 0x40 MLOAD PUSH4 0x41976E09 PUSH1 0xE0 SHL DUP2 MSTORE PUSH1 0x1 PUSH1 0x1 PUSH1 0xA0 SHL SUB DUP10 DUP2 AND PUSH1 0x4 DUP4 ADD MSTORE SWAP3 SWAP4 POP PUSH1 0x0 SWAP3 SWAP1 SWAP2 AND SWAP1 PUSH4 0x41976E09 SWAP1 PUSH1 0x24 ADD PUSH1 0x20 PUSH1 0x40 MLOAD DUP1 DUP4 SUB DUP2 DUP7 GAS STATICCALL ISZERO DUP1 ISZERO PUSH2 0xFA9 JUMPI RETURNDATASIZE PUSH1 0x0 DUP1 RETURNDATACOPY RETURNDATASIZE PUSH1 0x0 REVERT JUMPDEST POP POP POP POP PUSH1 0x40 MLOAD RETURNDATASIZE PUSH1 0x1F NOT PUSH1 0x1F DUP3 ADD AND DUP3 ADD DUP1 PUSH1 0x40 MSTORE POP DUP2 ADD SWAP1 PUSH2 0xFCD SWAP2 SWAP1 PUSH2 0x1E1E JUMP JUMPDEST PUSH1 0x7 SLOAD PUSH1 0x40 MLOAD PUSH4 0x41976E09 PUSH1 0xE0 SHL DUP2 MSTORE PUSH1 0x1 PUSH1 0x1 PUSH1 0xA0 SHL SUB DUP10 DUP2 AND PUSH1 0x4 DUP4 ADD MSTORE SWAP3 SWAP4 POP PUSH1 0x0 SWAP3 SWAP1 SWAP2 AND SWAP1 PUSH4 0x41976E09 SWAP1 PUSH1 0x24 ADD PUSH1 0x20 PUSH1 0x40 MLOAD DUP1 DUP4 SUB DUP2 DUP7 GAS STATICCALL ISZERO DUP1 ISZERO PUSH2 0x101D JUMPI RETURNDATASIZE PUSH1 0x0 DUP1 RETURNDATACOPY RETURNDATASIZE PUSH1 0x0 REVERT JUMPDEST POP POP POP POP PUSH1 0x40 MLOAD RETURNDATASIZE PUSH1 0x1F NOT PUSH1 0x1F DUP3 ADD AND DUP3 ADD DUP1 PUSH1 0x40 MSTORE POP DUP2 ADD SWAP1 PUSH2 0x1041 SWAP2 SWAP1 PUSH2 0x1E1E JUMP JUMPDEST SWAP1 POP PUSH1 0x0 DUP3 PUSH2 0x1050 DUP4 DUP7 PUSH2 0x1E4D JUMP JUMPDEST PUSH2 0x105A SWAP2 SWAP1 PUSH2 0x1E64 JUMP JUMPDEST PUSH1 0x1 PUSH1 0x1 PUSH1 0xA0 SHL SUB DUP1 DUP13 AND PUSH1 0x0 SWAP1 DUP2 MSTORE PUSH1 0x2 PUSH1 0x20 SWAP1 DUP2 MSTORE PUSH1 0x40 DUP1 DUP4 KECCAK256 SWAP4 DUP15 AND DUP4 MSTORE SWAP3 SWAP1 MSTORE KECCAK256 SLOAD SWAP1 SWAP2 POP DUP2 GT ISZERO PUSH2 0x10B2 JUMPI POP PUSH1 0x1 PUSH1 0x1 PUSH1 0xA0 SHL SUB DUP1 DUP11 AND PUSH1 0x0 SWAP1 DUP2 MSTORE PUSH1 0x2 PUSH1 0x20 SWAP1 DUP2 MSTORE PUSH1 0x40 DUP1 DUP4 KECCAK256 SWAP4 DUP13 AND DUP4 MSTORE SWAP3 SWAP1 MSTORE KECCAK256 SLOAD JUMPDEST PUSH1 0x1 PUSH1 0x1 PUSH1 0xA0 SHL SUB DUP1 DUP12 AND PUSH1 0x0 DUP2 DUP2 MSTORE PUSH1 0x3 PUSH1 0x20 SWAP1 DUP2 MSTORE PUSH1 0x40 DUP1 DUP4 KECCAK256 DUP14 DUP7 AND DUP1 DUP6 MSTORE SWAP1 DUP4 MSTORE DUP2 DUP5 KECCAK256 DUP5 SWAP1 SSTORE DUP5 DUP5 MSTORE PUSH1 0x4 DUP4 MSTORE DUP2 DUP5 KECCAK256 SWAP1 DUP5 MSTORE DUP3 MSTORE DUP1 DUP4 KECCAK256 DUP4 SWAP1 SSTORE SWAP3 DUP3 MSTORE PUSH1 0x2 DUP2 MSTORE DUP3 DUP3 KECCAK256 SWAP4 DUP14 AND DUP3 MSTORE SWAP3 SWAP1 SWAP3 MSTORE DUP2 KECCAK256 DUP1 SLOAD DUP4 SWAP3 SWAP1 PUSH2 0x1117 SWAP1 DUP5 SWAP1 PUSH2 0x1E86 JUMP JUMPDEST SWAP1 SWAP2 SSTORE POP PUSH1 0x0 SWAP1 POP PUSH2 0x2710 PUSH2 0x112E PUSH2 0x1F4 DUP5 PUSH2 0x1E4D JUMP JUMPDEST PUSH2 0x1138 SWAP2 SWAP1 PUSH2 0x1E64 JUMP JUMPDEST SWAP1 POP PUSH1 0x0 PUSH2 0x2710 PUSH2 0x114B PUSH2 0x1F4 DUP6 PUSH2 0x1E4D JUMP JUMPDEST PUSH2 0x1155 SWAP2 SWAP1 PUSH2 0x1E64 JUMP JUMPDEST SWAP1 POP PUSH1 0x0 DUP2 PUSH2 0x1164 DUP5 DUP7 PUSH2 0x1E86 JUMP JUMPDEST PUSH2 0x116E SWAP2 SWAP1 PUSH2 0x1E86 JUMP JUMPDEST SWAP1 POP PUSH20 0xEEEEEEEEEEEEEEEEEEEEEEEEEEEEEEEEEEEEEEED NOT PUSH1 0x1 PUSH1 0x1 PUSH1 0xA0 SHL SUB DUP14 AND ADD PUSH2 0x12F5 JUMPI PUSH1 0x40 MLOAD PUSH1 0x0 SWAP1 CALLER SWAP1 DUP6 SWAP1 DUP4 DUP2 DUP2 DUP2 DUP6 DUP8 GAS CALL SWAP3 POP POP POP RETURNDATASIZE DUP1 PUSH1 0x0 DUP2 EQ PUSH2 0x11D7 JUMPI PUSH1 0x40 MLOAD SWAP2 POP PUSH1 0x1F NOT PUSH1 0x3F RETURNDATASIZE ADD AND DUP3 ADD PUSH1 0x40 MSTORE RETURNDATASIZE DUP3 MSTORE RETURNDATASIZE PUSH1 0x0 PUSH1 0x20 DUP5 ADD RETURNDATACOPY PUSH2 0x11DC JUMP JUMPDEST PUSH1 0x60 SWAP2 POP JUMPDEST POP POP SWAP1 POP DUP1 PUSH2 0x11FE JUMPI PUSH1 0x40 MLOAD PUSH4 0x385EB6B1 PUSH1 0xE0 SHL DUP2 MSTORE PUSH1 0x4 ADD PUSH1 0x40 MLOAD DUP1 SWAP2 SUB SWAP1 REVERT JUMPDEST PUSH1 0xA SLOAD PUSH1 0x40 MLOAD PUSH1 0x0 SWAP2 PUSH1 0x1 PUSH1 0x1 PUSH1 0xA0 SHL SUB AND SWAP1 DUP6 SWAP1 DUP4 DUP2 DUP2 DUP2 DUP6 DUP8 GAS CALL SWAP3 POP POP POP RETURNDATASIZE DUP1 PUSH1 0x0 DUP2 EQ PUSH2 0x124B JUMPI PUSH1 0x40 MLOAD SWAP2 POP PUSH1 0x1F NOT PUSH1 0x3F RETURNDATASIZE ADD AND DUP3 ADD PUSH1 0x40 MSTORE RETURNDATASIZE DUP3 MSTORE RETURNDATASIZE PUSH1 0x0 PUSH1 0x20 DUP5 ADD RETURNDATACOPY PUSH2 0x1250 JUMP JUMPDEST PUSH1 0x60 SWAP2 POP JUMPDEST POP POP SWAP1 POP DUP1 PUSH2 0x1272 JUMPI PUSH1 0x40 MLOAD PUSH4 0x385EB6B1 PUSH1 0xE0 SHL DUP2 MSTORE PUSH1 0x4 ADD PUSH1 0x40 MLOAD DUP1 SWAP2 SUB SWAP1 REVERT JUMPDEST DUP3 ISZERO PUSH2 0x12EE JUMPI PUSH1 0x0 DUP16 PUSH1 0x1 PUSH1 0x1 PUSH1 0xA0 SHL SUB AND DUP5 PUSH1 0x40 MLOAD PUSH1 0x0 PUSH1 0x40 MLOAD DUP1 DUP4 SUB DUP2 DUP6 DUP8 GAS CALL SWAP3 POP POP POP RETURNDATASIZE DUP1 PUSH1 0x0 DUP2 EQ PUSH2 0x12C5 JUMPI PUSH1 0x40 MLOAD SWAP2 POP PUSH1 0x1F NOT PUSH1 0x3F RETURNDATASIZE ADD AND DUP3 ADD PUSH1 0x40 MSTORE RETURNDATASIZE DUP3 MSTORE RETURNDATASIZE PUSH1 0x0 PUSH1 0x20 DUP5 ADD RETURNDATACOPY PUSH2 0x12CA JUMP JUMPDEST PUSH1 0x60 SWAP2 POP JUMPDEST POP POP SWAP1 POP DUP1 PUSH2 0x12EC JUMPI PUSH1 0x40 MLOAD PUSH4 0x385EB6B1 PUSH1 0xE0 SHL DUP2 MSTORE PUSH1 0x4 ADD PUSH1 0x40 MLOAD DUP1 SWAP2 SUB SWAP1 REVERT JUMPDEST POP JUMPDEST POP POP PUSH2 0x133D JUMP JUMPDEST PUSH2 0x1309 PUSH1 0x1 PUSH1 0x1 PUSH1 0xA0 SHL SUB DUP14 AND CALLER DUP6 PUSH2 0x1B03 JUMP JUMPDEST PUSH1 0xA SLOAD PUSH2 0x1323 SWAP1 PUSH1 0x1 PUSH1 0x1 PUSH1 0xA0 SHL SUB DUP15 DUP2 AND SWAP2 AND DUP5 PUSH2 0x1B03 JUMP JUMPDEST DUP1 ISZERO PUSH2 0x133D JUMPI PUSH2 0x133D PUSH1 0x1 PUSH1 0x1 PUSH1 0xA0 SHL SUB DUP14 AND DUP15 DUP4 PUSH2 0x1B03 JUMP JUMPDEST DUP11 PUSH1 0x1 PUSH1 0x1 PUSH1 0xA0 SHL SUB AND DUP13 PUSH1 0x1 PUSH1 0x1 PUSH1 0xA0 SHL SUB AND DUP15 PUSH1 0x1 PUSH1 0x1 PUSH1 0xA0 SHL SUB AND PUSH32 0xD1EF587D13FEFE63F9BC582E973AAD46877EF08CFE790838721BD521C53CAF56 DUP8 DUP8 PUSH1 0x40 MLOAD PUSH2 0x1395 SWAP3 SWAP2 SWAP1 SWAP2 DUP3 MSTORE PUSH1 0x20 DUP3 ADD MSTORE PUSH1 0x40 ADD SWAP1 JUMP JUMPDEST PUSH1 0x40 MLOAD DUP1 SWAP2 SUB SWAP1 LOG4 POP POP POP POP POP POP POP POP POP POP PUSH2 0xD58 PUSH1 0x1 PUSH1 0x0 SSTORE JUMP JUMPDEST PUSH1 0x8 SLOAD PUSH1 0x1 PUSH1 0x1 PUSH1 0xA0 SHL SUB AND CALLER EQ PUSH2 0x13DC JUMPI PUSH1 0x40 MLOAD PUSH4 0xFD0C7901 PUSH1 0xE0 SHL DUP2 MSTORE PUSH1 0x4 ADD PUSH1 0x40 MLOAD DUP1 SWAP2 SUB SWAP1 REVERT JUMPDEST PUSH1 0x1 PUSH1 0x1 PUSH1 0xA0 SHL SUB AND PUSH1 0x0 SWAP1 DUP2 MSTORE PUSH1 0x6 PUSH1 0x20 MSTORE PUSH1 0x40 SWAP1 KECCAK256 DUP1 SLOAD PUSH1 0xFF NOT AND SWAP1 SSTORE JUMP JUMPDEST PUSH1 0x8 SLOAD PUSH1 0x1 PUSH1 0x1 PUSH1 0xA0 SHL SUB AND CALLER EQ PUSH2 0x1428 JUMPI PUSH1 0x40 MLOAD PUSH4 0xFD0C7901 PUSH1 0xE0 SHL DUP2 MSTORE PUSH1 0x4 ADD PUSH1 0x40 MLOAD DUP1 SWAP2 SUB SWAP1 REVERT JUMPDEST PUSH1 0x1 PUSH1 0x1 PUSH1 0xA0 SHL SUB DUP2 AND PUSH2 0x144E JUMPI PUSH1 0x40 MLOAD PUSH3 0xD1BE63 PUSH1 0xE6 SHL DUP2 MSTORE PUSH1 0x4 ADD PUSH1 0x40 MLOAD DUP1 SWAP2 SUB SWAP1 REVERT JUMPDEST PUSH1 0x1 PUSH1 0x1 PUSH1 0xA0 SHL SUB AND PUSH1 0x0 SWAP1 DUP2 MSTORE PUSH1 0x5 PUSH1 0x20 MSTORE PUSH1 0x40 SWAP1 KECCAK256 DUP1 SLOAD PUSH1 0xFF NOT AND PUSH1 0x1 OR SWAP1 SSTORE JUMP JUMPDEST PUSH2 0x147A PUSH2 0x18E5 JUMP JUMPDEST PUSH2 0x1482 PUSH2 0x190F JUMP JUMPDEST DUP1 PUSH1 0x0 SUB PUSH2 0x14A3 JUMPI PUSH1 0x40 MLOAD PUSH4 0x89AC5D2B PUSH1 0xE0 SHL DUP2 MSTORE PUSH1 0x4 ADD PUSH1 0x40 MLOAD DUP1 SWAP2 SUB SWAP1 REVERT JUMPDEST CALLER PUSH1 0x0 SWAP1 DUP2 MSTORE PUSH1 0x2 PUSH1 0x20 SWAP1 DUP2 MSTORE PUSH1 0x40 DUP1 DUP4 KECCAK256 PUSH20 0xEEEEEEEEEEEEEEEEEEEEEEEEEEEEEEEEEEEEEEEE DUP5 MSTORE SWAP1 SWAP2 MSTORE SWAP1 KECCAK256 SLOAD DUP2 GT ISZERO PUSH2 0x14F2 JUMPI PUSH1 0x40 MLOAD PUSH4 0x833A2B9B PUSH1 0xE0 SHL DUP2 MSTORE PUSH1 0x4 ADD PUSH1 0x40 MLOAD DUP1 SWAP2 SUB SWAP1 REVERT JUMPDEST CALLER PUSH1 0x0 SWAP1 DUP2 MSTORE PUSH1 0x2 PUSH1 0x20 SWAP1 DUP2 MSTORE PUSH1 0x40 DUP1 DUP4 KECCAK256 PUSH20 0xEEEEEEEEEEEEEEEEEEEEEEEEEEEEEEEEEEEEEEEE DUP5 MSTORE SWAP1 SWAP2 MSTORE DUP2 KECCAK256 DUP1 SLOAD DUP4 SWAP3 SWAP1 PUSH2 0x1530 SWAP1 DUP5 SWAP1 PUSH2 0x1E86 JUMP JUMPDEST SWAP1 SWAP2 SSTORE POP PUSH1 0x0 NOT SWAP1 POP PUSH1 0x40 MLOAD PUSH1 0x0 SWAP1 CALLER SWAP1 DUP5 SWAP1 DUP4 DUP2 DUP2 DUP2 DUP6 DUP8 GAS CALL SWAP3 POP POP POP RETURNDATASIZE DUP1 PUSH1 0x0 DUP2 EQ PUSH2 0x157B JUMPI PUSH1 0x40 MLOAD SWAP2 POP PUSH1 0x1F NOT PUSH1 0x3F RETURNDATASIZE ADD AND DUP3 ADD PUSH1 0x40 MSTORE RETURNDATASIZE DUP3 MSTORE RETURNDATASIZE PUSH1 0x0 PUSH1 0x20 DUP5 ADD RETURNDATACOPY PUSH2 0x1580 JUMP JUMPDEST PUSH1 0x60 SWAP2 POP JUMPDEST POP POP SWAP1 POP DUP1 PUSH2 0x15A2 JUMPI PUSH1 0x40 MLOAD PUSH4 0x385EB6B1 PUSH1 0xE0 SHL DUP2 MSTORE PUSH1 0x4 ADD PUSH1 0x40 MLOAD DUP1 SWAP2 SUB SWAP1 REVERT JUMPDEST PUSH1 0x40 MLOAD DUP4 DUP2 MSTORE PUSH20 0xEEEEEEEEEEEEEEEEEEEEEEEEEEEEEEEEEEEEEEEE SWAP1 CALLER SWAP1 PUSH32 0x45892A46E6CEF329BB642DA6D69846D324DB43D19008EDC141ED82382EDA1BEE SWAP1 PUSH1 0x20 ADD PUSH1 0x40 MLOAD DUP1 SWAP2 SUB SWAP1 LOG3 POP POP PUSH2 0x15F9 PUSH1 0x1 PUSH1 0x0 SSTORE JUMP JUMPDEST POP JUMP JUMPDEST PUSH1 0x8 SLOAD PUSH1 0x1 PUSH1 0x1 PUSH1 0xA0 SHL SUB AND CALLER EQ PUSH2 0x1627 JUMPI PUSH1 0x40 MLOAD PUSH4 0xFD0C7901 PUSH1 0xE0 SHL DUP2 MSTORE PUSH1 0x4 ADD PUSH1 0x40 MLOAD DUP1 SWAP2 SUB SWAP1 REVERT JUMPDEST PUSH1 0x1 PUSH1 0x1 PUSH1 0xA0 SHL SUB DUP2 AND PUSH2 0x164D JUMPI PUSH1 0x40 MLOAD PUSH3 0xD1BE63 PUSH1 0xE6 SHL DUP2 MSTORE PUSH1 0x4 ADD PUSH1 0x40 MLOAD DUP1 SWAP2 SUB SWAP1 REVERT JUMPDEST PUSH1 0x9 DUP1 SLOAD PUSH1 0x1 PUSH1 0x1 PUSH1 0xA0 SHL SUB NOT AND PUSH1 0x1 PUSH1 0x1 PUSH1 0xA0 SHL SUB SWAP3 SWAP1 SWAP3 AND SWAP2 SWAP1 SWAP2 OR SWAP1 SSTORE JUMP JUMPDEST PUSH2 0x1677 PUSH2 0x18E5 JUMP JUMPDEST PUSH2 0x167F PUSH2 0x190F JUMP JUMPDEST DUP1 PUSH1 0x0 SUB PUSH2 0x16A0 JUMPI PUSH1 0x40 MLOAD PUSH4 0x89AC5D2B PUSH1 0xE0 SHL DUP2 MSTORE PUSH1 0x4 ADD PUSH1 0x40 MLOAD DUP1 SWAP2 SUB SWAP1 REVERT JUMPDEST PUSH20 0xEEEEEEEEEEEEEEEEEEEEEEEEEEEEEEEEEEEEEEED NOT PUSH1 0x1 PUSH1 0x1 PUSH1 0xA0 SHL SUB DUP4 AND ADD PUSH2 0x16DE JUMPI PUSH1 0x40 MLOAD PUSH4 0x1311949B PUSH1 0xE3 SHL DUP2 MSTORE PUSH1 0x4 ADD PUSH1 0x40 MLOAD DUP1 SWAP2 SUB SWAP1 REVERT JUMPDEST CALLER PUSH1 0x0 SWAP1 DUP2 MSTORE PUSH1 0x2 PUSH1 0x20 SWAP1 DUP2 MSTORE PUSH1 0x40 DUP1 DUP4 KECCAK256 PUSH1 0x1 PUSH1 0x1 PUSH1 0xA0 SHL SUB DUP7 AND DUP5 MSTORE SWAP1 SWAP2 MSTORE SWAP1 KECCAK256 SLOAD DUP2 GT ISZERO PUSH2 0x1722 JUMPI PUSH1 0x40 MLOAD PUSH4 0x833A2B9B PUSH1 0xE0 SHL DUP2 MSTORE PUSH1 0x4 ADD PUSH1 0x40 MLOAD DUP1 SWAP2 SUB SWAP1 REVERT JUMPDEST CALLER PUSH1 0x0 SWAP1 DUP2 MSTORE PUSH1 0x2 PUSH1 0x20 SWAP1 DUP2 MSTORE PUSH1 0x40 DUP1 DUP4 KECCAK256 PUSH1 0x1 PUSH1 0x1 PUSH1 0xA0 SHL SUB DUP7 AND DUP5 MSTORE SWAP1 SWAP2 MSTORE DUP2 KECCAK256 DUP1 SLOAD DUP4 SWAP3 SWAP1 PUSH2 0x1755 SWAP1 DUP5 SWAP1 PUSH2 0x1E86 JUMP JUMPDEST SWAP1 SWAP2 SSTORE POP PUSH1 0x0 NOT SWAP1 POP PUSH2 0x1772 PUSH1 0x1 PUSH1 0x1 PUSH1 0xA0 SHL SUB DUP5 AND CALLER DUP5 PUSH2 0x1B03 JUMP JUMPDEST PUSH1 0x40 MLOAD DUP3 DUP2 MSTORE PUSH1 0x1 PUSH1 0x1 PUSH1 0xA0 SHL SUB DUP5 AND SWAP1 CALLER SWAP1 PUSH32 0x45892A46E6CEF329BB642DA6D69846D324DB43D19008EDC141ED82382EDA1BEE SWAP1 PUSH1 0x20 ADD PUSH1 0x40 MLOAD DUP1 SWAP2 SUB SWAP1 LOG3 POP PUSH2 0x979 PUSH1 0x1 PUSH1 0x0 SSTORE JUMP JUMPDEST PUSH2 0x17C5 PUSH2 0x18E5 JUMP JUMPDEST PUSH2 0x17CD PUSH2 0x190F JUMP JUMPDEST CALLVALUE PUSH1 0x0 SUB PUSH2 0x17EE JUMPI PUSH1 0x40 MLOAD PUSH4 0x89AC5D2B PUSH1 0xE0 SHL DUP2 MSTORE PUSH1 0x4 ADD PUSH1 0x40 MLOAD DUP1 SWAP2 SUB SWAP1 REVERT JUMPDEST PUSH20 0xEEEEEEEEEEEEEEEEEEEEEEEEEEEEEEEEEEEEEEEE PUSH1 0x0 MSTORE PUSH1 0x5 PUSH1 0x20 MSTORE PUSH32 0xA1829A9003092132F585B6CCDD167C19FE9774DBDEA4260287E8A8E8CA8185D7 SLOAD PUSH1 0xFF AND PUSH2 0x184D JUMPI PUSH1 0x40 MLOAD PUSH4 0x1311949B PUSH1 0xE3 SHL DUP2 MSTORE PUSH1 0x4 ADD PUSH1 0x40 MLOAD DUP1 SWAP2 SUB SWAP1 REVERT JUMPDEST CALLER PUSH1 0x0 SWAP1 DUP2 MSTORE PUSH1 0x2 PUSH1 0x20 SWAP1 DUP2 MSTORE PUSH1 0x40 DUP1 DUP4 KECCAK256 PUSH20 0xEEEEEEEEEEEEEEEEEEEEEEEEEEEEEEEEEEEEEEEE DUP5 MSTORE SWAP1 SWAP2 MSTORE DUP2 KECCAK256 DUP1 SLOAD CALLVALUE SWAP3 SWAP1 PUSH2 0x188B SWAP1 DUP5 SWAP1 PUSH2 0x1E99 JUMP JUMPDEST SWAP1 SWAP2 SSTORE POP POP PUSH1 0x40 MLOAD CALLVALUE DUP2 MSTORE PUSH20 0xEEEEEEEEEEEEEEEEEEEEEEEEEEEEEEEEEEEEEEEE SWAP1 CALLER SWAP1 PUSH32 0xF1C0DD7E9B98BBFF859029005EF89B127AF049CD18DF1A8D79F0B7E019911E56 SWAP1 PUSH1 0x20 ADD PUSH1 0x40 MLOAD DUP1 SWAP2 SUB SWAP1 LOG3 PUSH2 0x9B0 PUSH1 0x1 PUSH1 0x0 SSTORE JUMP JUMPDEST PUSH1 0x2 PUSH1 0x0 SLOAD SUB PUSH2 0x1908 JUMPI PUSH1 0x40 MLOAD PUSH4 0x3EE5AEB5 PUSH1 0xE0 SHL DUP2 MSTORE PUSH1 0x4 ADD PUSH1 0x40 MLOAD DUP1 SWAP2 SUB SWAP1 REVERT JUMPDEST PUSH1 0x2 PUSH1 0x0 SSTORE JUMP JUMPDEST PUSH1 0x1 SLOAD PUSH1 0xFF AND ISZERO PUSH2 0x9B0 JUMPI PUSH1 0x40 MLOAD PUSH4 0xD93C0665 PUSH1 0xE0 SHL DUP2 MSTORE PUSH1 0x4 ADD PUSH1 0x40 MLOAD DUP1 SWAP2 SUB SWAP1 REVERT JUMPDEST PUSH1 0x1 PUSH1 0x1 PUSH1 0xA0 SHL SUB DUP1 DUP4 AND PUSH1 0x0 SWAP1 DUP2 MSTORE PUSH1 0x4 PUSH1 0x20 SWAP1 DUP2 MSTORE PUSH1 0x40 DUP1 DUP4 KECCAK256 SWAP4 DUP6 AND DUP4 MSTORE SWAP3 SWAP1 MSTORE SWAP1 DUP2 KECCAK256 SLOAD SWAP1 DUP2 SWAP1 SUB PUSH2 0x1968 JUMPI POP POP POP JUMP JUMPDEST PUSH1 0x1 PUSH1 0x1 PUSH1 0xA0 SHL SUB DUP1 DUP5 AND PUSH1 0x0 SWAP1 DUP2 MSTORE PUSH1 0x3 PUSH1 0x20 SWAP1 DUP2 MSTORE PUSH1 0x40 DUP1 DUP4 KECCAK256 SWAP4 DUP7 AND DUP4 MSTORE SWAP3 SWAP1 MSTORE SWAP1 DUP2 KECCAK256 SLOAD SWAP1 DUP2 SWAP1 SUB PUSH2 0x199E JUMPI POP POP POP POP JUMP JUMPDEST PUSH1 0x0 PUSH2 0x19AA DUP4 TIMESTAMP PUSH2 0x1E86 JUMP JUMPDEST SWAP1 POP PUSH1 0x3C DUP2 LT ISZERO PUSH2 0x19BC JUMPI POP POP POP POP POP JUMP JUMPDEST PUSH1 0x0 PUSH2 0x19CE PUSH2 0x2710 PUSH4 0x1E13380 PUSH2 0x1E4D JUMP JUMPDEST DUP3 PUSH2 0x19DB PUSH2 0x320 DUP7 PUSH2 0x1E4D JUMP JUMPDEST PUSH2 0x19E5 SWAP2 SWAP1 PUSH2 0x1E4D JUMP JUMPDEST PUSH2 0x19EF SWAP2 SWAP1 PUSH2 0x1E64 JUMP JUMPDEST SWAP1 POP PUSH2 0x19FB DUP2 DUP5 PUSH2 0x1E99 JUMP JUMPDEST PUSH1 0x1 PUSH1 0x1 PUSH1 0xA0 SHL SUB SWAP7 DUP8 AND PUSH1 0x0 DUP2 DUP2 MSTORE PUSH1 0x3 PUSH1 0x20 SWAP1 DUP2 MSTORE PUSH1 0x40 DUP1 DUP4 KECCAK256 SWAP10 SWAP1 SWAP11 AND DUP1 DUP4 MSTORE SWAP9 DUP2 MSTORE DUP10 DUP3 KECCAK256 SWAP4 SWAP1 SWAP4 SSTORE SWAP1 DUP2 MSTORE PUSH1 0x4 DUP3 MSTORE DUP8 DUP2 KECCAK256 SWAP7 DUP2 MSTORE SWAP6 SWAP1 MSTORE POP POP POP SWAP2 SWAP1 KECCAK256 TIMESTAMP SWAP1 SSTORE POP JUMP JUMPDEST PUSH1 0x40 MLOAD PUSH1 0x1 PUSH1 0x1 PUSH1 0xA0 SHL SUB DUP5 DUP2 AND PUSH1 0x24 DUP4 ADD MSTORE DUP4 DUP2 AND PUSH1 0x44 DUP4 ADD MSTORE PUSH1 0x64 DUP3 ADD DUP4 SWAP1 MSTORE PUSH2 0x1AAB SWAP2 DUP7 SWAP2 DUP3 AND SWAP1 PUSH4 0x23B872DD SWAP1 PUSH1 0x84 ADD JUMPDEST PUSH1 0x40 MLOAD PUSH1 0x20 DUP2 DUP4 SUB SUB DUP2 MSTORE SWAP1 PUSH1 0x40 MSTORE SWAP2 POP PUSH1 0xE0 SHL PUSH1 0x20 DUP3 ADD DUP1 MLOAD PUSH1 0x1 PUSH1 0x1 PUSH1 0xE0 SHL SUB DUP4 DUP2 DUP4 AND OR DUP4 MSTORE POP POP POP POP PUSH2 0x1B6F JUMP JUMPDEST POP POP POP POP JUMP JUMPDEST PUSH2 0x1AB9 PUSH2 0x1BD7 JUMP JUMPDEST PUSH1 0x1 DUP1 SLOAD PUSH1 0xFF NOT AND SWAP1 SSTORE PUSH32 0x5DB9EE0A495BF2E6FF9C91A7834C1BA4FDD244A5E8AA4E537BD38AEAE4B073AA CALLER JUMPDEST PUSH1 0x40 MLOAD PUSH1 0x1 PUSH1 0x1 PUSH1 0xA0 SHL SUB SWAP1 SWAP2 AND DUP2 MSTORE PUSH1 0x20 ADD PUSH1 0x40 MLOAD DUP1 SWAP2 SUB SWAP1 LOG1 JUMP JUMPDEST PUSH1 0x40 MLOAD PUSH1 0x1 PUSH1 0x1 PUSH1 0xA0 SHL SUB DUP4 DUP2 AND PUSH1 0x24 DUP4 ADD MSTORE PUSH1 0x44 DUP3 ADD DUP4 SWAP1 MSTORE PUSH2 0xD58 SWAP2 DUP6 SWAP2 DUP3 AND SWAP1 PUSH4 0xA9059CBB SWAP1 PUSH1 0x64 ADD PUSH2 0x1A79 JUMP JUMPDEST PUSH2 0x1B3C PUSH2 0x190F JUMP JUMPDEST PUSH1 0x1 DUP1 SLOAD PUSH1 0xFF NOT AND DUP2 OR SWAP1 SSTORE PUSH32 0x62E78CEA01BEE320CD4E420270B5EA74000D11B0C9F74754EBDBFC544B05A258 CALLER PUSH2 0x1AE6 JUMP JUMPDEST PUSH1 0x0 PUSH2 0x1B84 PUSH1 0x1 PUSH1 0x1 PUSH1 0xA0 SHL SUB DUP5 AND DUP4 PUSH2 0x1BFA JUMP JUMPDEST SWAP1 POP DUP1 MLOAD PUSH1 0x0 EQ ISZERO DUP1 ISZERO PUSH2 0x1BA9 JUMPI POP DUP1 DUP1 PUSH1 0x20 ADD SWAP1 MLOAD DUP2 ADD SWAP1 PUSH2 0x1BA7 SWAP2 SWAP1 PUSH2 0x1EAC JUMP JUMPDEST ISZERO JUMPDEST ISZERO PUSH2 0xD58 JUMPI PUSH1 0x40 MLOAD PUSH4 0x5274AFE7 PUSH1 0xE0 SHL DUP2 MSTORE PUSH1 0x1 PUSH1 0x1 PUSH1 0xA0 SHL SUB DUP5 AND PUSH1 0x4 DUP3 ADD MSTORE PUSH1 0x24 ADD JUMPDEST PUSH1 0x40 MLOAD DUP1 SWAP2 SUB SWAP1 REVERT JUMPDEST PUSH1 0x1 SLOAD PUSH1 0xFF AND PUSH2 0x9B0 JUMPI PUSH1 0x40 MLOAD PUSH4 0x8DFC202B PUSH1 0xE0 SHL DUP2 MSTORE PUSH1 0x4 ADD PUSH1 0x40 MLOAD DUP1 SWAP2 SUB SWAP1 REVERT JUMPDEST PUSH1 0x60 PUSH2 0xDC4 DUP4 DUP4 PUSH1 0x0 DUP5 PUSH1 0x0 DUP1 DUP6 PUSH1 0x1 PUSH1 0x1 PUSH1 0xA0 SHL SUB AND DUP5 DUP7 PUSH1 0x40 MLOAD PUSH2 0x1C20 SWAP2 SWAP1 PUSH2 0x1ECE JUMP JUMPDEST PUSH1 0x0 PUSH1 0x40 MLOAD DUP1 DUP4 SUB DUP2 DUP6 DUP8 GAS CALL SWAP3 POP POP POP RETURNDATASIZE DUP1 PUSH1 0x0 DUP2 EQ PUSH2 0x1C5D JUMPI PUSH1 0x40 MLOAD SWAP2 POP PUSH1 0x1F NOT PUSH1 0x3F RETURNDATASIZE ADD AND DUP3 ADD PUSH1 0x40 MSTORE RETURNDATASIZE DUP3 MSTORE RETURNDATASIZE PUSH1 0x0 PUSH1 0x20 DUP5 ADD RETURNDATACOPY PUSH2 0x1C62 JUMP JUMPDEST PUSH1 0x60 SWAP2 POP JUMPDEST POP SWAP2 POP SWAP2 POP PUSH2 0xDBF DUP7 DUP4 DUP4 PUSH1 0x60 DUP3 PUSH2 0x1C82 JUMPI PUSH2 0x1C7D DUP3 PUSH2 0x1CC9 JUMP JUMPDEST PUSH2 0xDC4 JUMP JUMPDEST DUP2 MLOAD ISZERO DUP1 ISZERO PUSH2 0x1C99 JUMPI POP PUSH1 0x1 PUSH1 0x1 PUSH1 0xA0 SHL SUB DUP5 AND EXTCODESIZE ISZERO JUMPDEST ISZERO PUSH2 0x1CC2 JUMPI PUSH1 0x40 MLOAD PUSH4 0x9996B315 PUSH1 0xE0 SHL DUP2 MSTORE PUSH1 0x1 PUSH1 0x1 PUSH1 0xA0 SHL SUB DUP6 AND PUSH1 0x4 DUP3 ADD MSTORE PUSH1 0x24 ADD PUSH2 0x1BCE JUMP JUMPDEST POP DUP1 PUSH2 0xDC4 JUMP JUMPDEST DUP1 MLOAD ISZERO PUSH2 0x1CD9 JUMPI DUP1 MLOAD DUP1 DUP3 PUSH1 0x20 ADD REVERT JUMPDEST PUSH1 0x40 MLOAD PUSH4 0xA12F521 PUSH1 0xE1 SHL DUP2 MSTORE PUSH1 0x4 ADD PUSH1 0x40 MLOAD DUP1 SWAP2 SUB SWAP1 REVERT JUMPDEST DUP1 CALLDATALOAD PUSH1 0x1 PUSH1 0x1 PUSH1 0xA0 SHL SUB DUP2 AND DUP2 EQ PUSH2 0x1D09 JUMPI PUSH1 0x0 DUP1 REVERT JUMPDEST SWAP2 SWAP1 POP JUMP JUMPDEST PUSH1 0x0 PUSH1 0x20 DUP3 DUP5 SUB SLT ISZERO PUSH2 0x1D20 JUMPI PUSH1 0x0 DUP1 REVERT JUMPDEST PUSH2 0xDC4 DUP3 PUSH2 0x1CF2 JUMP JUMPDEST PUSH1 0x0 DUP1 PUSH1 0x40 DUP4 DUP6 SUB SLT ISZERO PUSH2 0x1D3C JUMPI PUSH1 0x0 DUP1 REVERT JUMPDEST PUSH2 0x1D45 DUP4 PUSH2 0x1CF2 JUMP JUMPDEST SWAP2 POP PUSH2 0x1D53 PUSH1 0x20 DUP5 ADD PUSH2 0x1CF2 JUMP JUMPDEST SWAP1 POP SWAP3 POP SWAP3 SWAP1 POP JUMP JUMPDEST PUSH1 0x0 DUP1 PUSH1 0x40 DUP4 DUP6 SUB SLT ISZERO PUSH2 0x1D6F JUMPI PUSH1 0x0 DUP1 REVERT JUMPDEST PUSH2 0x1D78 DUP4 PUSH2 0x1CF2 JUMP JUMPDEST SWAP5 PUSH1 0x20 SWAP4 SWAP1 SWAP4 ADD CALLDATALOAD SWAP4 POP POP POP JUMP JUMPDEST PUSH1 0x0 DUP1 PUSH1 0x0 PUSH1 0x60 DUP5 DUP7 SUB SLT ISZERO PUSH2 0x1D9B JUMPI PUSH1 0x0 DUP1 REVERT JUMPDEST PUSH2 0x1DA4 DUP5 PUSH2 0x1CF2 JUMP JUMPDEST SWAP3 POP PUSH2 0x1DB2 PUSH1 0x20 DUP6 ADD PUSH2 0x1CF2 JUMP JUMPDEST SWAP2 POP PUSH1 0x40 DUP5 ADD CALLDATALOAD SWAP1 POP SWAP3 POP SWAP3 POP SWAP3 JUMP JUMPDEST PUSH1 0x0 DUP1 PUSH1 0x0 PUSH1 0x60 DUP5 DUP7 SUB SLT ISZERO PUSH2 0x1DD7 JUMPI PUSH1 0x0 DUP1 REVERT JUMPDEST PUSH2 0x1DE0 DUP5 PUSH2 0x1CF2 JUMP JUMPDEST SWAP3 POP PUSH2 0x1DEE PUSH1 0x20 DUP6 ADD PUSH2 0x1CF2 JUMP JUMPDEST SWAP2 POP PUSH2 0x1DFC PUSH1 0x40 DUP6 ADD PUSH2 0x1CF2 JUMP JUMPDEST SWAP1 POP SWAP3 POP SWAP3 POP SWAP3 JUMP JUMPDEST PUSH1 0x0 PUSH1 0x20 DUP3 DUP5 SUB SLT ISZERO PUSH2 0x1E17 JUMPI PUSH1 0x0 DUP1 REVERT JUMPDEST POP CALLDATALOAD SWAP2 SWAP1 POP JUMP JUMPDEST PUSH1 0x0 PUSH1 0x20 DUP3 DUP5 SUB SLT ISZERO PUSH2 0x1E30 JUMPI PUSH1 0x0 DUP1 REVERT JUMPDEST POP MLOAD SWAP2 SWAP1 POP JUMP JUMPDEST PUSH4 0x4E487B71 PUSH1 0xE0 SHL PUSH1 0x0 MSTORE PUSH1 0x11 PUSH1 0x4 MSTORE PUSH1 0x24 PUSH1 0x0 REVERT JUMPDEST DUP1 DUP3 MUL DUP2 ISZERO DUP3 DUP3 DIV DUP5 EQ OR PUSH2 0x825 JUMPI PUSH2 0x825 PUSH2 0x1E37 JUMP JUMPDEST PUSH1 0x0 DUP3 PUSH2 0x1E81 JUMPI PUSH4 0x4E487B71 PUSH1 0xE0 SHL PUSH1 0x0 MSTORE PUSH1 0x12 PUSH1 0x4 MSTORE PUSH1 0x24 PUSH1 0x0 REVERT JUMPDEST POP DIV SWAP1 JUMP JUMPDEST DUP2 DUP2 SUB DUP2 DUP2 GT ISZERO PUSH2 0x825 JUMPI PUSH2 0x825 PUSH2 0x1E37 JUMP JUMPDEST DUP1 DUP3 ADD DUP1 DUP3 GT ISZERO PUSH2 0x825 JUMPI PUSH2 0x825 PUSH2 0x1E37 JUMP JUMPDEST PUSH1 0x0 PUSH1 0x20 DUP3 DUP5 SUB SLT ISZERO PUSH2 0x1EBE JUMPI PUSH1 0x0 DUP1 REVERT JUMPDEST DUP2 MLOAD DUP1 ISZERO ISZERO DUP2 EQ PUSH2 0xDC4 JUMPI PUSH1 0x0 DUP1 REVERT JUMPDEST PUSH1 0x0 DUP3 MLOAD PUSH1 0x0 JUMPDEST DUP2 DUP2 LT ISZERO PUSH2 0x1EEF JUMPI PUSH1 0x20 DUP2 DUP7 ADD DUP2 ADD MLOAD DUP6 DUP4 ADD MSTORE ADD PUSH2 0x1ED5 JUMP JUMPDEST POP PUSH1 0x0 SWAP3 ADD SWAP2 DUP3 MSTORE POP SWAP2 SWAP1 POP JUMP INVALID LOG2 PUSH5 0x6970667358 0x22 SLT KECCAK256 JUMPI SWAP11 0xE7 PUSH12 0xB833D5E9768A77252233B5B4 0xD2 PUSH23 0x8704DF53425101A936EAE35A686464736F6C6343000814 STOP CALLER "},"methodIdentifiers":{"BASIS_POINTS()":"e1f1c4a7","INTEREST_RATE()":"5b72a33a","LIQUIDATION_PENALTY()":"9b8621d5","LIQUIDATION_THRESHOLD()":"90a8ae9b","LIQUIDATOR_REWARD()":"7f3020c1","LTV_RATIO()":"5696b189","NATIVE_ETH()":"011e1167","PROTOCOL_FEE()":"0b4501fd","acceptOwnership()":"79ba5097","acceptedBorrowTokens(address)":"f5afb979","acceptedCollateral(address)":"f6cad255","addBorrowToken(address)":"0567d9e6","addCollateral(address)":"f0d2d5a8","borrow(address,address,uint256)":"5224372c","collateral(address,address)":"cc218ece","debt(address,address)":"d449300d","deposit(address,uint256)":"47e7ef24","depositETH()":"f6326fb3","getCollateralValue(address,address)":"1eee3aa3","getHealthFactor(address,address,address)":"54510b9d","getOverallHealthFactor(address)":"b18bf944","getTotalCollateralValue(address)":"6c648fc4","getTotalDebtValue(address)":"293a5077","lastInterestUpdate(address,address)":"6a2b92ed","liquidate(address,address,address)":"ca5ce2ec","owner()":"8da5cb5b","pause()":"8456cb59","paused()":"5c975abb","pendingOwner()":"e30c3978","priceOracle()":"2630c12f","protocolTreasury()":"803db96d","removeBorrowToken(address)":"e252a65f","removeCollateral(address)":"c99d3a06","repay(address,uint256)":"22867d78","transferOwnership(address)":"f2fde38b","unpause()":"3f4ba83a","withdraw(address,uint256)":"f3fef3a3","withdrawETH(uint256)":"f14210a6"}}}}}