{
  "_format": "hh-sol-artifact-1",
  "contractName": "RedStoneOracle",
  "sourceName": "contracts/oracles/RedStoneOracle.sol",
  "abi": [
    {
      "inputs": [],
      "stateMutability": "nonpayable",
      "type": "constructor"
    },
    {
      "inputs": [
        {
          "internalType": "address",
          "name": "owner",
          "type": "address"
        }
      ],
      "name": "OwnableInvalidOwner",
      "type": "error"
    },
    {
      "inputs": [
        {
          "internalType": "address",
          "name": "account",
          "type": "address"
        }
      ],
      "name": "OwnableUnauthorizedAccount",
      "type": "error"
    },
    {
      "inputs": [],
      "name": "RedStoneOracle__InvalidPrice",
      "type": "error"
    },
    {
      "inputs": [],
      "name": "RedStoneOracle__PriceNotSet",
      "type": "error"
    },
    {
      "inputs": [],
      "name": "RedStoneOracle__StalePrice",
      "type": "error"
    },
    {
      "inputs": [],
      "name": "RedStoneOracle__UnauthorizedUpdater",
      "type": "error"
    },
    {
      "anonymous": false,
      "inputs": [
        {
          "indexed": true,
          "internalType": "address",
          "name": "token",
          "type": "address"
        },
        {
          "indexed": true,
          "internalType": "bytes32",
          "name": "dataFeedId",
          "type": "bytes32"
        }
      ],
      "name": "DataFeedAdded",
      "type": "event"
    },
    {
      "anonymous": false,
      "inputs": [
        {
          "indexed": true,
          "internalType": "address",
          "name": "previousOwner",
          "type": "address"
        },
        {
          "indexed": true,
          "internalType": "address",
          "name": "newOwner",
          "type": "address"
        }
      ],
      "name": "OwnershipTransferred",
      "type": "event"
    },
    {
      "anonymous": false,
      "inputs": [
        {
          "indexed": true,
          "internalType": "address",
          "name": "token",
          "type": "address"
        },
        {
          "indexed": false,
          "internalType": "uint256",
          "name": "price",
          "type": "uint256"
        },
        {
          "indexed": false,
          "internalType": "uint256",
          "name": "timestamp",
          "type": "uint256"
        }
      ],
      "name": "PriceUpdated",
      "type": "event"
    },
    {
      "anonymous": false,
      "inputs": [
        {
          "indexed": true,
          "internalType": "address",
          "name": "updater",
          "type": "address"
        }
      ],
      "name": "UpdaterAuthorized",
      "type": "event"
    },
    {
      "anonymous": false,
      "inputs": [
        {
          "indexed": true,
          "internalType": "address",
          "name": "updater",
          "type": "address"
        }
      ],
      "name": "UpdaterRevoked",
      "type": "event"
    },
    {
      "inputs": [],
      "name": "PRICE_STALENESS_THRESHOLD",
      "outputs": [
        {
          "internalType": "uint256",
          "name": "",
          "type": "uint256"
        }
      ],
      "stateMutability": "view",
      "type": "function"
    },
    {
      "inputs": [
        {
          "internalType": "address",
          "name": "token",
          "type": "address"
        },
        {
          "internalType": "bytes32",
          "name": "dataFeedId",
          "type": "bytes32"
        }
      ],
      "name": "addTokenDataFeed",
      "outputs": [],
      "stateMutability": "nonpayable",
      "type": "function"
    },
    {
      "inputs": [
        {
          "internalType": "address",
          "name": "updater",
          "type": "address"
        }
      ],
      "name": "authorizeUpdater",
      "outputs": [],
      "stateMutability": "nonpayable",
      "type": "function"
    },
    {
      "inputs": [
        {
          "internalType": "address",
          "name": "",
          "type": "address"
        }
      ],
      "name": "authorizedUpdaters",
      "outputs": [
        {
          "internalType": "bool",
          "name": "",
          "type": "bool"
        }
      ],
      "stateMutability": "view",
      "type": "function"
    },
    {
      "inputs": [
        {
          "internalType": "address",
          "name": "token",
          "type": "address"
        }
      ],
      "name": "getPrice",
      "outputs": [
        {
          "internalType": "uint256",
          "name": "price",
          "type": "uint256"
        },
        {
          "internalType": "uint256",
          "name": "timestamp",
          "type": "uint256"
        }
      ],
      "stateMutability": "view",
      "type": "function"
    },
    {
      "inputs": [],
      "name": "getPriceStalenessThreshold",
      "outputs": [
        {
          "internalType": "uint256",
          "name": "threshold",
          "type": "uint256"
        }
      ],
      "stateMutability": "pure",
      "type": "function"
    },
    {
      "inputs": [
        {
          "internalType": "address",
          "name": "token",
          "type": "address"
        }
      ],
      "name": "hasPrice",
      "outputs": [
        {
          "internalType": "bool",
          "name": "",
          "type": "bool"
        }
      ],
      "stateMutability": "view",
      "type": "function"
    },
    {
      "inputs": [],
      "name": "owner",
      "outputs": [
        {
          "internalType": "address",
          "name": "",
          "type": "address"
        }
      ],
      "stateMutability": "view",
      "type": "function"
    },
    {
      "inputs": [],
      "name": "renounceOwnership",
      "outputs": [],
      "stateMutability": "nonpayable",
      "type": "function"
    },
    {
      "inputs": [
        {
          "internalType": "address",
          "name": "updater",
          "type": "address"
        }
      ],
      "name": "revokeUpdater",
      "outputs": [],
      "stateMutability": "nonpayable",
      "type": "function"
    },
    {
      "inputs": [
        {
          "internalType": "address",
          "name": "",
          "type": "address"
        }
      ],
      "name": "tokenToDataFeedId",
      "outputs": [
        {
          "internalType": "bytes32",
          "name": "",
          "type": "bytes32"
        }
      ],
      "stateMutability": "view",
      "type": "function"
    },
    {
      "inputs": [
        {
          "internalType": "address",
          "name": "newOwner",
          "type": "address"
        }
      ],
      "name": "transferOwnership",
      "outputs": [],
      "stateMutability": "nonpayable",
      "type": "function"
    },
    {
      "inputs": [
        {
          "internalType": "address",
          "name": "token",
          "type": "address"
        },
        {
          "internalType": "uint256",
          "name": "price",
          "type": "uint256"
        }
      ],
      "name": "updatePrice",
      "outputs": [],
      "stateMutability": "nonpayable",
      "type": "function"
    }
  ],
  "bytecode": "0x608060405234801561001057600080fd5b50338061003757604051631e4fbdf760e01b81526000600482015260240160405180910390fd5b61004081610046565b50610096565b600080546001600160a01b038381166001600160a01b0319831681178455604051919092169283917f8be0079c531659141344cd1fd0a4f28419497f9722a3daafe3b4186f6b6457e09190a35050565b6106b3806100a56000396000f3fe608060405234801561001057600080fd5b50600436106100cf5760003560e01c80638da5cb5b1161008c578063c34f548a11610066578063c34f548a146101d3578063c4164cd4146101dc578063f25b9caa146101ef578063f2fde38b146101f957600080fd5b80638da5cb5b146101725780638ff29cfe1461018d5780639cbe6097146101c057600080fd5b8063299c9a04146100d45780633c932bef1461010757806341976e091461011c578063457972de146101445780634d93fbef14610157578063715018a61461016a575b600080fd5b6100f46100e2366004610611565b60026020526000908152604090205481565b6040519081526020015b60405180910390f35b61011a610115366004610611565b61020c565b005b61012f61012a366004610611565b61025d565b604080519283526020830191909152016100fe565b61011a61015236600461062c565b610305565b61011a61016536600461062c565b6103f2565b61011a61045a565b6000546040516001600160a01b0390911681526020016100fe565b6101b061019b366004610611565b60036020526000908152604090205460ff1681565b60405190151581526020016100fe565b61011a6101ce366004610611565b61046e565b620151806100f4565b6101b06101ea366004610611565b6104c2565b6100f46201518081565b61011a610207366004610611565b610535565b610214610578565b6001600160a01b038116600081815260036020526040808220805460ff19169055517f27e810a75a9534f49f3874cd6aef1cd8ccd4fd9e24acb4c3813ba552851ef7969190a250565b6001600160a01b0381166000908152600160208181526040808420815160608101835281548152938101549284019290925260029091015460ff1615159082018190528291906102c0576040516311aa0c7560e31b815260040160405180910390fd5b620151808160200151426102d49190610656565b11156102f357604051636b6a179b60e11b815260040160405180910390fd5b80516020909101519094909350915050565b3360009081526003602052604090205460ff166103355760405163010d05d960e61b815260040160405180910390fd5b8060000361035657604051630d4db76360e31b815260040160405180910390fd5b6001600160a01b03821660009081526001602052604090206002015460ff16610392576040516311aa0c7560e31b815260040160405180910390fd5b6001600160a01b0382166000818152600160208181526040928390208581554292018290558251858152908101919091527fb556fac599c3c70efb9ab1fa725ecace6c81cc48d1455f886607def065f3e0c0910160405180910390a25050565b6103fa610578565b6001600160a01b0382166000818152600260208181526040808420869055600191829052808420909201805460ff19169091179055518392917ffc5b0a952673143a10a4d7acbba6f8c694643dae9ab97ff69ade29ce495522d291a35050565b610462610578565b61046c60006105a5565b565b610476610578565b6001600160a01b038116600081815260036020526040808220805460ff19166001179055517ffbc99308a04b9b530a8dbc7eb620a7597c4b92ff15390ab23ffdd979b9c592e49190a250565b6001600160a01b0381166000908152600160208181526040808420815160608101835281548152938101549284019290925260029091015460ff161580159183018290526105105750805115155b801561052e57506201518081602001514261052b9190610656565b11155b9392505050565b61053d610578565b6001600160a01b03811661056c57604051631e4fbdf760e01b8152600060048201526024015b60405180910390fd5b610575816105a5565b50565b6000546001600160a01b0316331461046c5760405163118cdaa760e01b8152336004820152602401610563565b600080546001600160a01b038381166001600160a01b0319831681178455604051919092169283917f8be0079c531659141344cd1fd0a4f28419497f9722a3daafe3b4186f6b6457e09190a35050565b80356001600160a01b038116811461060c57600080fd5b919050565b60006020828403121561062357600080fd5b61052e826105f5565b6000806040838503121561063f57600080fd5b610648836105f5565b946020939093013593505050565b8181038181111561067757634e487b7160e01b600052601160045260246000fd5b9291505056fea26469706673582212205c5aedfb8346822ef986abc8d50439d8948fd1f384960ead1f89d8632b7ed93c64736f6c63430008140033",
  "linkReferences": {},
  "deployedLinkReferences": {}
}