{
  "_format": "hh-sol-artifact-1",
  "contractName": "OracleManager",
  "sourceName": "contracts/oracles/OracleManager.sol",
  "abi": [
    {
      "inputs": [],
      "stateMutability": "nonpayable",
      "type": "constructor"
    },
    {
      "inputs": [],
      "name": "OracleManager__InvalidOracle",
      "type": "error"
    },
    {
      "inputs": [],
      "name": "OracleManager__NoPriceAvailable",
      "type": "error"
    },
    {
      "inputs": [],
      "name": "OracleManager__PriceDeviationTooHigh",
      "type": "error"
    },
    {
      "inputs": [
        {
          "internalType": "address",
          "name": "owner",
          "type": "address"
        }
      ],
      "name": "OwnableInvalidOwner",
      "type": "error"
    },
    {
      "inputs": [
        {
          "internalType": "address",
          "name": "account",
          "type": "address"
        }
      ],
      "name": "OwnableUnauthorizedAccount",
      "type": "error"
    },
    {
      "anonymous": false,
      "inputs": [
        {
          "indexed": true,
          "internalType": "address",
          "name": "oracle",
          "type": "address"
        }
      ],
      "name": "ManualOracleSet",
      "type": "event"
    },
    {
      "anonymous": false,
      "inputs": [
        {
          "indexed": true,
          "internalType": "address",
          "name": "previousOwner",
          "type": "address"
        },
        {
          "indexed": true,
          "internalType": "address",
          "name": "newOwner",
          "type": "address"
        }
      ],
      "name": "OwnershipTransferred",
      "type": "event"
    },
    {
      "anonymous": false,
      "inputs": [
        {
          "indexed": true,
          "internalType": "address",
          "name": "token",
          "type": "address"
        },
        {
          "indexed": false,
          "internalType": "uint256",
          "name": "price",
          "type": "uint256"
        },
        {
          "indexed": false,
          "internalType": "uint8",
          "name": "oracleUsed",
          "type": "uint8"
        }
      ],
      "name": "PriceRetrieved",
      "type": "event"
    },
    {
      "anonymous": false,
      "inputs": [
        {
          "indexed": true,
          "internalType": "address",
          "name": "oracle",
          "type": "address"
        }
      ],
      "name": "PrimaryOracleSet",
      "type": "event"
    },
    {
      "anonymous": false,
      "inputs": [
        {
          "indexed": true,
          "internalType": "address",
          "name": "oracle",
          "type": "address"
        }
      ],
      "name": "SecondaryOracleSet",
      "type": "event"
    },
    {
      "inputs": [],
      "name": "BASIS_POINTS",
      "outputs": [
        {
          "internalType": "uint256",
          "name": "",
          "type": "uint256"
        }
      ],
      "stateMutability": "view",
      "type": "function"
    },
    {
      "inputs": [],
      "name": "MAX_PRICE_DEVIATION",
      "outputs": [
        {
          "internalType": "uint256",
          "name": "",
          "type": "uint256"
        }
      ],
      "stateMutability": "view",
      "type": "function"
    },
    {
      "inputs": [
        {
          "internalType": "address",
          "name": "token",
          "type": "address"
        }
      ],
      "name": "getPrice",
      "outputs": [
        {
          "internalType": "uint256",
          "name": "price",
          "type": "uint256"
        }
      ],
      "stateMutability": "nonpayable",
      "type": "function"
    },
    {
      "inputs": [
        {
          "internalType": "address",
          "name": "token",
          "type": "address"
        }
      ],
      "name": "getValidatedPrice",
      "outputs": [
        {
          "internalType": "uint256",
          "name": "price",
          "type": "uint256"
        }
      ],
      "stateMutability": "nonpayable",
      "type": "function"
    },
    {
      "inputs": [],
      "name": "manualOracle",
      "outputs": [
        {
          "internalType": "contract IUniversalOracle",
          "name": "",
          "type": "address"
        }
      ],
      "stateMutability": "view",
      "type": "function"
    },
    {
      "inputs": [],
      "name": "owner",
      "outputs": [
        {
          "internalType": "address",
          "name": "",
          "type": "address"
        }
      ],
      "stateMutability": "view",
      "type": "function"
    },
    {
      "inputs": [],
      "name": "primaryOracle",
      "outputs": [
        {
          "internalType": "contract IUniversalOracle",
          "name": "",
          "type": "address"
        }
      ],
      "stateMutability": "view",
      "type": "function"
    },
    {
      "inputs": [],
      "name": "renounceOwnership",
      "outputs": [],
      "stateMutability": "nonpayable",
      "type": "function"
    },
    {
      "inputs": [],
      "name": "secondaryOracle",
      "outputs": [
        {
          "internalType": "contract IUniversalOracle",
          "name": "",
          "type": "address"
        }
      ],
      "stateMutability": "view",
      "type": "function"
    },
    {
      "inputs": [
        {
          "internalType": "address",
          "name": "oracle",
          "type": "address"
        }
      ],
      "name": "setManualOracle",
      "outputs": [],
      "stateMutability": "nonpayable",
      "type": "function"
    },
    {
      "inputs": [
        {
          "internalType": "address",
          "name": "oracle",
          "type": "address"
        }
      ],
      "name": "setPrimaryOracle",
      "outputs": [],
      "stateMutability": "nonpayable",
      "type": "function"
    },
    {
      "inputs": [
        {
          "internalType": "address",
          "name": "oracle",
          "type": "address"
        }
      ],
      "name": "setSecondaryOracle",
      "outputs": [],
      "stateMutability": "nonpayable",
      "type": "function"
    },
    {
      "inputs": [
        {
          "internalType": "address",
          "name": "newOwner",
          "type": "address"
        }
      ],
      "name": "transferOwnership",
      "outputs": [],
      "stateMutability": "nonpayable",
      "type": "function"
    }
  ],
  "bytecode": "0x608060405234801561001057600080fd5b50338061003757604051631e4fbdf760e01b81526000600482015260240160405180910390fd5b61004081610046565b50610096565b600080546001600160a01b038381166001600160a01b0319831681178455604051919092169283917f8be0079c531659141344cd1fd0a4f28419497f9722a3daafe3b4186f6b6457e09190a35050565b610a07806100a56000396000f3fe608060405234801561001057600080fd5b50600436106100cf5760003560e01c806396f277b71161008c578063d6e0c3b111610066578063d6e0c3b114610195578063e1f1c4a7146101a8578063f2188066146101b1578063f2fde38b146101c457600080fd5b806396f277b7146101665780639d7c3d5d1461016f578063bd8f238e1461018257600080fd5b80630949ad46146100d45780630efaa55e146100fa578063329d46091461012557806341976e0914610138578063715018a61461014b5780638da5cb5b14610155575b600080fd5b6100e76100e23660046108ef565b6101d7565b6040519081526020015b60405180910390f35b60035461010d906001600160a01b031681565b6040516001600160a01b0390911681526020016100f1565b60025461010d906001600160a01b031681565b6100e76101463660046108ef565b6103d9565b61015361064f565b005b6000546001600160a01b031661010d565b6100e76103e881565b61015361017d3660046108ef565b610663565b60015461010d906001600160a01b031681565b6101536101a33660046108ef565b6106dc565b6100e761271081565b6101536101bf3660046108ef565b610755565b6101536101d23660046108ef565b6107ce565b60015460009081908190819081906001600160a01b03161561026e576001546040516341976e0960e01b81526001600160a01b038881166004830152909116906341976e09906024016040805180830381865afa925050508015610258575060408051601f3d908101601f191682019092526102559181019061091f565b60015b1561026e57811561026b57819550600193505b50505b6002546001600160a01b0316156102fa576002546040516341976e0960e01b81526001600160a01b038881166004830152909116906341976e09906024016040805180830381865afa9250505080156102e4575060408051601f3d908101601f191682019092526102e19181019061091f565b60015b156102fa5781156102f757819450600192505b50505b8180156103045750805b156103455760006103158585610811565b90506103e881111561033a5760405163809d3ab760e01b815260040160405180910390fd5b509295945050505050565b8115610355575091949350505050565b8015610365575090949350505050565b6040516341976e0960e01b81526001600160a01b038716600482015230906341976e09906024016020604051808303816000875af11580156103ab573d6000803e3d6000fd5b505050506040513d601f19601f820116820180604052508101906103cf9190610943565b9695505050505050565b6001546000906001600160a01b0316156104ac576001546040516341976e0960e01b81526001600160a01b038481166004830152909116906341976e09906024016040805180830381865afa925050508015610452575060408051601f3d908101601f1916820190925261044f9181019061091f565b60015b156104ac5781156104a95760408051838152600160208201526001600160a01b038616917f7fba4a74f66643d7321f418f6aee11492d92aac524396d2748dbb6c095e13f5391015b60405180910390a25092915050565b50505b6002546001600160a01b031615610571576002546040516341976e0960e01b81526001600160a01b038481166004830152909116906341976e09906024016040805180830381865afa925050508015610522575060408051601f3d908101601f1916820190925261051f9181019061091f565b60015b1561057157811561056e5760408051838152600260208201526001600160a01b038616917f7fba4a74f66643d7321f418f6aee11492d92aac524396d2748dbb6c095e13f53910161049a565b50505b6003546001600160a01b031615610636576003546040516341976e0960e01b81526001600160a01b038481166004830152909116906341976e09906024016040805180830381865afa9250505080156105e7575060408051601f3d908101601f191682019092526105e49181019061091f565b60015b156106365781156106335760408051838152600360208201526001600160a01b038616917f7fba4a74f66643d7321f418f6aee11492d92aac524396d2748dbb6c095e13f53910161049a565b50505b60405163164f231b60e11b815260040160405180910390fd5b610657610872565b610661600061089f565b565b61066b610872565b6001600160a01b03811661069257604051633287118560e21b815260040160405180910390fd5b600380546001600160a01b0319166001600160a01b0383169081179091556040517f03df63d0a3112643fa60dea16ffbcfb255da1558a8ad8683645c41fb6a2c7de890600090a250565b6106e4610872565b6001600160a01b03811661070b57604051633287118560e21b815260040160405180910390fd5b600280546001600160a01b0319166001600160a01b0383169081179091556040517f8dda09c4a21a02ea715f6bf4e9b676c2d71eb7fed840c5ba80845255c7decf4f90600090a250565b61075d610872565b6001600160a01b03811661078457604051633287118560e21b815260040160405180910390fd5b600180546001600160a01b0319166001600160a01b0383169081179091556040517f9bdc61b9f2e0f947ed1b45f55a5cfc77c6defd5094c4eb3491dfbafeadc78b9590600090a250565b6107d6610872565b6001600160a01b03811661080557604051631e4fbdf760e01b8152600060048201526024015b60405180910390fd5b61080e8161089f565b50565b60008082841161082a576108258484610972565b610834565b6108348385610972565b9050600060026108448587610985565b61084e9190610998565b90508061085d612710846109ba565b6108679190610998565b925050505b92915050565b6000546001600160a01b031633146106615760405163118cdaa760e01b81523360048201526024016107fc565b600080546001600160a01b038381166001600160a01b0319831681178455604051919092169283917f8be0079c531659141344cd1fd0a4f28419497f9722a3daafe3b4186f6b6457e09190a35050565b60006020828403121561090157600080fd5b81356001600160a01b038116811461091857600080fd5b9392505050565b6000806040838503121561093257600080fd5b505080516020909101519092909150565b60006020828403121561095557600080fd5b5051919050565b634e487b7160e01b600052601160045260246000fd5b8181038181111561086c5761086c61095c565b8082018082111561086c5761086c61095c565b6000826109b557634e487b7160e01b600052601260045260246000fd5b500490565b808202811582820484141761086c5761086c61095c56fea2646970667358221220b7215450a48631ea059db8da6b948dc3beeda857c952a81a4ddab0fde63e51b764736f6c63430008140033",
  "linkReferences": {},
  "deployedLinkReferences": {}
}