{
  "_format": "hh-sol-artifact-1",
  "contractName": "VaultManager",
  "sourceName": "contracts/VaultManager.sol",
  "abi": [
    {
      "inputs": [
        {
          "internalType": "address",
          "name": "_priceOracle",
          "type": "address"
        },
        {
          "internalType": "address",
          "name": "_protocolTreasury",
          "type": "address"
        }
      ],
      "stateMutability": "nonpayable",
      "type": "constructor"
    },
    {
      "inputs": [
        {
          "internalType": "address",
          "name": "target",
          "type": "address"
        }
      ],
      "name": "AddressEmptyCode",
      "type": "error"
    },
    {
      "inputs": [
        {
          "internalType": "address",
          "name": "account",
          "type": "address"
        }
      ],
      "name": "AddressInsufficientBalance",
      "type": "error"
    },
    {
      "inputs": [],
      "name": "EnforcedPause",
      "type": "error"
    },
    {
      "inputs": [],
      "name": "ExpectedPause",
      "type": "error"
    },
    {
      "inputs": [],
      "name": "FailedInnerCall",
      "type": "error"
    },
    {
      "inputs": [],
      "name": "ReentrancyGuardReentrantCall",
      "type": "error"
    },
    {
      "inputs": [
        {
          "internalType": "address",
          "name": "token",
          "type": "address"
        }
      ],
      "name": "SafeERC20FailedOperation",
      "type": "error"
    },
    {
      "inputs": [],
      "name": "VaultManager__ExceedsBorrowLimit",
      "type": "error"
    },
    {
      "inputs": [],
      "name": "VaultManager__HealthFactorTooLow",
      "type": "error"
    },
    {
      "inputs": [],
      "name": "VaultManager__InsufficientCollateral",
      "type": "error"
    },
    {
      "inputs": [],
      "name": "VaultManager__InsufficientDebt",
      "type": "error"
    },
    {
      "inputs": [],
      "name": "VaultManager__InsufficientLiquidity",
      "type": "error"
    },
    {
      "inputs": [],
      "name": "VaultManager__NoDebt",
      "type": "error"
    },
    {
      "inputs": [],
      "name": "VaultManager__NotPendingOwner",
      "type": "error"
    },
    {
      "inputs": [],
      "name": "VaultManager__OnlyOwner",
      "type": "error"
    },
    {
      "inputs": [],
      "name": "VaultManager__PositionHealthy",
      "type": "error"
    },
    {
      "inputs": [],
      "name": "VaultManager__TokenNotAccepted",
      "type": "error"
    },
    {
      "inputs": [],
      "name": "VaultManager__TransferFailed",
      "type": "error"
    },
    {
      "inputs": [],
      "name": "VaultManager__ZeroAddress",
      "type": "error"
    },
    {
      "inputs": [],
      "name": "VaultManager__ZeroAmount",
      "type": "error"
    },
    {
      "anonymous": false,
      "inputs": [
        {
          "indexed": true,
          "internalType": "address",
          "name": "user",
          "type": "address"
        },
        {
          "indexed": true,
          "internalType": "address",
          "name": "collateralToken",
          "type": "address"
        },
        {
          "indexed": true,
          "internalType": "address",
          "name": "borrowToken",
          "type": "address"
        },
        {
          "indexed": false,
          "internalType": "uint256",
          "name": "amount",
          "type": "uint256"
        }
      ],
      "name": "Borrowed",
      "type": "event"
    },
    {
      "anonymous": false,
      "inputs": [
        {
          "indexed": true,
          "internalType": "address",
          "name": "user",
          "type": "address"
        },
        {
          "indexed": true,
          "internalType": "address",
          "name": "token",
          "type": "address"
        },
        {
          "indexed": false,
          "internalType": "uint256",
          "name": "amount",
          "type": "uint256"
        }
      ],
      "name": "CollateralDeposited",
      "type": "event"
    },
    {
      "anonymous": false,
      "inputs": [
        {
          "indexed": true,
          "internalType": "address",
          "name": "user",
          "type": "address"
        },
        {
          "indexed": true,
          "internalType": "address",
          "name": "token",
          "type": "address"
        },
        {
          "indexed": false,
          "internalType": "uint256",
          "name": "amount",
          "type": "uint256"
        }
      ],
      "name": "CollateralWithdrawn",
      "type": "event"
    },
    {
      "anonymous": false,
      "inputs": [
        {
          "indexed": true,
          "internalType": "address",
          "name": "user",
          "type": "address"
        },
        {
          "indexed": true,
          "internalType": "address",
          "name": "collateralToken",
          "type": "address"
        },
        {
          "indexed": true,
          "internalType": "address",
          "name": "debtToken",
          "type": "address"
        },
        {
          "indexed": false,
          "internalType": "uint256",
          "name": "collateralSeized",
          "type": "uint256"
        },
        {
          "indexed": false,
          "internalType": "uint256",
          "name": "liquidatorReward",
          "type": "uint256"
        }
      ],
      "name": "Liquidated",
      "type": "event"
    },
    {
      "anonymous": false,
      "inputs": [
        {
          "indexed": false,
          "internalType": "address",
          "name": "account",
          "type": "address"
        }
      ],
      "name": "Paused",
      "type": "event"
    },
    {
      "anonymous": false,
      "inputs": [
        {
          "indexed": true,
          "internalType": "address",
          "name": "user",
          "type": "address"
        },
        {
          "indexed": true,
          "internalType": "address",
          "name": "token",
          "type": "address"
        },
        {
          "indexed": false,
          "internalType": "uint256",
          "name": "amount",
          "type": "uint256"
        }
      ],
      "name": "Repaid",
      "type": "event"
    },
    {
      "anonymous": false,
      "inputs": [
        {
          "indexed": false,
          "internalType": "address",
          "name": "account",
          "type": "address"
        }
      ],
      "name": "Unpaused",
      "type": "event"
    },
    {
      "inputs": [],
      "name": "BASIS_POINTS",
      "outputs": [
        {
          "internalType": "uint256",
          "name": "",
          "type": "uint256"
        }
      ],
      "stateMutability": "view",
      "type": "function"
    },
    {
      "inputs": [],
      "name": "INTEREST_RATE",
      "outputs": [
        {
          "internalType": "uint256",
          "name": "",
          "type": "uint256"
        }
      ],
      "stateMutability": "view",
      "type": "function"
    },
    {
      "inputs": [],
      "name": "LIQUIDATION_PENALTY",
      "outputs": [
        {
          "internalType": "uint256",
          "name": "",
          "type": "uint256"
        }
      ],
      "stateMutability": "view",
      "type": "function"
    },
    {
      "inputs": [],
      "name": "LIQUIDATION_THRESHOLD",
      "outputs": [
        {
          "internalType": "uint256",
          "name": "",
          "type": "uint256"
        }
      ],
      "stateMutability": "view",
      "type": "function"
    },
    {
      "inputs": [],
      "name": "LIQUIDATOR_REWARD",
      "outputs": [
        {
          "internalType": "uint256",
          "name": "",
          "type": "uint256"
        }
      ],
      "stateMutability": "view",
      "type": "function"
    },
    {
      "inputs": [],
      "name": "LTV_RATIO",
      "outputs": [
        {
          "internalType": "uint256",
          "name": "",
          "type": "uint256"
        }
      ],
      "stateMutability": "view",
      "type": "function"
    },
    {
      "inputs": [],
      "name": "PROTOCOL_FEE",
      "outputs": [
        {
          "internalType": "uint256",
          "name": "",
          "type": "uint256"
        }
      ],
      "stateMutability": "view",
      "type": "function"
    },
    {
      "inputs": [],
      "name": "acceptOwnership",
      "outputs": [],
      "stateMutability": "nonpayable",
      "type": "function"
    },
    {
      "inputs": [
        {
          "internalType": "address",
          "name": "",
          "type": "address"
        }
      ],
      "name": "acceptedBorrowTokens",
      "outputs": [
        {
          "internalType": "bool",
          "name": "",
          "type": "bool"
        }
      ],
      "stateMutability": "view",
      "type": "function"
    },
    {
      "inputs": [
        {
          "internalType": "address",
          "name": "",
          "type": "address"
        }
      ],
      "name": "acceptedCollateral",
      "outputs": [
        {
          "internalType": "bool",
          "name": "",
          "type": "bool"
        }
      ],
      "stateMutability": "view",
      "type": "function"
    },
    {
      "inputs": [
        {
          "internalType": "address",
          "name": "token",
          "type": "address"
        }
      ],
      "name": "addBorrowToken",
      "outputs": [],
      "stateMutability": "nonpayable",
      "type": "function"
    },
    {
      "inputs": [
        {
          "internalType": "address",
          "name": "token",
          "type": "address"
        }
      ],
      "name": "addCollateral",
      "outputs": [],
      "stateMutability": "nonpayable",
      "type": "function"
    },
    {
      "inputs": [
        {
          "internalType": "address",
          "name": "collateralToken",
          "type": "address"
        },
        {
          "internalType": "address",
          "name": "borrowToken",
          "type": "address"
        },
        {
          "internalType": "uint256",
          "name": "amount",
          "type": "uint256"
        }
      ],
      "name": "borrow",
      "outputs": [],
      "stateMutability": "nonpayable",
      "type": "function"
    },
    {
      "inputs": [
        {
          "internalType": "address",
          "name": "",
          "type": "address"
        },
        {
          "internalType": "address",
          "name": "",
          "type": "address"
        }
      ],
      "name": "collateral",
      "outputs": [
        {
          "internalType": "uint256",
          "name": "",
          "type": "uint256"
        }
      ],
      "stateMutability": "view",
      "type": "function"
    },
    {
      "inputs": [
        {
          "internalType": "address",
          "name": "",
          "type": "address"
        },
        {
          "internalType": "address",
          "name": "",
          "type": "address"
        }
      ],
      "name": "debt",
      "outputs": [
        {
          "internalType": "uint256",
          "name": "",
          "type": "uint256"
        }
      ],
      "stateMutability": "view",
      "type": "function"
    },
    {
      "inputs": [
        {
          "internalType": "address",
          "name": "token",
          "type": "address"
        },
        {
          "internalType": "uint256",
          "name": "amount",
          "type": "uint256"
        }
      ],
      "name": "deposit",
      "outputs": [],
      "stateMutability": "nonpayable",
      "type": "function"
    },
    {
      "inputs": [
        {
          "internalType": "address",
          "name": "user",
          "type": "address"
        },
        {
          "internalType": "address",
          "name": "token",
          "type": "address"
        }
      ],
      "name": "getCollateralValue",
      "outputs": [
        {
          "internalType": "uint256",
          "name": "",
          "type": "uint256"
        }
      ],
      "stateMutability": "view",
      "type": "function"
    },
    {
      "inputs": [
        {
          "internalType": "address",
          "name": "user",
          "type": "address"
        },
        {
          "internalType": "address",
          "name": "collateralToken",
          "type": "address"
        },
        {
          "internalType": "address",
          "name": "debtToken",
          "type": "address"
        }
      ],
      "name": "getHealthFactor",
      "outputs": [
        {
          "internalType": "uint256",
          "name": "",
          "type": "uint256"
        }
      ],
      "stateMutability": "view",
      "type": "function"
    },
    {
      "inputs": [
        {
          "internalType": "address",
          "name": "",
          "type": "address"
        }
      ],
      "name": "getOverallHealthFactor",
      "outputs": [
        {
          "internalType": "uint256",
          "name": "",
          "type": "uint256"
        }
      ],
      "stateMutability": "pure",
      "type": "function"
    },
    {
      "inputs": [
        {
          "internalType": "address",
          "name": "",
          "type": "address"
        }
      ],
      "name": "getTotalCollateralValue",
      "outputs": [
        {
          "internalType": "uint256",
          "name": "",
          "type": "uint256"
        }
      ],
      "stateMutability": "pure",
      "type": "function"
    },
    {
      "inputs": [
        {
          "internalType": "address",
          "name": "",
          "type": "address"
        }
      ],
      "name": "getTotalDebtValue",
      "outputs": [
        {
          "internalType": "uint256",
          "name": "",
          "type": "uint256"
        }
      ],
      "stateMutability": "pure",
      "type": "function"
    },
    {
      "inputs": [
        {
          "internalType": "address",
          "name": "",
          "type": "address"
        },
        {
          "internalType": "address",
          "name": "",
          "type": "address"
        }
      ],
      "name": "lastInterestUpdate",
      "outputs": [
        {
          "internalType": "uint256",
          "name": "",
          "type": "uint256"
        }
      ],
      "stateMutability": "view",
      "type": "function"
    },
    {
      "inputs": [
        {
          "internalType": "address",
          "name": "user",
          "type": "address"
        },
        {
          "internalType": "address",
          "name": "collateralToken",
          "type": "address"
        },
        {
          "internalType": "address",
          "name": "debtToken",
          "type": "address"
        }
      ],
      "name": "liquidate",
      "outputs": [],
      "stateMutability": "nonpayable",
      "type": "function"
    },
    {
      "inputs": [],
      "name": "owner",
      "outputs": [
        {
          "internalType": "address",
          "name": "",
          "type": "address"
        }
      ],
      "stateMutability": "view",
      "type": "function"
    },
    {
      "inputs": [],
      "name": "pause",
      "outputs": [],
      "stateMutability": "nonpayable",
      "type": "function"
    },
    {
      "inputs": [],
      "name": "paused",
      "outputs": [
        {
          "internalType": "bool",
          "name": "",
          "type": "bool"
        }
      ],
      "stateMutability": "view",
      "type": "function"
    },
    {
      "inputs": [],
      "name": "pendingOwner",
      "outputs": [
        {
          "internalType": "address",
          "name": "",
          "type": "address"
        }
      ],
      "stateMutability": "view",
      "type": "function"
    },
    {
      "inputs": [],
      "name": "priceOracle",
      "outputs": [
        {
          "internalType": "address",
          "name": "",
          "type": "address"
        }
      ],
      "stateMutability": "view",
      "type": "function"
    },
    {
      "inputs": [],
      "name": "protocolTreasury",
      "outputs": [
        {
          "internalType": "address",
          "name": "",
          "type": "address"
        }
      ],
      "stateMutability": "view",
      "type": "function"
    },
    {
      "inputs": [
        {
          "internalType": "address",
          "name": "token",
          "type": "address"
        }
      ],
      "name": "removeBorrowToken",
      "outputs": [],
      "stateMutability": "nonpayable",
      "type": "function"
    },
    {
      "inputs": [
        {
          "internalType": "address",
          "name": "token",
          "type": "address"
        }
      ],
      "name": "removeCollateral",
      "outputs": [],
      "stateMutability": "nonpayable",
      "type": "function"
    },
    {
      "inputs": [
        {
          "internalType": "address",
          "name": "token",
          "type": "address"
        },
        {
          "internalType": "uint256",
          "name": "amount",
          "type": "uint256"
        }
      ],
      "name": "repay",
      "outputs": [],
      "stateMutability": "nonpayable",
      "type": "function"
    },
    {
      "inputs": [
        {
          "internalType": "address",
          "name": "newOwner",
          "type": "address"
        }
      ],
      "name": "transferOwnership",
      "outputs": [],
      "stateMutability": "nonpayable",
      "type": "function"
    },
    {
      "inputs": [],
      "name": "unpause",
      "outputs": [],
      "stateMutability": "nonpayable",
      "type": "function"
    },
    {
      "inputs": [
        {
          "internalType": "address",
          "name": "token",
          "type": "address"
        },
        {
          "internalType": "uint256",
          "name": "amount",
          "type": "uint256"
        }
      ],
      "name": "withdraw",
      "outputs": [],
      "stateMutability": "nonpayable",
      "type": "function"
    }
  ],
  "bytecode": "0x60806040523480156200001157600080fd5b5060405162001983380380620019838339810160408190526200003491620000f0565b60016000819055805460ff191690556001600160a01b0382166200006a5760405162d1be6360e61b815260040160405180910390fd5b6001600160a01b038116620000915760405162d1be6360e61b815260040160405180910390fd5b600780546001600160a01b039384166001600160a01b031991821617909155600a80549290931691811691909117909155600880549091163317905562000128565b80516001600160a01b0381168114620000eb57600080fd5b919050565b600080604083850312156200010457600080fd5b6200010f83620000d3565b91506200011f60208401620000d3565b90509250929050565b61184b80620001386000396000f3fe608060405234801561001057600080fd5b50600436106102115760003560e01c8063803db96d11610125578063d449300d116100ad578063f0d2d5a81161007c578063f0d2d5a814610449578063f2fde38b1461045c578063f3fef3a31461046f578063f5afb97914610482578063f6cad255146104a557600080fd5b8063d449300d146103ef578063e1f1c4a71461041a578063e252a65f14610423578063e30c39781461043657600080fd5b80639b8621d5116100f45780639b8621d514610380578063b18bf94414610389578063c99d3a061461039e578063ca5ce2ec146103b1578063cc218ece146103c457600080fd5b8063803db96d146103495780638456cb591461035c5780638da5cb5b1461036457806390a8ae9b1461037757600080fd5b80635224372c116101a85780635c975abb116101775780635c975abb146102ff5780636a2b92ed146103165780636c648fc41461029857806379ba5097146103415780637f3020c11461022b57600080fd5b80635224372c146102c757806354510b9d146102da5780635696b189146102ed5780635b72a33a146102f657600080fd5b80632630c12f116101e45780632630c12f1461026d578063293a5077146102985780633f4ba83a146102ac57806347e7ef24146102b457600080fd5b80630567d9e6146102165780630b4501fd1461022b5780631eee3aa31461024757806322867d781461025a575b600080fd5b61022961022436600461163f565b6104c8565b005b6102346101f481565b6040519081526020015b60405180910390f35b61023461025536600461165a565b61053d565b61022961026836600461168d565b61060f565b600754610280906001600160a01b031681565b6040516001600160a01b03909116815260200161023e565b6102346102a636600461163f565b50600090565b610229610761565b6102296102c236600461168d565b610796565b6102296102d53660046116b7565b610897565b6102346102e83660046116f3565b610b03565b61023461138881565b61023461032081565b60015460ff165b604051901515815260200161023e565b61023461032436600461165a565b600460209081526000928352604080842090915290825290205481565b610229610b71565b600a54610280906001600160a01b031681565b610229610bc3565b600854610280906001600160a01b031681565b610234613a9881565b6102346103e881565b61023461039736600461163f565b5060001990565b6102296103ac36600461163f565b610bf6565b6102296103bf3660046116f3565b610c42565b6102346103d236600461165a565b600260209081526000928352604080842090915290825290205481565b6102346103fd36600461165a565b600360209081526000928352604080842090915290825290205481565b61023461271081565b61022961043136600461163f565b610fd2565b600954610280906001600160a01b031681565b61022961045736600461163f565b61101e565b61022961046a36600461163f565b611093565b61022961047d36600461168d565b611106565b61030661049036600461163f565b60066020526000908152604090205460ff1681565b6103066104b336600461163f565b60056020526000908152604090205460ff1681565b6008546001600160a01b031633146104f35760405163fd0c790160e01b815260040160405180910390fd5b6001600160a01b0381166105195760405162d1be6360e61b815260040160405180910390fd5b6001600160a01b03166000908152600660205260409020805460ff19166001179055565b6001600160a01b038083166000908152600260209081526040808320938516835292905290812054808203610576576000915050610609565b6007546040516341976e0960e01b81526001600160a01b03858116600483015260009216906341976e0990602401602060405180830381865afa1580156105c1573d6000803e3d6000fd5b505050506040513d601f19601f820116820180604052508101906105e59190611736565b9050670de0b6b3a76400006105fa8284611765565b610604919061177c565b925050505b92915050565b610617611216565b61061f611240565b6106293383611264565b3360009081526003602090815260408083206001600160a01b03861684529091528120549081900361066e57604051634a2ff0cb60e11b815260040160405180910390fd5b8160000361068f576040516389ac5d2b60e01b815260040160405180910390fd5b600081831161069e57826106a0565b815b90506106b76001600160a01b038516333084611375565b6106c1818361179e565b3360009081526003602090815260408083206001600160a01b0389168452909152812082905503610711573360009081526004602090815260408083206001600160a01b03881684529091528120555b6040518181526001600160a01b0385169033907f0a3fbbea70e93f2daafa3102f5c9a1b8315e6d7a1e43e4bc020bc1162327470a9060200160405180910390a3505061075d6001600055565b5050565b6008546001600160a01b0316331461078c5760405163fd0c790160e01b815260040160405180910390fd5b6107946113e2565b565b61079e611216565b6107a6611240565b806000036107c7576040516389ac5d2b60e01b815260040160405180910390fd5b6001600160a01b03821660009081526005602052604090205460ff1661080057604051631311949b60e31b815260040160405180910390fd5b6108156001600160a01b038316333084611375565b3360009081526002602090815260408083206001600160a01b0386168452909152812080548392906108489084906117b1565b90915550506040518181526001600160a01b0383169033907ff1c0dd7e9b98bbff859029005ef89b127af049cd18df1a8d79f0b7e019911e569060200160405180910390a361075d6001600055565b61089f611216565b6108a7611240565b806000036108c8576040516389ac5d2b60e01b815260040160405180910390fd5b6001600160a01b03831660009081526005602052604090205460ff1661090157604051631311949b60e31b815260040160405180910390fd5b6001600160a01b03821660009081526006602052604090205460ff1661093a57604051631311949b60e31b815260040160405180910390fd5b6040516370a0823160e01b815230600482015281906001600160a01b038416906370a0823190602401602060405180830381865afa158015610980573d6000803e3d6000fd5b505050506040513d601f19601f820116820180604052508101906109a49190611736565b10156109c357604051631ad4bb2360e01b815260040160405180910390fd5b6109cd3383611264565b60006109d9338561053d565b905060006127106109ec61138884611765565b6109f6919061177c565b3360009081526003602090815260408083206001600160a01b038916845290915290205490915081610a2885836117b1565b1115610a4757604051634a5276d760e01b815260040160405180910390fd5b610a5184826117b1565b3360008181526003602090815260408083206001600160a01b038b1680855290835281842095909555838352600482528083208584529091529020429055610a9a919086611434565b846001600160a01b0316866001600160a01b0316336001600160a01b03167f9c9260125f1a087d9e46ee3dc78f1a4af18c5e00714012d9a35250d49391c4fe87604051610ae991815260200190565b60405180910390a4505050610afe6001600055565b505050565b600080610b10858561053d565b6001600160a01b038087166000908152600360209081526040808320938816835292905290812054919250819003610b4e5760001992505050610b6a565b80610b5b61271084611765565b610b65919061177c565b925050505b9392505050565b6009546001600160a01b03163314610b9c5760405163b3eb169b60e01b815260040160405180910390fd5b60098054600880546001600160a01b03199081166001600160a01b03841617909155169055565b6008546001600160a01b03163314610bee5760405163fd0c790160e01b815260040160405180910390fd5b610794611465565b6008546001600160a01b03163314610c215760405163fd0c790160e01b815260040160405180910390fd5b6001600160a01b03166000908152600560205260409020805460ff19169055565b610c4a611216565b610c52611240565b610c5c8382611264565b6000610c69848484610b03565b9050613a988110610c8d5760405163094e095360e41b815260040160405180910390fd5b6001600160a01b03808516600090815260036020908152604080832093861683529290529081205490819003610cd657604051634a2ff0cb60e11b815260040160405180910390fd5b6000612710610ce76103e884611765565b610cf1919061177c565b90506000610cff82846117b1565b6007546040516341976e0960e01b81526001600160a01b038981166004830152929350600092909116906341976e0990602401602060405180830381865afa158015610d4f573d6000803e3d6000fd5b505050506040513d601f19601f82011682018060405250810190610d739190611736565b6007546040516341976e0960e01b81526001600160a01b038981166004830152929350600092909116906341976e0990602401602060405180830381865afa158015610dc3573d6000803e3d6000fd5b505050506040513d601f19601f82011682018060405250810190610de79190611736565b9050600082610df68386611765565b610e00919061177c565b6001600160a01b03808c166000908152600260209081526040808320938e1683529290522054909150811115610e5857506001600160a01b03808a166000908152600260209081526040808320938c16835292905220545b6001600160a01b03808b1660008181526003602090815260408083208d861680855290835281842084905584845260048352818420908452825280832083905592825260028152828220938d1682529290925281208054839290610ebd90849061179e565b9091555060009050612710610ed46101f484611765565b610ede919061177c565b90506000612710610ef16101f485611765565b610efb919061177c565b9050600081610f0a848661179e565b610f14919061179e565b9050610f2a6001600160a01b038d163385611434565b600a54610f44906001600160a01b038e8116911684611434565b8015610f5e57610f5e6001600160a01b038d168e83611434565b8a6001600160a01b03168c6001600160a01b03168e6001600160a01b03167fd1ef587d13fefe63f9bc582e973aad46877ef08cfe790838721bd521c53caf568787604051610fb6929190918252602082015260400190565b60405180910390a450505050505050505050610afe6001600055565b6008546001600160a01b03163314610ffd5760405163fd0c790160e01b815260040160405180910390fd5b6001600160a01b03166000908152600660205260409020805460ff19169055565b6008546001600160a01b031633146110495760405163fd0c790160e01b815260040160405180910390fd5b6001600160a01b03811661106f5760405162d1be6360e61b815260040160405180910390fd5b6001600160a01b03166000908152600560205260409020805460ff19166001179055565b6008546001600160a01b031633146110be5760405163fd0c790160e01b815260040160405180910390fd5b6001600160a01b0381166110e45760405162d1be6360e61b815260040160405180910390fd5b600980546001600160a01b0319166001600160a01b0392909216919091179055565b61110e611216565b611116611240565b80600003611137576040516389ac5d2b60e01b815260040160405180910390fd5b3360009081526002602090815260408083206001600160a01b038616845290915290205481111561117b5760405163833a2b9b60e01b815260040160405180910390fd5b3360009081526002602090815260408083206001600160a01b0386168452909152812080548392906111ae90849061179e565b9091555060001990506111cb6001600160a01b0384163384611434565b6040518281526001600160a01b0384169033907f45892a46e6cef329bb642da6d69846d324db43d19008edc141ed82382eda1bee9060200160405180910390a35061075d6001600055565b60026000540361123957604051633ee5aeb560e01b815260040160405180910390fd5b6002600055565b60015460ff16156107945760405163d93c066560e01b815260040160405180910390fd5b6001600160a01b0380831660009081526004602090815260408083209385168352929052908120549081900361129957505050565b6001600160a01b038084166000908152600360209081526040808320938616835292905290812054908190036112cf5750505050565b60006112db834261179e565b9050603c8110156112ed575050505050565b60006112ff6127106301e13380611765565b8261130c61032086611765565b6113169190611765565b611320919061177c565b905061132c81846117b1565b6001600160a01b03968716600081815260036020908152604080832099909a16808352988152898220939093559081526004825287812096815295905250505091902042905550565b6040516001600160a01b0384811660248301528381166044830152606482018390526113dc9186918216906323b872dd906084015b604051602081830303815290604052915060e01b6020820180516001600160e01b0383818316178352505050506114a0565b50505050565b6113ea611508565b6001805460ff191690557f5db9ee0a495bf2e6ff9c91a7834c1ba4fdd244a5e8aa4e537bd38aeae4b073aa335b6040516001600160a01b03909116815260200160405180910390a1565b6040516001600160a01b03838116602483015260448201839052610afe91859182169063a9059cbb906064016113aa565b61146d611240565b6001805460ff1916811790557f62e78cea01bee320cd4e420270b5ea74000d11b0c9f74754ebdbfc544b05a25833611417565b60006114b56001600160a01b0384168361152b565b905080516000141580156114da5750808060200190518101906114d891906117c4565b155b15610afe57604051635274afe760e01b81526001600160a01b03841660048201526024015b60405180910390fd5b60015460ff1661079457604051638dfc202b60e01b815260040160405180910390fd5b6060610b6a8383600084600080856001600160a01b0316848660405161155191906117e6565b60006040518083038185875af1925050503d806000811461158e576040519150601f19603f3d011682016040523d82523d6000602084013e611593565b606091505b5091509150610b658683836060826115b3576115ae826115fa565b610b6a565b81511580156115ca57506001600160a01b0384163b155b156115f357604051639996b31560e01b81526001600160a01b03851660048201526024016114ff565b5080610b6a565b80511561160a5780518082602001fd5b604051630a12f52160e11b815260040160405180910390fd5b80356001600160a01b038116811461163a57600080fd5b919050565b60006020828403121561165157600080fd5b610b6a82611623565b6000806040838503121561166d57600080fd5b61167683611623565b915061168460208401611623565b90509250929050565b600080604083850312156116a057600080fd5b6116a983611623565b946020939093013593505050565b6000806000606084860312156116cc57600080fd5b6116d584611623565b92506116e360208501611623565b9150604084013590509250925092565b60008060006060848603121561170857600080fd5b61171184611623565b925061171f60208501611623565b915061172d60408501611623565b90509250925092565b60006020828403121561174857600080fd5b5051919050565b634e487b7160e01b600052601160045260246000fd5b80820281158282048414176106095761060961174f565b60008261179957634e487b7160e01b600052601260045260246000fd5b500490565b818103818111156106095761060961174f565b808201808211156106095761060961174f565b6000602082840312156117d657600080fd5b81518015158114610b6a57600080fd5b6000825160005b8181101561180757602081860181015185830152016117ed565b50600092019182525091905056fea26469706673582212207fa77d8b92a3c80b5c2e18ffd338f5aaed5914192bbaaee8f755c1430963181564736f6c63430008140033",
  "linkReferences": {},
  "deployedLinkReferences": {}
}