{
  "_format": "hh-sol-artifact-1",
  "contractName": "PriceOracle",
  "sourceName": "contracts/PriceOracle.sol",
  "abi": [
    {
      "inputs": [],
      "stateMutability": "nonpayable",
      "type": "constructor"
    },
    {
      "inputs": [
        {
          "internalType": "address",
          "name": "owner",
          "type": "address"
        }
      ],
      "name": "OwnableInvalidOwner",
      "type": "error"
    },
    {
      "inputs": [
        {
          "internalType": "address",
          "name": "account",
          "type": "address"
        }
      ],
      "name": "OwnableUnauthorizedAccount",
      "type": "error"
    },
    {
      "inputs": [],
      "name": "PriceOracle__OnlyOwner",
      "type": "error"
    },
    {
      "inputs": [],
      "name": "PriceOracle__PriceCannotBeZero",
      "type": "error"
    },
    {
      "inputs": [],
      "name": "PriceOracle__PriceChangeTooLarge",
      "type": "error"
    },
    {
      "inputs": [],
      "name": "PriceOracle__PriceNotSet",
      "type": "error"
    },
    {
      "inputs": [],
      "name": "PriceOracle__PriceOutOfBounds",
      "type": "error"
    },
    {
      "inputs": [],
      "name": "PriceOracle__UpdateTooFrequent",
      "type": "error"
    },
    {
      "anonymous": false,
      "inputs": [
        {
          "indexed": true,
          "internalType": "address",
          "name": "previousOwner",
          "type": "address"
        },
        {
          "indexed": true,
          "internalType": "address",
          "name": "newOwner",
          "type": "address"
        }
      ],
      "name": "OwnershipTransferred",
      "type": "event"
    },
    {
      "anonymous": false,
      "inputs": [
        {
          "indexed": true,
          "internalType": "address",
          "name": "token",
          "type": "address"
        },
        {
          "indexed": false,
          "internalType": "uint256",
          "name": "oldPrice",
          "type": "uint256"
        },
        {
          "indexed": false,
          "internalType": "uint256",
          "name": "newPrice",
          "type": "uint256"
        }
      ],
      "name": "PriceUpdated",
      "type": "event"
    },
    {
      "inputs": [],
      "name": "BASIS_POINTS",
      "outputs": [
        {
          "internalType": "uint256",
          "name": "",
          "type": "uint256"
        }
      ],
      "stateMutability": "view",
      "type": "function"
    },
    {
      "inputs": [],
      "name": "MAX_PRICE",
      "outputs": [
        {
          "internalType": "uint256",
          "name": "",
          "type": "uint256"
        }
      ],
      "stateMutability": "view",
      "type": "function"
    },
    {
      "inputs": [],
      "name": "MAX_PRICE_CHANGE",
      "outputs": [
        {
          "internalType": "uint256",
          "name": "",
          "type": "uint256"
        }
      ],
      "stateMutability": "view",
      "type": "function"
    },
    {
      "inputs": [],
      "name": "MIN_PRICE",
      "outputs": [
        {
          "internalType": "uint256",
          "name": "",
          "type": "uint256"
        }
      ],
      "stateMutability": "view",
      "type": "function"
    },
    {
      "inputs": [],
      "name": "PRICE_UPDATE_DELAY",
      "outputs": [
        {
          "internalType": "uint256",
          "name": "",
          "type": "uint256"
        }
      ],
      "stateMutability": "view",
      "type": "function"
    },
    {
      "inputs": [
        {
          "internalType": "address",
          "name": "token",
          "type": "address"
        },
        {
          "internalType": "uint256",
          "name": "price",
          "type": "uint256"
        }
      ],
      "name": "emergencySetPrice",
      "outputs": [],
      "stateMutability": "nonpayable",
      "type": "function"
    },
    {
      "inputs": [
        {
          "internalType": "address",
          "name": "token",
          "type": "address"
        }
      ],
      "name": "getPrice",
      "outputs": [
        {
          "internalType": "uint256",
          "name": "price",
          "type": "uint256"
        }
      ],
      "stateMutability": "view",
      "type": "function"
    },
    {
      "inputs": [],
      "name": "owner",
      "outputs": [
        {
          "internalType": "address",
          "name": "",
          "type": "address"
        }
      ],
      "stateMutability": "view",
      "type": "function"
    },
    {
      "inputs": [],
      "name": "renounceOwnership",
      "outputs": [],
      "stateMutability": "nonpayable",
      "type": "function"
    },
    {
      "inputs": [
        {
          "internalType": "address",
          "name": "token",
          "type": "address"
        },
        {
          "internalType": "uint256",
          "name": "price",
          "type": "uint256"
        }
      ],
      "name": "setPrice",
      "outputs": [],
      "stateMutability": "nonpayable",
      "type": "function"
    },
    {
      "inputs": [
        {
          "internalType": "address",
          "name": "newOwner",
          "type": "address"
        }
      ],
      "name": "transferOwnership",
      "outputs": [],
      "stateMutability": "nonpayable",
      "type": "function"
    }
  ],
  "bytecode": "0x608060405234801561001057600080fd5b50338061003757604051631e4fbdf760e01b81526000600482015260240160405180910390fd5b61004081610046565b50610096565b600080546001600160a01b038381166001600160a01b0319831681178455604051919092169283917f8be0079c531659141344cd1fd0a4f28419497f9722a3daafe3b4186f6b6457e09190a35050565b610611806100a56000396000f3fe608060405234801561001057600080fd5b50600436106100a85760003560e01c80636ef3bd92116100715780636ef3bd921461010e578063715018a6146101215780638da5cb5b14610129578063ad9f20a614610144578063e1f1c4a714610150578063f2fde38b1461015957600080fd5b8062e4768b146100ad57806301c11d96146100c25780632084bf9f146100e95780632e67af09146100f257806341976e09146100fb575b600080fd5b6100c06100bb366004610514565b61016c565b005b6100d66c0c9f2c9cd04674edea4000000081565b6040519081526020015b60405180910390f35b6100d661138881565b6100d6610e1081565b6100d661010936600461053e565b610361565b6100c061011c366004610514565b6103a0565b6100c0610429565b6000546040516001600160a01b0390911681526020016100e0565b6100d664e8d4a5100081565b6100d661271081565b6100c061016736600461053e565b61043d565b6000546001600160a01b0316331461019757604051635bbb09d760e11b815260040160405180910390fd5b806000036101b85760405163137007b760e21b815260040160405180910390fd5b64e8d4a510008110806101d757506c0c9f2c9cd04674edea4000000081115b156101f557604051631e6017f360e31b815260040160405180910390fd5b6001600160a01b038216600090815260026020526040902054156102f7576001600160a01b03821660009081526002602052604090205461023990610e1090610576565b4210156102595760405163962625a160e01b815260040160405180910390fd5b6001600160a01b03821660009081526001602052604090205480156102f5576000818311156102ab5781612710610290828661058f565b61029a91906105a2565b6102a491906105b9565b90506102d0565b816127106102b9858361058f565b6102c391906105a2565b6102cd91906105b9565b90505b6113888111156102f357604051636537cec560e01b815260040160405180910390fd5b505b505b6001600160a01b0382166000818152600160209081526040808320805490869055600283529281902042905580518381529182018590529192917fb556fac599c3c70efb9ab1fa725ecace6c81cc48d1455f886607def065f3e0c0910160405180910390a2505050565b6001600160a01b0381166000908152600160205260408120549081900361039b5760405163ec2e32b960e01b815260040160405180910390fd5b919050565b6000546001600160a01b031633146103cb57604051635bbb09d760e11b815260040160405180910390fd5b806000036103ec5760405163137007b760e21b815260040160405180910390fd5b64e8d4a5100081108061040b57506c0c9f2c9cd04674edea4000000081115b156102f757604051631e6017f360e31b815260040160405180910390fd5b610431610480565b61043b60006104ad565b565b610445610480565b6001600160a01b03811661047457604051631e4fbdf760e01b8152600060048201526024015b60405180910390fd5b61047d816104ad565b50565b6000546001600160a01b0316331461043b5760405163118cdaa760e01b815233600482015260240161046b565b600080546001600160a01b038381166001600160a01b0319831681178455604051919092169283917f8be0079c531659141344cd1fd0a4f28419497f9722a3daafe3b4186f6b6457e09190a35050565b80356001600160a01b038116811461039b57600080fd5b6000806040838503121561052757600080fd5b610530836104fd565b946020939093013593505050565b60006020828403121561055057600080fd5b610559826104fd565b9392505050565b634e487b7160e01b600052601160045260246000fd5b8082018082111561058957610589610560565b92915050565b8181038181111561058957610589610560565b808202811582820484141761058957610589610560565b6000826105d657634e487b7160e01b600052601260045260246000fd5b50049056fea26469706673582212205ec2d923d0681c162c5cf66392417d96e26ce37d43b0684b7d781962214e966764736f6c63430008140033",
  "linkReferences": {},
  "deployedLinkReferences": {}
}